:020000040800F2
:102000000020002001560008AB4B0008AD4B000833
:1020100000000000000000000000000000000000C0
:10202000000000000000000000000000AF4B0008AE
:102030000000000000000000B14B0008B34B000896
:10204000515600085156000851560008BB4B000875
:1020500051560008C34B000851560008515600085D
:1020600000000000CD4B0008D14B0008FD4B0008DC
:1020700051560008515600085156000851560008A4
:10208000515600085156000851560008354C0008BA
:1020900000000000954C00085156000851560008F9
:1020A000515600085156000851560008254D0008A9
:0C20B000294E00085156000800000000F6
:1020C00010B5064C2378002B07D1054B002B02D00E
:1020D000044800E000BF0123237010BD94010020DC
:1020E00000000000E4810008044B10B5002B03D071
:1020F0000349044800E000BF10BDC04600000000D6
:1021000098010020E48100080023C25C0133002A0A
:10211000FBD1581E7047000003B4714649084000C7
:102120004900095E49008E4403BC70470022430801
:102130008B4274D303098B425FD3030A8B4244D38F
:10214000030B8B4228D3030C8B420DD3FF220902D1
:1021500012BA030C8B4202D31212090265D0030B90
:102160008B4219D300E0090AC30B8B4201D3CB0386
:10217000C01A5241830B8B4201D38B03C01A5241C8
:10218000430B8B4201D34B03C01A5241030B8B42CA
:1021900001D30B03C01A5241C30A8B4201D3CB02B5
:1021A000C01A5241830A8B4201D38B02C01A52419A
:1021B000430A8B4201D34B02C01A5241030A8B429D
:1021C00001D30B02C01A5241CDD2C3098B4201D3B5
:1021D000CB01C01A524183098B4201D38B01C01A33
:1021E000524143098B4201D34B01C01A52410309AA
:1021F0008B4201D30B01C01A5241C3088B4201D359
:10220000CB00C01A524183088B4201D38B00C01A05
:10221000524143088B4201D34B00C01A5241411A2C
:1022200000D20146524110467047FFE701B5002039
:1022300000F0F0F802BDC0460029F7D076E77047FD
:1022400003460B437FD4002243088B4274D3030917
:102250008B425FD3030A8B4244D3030B8B4228D3B8
:10226000030C8B420DD3FF22090212BA030C8B42DE
:1022700002D31212090265D0030B8B4219D300E07E
:10228000090AC30B8B4201D3CB03C01A5241830B03
:102290008B4201D38B03C01A5241430B8B4201D3B3
:1022A0004B03C01A5241030B8B4201D30B03C01ADC
:1022B0005241C30A8B4201D3CB02C01A5241830A56
:1022C0008B4201D38B02C01A5241430A8B4201D385
:1022D0004B02C01A5241030A8B4201D30B02C01AAF
:1022E0005241CDD2C3098B4201D3CB01C01A524116
:1022F00083098B4201D38B01C01A524143098B429F
:1023000001D34B01C01A524103098B4201D30B0187
:10231000C01A5241C3088B4201D3CB00C01A5241AC
:1023200083088B4201D38B00C01A524143088B4271
:1023300001D34B00C01A5241411A00D2014652410A
:10234000104670475DE0CA0F00D04942031000D329
:102350004042534000229C4603098B422DD3030A7E
:102360008B4212D3FC22890112BA030A8B420CD38E
:10237000890192118B4208D3890192118B4204D3B7
:1023800089013AD0921100E08909C3098B4201D337
:10239000CB01C01A524183098B4201D38B01C01A71
:1023A000524143098B4201D34B01C01A52410309E8
:1023B0008B4201D30B01C01A5241C3088B4201D397
:1023C000CB00C01A524183088B4201D38B00C01A44
:1023D0005241D9D243088B4201D34B00C01A52411B
:1023E000411A00D20146634652415B10104601D3A8
:1023F0004042002B00D54942704763465B1000D332
:10240000404201B5002000F005F802BD0029F8D0D7
:1024100016E770477047C04670B500220C4B0400A9
:102420000D0001F033FA002804D12000290001F04A
:102430008FF970BD064B00222000290000F0ECFD52
:1024400001F086F980231B069C466044F1E7C046F4
:102450000000E041F0B5DE46454657464E46E0B541
:1024600087B0009201930B031B0B9B46CA0F4B00D6
:10247000040080465B0D029200D16AE1D44A934287
:1024800000D18CE15946420FC9000A43802109045A
:102490001143C2009046CF4A894692469A4400238F
:1024A00000240393009E019F3B031B0B9B467B0074
:1024B00030005B0DFD0F002B00D128E1C44A934290
:1024C00000D177E15946720FC9000A4380210904FF
:1024D00011438B46BF49F2008C4651466344CB1AE8
:1024E0009A460023029E6E400F2C27D8BA49A400BA
:1024F00009598F46CB464246029E039B022B16D0BB
:10250000032B00D1A6E2012B00D0DFE00022002344
:10251000002490461B052343F60733434046190029
:1025200007B0F0BCBB46B246A946A046F0BD0022AB
:1025300000249046A64BEDE72E00DFE7CB4500D206
:10254000D4E100D1CFE101235B429C46444648469A
:102550000027E2445B46150E1B021D43190C2B0499
:10256000120200951D0C914602910395FFF764FE3F
:1025700002006A430B04210C804619438A4209D9A0
:10258000009D0123AC465B4261449C46E0448D4281
:1025900000D8FBE1881A0299FFF74EFE039A240443
:1025A00042430904240C03000C43A24206D90099BB
:1025B000013B8C466444A14200D8E1E1A01A4246A6
:1025C00012041A4393464B4659461B0C1D000493B4
:1025D0000B0449460904090C0C001B0C5C43120C4B
:1025E0006B43884651436A43250CAC465B186344F1
:1025F000994203D9802149028C466244190C240473
:102600001B04240C8A181C19904202D316D1A7422D
:1026100014D25B46009D013B4F4405934F459B41BF
:10262000AC465B426344C018854200D3A1E18242BC
:1026300000D9F6E100D1F1E1059B9B463C1BA74286
:10264000BF41009D801A7F42C01B854200D1D0E16E
:102650000299FFF7F1FD039A0B044243210C070096
:1026600019438A4200D978E1881A0299FFF7E4FDFC
:10267000039A240442430904240C03000C43A2429D
:1026800000D95DE14146A41A3A041A43049D13049B
:102690001B0C594347466B439C46100C47430B0C9D
:1026A000BC44634468439F4203D980256D02AC4615
:1026B00060441F0C09041B04090C3F185B18BC4242
:1026C00000D202E100D1FDE001231A43434B534401
:1026D000002B00DCAEE0510700D098E15946C9015B
:1026E00006D559463E4B194080238B46DB005344A8
:1026F0003C498B4200DD1AE75946D208490711438D
:102700005A465B0554028846240B5B0D02E75A4685
:10271000009B1A4300D17EE05B46002B00D100E114
:10272000584601F0BDF8020003000B3A1D27009E39
:10273000BA1A19005846D640083988403200024378
:102740009346009A8A40284953448A469A44002373
:10275000C8E65B460343994656D05B46002B00D142
:10276000CDE0584601F09CF80B235B429C460200EA
:10277000844466461D239B1B260011005846DE40FC
:102780000839884033000343994623008B4098461C
:10279000164B00249B1A9A460023039382E65A465E
:1027A000024391462AD100229A46022390460824E9
:1027B000039377E65A46009B1A430D4B9C46E2442E
:1027C000002A17D102231C4300239B46023389E6CB
:1027D000FF07000001FCFFFF14820008FF03000058
:1027E000FFFFFFFEFE070000F30300000DFCFFFFEC
:1027F00001F8FFFF032332001C4373E69A460323CC
:10280000D9460C2403934DE6002398469A4601339B
:102810000424039346E601231C4300239B46013313
:1028200060E60023802498460026924B240371E63C
:10283000012252420121C91A382900DD66E61F290A
:1028400000DCABE01F204042C31A5846D8400300CA
:10285000202904D058468849514488400243511EDB
:102860008A411A43072319000024114013420CD057
:102870000F231340042B00D1F9E0111D91429B411D
:102880000A005B4259075B021C0BD2080A439046C0
:1028900000233FE680244B462403234209D05B46B5
:1028A000234206D11C4324032E009046714B240B77
:1028B00030E680244B4624031C432403029E6D4BC8
:1028C000240B27E6002B00D100E70098511E844618
:1028D0006444844200D284E0BC4200D2AEE000D125
:1028E000C1E00A00F0E6424500D92CE64B46DC0781
:1028F000580843465B081C434346DF072AE600F0BE
:10290000CFFF15239C4684440200634620321C2BD3
:1029100000DC2EE7230008388340994600239846C0
:1029200036E700F0BDFF02000300153220331C2AF9
:1029300000DCFBE600990838814000228B4602E764
:102940000099013B8C466444A14200D99AE6A24218
:1029500000D897E6831E644494E6AC466144013F88
:102960008D4200D980E68A4200D87DE6871E614408
:102970007AE6854200D05FE6B94500D95CE656E6C6
:10298000A24200D81AE6831E644417E68A4200D8A1
:1029900000E6AC46831E98466144FBE537481400C8
:1029A000504482405B4617008340CC407A1E9741DA
:1029B00023433B431A005B46CB40510709D00F210C
:1029C0001140042905D0111D9142924152429B1899
:1029D0000A00190200D455E7002201230024904682
:1029E00098E50A00BC4200D06EE64B4500D06BE68D
:1029F0006CE6234B234A5344924500DA18E7012141
:102A000049420A1D8A42894149428B4466E60F21A8
:102A10001140042900D161E61100F2E7BC4200D860
:102A20000AE602235B429C4600994F444F459B4176
:102A3000E3448C465B426344C018FFE54946009D71
:102A4000480048458941AC46494261448146023AC2
:102A50006418C7E780245B4624031C432403904684
:102A6000044B240B56E59945E8D30A00BDE7002343
:102A700008E7C046FF0700003E0400001E040000F7
:102A8000FF03000002FCFFFFF0B55746DE464E464E
:102A90004546E0B51F000B031B0B16009A46CA0FF4
:102AA0004B000400934687B05B0D00D1D5E0BB4AD4
:102AB000934200D1F8E05146420FC9000A438021F9
:102AC00009041143C2009146B54A8A469D18002365
:102AD000984602933C037B00FA0F3000240B5B0DF9
:102AE000009200D196E0AD4A934231D0720FE400DB
:102AF0002243802424041443A94AF00094466344EA
:102B00005B195A1C0192424600260A2A42DC5A46A8
:102B100000994A4093464246022A32DC013A012A91
:102B200000D949E1022E00D1CAE0012E3DD1002397
:102B30000024002210005A461B052343D2071343EA
:102B4000190007B0F0BCBB46B246A946A046F0BD8E
:102B5000924B2643EB18002E00D1BBE003224146E6
:102B600011435A46884600994A40802109018C4603
:102B700029006144019141460A2900DD33E2934670
:102B80000326424601279740A6213A00C9000A4081
:102B90000F4231D0029E022E00D135E2032E00D129
:102BA000D2E154464846012EC1D0019A7D4B94464D
:102BB0006344002B00DCC0E0420709D00F22024032
:102BC000042A05D0021D8242804140422418100090
:102BD000E20106D5744B019A1C4080239446DB0029
:102BE0006344724A93426BDC6207C00864025B056F
:102BF0000243240B5B0D9DE7902189000F4263D1B6
:102C000088223A4200D1D7E0009BA2469B468146EB
:102C10000296BFE72300334300D17FE0002C00D1B0
:102C2000ADE1200000F03CFE020003000B3A1D2045
:102C30001900821A30000839D0408C40044330001B
:102C400088405B4AEB1A944663445A1C0192424600
:102C500000260A2A00DC5AE79CE7534603439946BC
:102C600054D05346002B00D177E1504600F018FEB7
:102C70000B235B429C4602008444110050460839F5
:102C800088401D23804660461B1A2000D840030060
:102C9000404603439A4623008B4099460023444D07
:102CA0009846AD1A029315E752460243914626D143
:102CB00000221D000223924608329046029309E743
:102CC00000240022354B35E7002380249B46240353
:102CD000324B2FE7022241461143802212019446D3
:102CE0002A006244884601920A2900DD52E75A46CA
:102CF0000020009904004A40934602260BE70C226C
:102D00001D000323814690460293E3E600239A4682
:102D100004339846033B00250293DBE64246013329
:102D20001A432B0090465A1C019242460024002070
:102D300001260A2A00DCEAE62CE70122D21A382A08
:102D400000DDF4E61F2A00DC2AE11F214942CB1AEC
:102D50002100D9400B00202A05D0164A019D944637
:102D60006544AC402043421E90411843072319009C
:102D70000024014003420CD00F230340042B00D158
:102D800040E1031D8342A4411800644261076402CC
:102D9000240BC20800230A43CCE6C046FF0700000C
:102DA00001FCFFFFFF030000FFFFFFFEFE07000026
:102DB0000DFCFFFF3E04000049464A460904090C89
:102DC0000D00160C020C0004000C4543AC46050037
:102DD0007543A84615000F007543009202952A001E
:102DE000009D6F4365462D0CA94647444F44B845A6
:102DF00005D91500802252029046454402953D0CAB
:102E0000039565462D043F042D0CAC463D006544FA
:102E10000495250C2404240CAC4625007543A846D3
:102E200065460F006943414489466743390C49446C
:102E30006E43884503D980225202904646440D0CC9
:102E4000A846350045440595039D3F04A8463F0C20
:102E50000904C91988444546039555462E04360C85
:102E60002F0C35004543784381463800A8462D0C89
:102E7000AA46009A504372434A445244914503D9AA
:102E800080256D02A9464844150CA94645462D04E7
:102E90002D0CA84665467D43120448449044A9463B
:102EA0003200654662436E437C43170C3619BF19E6
:102EB000BC4203D980246402A446E144029C039EE0
:102EC000A446059D66448E428941AC4612043C04EA
:102ED000120CA2186244494254184644A44646457E
:102EE000A44182466442A046AA4292418C4589414F
:102EF000E244D044494252420A43A045A44182459B
:102F00008941644249420C4341463F0CD21912198F
:102F1000CC0D049970020843411E884141464A4441
:102F2000F60D52023043490214430843D20135D50D
:102F30000122430802401343E0071843640834E6C3
:102F4000009BA2469B4681468024534624031C4393
:102F500024034A462E4B240BECE500F0A1FC15237C
:102F60009C4684440200634620321C2B00DC84E62D
:102F7000002399462300083883409A468EE600F0E5
:102F80008FFC02000300153220331C2A00DC4EE6C1
:102F900002003400083A0020944052E6019304E60F
:102FA0001C4B21009C460300019DD3406544A94071
:102FB00019430300AB40581E834119430800D44015
:102FC0004B0709D00F230B40042B05D00B1D8B4260
:102FD0008041404224181800230200D4D6E6012381
:102FE00000240022A6E50F29AAD1802352461B0304
:102FF0001A42A9D01C42A7D11C43009B02009B4649
:10300000034B97E50024C1E60024014B220091E523
:10301000FF0700001E040000F0B54E464546DE46A0
:103020005746E0B585B0009001910C034F00CE0FDC
:10303000610A009CB046640F0C4300997F0DC800E4
:1030400011001A001B039C460091019251004B0D88
:103050009946019B009DD90F63466A0F5B0A134393
:10306000EA0094469346C14A03900293914500D1E9
:10307000CDE0012569404D467D1BAA468E4200D118
:1030800080E0002D00DC35E34946002900D1DFE077
:10309000974200D194E152460125382A19DC80225A
:1030A000029B12041343029352461F2A00DDE3E100
:1030B000534620226146029DD21A9540D9400D43C5
:1030C000614691400A00511E8A411543029ADA4036
:1030D000A41A451BA84280414042241A230200D46E
:1030E0003DE16402640A002C00D147E1200000F0B9
:1030F000D7FB0300083B20212800CA1AD0409C407F
:1031000002009D4022439F4200DD77E1D81B013041
:10311000091A2C008D40C4406B1E9D411300C24013
:103120008B402543002714001D436B0709D00F2354
:103130002B40042B05D02B1DAB42AD416D426419D1
:103140001D00230200D440E1884A0137974200D194
:1031500001E1012643468649ED0821404A072A43FA
:103160007C054D022D0B640D1E4024052C43F607F3
:1031700034431000210005B0F0BCBB46B246A9465E
:10318000A046F0BD002D00DCD0E24946002900D069
:10319000D4E06146029B194300D12BE1691E012D49
:1031A00000D1D9E1954200D10AE10125382917DC87
:1031B0008A4653461F2B00DDE7E12022D21A029BEC
:1031C000614693401D005346D940634693401A0020
:1031D0000D43511E8A4153461543029ADA40A41802
:1031E0002D188542804140422418230200D4B6E0C5
:1031F0005E4B01379F4200D1ADE001215C4B6A0874
:103200001C4029400A43E507154364088DE7594AE5
:10321000029B92466246BA441A432CD08E422ED06C
:103220005246002A60D0002F00D1DBE063460E003A
:10323000029CD80862070243E4081300234300D12C
:1032400054E280252D0325432D03484C2D0B8CE79C
:103250006146029B194300D1CCE029000139012DC0
:1032600000D188E1954200D1AAE00125382900DD8E
:103270002FE78A4618E7012251408E42D0D15346AB
:10328000002B00D1BEE0002F00D038E1CA4622005A
:10329000024300D1E2E15346591E012B00D10DE259
:1032A000324A924500D1D2E10127382913DC1F2987
:1032B00000DDEEE12022029B521A250007009A460B
:1032C000CC4090409540CF40A244421E904153468E
:1032D0002F43074302933D00654465459241029B9D
:1032E00052424F46D41880E7234A7D1C154200D035
:1032F000AAE062462500029B05431A43002F00D036
:10330000F5E0002D00D16BE1002A00D152E16346C7
:10331000C51A029BE21AA8429B415B42D31A1A02C9
:1033200000D4D5E163461D1AAC4592410126029BAB
:1033300052421C1B8846A41A0E40F6E697423FD024
:1033400052460125382A00DD4AE78022029B1204FA
:10335000134302932DE73C000025002205E70723D5
:103360002B40002B00D0E2E66BE0C046FF070000D8
:10337000FFFF7FFF01F8FFFFFE070000280000F0BD
:103380008FFA030018331F2B00DCB4E62A0008383C
:1033900082409F4200DDB9E0DB1B581C1F2800DC87
:1033A000A0E115001F3BDD40202805D040231B1A5B
:1033B0009A40531E9A411543072300272B40D0E71C
:1033C000C00862070243E40837E7EA0863071A43C4
:1033D000D34BE4089F4200D12FE72403250B7C0543
:1033E000640DC2E6CA462200024358D163460E006D
:1033F000029C0393039B5746DA08E7E7C94CFF1A80
:10340000144092E6C84D7A1C2A4200D084E0220083
:103410000243002F00D0EFE0002A00D1E5E0624631
:1034200002990A4300D1C5E06346C5188C4685421F
:103430008041644440422418230202D5B94B01372D
:103440001C40BA460395D5E76246851AA8429241C8
:1034500052429146029BE31A1A004B46D21A1300BD
:1034600091461A026CD44A464C462A4300D03AE6AA
:1034700000260024002578E6029953460D00203AE4
:10348000D540202B06D04022D21A0B009340624632
:103490001A4393465B465A1E93411D4319E6534611
:1034A0005A1E012B00D1C6E09D4EB24500D1BDE6AB
:1034B00088460E000125382A10DC1F2A7FDC2021D7
:1034C0002500891A070088408D40D740D440411E0E
:1034D0008841029B3D431B1B054302936246551BDB
:1034E000AC459241029B52424F469C1AF6E5002D94
:1034F00000D0B7E0002A00D1F0E001260E4063467C
:103500000298D90842070A43C40896E6854CFF1A78
:1035100014406207E40860E781498A4200D1C9E0AB
:103520006346C11881428041029B4042E3181B1848
:10353000DD075C08072349080D4317002B4010E7FF
:1035400063461D1AAC4592410126029B52421C1B48
:103550008846A41A0E40C6E56346C518029B8542FC
:1035600080419C464042644424180127230200D431
:10357000F5E6022741E66346C51AA8428041029B50
:103580004042E41A0127241AA8E5029D52462B0066
:10359000203AD34019005346202B06D04022D21A9D
:1035A0002B00934062461A4393465D466B1E9D4135
:1035B0000D4315E66207C0080243E4080DE7110059
:1035C00027002039CF40202A05D040218A1A944074
:1035D000250005430395039D6A1E95413D437DE704
:1035E000002A00D144E701260E406346D908029B19
:1035F0005A070A43DC08F0E6002A28D06246029FF8
:10360000C0083A4300D1DCE6620710438022E40898
:103610001203144209D0FD08154206D16346012663
:103620002C00D8087B0718430E40420FC000C0088A
:103630005207024301E663461D1AAC459241029BC4
:1036400052421C1B0E0088460127A41A46E5634619
:10365000D908029B5A070A43DC08EEE56346029C40
:103660000393C7E6C008002A00D1AAE66207104308
:103670008022E40812031442D7D0029FFD081542AD
:10368000D3D163460126D8087B072C0018430E408F
:10369000CBE70A002700203AD740202905D0402256
:1036A000521A9440250005430395039D6A1E9541D7
:1036B0002F4310E614000025002256E5029B6044CB
:1036C0009946604592414C4452420500A4184CE78B
:1036D0001A001C002A4300D0B3E6C9E68024002665
:1036E0002403AEE520210025091A17E50022002554
:1036F0000B4C3AE5002D00D1F6E54B46DA1B92461D
:10370000002F00D16FE6382A05DC802636043443CA
:1037100088460E00D1E688460E000125DEE6C0464A
:10372000FF070000FFFF7FFFFE070000002D00D114
:1037300068E64B46D91B002F01D18A46A7E5012731
:10374000382900DDC7E5802212041443AFE5C046E6
:103750000B00020070B5164D0C0382B0490000202A
:1037600000920193240B490DDE0FA94204DD11489C
:10377000814203DD104BF01802B070BD8020400381
:1037800020430E4C641A1F2C08DD0D4B5B1AD840E9
:1037900003005842002EEFD11800EDE7094B009AC4
:1037A0009C46030061448B40E2401343F1E7C0466E
:1037B000FE0300001D040000FFFFFF7F3304000034
:1037C00013040000EDFBFFFF70B5002816D0C317EF
:1037D000C5185D40C40F280000F062F8104B1B1A9A
:1037E0005B055B0D0A2814DC02002E0015329640A2
:1037F0000B22121AD5402D032D0B03E000240023C9
:10380000002500261B052B43E40723433000190045
:1038100070BD0B3885402D0300262D0BF2E7C04606
:103820001E0400008446100062468C461900634660
:1038300000E0C0461FB500F009F9002801D40021BE
:10384000C8421FBD10B500F049F84042013010BD1C
:1038500010B500F0FBF8002801DB002010BD0120AE
:1038600010BDC04610B500F0F1F8002801DD0020C1
:1038700010BD012010BDC04610B500F073F800283F
:1038800001DC002010BD012010BDC04610B500F0C5
:1038900069F8002801DA002010BD012010BDC046E3
:1038A0001C2101231B04984201D3000C10391B0A70
:1038B000984201D3000A08391B09984201D3000934
:1038C000043902A2105C40187047C046040302028B
:1038D000010101010000000000000000F0B55746A2
:1038E000DE464E464546E0B50D000400E80F83462F
:1038F0000903D80F090B824619488C461F0369003B
:103900005E00490D3F0B760D814218D086420FD0E4
:103910000120B1420DD1BC450BD1944209D1D34510
:103920001CD0002905D160462043431E984100E089
:103930000120F0BCBB46B246A946A046F0BD01201E
:103940008E42F6D1614639430F0017432743F0D129
:103950005B465246981A431E9841EAE70020E8E782
:10396000FF070000F0B557464E464546DE46E0B537
:103970000D000F03390B83B00400804601915800FD
:10398000E90F314F400D8C466E0019038246914677
:10399000760D090BD80FBE421FD0BA450FD0002EAE
:1039A0002FD15546019E3443002D27D10A433AD0EA
:1039B000002C45D100281AD10120404217E01143C4
:1039C0003BD1002E02D1019F2743F3D0844509D17A
:1039D0006346002BF0D0604609E0019F27432CD1BD
:1039E000B24524D063460220013B1840013803B0A1
:1039F000F0BCBB46B246A946A046F0BD002CD9D0CB
:103A0000E4E75446002CEDD08445EBD15645E9DC83
:103A1000DEDB019B8B42E5D8DAD1C845E2D8002035
:103A2000C845E4D2D4E70020002CE0D0DAE7114307
:103A300003D18445D6D10020D9E702204042D6E701
:103A40008445E6D0CEE7C046FF070000F0B55746F4
:103A50004E464546DE46E0B50D000F0304008046A5
:103A6000E80F390B844683B05800304F400D019168
:103A70001E03690082469146490D360BD80FB942A4
:103A800020D0BA450FD000292BD101990C435146C3
:103A9000002937D1324338D0002C44D1002819D125
:103AA0000120404216E0164313D1002902D1019FA4
:103AB0002743F3D0844520D063460220013B1840C1
:103AC000013807E0019F274303D18A45F4D116430B
:103AD0001FD0022003B0F0BCBB46B246A946A046A8
:103AE000F0BD5446002CE7D08445E5D15145E3DCD8
:103AF00003DB019BB342DFD80FD06346002BCFD04E
:103B00006046E7E7002CC9D0D4E70020002CE1D0C4
:103B1000D2E78445D0D10020DCE7C845CCD80020CE
:103B2000C845D7D2E9E78445E3D0C5E7FF070000E1
:103B3000BFF34F8F034B044ADA60BFF34F8FC04689
:103B4000FDE7C04600ED00E00400FA0500B587B0CF
:103B50001422002101A803F06DFF094A516B0123D3
:103B600019435163526B1A400092009AC02201928D
:103B7000039301A9034802F0D3FE07B000BDC0467D
:103B8000001002400004005010B5064803785A1C8B
:103B9000D2B202700449AA24CC54023303705523D4
:103BA0008B5410BDB0010020B401002010B50648B0
:103BB00003785A1CD2B2027004495524CC54023303
:103BC0000370AA238B5410BDB0010020B401002063
:103BD0000378AA2B01D0002070474378552B01D0E1
:103BE0000020F9E74318013B1B78AA2B01D00020E5
:103BF000F2E7401802380378552B01D00020EBE79C
:103C00000120E9E730B50339455C0022002105E0D9
:103C100083181B795918C9B2013292B2C3781B02BA
:103C200084782343013B9A42F2DBA94201D0002071
:103C300030BD0120FCE770B505000C0004290DD94A
:103C4000FFF7C6FF012801D0002070BD2100280029
:103C5000FFF7D8FF0128F8D00020F6E70020F4E7AE
:103C600010B504000023002004E0E25C1018C0B28C
:103C700001339BB28B42F8D310BD10B501F090FC1C
:103C800010BD10B501F0A4FC10BD000010B5837983
:103C900001338371C3790133C371054B1B78012B49
:103CA00002D0FFF7EEFF10BDFFF7E7FFFBE7C046CE
:103CB000E300002010B5FFF7E0FF10BD10B5FFF7DF
:103CC000DCFF10BD10B502480921FFF7D6FF10BD7B
:103CD000E800002010B5054B187802300321FEF7EC
:103CE00095FB034B01225A5410BDC046B80F00206B
:103CF000BC0F002010B5104B1B78DAB2002B19D185
:103D00000E4B002119700C4B013119700BE00B495F
:103D10000B78DCB20133DBB20B7083185979084B96
:103D200019550132D2B2C3781B0281780B43023B92
:103D30009A42ECDB10BDC046B2050020B30500205E
:103D4000B405002010B50379013B0371CA1E835CE2
:103D5000013B8354FFF795FF10BD10B50379013384
:103D60000371CA1E835C01338354FFF786FF10BDC5
:103D7000F0B5C64600B580460F0016001E4C002365
:103D80002370D51CADB2FFF7FFFE23785A1CD2B2C8
:103D900022701A49CD54981CC0B220702D0A8D543F
:103DA000DA1CD2B2227001250D540433237043462D
:103DB0008B54002308E0104C2078421C2270FD5CDC
:103DC0000E4C25540133DBB2B342F4D30A4E35789E
:103DD000291F89B20A4C2000FFF742FF043C6055BE
:103DE00001353570FFF7E2FE31782000FFF745FF1F
:103DF00080BCB846F0BDC046B0010020B401002030
:103E0000B801002010B503490122F920FFF7B0FFE7
:103E100010BDC046B105002010B503490122FA20AB
:103E2000FFF7A6FF10BDC046E200002010B5034911
:103E30000222FB20FFF79CFF10BDC046E0000020DF
:103E400030B583B06B46DD1DD87101F0EDFC040088
:103E50002B78862B01D003B030BD01222900FF2032
:103E6000FFF786FF0A2001F0E5FC1A4D280003F059
:103E700057FC2B68012293432B60EFF3108182F3F0
:103E800010882B681F3293432B6081F31088FFF753
:103E90005DFE06E001F0C8FC001BFA229200904291
:103EA0000BD840210C4802F0F5FD0028F2D180210A
:103EB000094802F0EFFD0028ECD101F0B5FC001B31
:103EC000FA239B00984203D901F02EF9FFF730FE48
:103ED000FFF72EFE003801400004005010B51C0012
:103EE000431A0298001B5843511AFEF7A9F900190A
:103EF000844203DC029B834202DB0400200010BDED
:103F0000029CFBE7F0B583B002F0AAF8002414E0AD
:103F1000574BA200D25892B2564B6100CA52C85AAF
:103F200080B2FF2300930023534A0021FFF7D6FFFE
:103F3000C0B2524B18550134E4B2012CE8D94D4BB4
:103F40001B889BB24E4A5488A34241D8494F3888B7
:103F500080B21588002600964A4B22002900FFF700
:103F6000BDFF00B2484B1880388880B27F2300968E
:103F70005B4222002900FFF7B1FF40B2434B1870AB
:103F80003C4B5B889BB23E4A5489A34248D8394F88
:103F9000788880B21589002600963A4B22002900C5
:103FA000FFF79CFF00B2384B5880788880B27F239F
:103FB00000965B4222002900FFF790FF40B2334B8E
:103FC00058702B493248022201F0A2FF03B0F0BD25
:103FD000284B1B889BB22A4A9488A3421AD3254EA9
:103FE000308880B2D5882B4B009300232A00210013
:103FF000FFF774FF00B2244B1880308880B27F2313
:10400000009300232A002100FFF768FF40B21F4BF6
:104010001870B5E71C4B00221A801C4B1A70AFE7D2
:10402000144B5B889BB2164A9489A3421AD3114E53
:10403000708880B2D589174B009300232A00210095
:10404000FFF74CFF00B2104B5880708880B27F237E
:10405000009300232A002100FFF740FF40B20B4BE2
:104060005870AEE7084B00225A80084B5A70A8E7F8
:10407000BC040020C8040020FFFF0000C40400208E
:10408000C000002001F0FFFFB8040020B4040020AD
:104090004C050020FF0F000010B5054C200002F079
:1040A00021F804490222200001F032FF10BDC04671
:1040B0004C050020BC04002010B50A4C00232370DE
:1040C000094B1A8892B25B889BB20849200003F022
:1040D00091FC2000FEF718F881B2200001F060FA90
:1040E00010BDC046B4030020C8040020548200085C
:1040F00010B50A4C00232370094B1A78D2B25B78B2
:10410000DBB20849200003F075FC2000FDF7FCFF3E
:1041100081B2200001F044FA10BDC046B403002073
:10412000C40400207082000830B585B0124B002214
:104130001A70124A31CA31C3190013780B70002467
:104140000DE00F4B6200D25A92B20E4901A803F063
:1041500051FC094801A903F075FC0134E4B2072CB5
:10416000EFD9054C2000FDF7CFFF81B2200001F010
:1041700017FA05B030BDC046B40300208C82000899
:10418000D00000209C82000870B50F4B00221A70EE
:10419000102911D00C4A0D4B11CB11C211001A88F5
:1041A0000A809B788B70084C2000FDF7ADFF81B230
:1041B000200001F0F5F970BD1A00054B31CB31C27A
:1041C0001B781370EFE7C046B4030020B0820008EC
:1041D000A082000810B50A4C00232370094B1A88EE
:1041E00012B25B881BB20849200003F003FC2000D8
:1041F000FDF78AFF81B2200001F0D2F910BDC04660
:10420000B4030020B8040020BC82000810B50A4C9A
:1042100000232370094B1A7852B25B785BB20849CD
:10422000200003F0E7FB2000FDF76EFF81B22000C5
:1042300001F0B6F910BDC046B4030020B40400205C
:10424000E482000870B5084C00232370074B22005D
:1042500023CB23C21B8813802000FDF755FF81B2BA
:10426000200001F09DF970BDB40300200C8300080C
:1042700010B5012800D010BD01F0D6FA054B1B681F
:10428000C01A9628F7D901F0CFFA024B1860FFF751
:10429000D9FFF0E7CC04002000B587B0142200213C
:1042A00001A803F0C7FB80235B000193FF3B02934F
:1042B0000493A02001A9C00502F032FB07B000BDA5
:1042C00000234DE0A022D205802149009161C04623
:1042D000C046C046C046C046C046C046C046C046AE
:1042E000C046C046C046C046C046C046C046C0469E
:1042F0009162C046C046C046C046C046C046C046A1
:10430000C046C046C046C046C046C046C046C0467D
:10431000C046C046C046C046C046C046C046C0466D
:10432000C046C046C046C046C046C046C046C0465D
:10433000C046C046C046C046C046C046C046C0464D
:10434000C046C046C046C046C046C046C046C0463D
:10435000C046C046C046C046C046C0460133DBB278
:10436000172B00D955E01721C91A01228A401042A3
:1043700000D1A7E7A022D205802149009161C04663
:10438000C046C046C046C046C046C046C046C046FD
:10439000C046C046C046C046C046C046C046C046ED
:1043A000C046C046C046C046C046C046C046C046DD
:1043B000C046C046C046C046C046C046C046C046CD
:1043C000C046C046C0469162C046C046C046C046D0
:1043D000C046C046C046C046C046C046C046C046AD
:1043E000C046C046C046C046C046C046C046C0469D
:1043F000C046C046C046C046C046C046C046C0468D
:10440000C046C046C046C046C046C046C046C0467C
:10441000A4E77047024B80001B6819507047C046E4
:10442000E804002010B572B6002407E01B4BA20080
:104430001B689858FFF744FF0134E4B2184B1B780F
:10444000A342F3D862B6002325E0C046C046C0466A
:10445000C046C046C046C046C046C046C046C0462C
:10446000C046C046C046C046C046C046C046C0461C
:10447000C046C046C046C046C046C046C046C0460C
:10448000C046C046C046C046C046C046C046C046FC
:10449000C0460133DBB2842BD7D910BDE80400201D
:1044A000EC040020F0B583B001AB164A12881A80E4
:1044B00000229A70002619E0134B9F5D134B187869
:1044C000C0B2FFF781F90022114BFDF7C3FF0400D2
:1044D0000D003800FFF778F922002B00FEF7D4FA20
:1044E000FDF79AFF01AB98550136F6B2022EE3D9DB
:1044F00001AB98781A78120210435B781B041843BA
:1045000003B0F0BD10820008D0040020B0050020E8
:104510000000594010B5FFF7BFFE002325E0C0465C
:10452000C046C046C046C046C046C046C046C0465B
:10453000C046C046C046C046C046C046C046C0464B
:10454000C046C046C046C046C046C046C046C0463B
:10455000C046C046C046C046C046C046C046C0462B
:10456000C046C046C0460133DBB2842BD7D90421F4
:10457000012003F055F9034B1860034B01221A7018
:1045800010BDC046E8040020EC04002010B503294B
:104590000BD0134B00221A700121197011490A70B7
:1045A00001322020FFF7E4FB10BD02780E4B1A7099
:1045B00042785A7082789A70FFF774FF01000020E9
:1045C000FFF728FFFFF72EFF054B00221A7001327C
:1045D0001A7004490A702020FFF7CAFBE4E7C046BE
:1045E000D3040020D4040020D004002010B50349D7
:1045F00003222120FFF7BCFB10BDC046D0040020E1
:1046000010B5154B1B78DBB2642B18D8124B187001
:104610001878C0B201F0A2F8FFF744FF01000020B3
:10462000FFF7F8FEFFF7FEFE0C4B00221A70013276
:104630001A700B490A702220FFF79AFB10BD074B36
:1046400000221A700121197005490A7001322220D6
:10465000FFF78EFBF2E7C046B0050020D304002030
:10466000D404002010B5064B00221A7001321A70D3
:10467000044B1B7804490B702320FFF779FB10BD16
:10468000D3040020B0050020D404002000B585B07C
:104690000C22002101A803F0CDF92148214B036031
:1046A0008023DB05436000238360C3601E4A0261F0
:1046B0000422426103764376033A8276C261436202
:1046C00083622C21425403632539416335314254BE
:1046D0001B320264643242648364C36401F0BCF838
:1046E000002813D1114B0193012302930C4801A917
:1046F00001F028FA00280CD10D4B0193084801A9BC
:1047000001F020FA002807D105B000BD00F02CF917
:10471000E8E700F029F9EFE700F026F9F4E7C046F2
:104720004C050020002401400400008040000018D7
:104730008000001C10B588B004001422002103A8DA
:1047400003F078F92268204B9A4201D008B010BDDE
:104750001E4B1A6C802149030A431A641A6C0A40E2
:104760000192019A596B0122114359635B6B1A4004
:104770000292029BC0230393BD3B0493A02003A994
:10478000C00502F0CDF81248124B036005234360C8
:1047900000238360C360803303618133FF3343614F
:1047A00080231B0183612023C36180235B0103629B
:1047B00001F008FE002803D1054B23659C62C5E784
:1047C00000F0D2F8F8E7C046002401400010024093
:1047D000F00400205800024000B583B0144A916BE9
:1047E000012319439163926B13400193019B114B79
:1047F000C22292009858104908408021C901014303
:10480000995080218900196098580C4908408021EE
:10481000C90301439950F8321A60002201210B208C
:1048200001F068FD0B2001F069FD03B000BDC0463A
:104830000010024000E100E0FF00FFFFFFFF00FF6B
:1048400000B589B01422002103A803F0F3F8124B3D
:10485000596B012211435963596B11400191019920
:10486000586B0221084358635B6B19400291029B0D
:10487000039284239B030493059203A9074802F043
:104880004FF800220121052001F034FD052001F040
:1048900035FD09B000BDC0460010024000040050C4
:1048A0000B4B0C4A1A600C4A1A6002225A600B4ADF
:1048B0009A6002E00023012B05D0054BDB685B0703
:1048C000F8D10123F7E7024B054A1A607047C0464A
:1048D00000300040CCCC000055550000FF0F000018
:1048E000AAAA000082B080229205002307E0990066
:1048F0000C4884466144096802C20133DBB22F2BA5
:10490000F5D9094A116C012319431164126C134043
:104910000193019B054A136803210B43136002B006
:104920007047C0460020000800100240000001400F
:1049300010B500F027FF0A4B187000F0C1FE00F020
:1049400007FFFF2804D000F003FF064B187010BDCE
:10495000044B0A221A701878C0B200F0FFFEF6E786
:10496000B1050020B005002072B6FEE700B593B097
:104970003822002104A803F05DF8102200216846C7
:1049800003F058F88020800002F0A4F80A23049372
:10499000F633079300230893402209923F3A0A9284
:1049A00001320B920C920D9308330E9380239B02DD
:1049B0000F93C023DB04109380239B05119304A85D
:1049C00002F0B2F800280ED107230093053B0193B3
:1049D0000023029303930221684602F05DFB002846
:1049E00003D113B000BDFFF7BFFFFFF7BDFF00000D
:1049F00010B5FFF777FFFFF79BFF00F0F5FEFFF71D
:104A0000B5FFFFF71DFFFFF7E7FE00F08DFB00F09D
:104A1000EFFCFFF745FF00F0AFFA00F0E9FAFFF70F
:104A200035FEFFF777FDFFF737FB324BDA680121E0
:104A30000A43DA601A680A431A6019E0FB2B55D062
:104A400007D9FF2B0ED12C4B5878C0B2FFF7F8F9DD
:104A500008E0F92B47D0FA2B04D1FFF7DDF901E08C
:104A6000FFF72AFB254B00221A70254B254A1A60B6
:104A7000224B1B78012BF8D11F4B1B78DBB2352B57
:104A8000DCD8202BEED3203BDAB2152AEAD89300EB
:104A90001D4AD3589F46FFF72BFBE3E7FFF744FB84
:104AA000E0E71A4B1978013989B21948FFF76CFB16
:104AB000D8E7FFF78FFBD5E7FFF7A8FBD2E7134B4B
:104AC0001978013989B21248FFF760FDCAE7FFF78C
:104AD0008DFDC7E7084B5878C0B2FFF791FDC1E7DD
:104AE000FFF7C0FDBEE7FFF78DF9BBE7FFF79EF9C3
:104AF000B8E7C04600200040B4050020B205002001
:104B000000300040AAAA00001C830008B305002062
:104B1000B505002000B583B00D4B196C012211437F
:104B20001964196C0A400092009ADA6B80214905D9
:104B30000A43DA63DB6B0B400193019B00220121E6
:104B4000032001F0D7FB032001F0D8FB03B000BD28
:104B50000010024010B50400FFF76DF8012801D0E5
:104B6000002010BD6379FE2B06D0FD2BF9D02379F0
:104B7000012B03D00330F4E70220F2E70520F0E731
:104B800010B50400FFF757F8012801D0002010BD30
:104B90006379FD2BFBD0FE2B05D0FC2B01D004202C
:104BA000F5E70530F3E70320F1E7FEE7FEE770479E
:104BB000704710B500F02CFE10BD10B501F05EFD81
:104BC00010BD10B5012001F06DFF10BD7047000051
:104BD000074B1B689B0609D5054B20225A600549E7
:104BE0000B681F3A93430B60034B1A707047C04623
:104BF000000002401C000240E500002010B5094BF7
:104C00001B689B040AD5074B802292015A60064913
:104C10000B68012293430B60044B1A70044801F0A7
:104C2000B7FC10BD0000024044000240E400002038
:104C3000F004002010B5134B1B69DB0720D5124C84
:104C40002378013B23700F4B022252421A610F4816
:104C5000092100F0A5FC2378002B11D1094BD9685C
:104C600001229143D960196891431960084B0221D0
:104C700049421961D9681143D96019680A431A6019
:104C800010BDC04600200040FD000020F4000020C0
:104C90000044014070B51C4B1B69DB0732D51A4B31
:104CA000022252421A611948092100F091FC184D64
:104CB0002878184C002323540130C0B228700321F7
:104CC000FDF7BAFA29702378002B18D16378002BEE
:104CD00015D1A378002B12D10F4B1B78002B0AD1D2
:104CE0000E4BDA6801210A43DA601A680A431A6037
:104CF0000B4B03221A70084B01221A7002E0064B7C
:104D000000221A7070BDC04600440140E800002037
:104D1000B80F0020BC0F0020E3000020002000405E
:104D2000FD00002070B53A4BDB69DB0633D5384B0C
:104D30001B68DB062FD5364910230B62354B1A68EA
:104D4000012082431A605A681204120C5242324CFB
:104D50002270324D2E780122921BD2B22A702A780C
:104D600052022F4D5219DA605A68120C1204802533
:104D7000AD002A435A601A6802431A60EFF31082AA
:104D800080F310888B683F3003438B6082F3108878
:104D90002178002900D170BD204B1B783F38C01A04
:104DA00040021F4BC018FFF7D5FE1E4A10700428A2
:104DB00021D00FD801281BD00228ECD1174B1B782B
:104DC0000120C01A4002164BC018134B1978FEF789
:104DD0005DFFE0E70528DED1104B1B780120C01AEB
:104DE00040020F4BC0180C4B1978FEF783FFD2E737
:104DF000FEF768FFCFE7094B1B780120C01A40027D
:104E0000074BC018044B1978FEF79CFFC3E7C04658
:104E10000038014008000240C00F0020B507002004
:104E2000B80B0020BF0F002070B53A4BDB69DB06E2
:104E300033D5384B1B68DB062FD5364910230B6260
:104E4000354B1A68012082431A605A681204120C0A
:104E50005242324C2270324D2E780122921BD2B235
:104E60002A702A7852022F4D5219DA605A68120CB1
:104E700012048025AD002A435A601A6802431A6062
:104E8000EFF3108280F310888B683F3003438B6010
:104E900082F310882178002900D170BD204B1B7847
:104EA0003F38C01A40021F4BC018FFF769FE1E4A68
:104EB0001070042821D00FD801281BD00328ECD172
:104EC000174B1B780120C01A4002164BC018134B19
:104ED0001978FEF7EFFEE0E70628DED1104B1B78CD
:104EE0000120C01A40020F4BC0180C4B1978FEF776
:104EF000E5FED2E7FEF7EEFECFE7094B1B78012077
:104F0000C01A4002074BC018044B1978FEF725FF62
:104F1000C3E7C0460044004030000240C00F0020FC
:104F2000B4070020B8070020BF0F002010B5030011
:104F30000C4A0D49521A0D490968002907D00B493E
:104F40000868C318934206D8084A136010BD074981
:104F500007480860F3E702F095FD0C230360012089
:104F60004042F3E70020002000040000C40F0020AE
:104F7000481100207047000030B587B001AC142202
:104F80000021200002F056FD144B1A6C802109020A
:104F90000A431A641B6C0B400093009B104AC42008
:104FA000800013581B021B0A8021C9050B431350B4
:104FB00080231B0313600B4B2380002363600A4A8A
:104FC000A260E360094D2100280002F029FB2B6854
:104FD000802213432B6007B030BDC0460010024052
:104FE00000E100E0FF180000A306000000200040E0
:104FF00030B587B001AC14220021200002F01AFD68
:10500000144B1A6C802189020A431A641B6C0B40F2
:105010000093009B104BC520800019580F4A114087
:105020008022D2010A431A50802292031A600C4B4C
:105030002380002363600B4AA260E36023610A4D72
:105040002100280002F0ECFA2B68802293432B60A9
:1050500007B030BD0010024000E100E0FF00FFFF9C
:10506000FF1800000F2700000044014070B5EFF367
:105070001084012181F31088244A13680C20834393
:105080000343136084F31088EFF3108081F31088DA
:10509000136810242343136080F310881C4B1D48B1
:1050A00098601D48007840021C4D4019D86058682F
:1050B000000C00048025AD00284358601868FF3DAF
:1050C000FF3D2843186018680826304318601868A8
:1050D00008431860EFF3108081F310889368383626
:1050E0003343936080F3108814620D4B0D48986031
:1050F000EFF3108081F31088916870342143916040
:1051000080F310881A682A431A6070BD0038014085
:105110000800024024380140B5070020B80B0020E9
:105120001C00024028380140F0B5DE4657464E4686
:105130004546E0B59BB02022002112A802F07AFC7F
:10514000182200210CA802F075FC2822002102A8D8
:1051500002F070FC0123029302A802F063F8002819
:1051600000D0C6E0644B1A6C8021C9010A431A645E
:105170001A6C0A400192019A5A6B02252A435A631B
:105180005B6B2B400093009B402398460C930D953E
:105190000E9500240F94012610961194574B9946B2
:1051A0000CA9180002F038F980270C970D950E9580
:1051B0000F94109611940CA9484602F02DF9504A0C
:1051C00013683F218A468B430D390B4313604D4BC7
:1051D0001A684D4989460A401A601A684B498C463C
:1051E0000A401A601A681E35AA431A601A684146B6
:1051F0008A431A601A68BA433A431A601A684448E4
:1052000002401A601A6843498B460A401A60424AB3
:10521000136851468B430C390B4313603F4B1A689C
:1052200049460A4010210A431A601A6861460A403A
:105230001A601A68AA431A601A6841468A431A60BB
:105240001A68BA433A431A601A6802401A601A6828
:1052500059460A401A60324AC621890053581B0237
:105260001B0A535080231B0513601294E1235B0239
:1052700013931494159416940C231793189419945B
:10528000284C12A9200002F075FAEFF3108286F381
:105290001088A368DB00DB08A36082F31088EFF3BB
:1052A000108286F31088A3681F490B40A36082F325
:1052B000108823681D4A1340236063681C4A13400A
:1052C0006360A3682A229343A36023683343236067
:1052D000144BDB699B02FBD5124BDB695B02F7D5F4
:1052E000FFF7C4FE1BB0F0BCBB46B246A946A046C1
:1052F000F0BDFFF739FB35E7001002400004005015
:105300000008024008000240EFBFFFFFFFCFFFFF91
:10531000FFFCFFFFFFF3FFFF040802401C000240F8
:1053200000E100E000380140FFFFFFF1FFFFFFDF79
:10533000FFB7FFFF70B5EFF31084012181F31088F0
:10534000244A13680C2083430343136084F31088BA
:10535000EFF3108081F31088136810242343136047
:1053600080F310881C4B1D4898601D48007840024F
:105370001C4D4019D8605868000C00048025AD0011
:10538000284358601868FF3DFF3D2843186018689F
:10539000082630431860186808431860EFF310803F
:1053A00081F31088936838363343936080F3108814
:1053B00014620D4B0D489860EFF3108081F3108854
:1053C000916870342143916080F310881A682A43F1
:1053D0001A6070BD00440040300002402444004088
:1053E000B4070020B80700204400024028440040D1
:1053F000F0B5DE4657464E464546E0B591B020260C
:105400002022002108A802F015FB1822002102A882
:1054100002F010FB564BDA6B802189020A43DA63F3
:10542000DA6B0A400192019A5A6B01252A435A63AA
:105430005B6B2B400093009B042302930224039494
:10544000049406950795A027FF0502A9380001F0EE
:10545000E3FF082302930394049400240594069523
:10546000079502A9380001F0D7FF424A13683F218F
:105470008A468B430B390B4313603F4B1A683F49F5
:1054800089460A401A601A683D4988460A401A60EF
:105490001A68B2431A601A6840218C468A431A601F
:1054A0001A688027BA433A431A601A68354802409E
:1054B0001A601A6834498B460A401A60334A1368E6
:1054C00051468B430A390B431360314B1A684946E6
:1054D0000A4010210A431A601A6841460A401A60BD
:1054E0001A68B2431A601A6861468A431A601A68D9
:1054F000BA433A431A601A6802401A601A68594659
:105500000A401A60234BC72189005A58FF20824362
:105510005A50802252051A600894E1235B020993D5
:105520000A940B940C940C230D930E940F941A4C24
:1055300008A9200002F01EF96368184A134063604E
:10554000A3682A229343A36023682B432360124B52
:10555000DB699B02FBD5104BDB695B02F7D5FFF7DC
:10556000E9FE11B0F0BCBB46B246A946A046F0BD6C
:10557000001002400808024030000240EFBFFFFF69
:10558000FFCFFFFFFFFCFFFFFFF3FFFF0C08024010
:105590004400024000E100E000440040FFB7FFFF8C
:1055A000094B1B78012B00D07047074B00221A7063
:1055B000064BD8605A68120C1204114359601A68DD
:1055C00001210A431A60EFE7E50000201C000240B9
:1055D000094B1B78012B00D07047074B00221A7033
:1055E000064BD8605A68120C1204114359601A68AD
:1055F00001210A431A60EFE7E40000204400024062
:105600000D488546FFF7B6FC0C480D490D4A0023AE
:1056100002E0D458C4500433C4188C42F9D30A4A67
:105620000A4C002301E013600432A242FBD302F0D3
:105630002FFAFFF7DDF9FEE700200020C000002070
:1056400094010020408400089401002048110020AB
:10565000FEE7F8231B069C466044C00A704700889A
:1056600080B20021704710B586B000230593023345
:105670000193FFF7EEFF03900123049301F05EF81E
:1056800005A901A801F008F9040001F0D7F8634268
:105690005C41E0B206B010BD70B5040016001D00FC
:1056A00001F04CF832002B002100012001F094F8A9
:1056B000040001F0C3F863425C41E0B270BD000039
:1056C00010B500240AE0074BE0184000FFF7C7FFC1
:1056D00080B2054B6200D0520134E4B2022CF2D900
:1056E00010BDC04600600004C80F002070B515480A
:1056F000FFF7B9FF00241EE020252D1A1300EB4010
:1057000082400131C9B203290ED860180B280BDC86
:105710000D4B4000C25A92B208010300203BEBD46B
:1057200015009D402B00EBE7084960184000FFF78B
:10573000B3FF0434E4B20B2C03D800210022002371
:10574000E1E770BD00C00008C80F00200060000441
:10575000014B1878C0B2704701C0000810B50400B2
:10576000074A13880102FF2003400B431380FFF711
:10577000BDFFFFF7EDFF001B43425841C0B210BD13
:10578000C80F0020014B1878C0B27047FF1F0008F7
:1057900010B50400114B1978002901D1012010BD6A
:1057A000FA208000FCF7C2FC01000D4B1868FCF7E2
:1057B000BDFC00F0AFFD00280DD1032C01D9012064
:1057C000EDE7013000222100404200F093FD054B3F
:1057D0001C600020E3E70120E1E7C046040100204F
:1057E000000100200801002010B5084A116880233C
:1057F0005B000B4313600320FFF7CAFF041E02D0B7
:105800000124200010BDFFF785F9FAE700200240CF
:10581000034B1B78034A11685B1813607047C0463E
:1058200004010020E00F0020014B18687047C046BB
:10583000E00F002070B50400FFF7F6FF0500631CC1
:1058400002D0044B1B78E418FFF7EEFF401BA04288
:10585000FAD370BD0401002030B583B004000023EA
:105860000193002800D106E1836D002B13D023683B
:105870009A68D2001CD49968804A1140802252054F
:105880000A439A607E4B18687E49FCF74FFC013052
:105890004000019009E0FEF74DFF0023E36554222C
:1058A000A354E4E7019B013B0193019B002BF9D139
:1058B00023689A68D20000D59DE0A26D10210A43AA
:1058C000A265E26D0F390A43E26501209A6804215E
:1058D0000D001540114200D00125A26DD20600D561
:1058E000C2E0002D00D0BFE0A26D67490A4006313A
:1058F000FF310A43A2659A68D20752D4A268217E7A
:1059000089030A43617EC9030A43A57E69030A43EA
:10591000216B002901D0802149010A43E1680A4333
:105920002169002969DB802189030A432C21615CFC
:1059300049000A432021615C012961D0616A002984
:1059400005D0E0256D002940A56A29430A43D9689E
:105950004E4D29400A43DA6063689B0F9B07E26C57
:105960001A433C21615C012959D021680B69484DDB
:105970002B4013430B616368C0221206934210D080
:105980008022D20593420CD080221206934208D086
:1059900040490A68404D2A40F025AD032B4013438F
:1059A0000B602168636B4A690725AA4313434B6167
:1059B0002168A26B4B696935AB43120113434B61FC
:1059C0002369002B35D12268916A103B0B43936207
:1059D00023685A6907231340626B9A423BD0A36D38
:1059E00012229343023A1343A365E36D0F3A134324
:1059F000E36501203DE0002068E74900490894E79D
:105A0000002D03D1802149020A4397E7A16D20258B
:105A10002943A165E16D1F3D2943E1658EE7216CB6
:105A20000B43616C0B43A16C0B43134301221A43DC
:105A30009BE7802292039342CAD121688B6AE36973
:105A4000013B9B001C221A4010235B429340226EB4
:105A500013438B62BCE70023E365A36D03229343EA
:105A6000023A1343A36504E0A36D10221343A36518
:105A7000012003B030BD0120FBE7C046E8FFFF6F07
:105A800000010020400D0300FDFEFFFF0102DEFFCC
:105A900002FCFF1F08270140FFFFC3FF704710B53E
:105AA000806AFFF7FBFF10BD704710B5806A836DF9
:105AB000402213438365C36D3C3A1343C365FFF72C
:105AC000F3FF10BD10B50300806A826D50211142B2
:105AD0002AD1826D80239B00134383650368D968B4
:105AE000C0221201114213D1827E002A10D11A68FD
:105AF00012070DD59A6852070DD45A680C218A43B3
:105B00005A60836D0E4A13400432FF32134383659B
:105B1000FEF7F8F910BD836D202213438365C36D32
:105B20001F3A1343C365F3E7826DD20604D4026DB6
:105B3000526B18009047EDE7FFF7B6FFEAE7C04663
:105B4000FEFEFFFFF0B583B004000023019305695A
:105B50005433C35C012B00D12FE154230122C254E2
:105B600000688368033216001E401A4209D0A36DF4
:105B70001C321343A365012054230022E25403B0D6
:105B8000F0BD4B68022B00D1D5E080221206954271
:105B900025D08B4A954222D0226E1F271F400F2509
:105BA000BD40AA430B685D032FD19B0E1F261E40EC
:105BB000BE40324322664D68AB080133E26993422E
:105BC00013D80E68826A1F231D40103B1F00AF4090
:105BD000BA43B60E3340AB401343836205E00B6813
:105BE000826A5B035B0B1343836220680B688D68DA
:105BF00042691B029A432B40724D2B401343436171
:105C00000B68002B4FDB0020B6E7DD07D0D49D07E3
:105C100027D45D0727D41D0727D4DD0627D49D068A
:105C200027D45D0627D41D0627D4DD0527D49D057E
:105C300027D45D0527D41D0527D4DD0427D49D0472
:105C400027D45D0427D41D0427D4DD0327D49D0366
:105C500027D48025ED021E002E402B42A8D012260C
:105C6000A6E70126A4E70226A2E70326A0E704266A
:105C70009EE705269CE706269AE7072698E708266A
:105C800096E7092694E70A2692E70B2690E70C266A
:105C90008EE70D268CE70E268AE70F2688E710266A
:105CA00086E7112684E7484A1168E02252040A4038
:105CB0004648834207D04648834222D04548834223
:105CC0002CD0002058E70802F5D480231B0413438E
:105CD0003D490A684048024013430B603F4B186837
:105CE0003F49FCF723FA013043001B189B00019346
:105CF00002E0019B013B0193019B002BF9D10020A5
:105D00003AE7C801DAD480235B0413432E490A68BA
:105D10003148024013430B6000202DE749024AD46A
:105D20008023DB03134328490A682B4802401343AE
:105D30000B60002020E780231B069D4202D0204BF1
:105D40009D4205D10B68826A5B035B0B9A438262BA
:105D50000B68002B01DB00200EE71B4A12681B4971
:105D60008B4207D01A498B420FD01A498B4217D069
:105D7000002001E7A0235B041A4013490B68164872
:105D800003401A430A600020F6E6C0231B041A40B1
:105D90000D490B68104803401A430A600020EBE6E7
:105DA000C0235B041A4008490B680B4803401A43A0
:105DB0000A600020E0E60020DEE60220DFE6C046C2
:105DC0000400008000FFFF0708270140001000B01A
:105DD000004000B8002000B4FFFF3FFE000100209B
:105DE000400D030070B50400026893685B0724D57A
:105DF00093689B0705D4936811490B4010210B430E
:105E00009360FFF711FD050023689B685B0712D5BF
:105E1000FFF70AFD401B0228F6D923689B685B0741
:105E2000F2D5A36D10221343A365E36D0F3A13431C
:105E3000E365012002E0002000E0002070BDC046C4
:105E4000E8FFFF7F30B583B00400002301930368AF
:105E50009A68D2074FD49968284A114211D19A689A
:105E600027490A4001210A439A60264B1B681B02FE
:105E700017D5254B18682549FCF758F901300190D2
:105E80000CE0836D102213438365C36D0F3A1343F7
:105E9000C365012030E0019B013B0193019B002B76
:105EA000F9D1637E012B01D1002025E0FFF7BCFC76
:105EB000050023681A68D2071BD49A68D20705D454
:105EC0009A680F490A4001210A439A60FFF7ACFC27
:105ED000401B0228EDD923681B68DB07E9D4A36DBA
:105EE00010221343A365E36D0F3A1343E3650120CA
:105EF00002E0002000E0002003B030BD1700008069
:105F0000E8FFFF7F0827014000010020400D03004B
:105F100070B504000D001600026893685B0747D453
:105F20005423C35C012B45D0012354214354D16831
:105F30000B420DD19368DB0705D593681E490B40D2
:105F400002210B4393602268D36801210B43D36085
:105F50002000FFF777FF00282BD1A26D174B1A40C6
:105F600080235B001343A3650023E365226D14497E
:105F7000D162226D13491163226D13495163226866
:105F80001C2111605422A354226853680C390B431E
:105F9000536021684031206D33002A0000F06AFA16
:105FA0002268936804490B4004210B43936000E08E
:105FB000022070BD0220FCE7E8FFFF7FFEF0FFFF3C
:105FC000C55A00089F5A0008AB5A000870B5040073
:105FD00003689A68022108001040114200D0012095
:105FE0009A68D20735D5002835D1996805220A402C
:105FF000012A09D0A36D10221343A365E36D0F3A64
:106000001343E365012025E09A6814490A40022100
:106010000A439A60236803221A60FFF705FC050013
:1060200023689B68DB0712D5FFF7FEFB401B0228A5
:10603000F6D923689B68DB07F2D5A36D10221343C2
:10604000A365E36D0F3A1343E365012002E00020EE
:1060500000E0002070BD0020FCE7C046E8FFFF7FA5
:1060600070B504005423C35C012B36D054230122A5
:10607000C254FFF7B7FE051E1DD1206D2523C35C5A
:10608000022B1DD02268536810218B435360002DD2
:106090001FD12000FFF79AFF0500002D06D1A36D48
:1060A0000F4A13400432FF321343A3652268D368BA
:1060B00001218B43D36054230022E254280070BD99
:1060C00000F026FA051EDDD0A36D40221343A36520
:1060D000D8E72000FFF77AFFDFE70225EEE7C046AA
:1060E000FEFEFFFFF0B583B004000023019354339C
:1060F000C35C012B00D1A2E001265423C654FFF754
:1061000065FF050023689A6831001140164209D0E6
:10611000A36D10221343A36554230022E2542800E8
:1061200003B0F0BDA26D474802400630FF30024385
:10613000A265DE68444A1640DA6844480240DA60E4
:10614000080005E0B4229A587F231340C01801319B
:1061500007291CD82768BA683D4B1A4018331343E7
:10616000BB6023689A68002AECDA019B0133019333
:10617000019A384B9A42F4D9A36D12229343023A02
:106180001343A36554230022E2540125C7E7FBF71C
:10619000CDFF226893682E490B4001210B43936089
:1061A000226811698023DB05994217D22A4B1B68AC
:1061B000F02189030B40E02149038B420ED39B0C55
:1061C000033B012199400091009B5B08009302E092
:1061D000009B013B0093009B002BF9D1B421535845
:1061E0007F27BB43184350502268936818490B40DF
:1061F00002210B439360FFF717FB070023689A689F
:10620000D20709D4DA683243DA60A36D03229343DC
:10621000023A1343A3657FE7FFF706FBC01B022882
:10622000ECD923689B68DB07E8D5A36D10221343E4
:10623000A365E36D0F3A1343E36501256FE702257C
:106240006DE7C046FDFEFFFF03800000FC7FFFFFFF
:10625000E8FFFF7FFFF102000827014070B500282A
:1062600011DB8308134DC0339B005C59032210409F
:10627000C000FC3216008640B44389010A408240C7
:1062800022435A5170BD0F230340083B9B0806333D
:106290009B00094A944663445C6803221040C00096
:1062A000FC3215008540AC4389010A4082402243FC
:1062B0005A60E7E700E100E000ED00E001388023EC
:1062C0005B0498420FD2094A50600948036A1B02D6
:1062D0001B0AC02109060B430362002393600733A6
:1062E0001360002070470120FCE7C04610E000E08A
:1062F00000ED00E010B5FFF7B1FF10BD002805DB91
:106300001F22024001239340014A13607047C04698
:1063100000E100E010B5FFF7D1FF10BDF0B5846CCF
:10632000C56C6560046D002C02D0446D856D6560A0
:106330000B4F7C68056C1C262E400125B5402C4374
:106340007C60046863608368102B04D003689960E4
:106350000368DA60F0BD03689A600368D960F9E702
:106360000000024010B50400036C9B08094A9446E3
:1063700063449B0043640368FF20184008381421DD
:10638000FBF7D4FE044BA3641F2318401E3B83403D
:10639000E36410BD008200108008024042683F2381
:1063A0001340064A9A1892000265054A4265013B6D
:1063B00003221A4001239340836570473F820010F7
:1063C0004009024070B5041E4DD00568274BE818FF
:1063D0001421FBF7ABFE8000206425230222E25447
:1063E0002B68234A13402B6021680A68A368E06881
:1063F00003432069034360690343A0690343E069E1
:106400000343206A034313430B602000FFF7AAFFF6
:10641000A2688023DB019A4218D06168626C3F2336
:106420000B401360A36CE26C5A606368013B032B62
:106430000FD9002323656365A3650023E363252249
:106440000121A154013AA354002070BD00236360D0
:10645000E3E72000FFF7A2FF236D00221A60636DBF
:10646000A26D5A60E9E70120EFE7C046F8FFFDBFE3
:106470000F80FFFF70B504002420205C012845D068
:106480002420012525540130205C012806D08023DA
:10649000E3635C3B0022E254012070BD24300135EF
:1064A00025540020E063256828680126B043286051
:1064B0002000FFF733FF236B002B1CD022681368EA
:1064C0000E210B431360626C1368DB0304D5116863
:1064D00080235B000B431360236D002B04D01968ED
:1064E000802252000A431A602268136801210B437C
:1064F00013600020D1E72268136804218B431360E6
:106500002268136806310B431360DCE70220C4E7FE
:1065100030B5002836D02523C35C022B06D00423D7
:10652000C36320330022C254012030BD02681368C7
:106530000E218B431360426C136813490B401360A8
:1065400001680A6801239A430A60104C6268056C6E
:106550001C2129408B4013436360836CC26C5A60DA
:10656000036D002B06D01A6807490A401A60436D74
:10657000826D5A6025230122C254013B0022C2547D
:106580000020D2E70120D0E7FFFEFFFF000002401D
:1065900070B5314B196804682568026C1C231340E0
:1065A00004229A40114216D06A0714D523689B062C
:1065B00003D42368042293432360274C6368026C4E
:1065C0001C21114004228A4013436360036B002B9B
:1065D00000D0984770BD02229A4011421CD0AA07F1
:1065E0001AD523689B0606D423680A2293432360A6
:1065F0002523093AC254184C6368026C1C211140CF
:1066000002228A401343636024230022C254C36AD7
:10661000002BDFD09847DDE708229A401142D9D0FD
:106620002D07D7D523680E22934323600A4C626856
:10663000036C1C21194001231D008D402A43626018
:10664000C3632522835423330022C254436B002B9F
:10665000C0D09847BEE7C0460000024030B5054CA8
:1066600061690125294361610260BFF36F8F436057
:1066700030BDC046002002407047704710B52A4B1D
:106680001B692A4A13402A4A9268510721D5284A91
:106690001469002B2AD1244B1B69DB070CD5224B34
:1066A00001221A61224B9B68022B2CD0204B002226
:1066B0009A602000FFF7E0FF1D4B9B68002B07D17D
:1066C000194A53691B490B405361194B00221A7038
:1066D00010BD154841699143416117490A4202D0F2
:1066E000134AD468D5E7124A5469D2E7104A516870
:1066F0000B4353600C4B0D4919610023936020003C
:10670000FFF7BBFFC7E70A4A9369013B9361002B80
:1067100003D1074B00229A60CBE7516901315161E7
:10672000106900F0A9F8C4E700200240FAC3000095
:10673000E40F0020FFFFFFFC01000400084B5B6931
:10674000002B01DB00207047054B064A9A60064A81
:106750009A605B69002B01DB0020F4E70120F2E77F
:106760000020024023016745AB89EFCD70B50400DE
:10677000FFF75AF80500144B1B69DB0308D5631CAF
:10678000F9D0FFF751F8401BA042F4D303201AE0E0
:106790000D490A690D4B16001E400D4808611A424A
:1067A0000CD1094B1B695B030CD5631CF9D0FFF7B7
:1067B0003BF8401BA042F4D3032004E0054B5E608D
:1067C000012000E0002070BD00200240FAC300005C
:1067D000FBC30000E40F0020F8B507000C00150013
:1067E0001E00144B1B78012B22D0124B01221A7071
:1067F00000225A60FA208000FFF7B8FF00280DD170
:10680000012F0FD02900200001F0FAFCFA208000AF
:10681000FFF7ACFF084A5369BB435361054B0022A5
:106820001A70F8BD2A0033002000FFF717FFEDE7CC
:106830000220F6E7E40F00200020024010B5FA2005
:106840008000FFF793FF064B5969802212060A4326
:106850005A615B69002B01DB012010BD0020FCE7C1
:1068600000200240034A536903438020400218433A
:106870005061704700200240044A536904480340B5
:10688000C9001943034B0B4353617047002002407A
:1068900007E0FFFF0200010070B504000E001E4B70
:1068A0001B78012B36D01C4B01221A7000225A6033
:1068B000FA208000FFF75AFF002827D104236360E5
:1068C0002368042B14D001235B423360A568A368BE
:1068D000E2689B18AB4214D960682900FFF7CCFF2F
:1068E000FA208000FFF742FF002809D10135EEE7CA
:1068F0000430FFF7B7FFFA208000FFF737FF05E00D
:106900003560064A536902218B435361024B0022D2
:106910001A7070BD0220FCE7E40F00200020024046
:10692000F0B5002359E086685F000324BC40A6430D
:10693000CC68BC4034438460446894434E68360954
:10694000012232409A402243426056E0DE08083677
:10695000B600375805321A4092000F249440A743DE
:106960000C69944022003A43325059E0032600E07B
:106970000026A64034003C43424E18329200945107
:106980003768EA433E00AE434C68E40201D53E005E
:106990002E433C4C266067683E0016404C68A402BB
:1069A00001D53E002E43374C66608426A7593E0031
:1069B00016404C68A40301D53E002E43314C842779
:1069C000E6518026A65932404C68E40301D52A00DE
:1069D00032432C4D80242A5101330C682200DA40C6
:1069E0004ED001229A40250015401442F4D04E6842
:1069F00003243440013C012C95D94C6803222240E9
:106A0000032A08D0C4685E000322B24094438A6817
:106A1000B2402243C2604C6803222240022A95D031
:106A200004685E0003221700B740BC434F683A4039
:106A3000B240224302604C68C02292021442CBD082
:106A40009A0814001834A4000E4EA75903241C40C1
:106A5000E4000F26A640B743A026F605B04287D033
:106A6000094EB04208D0094EB04207D0084EB0429D
:106A700000D17BE705267CE701267AE7022678E746
:106A8000F0BDC0460018024000040050000800504D
:106A9000000C005003690B4201D001207047002018
:106AA000FCE7704710B50400094BDB68184204D1BD
:106AB000074B1B69234205D110BD054BD860FFF77A
:106AC000F0FFF5E7024B1C612000FDF7D1FBF3E777
:106AD0000018024010B5104A136810490B400343D8
:106AE000136080239B00984201D0002010BD0C4B06
:106AF0001B685800C01840000A49FBF717FB01301B
:106B0000054B5B695B0503D5002803D00138F7E727
:106B10000020EBE70320E9E700700040FFF9FFFFEA
:106B20000001002040420F0070B582B0041E00D169
:106B300031E20368DB0739D5C14A916838230B403D
:106B4000D16803220A40102B26D0082B26D0636878
:106B50008022520293427FD0A022D202934200D1DF
:106B600081E0B74B1A68B7490A401A601A68B649FB
:106B70000A401A606368002B00D180E0FEF754FEE3
:106B80000500AF4B1B689B0310D4FEF74DFE401B66
:106B90006428F6D90320FFE1032AD6D1A84B1B684D
:106BA0009B0303D56368002B00D1F7E123689B07A3
:106BB00031D5A34A916838230B40D16803220A409B
:106BC000102B6AD0002B6BD19D4A1268520503D559
:106BD000E268002A00D1E3E1994842689B490A40F3
:106BE000616909020A434260002B0DD1036898498C
:106BF0000B4021690B4303600368DB0A07221A403C
:106C0000944BD340944A1360944B1868FEF7C0FD30
:106C1000002800D0C6E123681B0700D481E0884B20
:106C20009A6838231340182B73D0A369002B00D126
:106C3000B4E0834A136E01210B431366FEF7F4FDA3
:106C400005007F4B1B6E9B076BD4FEF7EDFD401BD1
:106C50000228F6D903209FE1794A116880235B025C
:106C60000B43136086E7764B19688022D2020A43F1
:106C70001A601968802252020A431A607AE7FEF706
:106C8000D3FD05006E4B1B689B038FD5FEF7CCFD33
:106C9000401B6428F6D903207EE1022A92D193E7B3
:106CA000E368002B22D0664A136869490B402169CA
:106CB0000B431360116880235B000B431360FEF7E6
:106CC000B3FD05005E4B1B685B0506D4FEF7ACFD0B
:106CD000401B0228F6D903205EE159494B685B4A04
:106CE00013406269120213434B6094E7544A1368DD
:106CF0005B490B401360FEF797FD0500504B1B6886
:106D00005B0588D5FEF790FD401B0228F6D90320CD
:106D100042E14B4B1B6E9B0703D5A369002B00D1AF
:106D200042E123685B0700D4A2E0454B9A68382310
:106D30001340202B45D0424BDB6BDB004AD4404B49
:106D4000DA6B802149050A43DA63DB6B0B40019360
:106D5000019B0125434B1B68DB053DD5A368012B37
:106D60004ED0052B52D0364BDA6D01218A43DA65BD
:106D7000DA6D03318A43DA65A368002B50D0FEF741
:106D800053FD06002E4BDB6D9B076FD4FEF74CFDC9
:106D9000801B354B9842F5D90320FDE0284A136E3D
:106DA00001218B431366FEF73FFD0500244B1B6E4C
:106DB0009B07B6D5FEF738FD401B0228F6D9032005
:106DC000EAE01F4BDB6D9B0752D5A368002B4FD128
:106DD0000120E1E00025BDE7224A116880235B0025
:106DE0000B431360FEF720FD06001E4B1B68DB05FE
:106DF000B4D4FEF719FD801B0228F6D90320CBE09E
:106E00000F4AD36D01210B43D365B5E70C4BDA6D07
:106E100004210A43DA65DA6D03390A43DA65ABE720
:106E2000FEF702FD0600064BDB6D9B071ED5FEF745
:106E3000FBFC801B0C4B9842F5D90320ACE0C0460C
:106E400000100240FFFFFEFFFFFFFBFFFF80FFFF80
:106E5000FFC7FFFF0024F40000010020080100200C
:106E6000FFFEFFFF0070004088130000012D1ED0C0
:106E7000E369002B00D199E0544A916838220A4016
:106E8000102A60D0022B18D0504A136850490B408A
:106E90001360FEF7C9FC04004C4B1B689B014BD5EB
:106EA000FEF7C2FC001B0228F6D9032074E0474A13
:106EB000D36B48490B40D363DAE7444A136844492B
:106EC0000B401360FEF7B0FC0500404B1B689B01B4
:106ED00006D5FEF7A9FC401B0228F6D903205BE08B
:106EE0003A4AD3683C491940236A606A0343A06A5E
:106EF00000020343E06A0343206B0343606B0343D8
:106F00000B43D360116880235B040B431360D1688B
:106F100080235B050B43D360FEF786FC04002B4BFC
:106F20001B689B0106D4FEF77FFC001B0228F6D9E4
:106F3000032031E000202FE0244AD36827490B408A
:106F4000D360002028E0012B32D0204BDA680323E5
:106F50001340216A8B422DD170231340616A8B420A
:106F60002AD1FE21C9011140A36A1B02994225D1F1
:106F7000F8239B031340E16A8B4221D1E0231B05D8
:106F80001340216B8B421DD1520F5207636B9A4203
:106F90001AD1002000E0012002B070BD0120FBE703
:106FA0000120F9E70120F7E70120F5E70020F3E7EA
:106FB0000120F1E70120EFE70120EDE70120EBE7F9
:106FC0000120E9E70120E7E70120E5E700100240A2
:106FD000FFFFFFFEFFFFFFEF8C80C111FCFFFEEE05
:106FE00010B52A4B9B6838221A4207D1274B1A68E2
:106FF000D20A072313402648D84010BD234B9A6875
:1070000038231340082B3BD0204B9A683823134079
:10701000102B0DD01D4B9A6838231340202B31D0F4
:107020001A4B9A6838231340182B26D00020E4E727
:10703000164AD1680D3B0B40D26812090721114056
:107040000131032B0FD01248FBF770F80F4BDA68B1
:10705000120A7F23134058430C4BD968490F013162
:10706000FBF764F8C9E70B48FBF760F8074BDA68F1
:10707000120A7F2313405843EEE7FA20C001BCE711
:107080000448BAE780200002B7E7C046001002407B
:107090000024F40000127A0070B504000D000028EE
:1070A00000D1AAE0574B1A68072313408B4221D323
:1070B00023689A070ED55B0705D5534A9168E023EC
:1070C000DB010B439360504A936850490B40A16821
:1070D0000B4393602368DB0754D56368012B20D0F2
:1070E000022B3BD0002B3FD1474A126852051CD4DB
:1070F00001206AE0434A136807218B432B43136046
:10710000FEF792FB06003F4B1A6807231340AB4281
:10711000CED0FEF789FB801B3D4A9042F3D9032075
:1071200053E0394A1268920369D537498A680720C3
:10713000824313438B60FEF777FB0600324B9B685C
:1071400038221A406368DB009A421BD0FEF76CFBC2
:10715000801B2F4B9842F1D9032036E02A4A12684F
:107160009201E2D4012030E0032B05D0264AD26DF3
:107170009207DAD4012028E0234A126E9207D4D471
:10718000012022E01F4B1A6807231340AB421DD891
:1071900023685B0706D51C4A93681E490B40E168CB
:1071A0000B439360FFF71CFF174B9A68120A0F23DB
:1071B0001340194A9B009A581F231340D840174B7D
:1071C0001860174B1868FEF7E3FA70BD0D4A136894
:1071D00007218B432B431360FEF726FB0600094B68
:1071E0001A6807231340AB42D2D0FEF71DFB801B69
:1071F000074B9842F3D90320E7E70120E5E7012098
:10720000E3E7C0460020024000100240FFF0FFFF0D
:1072100088130000FF8FFFFF948300080001002007
:1072200008010020F0B583B0040003689B0362D519
:107230006D4BDB6BDB001ED46B4BDA6B8021490599
:107240000A43DA63DB6B0B400193019B0126674A1B
:10725000116880235B000B431360FEF7E5FA05001D
:10726000624B1B68DB0508D4FEF7DEFA401B0228E0
:10727000F6D9032502E00026E9E70025002D23D1F9
:10728000594BD96DC02292000B001340114210D00F
:10729000626A9A420DD0544AD36D55490B40D06D65
:1072A000802149020143D165D16D52480140D16529
:1072B000D365DB0710D4002D06D14B4AD36D4C4962
:1072C0000B40616A0B43D365012E15D1464AD36B3F
:1072D00049490B40D3630FE0FEF7A6FA0700424B83
:1072E000DB6D9B07E7D4FEF79FFAC01B434B984228
:1072F000F5D90325DFE700252368DB0706D53A4AE1
:10730000536D03218B4361680B4353652368DB0690
:1073100006D5354A536D3A490B40A1680B43536576
:1073200023689B0506D5304A536D36490B40616989
:107330000B43536523685B0506D52B4A536D3249D1
:107340000B40A1690B43536523689B0606D5264A6B
:10735000536D2E490B40E1680B43536523685B0472
:107360000BD5214A536D9B009B08E1690B43536584
:10737000E2698023DB059A4220D023689B020BD56B
:10738000194A536D22490B40216A0B435365226A07
:107390008023DB039A4218D023681B050BD5124AC1
:1073A000536D1C490B4021690B43536522698023AF
:1073B000DB019A4210D0280003B0F0BD0A4AD16820
:1073C00080235B020B43D360D7E7074AD168802351
:1073D0005B040B43D360DFE7034AD16880235B0281
:1073E0000B43D360E7E7C046001002400070004046
:1073F000FFFCFFFFFFFFFEFFFFFFFFEF8813000012
:10740000FFF3FFFFFFFFF3FFFFFFCFFFFFCFFFFF04
:10741000FFFFBFFFFF3FFFFFF0B5002216E00B6943
:107420009C46C4682B006B435E00F618F743B443D8
:1074300066465E433443C4604C68022C25D04D68D8
:1074400004683C406B432343036001320C68230013
:10745000D3403AD00123934025001D401C42F4D074
:107460004B68013B012BDAD88F6883682C006C4392
:1074700066003619B3437C4323438360CC6843687A
:10748000AB436C4323434360C9E7FF2D0DD84C69E0
:10749000A446066A1C006C436C4325012D1BAE43B9
:1074A00065466C4334430462C9E74C69A446466AA6
:1074B0002D0A2C006C436C436C4325012D1BAE43FD
:1074C00065466C4334434462B9E70020F0BD0000D8
:1074D000054B9A68120A0F231340044A9B009A58DE
:1074E0001F231340D84070470010024094830008C7
:1074F000054B9A68120B07231340044A9B009A58C5
:107500001F231340D84070470010024074830008C6
:1075100010B50E4BDA6803231340032B13D00C4A2B
:107520000A4CE3681B0A7F2018405043E3681B099C
:10753000072119400131FAF7F9FDE168490F0131DE
:10754000FAF7F4FD10BD034AEAE7C0460010024016
:107550000024F40000127A0010B50A4B9A68382310
:107560001340082B0CD0102B02D1FFF7D1FF10BD18
:10757000044B1A68D20A072313400348D840F6E7A1
:107580000248F4E7001002400024F40000127A00E0
:1075900010B50400FFF7E0FF2060FFF799FF60607F
:1075A000FFF7A6FFA06010BD10B5032801D0002092
:1075B00010BD164B5B6D034000040343144A934215
:1075C0000FD0144A934216D0134A934206D0FFF7C5
:1075D000C3FFFFF77DFFFFF78BFFE9E7FFF7BCFF76
:1075E000E6E70A4B1A688023DB00100018401A42B5
:1075F000DED00A48DCE7054BDB6D022210001840A4
:107600001A42D5D080200002D2E7C04600100240C6
:107610000200030003000300010003000024F40043
:1076200003681D4A904206D08022D205904202D0C3
:107630001A4A904203D1702293434A681343164A70
:1076400090420FD08022D20590420BD0134A904234
:1076500008D0134A904205D0124A904202D0124AF2
:10766000904203D1114A1A40CB68134303608B68E0
:10767000C3620B888362084B984205D0094B98423D
:1076800002D0094B984201D10B690363436901227F
:107690001343436100207047002C01400004004068
:1076A000002000400044014000480140FFFCFFFF73
:1076B00010B5040008000B2A16D80299002913D02F
:1076C000802109028B4210D0FF231340124A9B00F5
:1076D0009958FAF72BFD029B5B08C0180299FAF73C
:1076E00025FD0004000CE06010BDFF2313400A4A92
:1076F0009B009958FAF71AFD4000029B5B08C018DE
:107700000299FAF713FD054A02400004400C0723D2
:1077100003401343E360E7E7D4830008F0FF000071
:107720000F4B984204D00F4B98420DD00120704768
:107730000D4B196B8022D2010A431A631A6B0B4955
:107740000A401A630020F2E7074BD96A80229202AE
:107750000A43DA62DA6A06490A40DA620020E6E79A
:10776000003801400044004000100240FFBFFFFF0E
:10777000FFFFFDFF30B587B004000D000368DB0795
:1077800042D40368214A1A408B6809690B4369692E
:107790000B43E9690B4313430360EB6842681C49E0
:1077A0000A4013434360AB6982681A490A40134395
:1077B0008360194B98420DD0184B984215D0012088
:1077C0002B68E26A0F218A431B041B0C1343E362FC
:1077D00007B030BD0320FFF7E7FE0100002911D0FC
:1077E0006868002806D10120EAE703A8FFF7D0FE69
:1077F0000599F3E72A68EB6900902000FFF758FF2E
:107800000020DDE70120DBE70120E1E7F369FFEF7E
:10781000FFCFFFFFFFFCFFFF0038014000440040A6
:1078200010B5034B0A000100186800F003F810BD02
:107830000C01002070B50B0C150C002B1ED1002D77
:107840000CD189B294B24C43210000F043F8051EDC
:107850001AD02200002100F0EDF816E02B1C0C1CC1
:1078600089B292B24A439BB2A1B25943140C0C198B
:10787000230C07D1240492B21443E5E7002D01D173
:10788000141CEDE70C2303600025280070BD0000E8
:1078900070B50F4E0D0031680400002902D100F0D0
:1078A000DFF830602900200000F0DAF8431C03D133
:1078B00001256D42280070BD0323C51C9D43A842CD
:1078C000F8D0291A200000F0CBF80130F2D1EFE710
:1078D00000100020F7B50322CB1C934308330500AA
:1078E0001F000C2B34D20C27B94233D8280000F0EB
:1078F00071F8374E33681C00002C2FD13900280056
:10790000FFF7C6FF0400431C5FD134680094009B5E
:10791000002B4AD1002C52D023682800E31800998C
:10792000019300F09DF8019B834248D12368280011
:10793000FF1A3900FFF7ACFF013040D02368DB1994
:10794000236033685A68002A33D1009B336019E002
:10795000002BC9DA0C232B600020FEBD2168C91B57
:1079600020D40B290AD9E2192760A34204D132603E
:1079700063681160536005E05A60F9E76268A342EA
:107980000ED13260280000F02DF8200007220B30C5
:10799000231D9043C21A9842DFD01B1AA350DCE784
:1079A0005A60EFE723006468A6E7009C63680093D1
:1079B000ADE71A005B68A342FBD10023DAE70C2392
:1079C00028002B6000F00EF8C6E70760DAE7C04633
:1079D0000410002010B5024800F07EF810BDC0462B
:1079E0004411002010B5024800F077F810BDC046E1
:1079F000441100200EB400B50B499CB01DAB0290A1
:107A00000690079104910948094904CB0591006843
:107A100002A9019300F00CF90022029B1A701CB01D
:107A200008BC03B01847C046FFFFFF7F0C010020D1
:107A30000802FFFF03008218934200D170471970BB
:107A40000133F9E7020010B5137814000132002B5E
:107A5000FAD1CA5CE2540133002AFAD110BD000009
:107A6000002370B5064D040008002B60FDF75EFA98
:107A7000431C03D12B68002B00D0236070BDC0468F
:107A800040110020014B18687047C0460C010020CF
:107A900070B500260C4C0D4D641BA410A64209D1F4
:107AA000002600F09FFB0A4C0A4D641BA410A6425E
:107AB00005D170BDB300EB5898470136EEE7B3002F
:107AC000EB5898470136F2E73884000838840008FC
:107AD0003C840008388400087047704770B5050082
