:020000040800F2
:100000000020002019090008E5070008E70700089C
:1000100000000000000000000000000000000000E0
:10002000000000000000000000000000E9070008D8
:100030000000000000000000EB070008ED070008CA
:10004000690900086909000869090008F50700083E
:1000500069090008690900086909000869090008B8
:100060000000000069090008690900086909000822
:100070006909000869090008690900086909000898
:100080006909000869090008690900086909000888
:1000900000000000690900086909000869090008F2
:1000A000690900086909000869090008DD030008FA
:1000B000690900086909000800000000000000004C
:1000C00010B5064C2378002B07D1054B002B02D02E
:1000D000044800E000BF0123237010BD440000204D
:1000E00000000000B4150008044B10B5002B03D02D
:1000F0000349044800E000BF10BDC04600000000F6
:1001000048000020B4150008002243088B4274D335
:1001100003098B425FD3030A8B4244D3030B8B4208
:1001200028D3030C8B420DD3FF22090212BA030C11
:100130008B4202D31212090265D0030B8B4219D3F2
:1001400000E0090AC30B8B4201D3CB03C01A524112
:10015000830B8B4201D38B03C01A5241430B8B425A
:1001600001D34B03C01A5241030B8B4201D30B0343
:10017000C01A5241C30A8B4201D3CB02C01A52416A
:10018000830A8B4201D38B02C01A5241430A8B422D
:1001900001D34B02C01A5241030A8B4201D30B0216
:1001A000C01A5241CDD2C3098B4201D3CB01C01A30
:1001B000524183098B4201D38B01C01A524143093A
:1001C0008B4201D34B01C01A524103098B4201D328
:1001D0000B01C01A5241C3088B4201D3CB00C01A95
:1001E000524183088B4201D38B00C01A524143080D
:1001F0008B4201D34B00C01A5241411A00D2014632
:10020000524110467047FFE701B5002000F006F8A4
:1002100002BDC0460029F7D076E770477047C04658
:1002200010B50B480B4B036000230371013343717E
:1002300001225242026121324261603282610362D4
:1002400000F0B0FC002800D110BD00F0FDF9FBE784
:10025000600000200030024082B00268074B9A42E2
:1002600001D002B07047064B9A6B802149010A43C6
:100270009A639B6B0B400193019BF2E700300240B5
:100280000010024082B0054A516B022319435163AA
:10029000526B13400193019B02B070470010024063
:1002A000F8231B069C466044C00A704710B5074BF4
:1002B0001C680748074A084900F0B6FCC04384425E
:1002C00001D0002010BD0120FCE7C046FCBF0008A3
:1002D00060000020FC9F00000020000801E0002BCF
:1002E00008D10C4BDA6980210B0013401142F6D083
:1002F0000123F4E7074A906201E0002808D1054A8B
:10030000D2694021080010401142F6D01800F4E7ED
:100310007047C0460038014010B5184C200001F06D
:1003200083F82368012293432360EFF3108182F363
:10033000108823681F329343236081F310880023C1
:100340000F4A13600F4A10680321014011600E49E3
:1003500001204042802408510134FF3408510B49E8
:100360000B664B668B66CB6691690133FF330B439B
:10037000936100F08DFF00F0F9FA10BD00380140E4
:1003800010E000E00000014000E100E00018024041
:1003900010B5FFF78BFF002807D00B4B1B680B4AEB
:1003A000134080229205934200D010BDFFF7B4FFA6
:1003B000074B1B68074A1360074A1360024A12681A
:1003C00082F308889847F0E7002000080000FE2F1D
:1003D000042000088C0000208800002010B5244B69
:1003E000DB699B060AD5224B5B6ADBB2214A13709C
:1003F000214A1278002A02D0022A0DD010BD992B72
:1004000003D06620FFF76AFFF8E71B4B02221A7041
:100410008820FFF763FFF1E7184801884A1C92B271
:10042000028017484354012A0ED0144B1A88154BEA
:100430009A42E3D1124B1B78012B11D0022B13D01F
:100440000E4B00221A80D9E70378013BDBB2012B67
:10045000EBD90A4B00221A806620FFF73FFFE4E742
:10046000054B03221A70EBE7034B04221A70E7E7EF
:10047000003801408500002084000020900000200A
:100480009400002008080000F0B5C64600B586B00C
:1004900000230593354A5678360693781B041E438D
:1004A000D3781B021E4313791E4380231B019846F9
:1004B000B04453791B0292799B189BB2002B08D150
:1004C0002A482B4A002101F049F806B080BCB84602
:1004D000F0BD322000F08CFC00F072FC0028FBD153
:1004E0003000FFF7DDFE022301930390013B0493EC
:1004F000322000F07DFC05A901A800F00FFD0028C6
:10050000F6D1082729E0194BDD5D7A1C9A5C1202AE
:100510001543BA1C9A5C12041543FA1C9A5C120625
:1005200015433A1D9C5C7A1D9A5C12021443BA1D55
:100530009A5C12041443FA1D9B5C1B061C43322078
:1005400000F056FC2A0023003100012000F086FC58
:100550000028F4D108360837BFB24645D3D300F09F
:10056000AFFC322000F044FCAAE7C0469400002013
:100570000808000070B51CE0EFF31082012686F336
:100580001088204C23682025AB43236082F3108819
:10059000FFF77AFFEFF3108286F3108823682B436E
:1005A000236082F310887720FFF798FE164B022213
:1005B0001A70154B1B78032BDED0042BF9D1772052
:1005C000FFF78CFEEFF31082012686F310880D4CA6
:1005D00023682025AB43236082F31088FFF754FF84
:1005E000EFF3108286F3108823682B43236082F395
:1005F00010885520FFF772FE0A2000F095FFFFF7E4
:10060000C7FED6E7003801408400002000B587B05F
:100610001422002101A800F0A1FF094A516B012317
:1006200019435163526B1A400092009AC022019202
:10063000039301A9034800F0B5FC07B000BDC04614
:10064000001002400004005072B6FEE710B52F4AB9
:10065000136807218B4305390B4313602B4B1A6832
:1006600007231340022BF9D1294A1168FE330B43AB
:10067000136001E0012B09D0254B19688022D200BC
:100680000B0013401142F5D00123F3E7204AD06854
:100690002049084020490143D16010688021490465
:1006A00001431160D068802149050143D16001E018
:1006B000012809D0164A11688022920408001040CF
:1006C0001142F5D01800F3E7114A936813490B4023
:1006D0009360936807218B4305390B4393600C4B60
:1006E0009A6838231340102BF9D1094A93680C49B2
:1006F0000B4093600B4800F02BFF032000F04AF9F9
:10070000002800D110BDFFF79FFFC0460020024027
:10071000001002408C80FF1F02080020FFF0FFFF46
:10072000FF8FFFFF0090D00310B500F05FF9FFF7D7
:100730008DFFFFF7A7FDFFF773FDFFF767FF96201B
:10074000400000F0F1FE154B1B695B0603D4134B10
:100750001B691B0611D5FFF71BFE00F051F8EFF3E4
:100760001081012383F310880D4A1368202003436E
:10077000136081F31088FFF7FDFE00F041F8EFF3FE
:100780001081012383F31088054A10681F33034347
:10079000136081F31088FFF7EDFEC046000400509F
:1007A0000038014000B583B00D4B196C0122114394
:1007B0001964196C0A400092009ADA6B802149058D
:1007C0000A43DA63DB6B0B400193019B002200219B
:1007D000032000F07DF9032000F07EF903B000BD96
:1007E00000100240FEE7FEE77047704710B500F0CA
:1007F00011F910BD10B500F083FA10BD704700006C
:1008000030B591B02022002108A800F0A7FE1822E0
:10081000002102A800F0A2FE384B5A6D03218A4342
:100820005A651A6C8021C9010A431A641A6C0A407D
:100830000192019A5A6B022422435A635B6B234054
:100840000093009B4023029303942D4D02A928009E
:1008500000F062FC80230293039400240494059426
:100860000694079402A9280000F056FC254AC621E8
:10087000890053581B021B0A535080231B05136029
:100880000894E1235B0209930A940B940C940C23C3
:100890000D930E940F941C4C08A9200000F0EEFD5F
:1008A000EFF31081012282F31088A368DB00DB08DC
:1008B000A36081F31088EFF3108182F31088A3689E
:1008C00012480340A36081F31088236810490B404D
:1008D000236063680F490B406360A3682A218B4340
:1008E000A360236813432360074BDB699B02FBD59E
:1008F000054BDB695B02F7D511B030BD001002403B
:100900000004005000E100E000380140FFFFFFF16B
:10091000FFFFFFDFFFB7FFFF0D488546FFF76EFFC4
:100920000C480D490D4A002302E0D458C45004334A
:10093000C4188C42F9D30A4A0A4C002301E0136020
:100940000432A242FBD300F011FEFFF7EDFEFEE7FA
:10095000002000200000002044000020781600083D
:1009600044000020BC080020FEE7704710B5084B8B
:1009700001214942D9620022DA6219631A6399623D
:100980009A6259625A62FFF7F0FF002010BDC0461C
:100990000010024010B50400114B1978002901D154
:1009A000012010BDFA208000FFF7AEFB01000D4BC7
:1009B0001868FFF7A9FB00F09BF800280DD1032C65
:1009C00001D90120EDE7013000222100404200F072
:1009D0007FF8054B1C600020E3E70120E1E7C046FB
:1009E00004000020000000200800002010B5084A84
:1009F000116880235B000B4313600320FFF7CAFFDD
:100A0000041E02D00124200010BDFFF7CBFEFAE740
:100A100000200240034B1B78034A11685B181360E7
:100A20007047C046040000209C080020014B186855
:100A30007047C0469C08002070B5002811DB830871
:100A4000134DC0339B005C5903221040C000FC32A0
:100A500016008640B44389010A40824022435A511D
:100A600070BD0F230340083B9B0806339B00094AD7
:100A7000944663445C6803221040C000FC321500B9
:100A80008540AC4389010A40824022435A60E7E72F
:100A900000E100E000ED00E0013880235B049842B3
:100AA0000FD2094A50600948036A1B021B0AC02181
:100AB00009060B4303620023936007331360002091
:100AC00070470120FCE7C04610E000E000ED00E0C8
:100AD00010B5FFF7B1FF10BD002805DB1F22024053
:100AE00001239340014A13607047C04600E100E0D3
:100AF00010B5FFF7D1FF10BD70B500250EE0AC00BA
:100B00000B5D1B060C19667836043343A678360253
:100B10003343E67804683343236001359308AB42DE
:100B2000EDD803231C001440134205D0012C06D03D
:100B3000022C09D0032C10D00368186870BDAB00DC
:100B40000268CB5C1370F3E7AB00CA5C1202CB18EF
:100B50005B78134302681380ECE7AD004A5D120234
:100B600049194B7813430268138003688A781A7016
:100B7000E2E770B5002508E0AC000B5B1B040C1924
:100B8000668804683343236001355308AB42F3D8C9
:100B9000D20703D50368AD006A5A1A800368186843
:100BA00070BD000010B5041E39D0437F002B25D046
:100BB000022363772379002B24D12368194A5A61D1
:100BC0002268936818218B4393606379002B22D1AC
:100BD0002368012252421A612268936860218B4384
:100BE00061690B4393602268936880218B43A169FC
:100BF0000B43936001236377002010BD0377FFF759
:100C00002BFBD5E7E268A168200000F035F800284A
:100C1000DBD00120F1E7236822691A61DCE70120BB
:100C2000EBE7C046B71DC10470B50400022343774B
:100C30000068836801252B438360236A022B17D049
:100C4000032B0FD0012B0FD000200123637770BD41
:100C500020689D006D58056001339342F8D32368E6
:100C60001868F2E70023F8E72000FFF745FFECE7FC
:100C70002000FFF77EFFE8E730B5CB072AD51F231A
:100C80001C00013B002C06D01F241C400D00E54039
:100C90002C00E407F4D5102A18D009D8002A0BD06C
:100CA000082A03D10F2B07D9012014E0012012E0FC
:100CB000182A11D1062B11D80368596101688B6875
:100CC0001820834313438B60002004E0072BF3D9E3
:100CD000012000E0012030BD0120FCE70120FAE7FF
:100CE00030B5054C61690125294361610260BFF39C
:100CF0006F8F436030BDC046002002407047704790
:100D000010B52A4B1B692A4A13402A4A9268510798
:100D100021D5284A1469002B2AD1244B1B69DB07F3
:100D20000CD5224B01221A61224B9B68022B2CD03E
:100D3000204B00229A602000FFF7E0FF1D4B9B68CC
:100D4000002B07D1194A53691B490B405361194BBA
:100D500000221A7010BD154841699143416117493D
:100D60000A4202D0134AD468D5E7124A5469D2E73E
:100D7000104A51680B4353600C4B0D491961002315
:100D800093602000FFF7BBFFC7E70A4A9369013B66
:100D90009361002B03D1074B00229A60CBE7516986
:100DA00001315161106900F0A9F8C4E70020024048
:100DB000FAC30000A0080020FFFFFFFC01000400B0
:100DC000084B5B69002B01DB00207047054B064A8E
:100DD0009A60064A9A605B69002B01DB0020F4E709
:100DE0000120F2E70020024023016745AB89EFCDE7
:100DF00070B50400FFF71AFE0500144B1B69DB03F6
:100E000008D5631CF9D0FFF711FE401BA042F4D3B4
:100E100003201AE00D490A690D4B16001E400D48CB
:100E200008611A420CD1094B1B695B030CD5631C8A
:100E3000F9D0FFF7FBFD401BA042F4D3032004E0F0
:100E4000054B5E60012000E0002070BD00200240E4
:100E5000FAC30000FBC30000A0080020F8B507009B
:100E60000C0015001E00144B1B78012B22D0124BD6
:100E700001221A7000225A60FA208000FFF7B8FFA2
:100E800000280DD1012F0FD02900200000F0A0FB79
:100E9000FA208000FFF7ACFF084A5369BB43536157
:100EA000054B00221A70F8BD2A0033002000FFF71E
:100EB00017FFEDE70220F6E7A0080020002002401F
:100EC00010B5FA208000FFF793FF064B5969802286
:100ED00012060A435A615B69002B01DB012010BD39
:100EE0000020FCE700200240034A536903438020AE
:100EF000400218435061704700200240044A536981
:100F000004480340C9001943034B0B435361704726
:100F10000020024007E0FFFF0200010070B504005E
:100F20000E001E4B1B78012B36D01C4B01221A7071
:100F300000225A60FA208000FFF75AFF002827D1CC
:100F4000042363602368042B14D001235B423360C5
:100F5000A568A368E2689B18AB4214D960682900B1
:100F6000FFF7CCFFFA208000FFF742FF002809D1ED
:100F70000135EEE70430FFF7B7FFFA208000FFF7F6
:100F800037FF05E03560064A536902218B43536100
:100F9000024B00221A7070BD0220FCE7A00800205E
:100FA00000200240F0B5002359E086685F0003246A
:100FB000BC40A643CC68BC4034438460446894433E
:100FC0004E683609012232409A402243426056E080
:100FD000DE080836B600375805321A4092000F2452
:100FE0009440A7430C69944022003A43325059E0A0
:100FF000032600E00026A64034003C43424E18324F
:10100000920094513768EA433E00AE434C68E402D4
:1010100001D53E002E433C4C266067683E001640DA
:101020004C68A40201D53E002E43374C66608426EE
:10103000A7593E0016404C68A40301D53E002E433C
:10104000314C8427E6518026A65932404C68E4038F
:1010500001D52A0032432C4D80242A5101330C68DB
:101060002200DA404ED001229A4025001540144259
:10107000F4D04E6803243440013C012C95D94C68CF
:1010800003222240032A08D0C4685E000322B24033
:1010900094438A68B2402243C2604C6803222240D3
:1010A000022A95D004685E0003221700B740BC43B3
:1010B0004F683A40B240224302604C68C02292021C
:1010C0001442CBD09A0814001834A4000E4EA7592D
:1010D00003241C40E4000F26A640B743A026F605D3
:1010E000B04287D0094EB04208D0094EB04207D076
:1010F000084EB04200D17BE705267CE701267AE75F
:10110000022678E7F0BDC0460018024000040050F7
:1011100000080050000C0050F0B5002216E00B69EA
:101120009C46C4682B006B435E00F618F743B4433B
:1011300066465E433443C4604C68022C25D04D683B
:1011400004683C406B432343036001320C68230076
:10115000D3403AD00123934025001D401C42F4D0D7
:101160004B68013B012BDAD88F6883682C006C43F5
:1011700066003619B3437C4323438360CC684368DD
:10118000AB436C4323434360C9E7FF2D0DD84C6943
:10119000A446066A1C006C436C4325012D1BAE431C
:1011A00065466C4334430462C9E74C69A446466A09
:1011B0002D0A2C006C436C436C4325012D1BAE4360
:1011C00065466C4334434462B9E70020F0BD00003B
:1011D000054B9A68120A0F231340044A9B009A5841
:1011E0001F231340D840704700100240001600082B
:1011F000054B9A68120B07231340044A9B009A5828
:101200001F231340D840704700100240E01500082B
:1012100010B50E4BDA6803231340032B13D00C4A8E
:101220000A4CE3681B0A7F2018405043E3681B09FF
:10123000072119400131FEF767FFE168490F0131CD
:10124000FEF762FF10BD034AEAE7C0460010024005
:101250000024F40000127A0010B50A4B9A68382373
:101260001340082B0CD0102B02D1FFF7D1FF10BD7B
:10127000044B1A68D20A072313400348D840F6E704
:101280000248F4E7001002400024F40000127A0043
:10129000234A116880235B000B43136001E0012B9C
:1012A00009D01F4B19688022D2000B001340114255
:1012B000F5D00123F3E71A4A50681A490840802103
:1012C000C90101435160002191600131FF3111607A
:1012D00001E0002809D0124A116880229202080019
:1012E00010401142F5D01800F3E70D4A8021490063
:1012F000116001E0002809D0094A11688022920497
:10130000080010401142F5D01800F3E7044B80228A
:101310005201DA6000229A61013A1A627047C046AF
:1013200000100240FF80FFFF10B50400FFF794FF9C
:101330002060FFF74DFF6060FFF75AFFA06010BD0F
:1013400010B5032801D0002010BD164B5B6D034083
:1013500000040343144A93420FD0144A934216D018
:10136000134A934206D0FFF777FFFFF731FFFFF7ED
:101370003FFFE9E7FFF770FFE6E70A4B1A688023B3
:10138000DB00100018401A42DED00A48DCE7054BAB
:10139000DB6D0222100018401A42D5D080200002D6
:1013A000D2E7C04600100240020003000300030021
:1013B000010003000024F40010B5040008000B2A0B
:1013C00016D80299002913D0802109028B4210D02F
:1013D000FF231340124A9B009958FEF795FE029B8B
:1013E0005B08C0180299FEF78FFE0004000CE06055
:1013F00010BDFF2313400A4A9B009958FEF784FE54
:101400004000029B5B08C0180299FEF77DFE054A6A
:1014100002400004400C072303401343E360E7E766
:1014200040160008F0FF00000F4B984204D00F4B0D
:1014300098420DD0012070470D4B196B8022D201CC
:101440000A431A631A6B0B490A401A630020F2E739
:10145000074BD96A802292020A43DA62DA6A0649A5
:101460000A40DA620020E6E700380140004400400C
:1014700000100240FFBFFFFFFFFFFDFF30B587B048
:1014800004000D000368DB0742D40368214A1A40B8
:101490008B6809690B4369690B43E9690B43134383
:1014A0000360EB6842681C490A4013434360AB6920
:1014B00082681A490A4013438360194B98420DD041
:1014C000184B984215D001202B68E26A0F218A43FD
:1014D0001B041B0C1343E36207B030BD0320FFF76E
:1014E0002FFF0100002911D06868002806D10120D3
:1014F000EAE703A8FFF718FF0599F3E72A68EB6905
:1015000000902000FFF758FF0020DDE70120DBE717
:101510000120E1E7F369FFEFFFCFFFFFFFFCFFFFD3
:10152000003801400044004082B0084B1B68019322
:10153000019B431C00D00130002805D0034B1B68E1
:10154000DB03F9D50138F7E702B0704710E000E09F
:10155000014B18607047C04600000020030082184D
:10156000934200D1704719700133F9E770B5002636
:101570000C4C0D4D641BA410A64209D1002600F0AE
:1015800019F80A4C0A4D641BA410A64205D170BD7F
:10159000B300EB5898470136EEE7B300EB58984795
:1015A0000136F2E77016000870160008741600087D
:1015B00070160008F8B5C046F8BC08BC9E467047D7
:1015C000F8B5C046F8BC08BC9E4670470000000055
:1015D00001B40248844601BC604700BF0D000020F2
:1015E00000000000000000000000000000000000FB
:1015F00001000000020000000300000004000000E1
:1016000000000000000000000000000000000000DA
:1016100000000000000000000000000000000000CA
:1016200001000000020000000300000004000000B0
:10163000060000000700000008000000090000008C
:10164000010000000200000004000000060000008D
:10165000080000000A0000000C000000100000005C
:101660002000000040000000800000000001000099
:10167000E9000008C10000080024F4000100000097
:101680000400000010B50C4A54698023DB02234398
:101690005361EFF3108472B6002303E004C904C061
:1016A0000133DBB23F2BF9D9034B1B69DB03FBD4BE
:1016B00084F3108810BDC04600200240FFFFFFFFEA
:1016C000FFFFFFFFFFFFFFFFFFFFFFFFFFFFFFFF2A
:1016D000FFFFFFFFFFFFFFFFFFFFFFFFFFFFFFFF1A
:1016E000FFFFFFFFFFFFFFFFFFFFFFFFFFFFFFFF0A
:1016F000FFFFFFFFFFFFFFFFFFFFFFFFFFFFFFFFFA
:101FF000FFFFFFFFFFFFFFFFFFFFFFFFFFFFFF01EF
:102000000020002029580008494B00084B4B0008CD
:1020100000000000000000000000000000000000C0
:102020000000000000000000000000004D4B000810
:1020300000000000000000004F4B0008514B00085A
:10204000795800087958000879580008594B000859
:1020500079580008614B0008795800087958000841
:10206000000000006B4B00086D4B0008114C00088D
:1020700079580008795800087958000879580008FC
:10208000795800087958000879580008C14C0008B0
:1020900000000000214D0008654D00087958000837
:1020A000795800087958000879580008894D0008C7
:1020B000D94E000879580008000000000000000018
:1020C00010B5064C2378002B07D1054B002B02D00E
:1020D000044800E000BF0123237010BD84010020EC
:1020E00000000000147D0008044B10B5002B03D045
:1020F0000349044800E000BF10BDC04600000000D6
:1021000088010020147D0008002243088B4274D30C
:1021100003098B425FD3030A8B4244D3030B8B42E8
:1021200028D3030C8B420DD3FF22090212BA030CF1
:102130008B4202D31212090265D0030B8B4219D3D2
:1021400000E0090AC30B8B4201D3CB03C01A5241F2
:10215000830B8B4201D38B03C01A5241430B8B423A
:1021600001D34B03C01A5241030B8B4201D30B0323
:10217000C01A5241C30A8B4201D3CB02C01A52414A
:10218000830A8B4201D38B02C01A5241430A8B420D
:1021900001D34B02C01A5241030A8B4201D30B02F6
:1021A000C01A5241CDD2C3098B4201D3CB01C01A10
:1021B000524183098B4201D38B01C01A524143091A
:1021C0008B4201D34B01C01A524103098B4201D308
:1021D0000B01C01A5241C3088B4201D3CB00C01A75
:1021E000524183088B4201D38B00C01A52414308ED
:1021F0008B4201D34B00C01A5241411A00D2014612
:10220000524110467047FFE701B5002000F0F0F89A
:1022100002BDC0460029F7D076E7704703460B435E
:102220007FD4002243088B4274D303098B425FD3CF
:10223000030A8B4244D3030B8B4228D3030C8B42FB
:102240000DD3FF22090212BA030C8B4202D31212E1
:10225000090265D0030B8B4219D300E0090AC30BB6
:102260008B4201D3CB03C01A5241830B8B4201D363
:102270008B03C01A5241430B8B4201D34B03C01A4C
:102280005241030B8B4201D30B03C01A5241C30AC4
:102290008B4201D3CB02C01A5241830A8B4201D335
:1022A0008B02C01A5241430A8B4201D34B02C01A1F
:1022B0005241030A8B4201D30B02C01A5241CDD2C4
:1022C000C3098B4201D3CB01C01A524183098B420F
:1022D00001D38B01C01A524143098B4201D34B01F8
:1022E000C01A524103098B4201D30B01C01A52415B
:1022F000C3088B4201D3CB00C01A524183088B42E2
:1023000001D38B00C01A524143088B4201D34B00CA
:10231000C01A5241411A00D201465241104670473C
:102320005DE0CA0F00D04942031000D34042534041
:1023300000229C4603098B422DD3030A8B4212D301
:10234000FC22890112BA030A8B420CD38901921133
:102350008B4208D3890192118B4204D389013AD070
:10236000921100E08909C3098B4201D3CB01C01A45
:10237000524183098B4201D38B01C01A5241430958
:102380008B4201D34B01C01A524103098B4201D346
:102390000B01C01A5241C3088B4201D3CB00C01AB3
:1023A000524183088B4201D38B00C01A5241D9D2CB
:1023B00043088B4201D34B00C01A5241411A00D24C
:1023C0000146634652415B10104601D34042002B48
:1023D00000D54942704763465B1000D3404201B5C7
:1023E000002000F005F802BD0029F8D016E770477C
:1023F0007047C04670B500220C4B04000D0001F080
:1024000033FA002804D12000290001F08FF970BDB3
:10241000064B00222000290000F0ECFD01F086F9B7
:1024200080231B069C466044F1E7C0460000E04163
:10243000F0B5DE46454657464E46E0B587B00092B9
:1024400001930B031B0B9B46CA0F4B0004008046F5
:102450005B0D029200D16AE1D44A934200D18CE133
:102460005946420FC9000A43802109041143C200A2
:102470009046CF4A894692469A440023002403930B
:10248000009E019F3B031B0B9B467B0030005B0DB6
:10249000FD0F002B00D128E1C44A934200D177E11F
:1024A0005946720FC9000A438021090411438B4623
:1024B000BF49F2008C4651466344CB1A9A4600232A
:1024C000029E6E400F2C27D8BA49A40009598F46A6
:1024D000CB464246029E039B022B16D0032B00D113
:1024E000A6E2012B00D0DFE000220023002490466A
:1024F0001B052343F60733434046190007B0F0BCE1
:10250000BB46B246A946A046F0BD00220024904634
:10251000A64BEDE72E00DFE7CB4500D2D4E100D19A
:10252000CFE101235B429C46444648460027E244F3
:102530005B46150E1B021D43190C2B04120200955D
:102540001D0C914602910395FFF764FE02006A4359
:102550000B04210C804619438A4209D9009D0123AE
:10256000AC465B4261449C46E0448D4200D8FBE1AE
:10257000881A0299FFF74EFE039A24044243090485
:10258000240C03000C43A24206D90099013B8C465F
:102590006444A14200D8E1E1A01A424612041A4361
:1025A00093464B4659461B0C1D0004930B044946A9
:1025B0000904090C0C001B0C5C43120C6B4388468D
:1025C00051436A43250CAC465B186344994203D9D6
:1025D000802149028C466244190C24041B04240CFB
:1025E0008A181C19904202D316D1A74214D25B4616
:1025F000009D013B4F4405934F459B41AC465B42D8
:102600006344C018854200D3A1E1824200D9F6E1BB
:1026100000D1F1E1059B9B463C1BA742BF41009DB9
:10262000801A7F42C01B854200D1D0E10299FFF79A
:10263000F1FD039A0B044243210C070019438A421F
:1026400000D978E1881A0299FFF7E4FD039A24047F
:1026500042430904240C03000C43A24200D95DE16B
:102660004146A41A3A041A43049D13041B0C59430F
:1026700047466B439C46100C47430B0CBC446344D9
:1026800068439F4203D980256D02AC4660441F0C0D
:1026900009041B04090C3F185B18BC4200D202E17C
:1026A00000D1FDE001231A43434B5344002B00DCCF
:1026B000AEE0510700D098E15946C90106D5594608
:1026C0003E4B194080238B46DB0053443C498B42F0
:1026D00000DD1AE75946D208490711435A465B05FF
:1026E00054028846240B5B0D02E75A46009B1A43AE
:1026F00000D17EE05B46002B00D100E1584601F09E
:10270000BDF8020003000B3A1D27009EBA1A1900FB
:102710005846D64008398840320002439346009A12
:102720008A40284953448A469A440023C8E65B46B7
:102730000343994656D05B46002B00D1CDE0584666
:1027400001F09CF80B235B429C46020084446646E1
:102750001D239B1B260011005846DE400839884087
:1027600033000343994623008B409846164B0024C0
:102770009B1A9A460023039382E65A4602439146E7
:102780002AD100229A46022390460824039377E632
:102790005A46009B1A430D4B9C46E244002A17D12F
:1027A00002231C4300239B46023389E6FF070000F7
:1027B00001FCFFFF447D0008FF030000FFFFFFFE58
:1027C000FE070000F30300000DFCFFFF01F8FFFF10
:1027D000032332001C4373E69A460323D9460C2494
:1027E00003934DE6002398469A460133042403934D
:1027F00046E601231C4300239B46013360E6002389
:10280000802498460026924B240371E6012252420E
:102810000121C91A382900DD66E61F2900DCABE07A
:102820001F204042C31A5846D8400300202904D034
:1028300058468849514488400243511E8A411A43F0
:10284000072319000024114013420CD00F2313401A
:10285000042B00D1F9E0111D91429B410A005B421B
:1028600059075B021C0BD2080A43904600233FE63F
:1028700080244B462403234209D05B46234206D1E1
:102880001C4324032E009046714B240B30E6802419
:102890004B4624031C432403029E6D4B240B27E666
:1028A000002B00D100E70098511E84466444844206
:1028B00000D284E0BC4200D2AEE000D1C1E00A0008
:1028C000F0E6424500D92CE64B46DC075808434663
:1028D0005B081C434346DF072AE600F0CFFF1523C1
:1028E0009C4684440200634620321C2B00DC2EE709
:1028F00023000838834099460023984636E700F0C5
:10290000BDFF02000300153220331C2A00DCFBE669
:1029100000990838814000228B4602E70099013B6C
:102920008C466444A14200D99AE6A24200D897E6B8
:10293000831E644494E6AC466144013F8D4200D955
:1029400080E68A4200D87DE6871E61447AE68542A9
:1029500000D05FE6B94500D95CE656E6A24200D851
:102960001AE6831E644417E68A4200D800E6AC46A5
:10297000831E98466144FBE537481400504482406A
:102980005B4617008340CC407A1E974123433B436C
:102990001A005B46CB40510709D00F211140042992
:1029A00005D0111D9142924152429B180A00190212
:1029B00000D455E7002201230024904698E50A0040
:1029C000BC4200D06EE64B4500D06BE66CE6234B74
:1029D000234A5344924500DA18E7012149420A1D6F
:1029E0008A42894149428B4466E60F2111400429FD
:1029F00000D161E61100F2E7BC4200D80AE60223EA
:102A00005B429C4600994F444F459B41E3448C46B2
:102A10005B426344C018FFE54946009D48004845B5
:102A20008941AC46494261448146023A6418C7E78D
:102A300080245B4624031C4324039046044B240B50
:102A400056E59945E8D30A00BDE7002308E7C046EC
:102A5000FF0700003E0400001E040000FF0300000A
:102A600002FCFFFFF0B55746DE464E464546E0B550
:102A70001F000B031B0B16009A46CA0F4B000400E5
:102A8000934687B05B0D00D1D5E0BB4A934200D19D
:102A9000F8E05146420FC9000A438021090411435E
:102AA000C2009146B54A8A469D1800239846029373
:102AB0003C037B00FA0F3000240B5B0D009200D129
:102AC00096E0AD4A934231D0720FE4002243802455
:102AD00024041443A94AF000944663445B195A1C29
:102AE0000192424600260A2A42DC5A4600994A4090
:102AF00093464246022A32DC013A012A00D949E1D2
:102B0000022E00D1CAE0012E3DD100230024002274
:102B100010005A461B052343D2071343190007B080
:102B2000F0BCBB46B246A946A046F0BD924B264338
:102B3000EB18002E00D1BBE00322414611435A4658
:102B4000884600994A40802109018C462900614449
:102B5000019141460A2900DD33E2934603264246AD
:102B600001279740A6213A00C9000A400F4231D000
:102B7000029E022E00D135E2032E00D1D2E154464E
:102B80004846012EC1D0019A7D4B94466344002BE8
:102B900000DCC0E0420709D00F220240042A05D021
:102BA000021D82428041404224181000E20106D5F5
:102BB000744B019A1C4080239446DB006344724AA4
:102BC00093426BDC6207C00864025B050243240B7E
:102BD0005B0D9DE7902189000F4263D188223A4224
:102BE00000D1D7E0009BA2469B4681460296BFE7F4
:102BF0002300334300D17FE0002C00D1ADE1200061
:102C000000F03CFE020003000B3A1D201900821A5E
:102C100030000839D0408C400443300088405B4A83
:102C2000EB1A944663445A1C0192424600260A2A33
:102C300000DC5AE79CE753460343994654D0534679
:102C4000002B00D177E1504600F018FE0B235B42C9
:102C50009C460200844411005046083988401D23D8
:102C6000804660461B1A2000D840030040460343BC
:102C70009A4623008B4099460023444D9846AD1A4E
:102C8000029315E752460243914626D100221D00C9
:102C90000223924608329046029309E7002400225C
:102CA000354B35E7002380249B462403324B2FE726
:102CB0000222414611438022120194462A006244B6
:102CC000884601920A2900DD52E75A460020009901
:102CD00004004A40934602260BE70C221D00032302
:102CE000814690460293E3E600239A4604339846D1
:102CF000033B00250293DBE6424601331A432B00D7
:102D000090465A1C019242460024002001260A2ABD
:102D100000DCEAE62CE70122D21A382A00DDF4E6CC
:102D20001F2A00DC2AE11F214942CB1A2100D94089
:102D30000B00202A05D0164A019D94466544AC40FC
:102D40002043421E904118430723190000240140EC
:102D500003420CD00F230340042B00D140E1031D9C
:102D60008342A4411800644261076402240BC20834
:102D700000230A43CCE6C046FF07000001FCFFFF2A
:102D8000FF030000FFFFFFFEFE0700000DFCFFFF3A
:102D90003E04000049464A460904090C0D00160C81
:102DA000020C0004000C4543AC4605007543A846E0
:102DB00015000F007543009202952A00009D6F4395
:102DC00065462D0CA94647444F44B84505D9150022
:102DD000802252029046454402953D0C039565467B
:102DE0002D043F042D0CAC463D0065440495250C94
:102DF0002404240CAC4625007543A84665460F0004
:102E00006943414489466743390C49446E438845C8
:102E100003D980225202904646440D0CA846350044
:102E200045440595039D3F04A8463F0C0904C91974
:102E300088444546039555462E04360C2F0C350024
:102E40004543784381463800A8462D0CAA46009A8F
:102E5000504372434A445244914503D980256D0240
:102E6000A9464844150CA94645462D042D0CA846F4
:102E700065467D43120448449044A94632006546A5
:102E800062436E437C43170C3619BF19BC4203D909
:102E900080246402A446E144029C039EA446059D4E
:102EA00066448E428941AC4612043C04120CA218BE
:102EB0006244494254184644A4464645A4418246C9
:102EC0006442A046AA4292418C458941E244D044E2
:102ED000494252420A43A045A44182458941644285
:102EE00049420C4341463F0CD2191219CC0D0499AA
:102EF00070020843411E884141464A44F60D520281
:102F00003043490214430843D20135D50122430816
:102F100002401343E0071843640834E6009BA246CE
:102F20009B4681468024534624031C4324034A467F
:102F30002E4B240BECE500F0A1FC15239C468444A9
:102F40000200634620321C2B00DC84E600239946F5
:102F50002300083883409A468EE600F08FFC02007A
:102F60000300153220331C2A00DC4EE60200340038
:102F7000083A0020944052E6019304E61C4B2100DD
:102F80009C460300019DD3406544A94019430300BA
:102F9000AB40581E834119430800D4404B0709D069
:102FA0000F230B40042B05D00B1D8B428041404268
:102FB00024181800230200D4D6E60123002400229E
:102FC000A6E50F29AAD1802352461B031A42A9D095
:102FD0001C42A7D11C43009B02009B46034B97E574
:102FE0000024C1E60024014B220091E5FF07000008
:102FF0001E040000F0B54E464546DE465746E0B595
:1030000085B0009001910C034F00CE0F610A009C27
:10301000B046640F0C4300997F0DC80011001A00E0
:103020001B039C460091019251004B0D9946019B58
:10303000009DD90F63466A0F5B0A1343EA0094466A
:103040009346C14A03900293914500D1CDE00125FA
:1030500069404D467D1BAA468E4200D180E0002D7E
:1030600000DC35E34946002900D1DFE0974200D17A
:1030700094E152460125382A19DC8022029B120471
:103080001343029352461F2A00DDE3E153462022F8
:103090006146029DD21A9540D9400D436146914048
:1030A0000A00511E8A411543029ADA40A41A451BB0
:1030B000A84280414042241A230200D43DE1640228
:1030C000640A002C00D147E1200000F0D7FB030088
:1030D000083B20212800CA1AD0409C4002009D4095
:1030E00022439F4200DD77E1D81B0130091A2C00F2
:1030F0008D40C4406B1E9D411300C2408B40254350
:10310000002714001D436B0709D00F232B40042B0D
:1031100005D02B1DAB42AD416D4264191D00230249
:1031200000D440E1884A0137974200D101E10126ED
:1031300043468649ED0821404A072A437C054D0253
:103140002D0B640D1E4024052C43F607344310005C
:10315000210005B0F0BCBB46B246A946A046F0BD72
:10316000002D00DCD0E24946002900D0D4E06146C1
:10317000029B194300D12BE1691E012D00D1D9E139
:10318000954200D10AE10125382917DC8A465346C9
:103190001F2B00DDE7E12022D21A029B61469340FB
:1031A0001D005346D940634693401A000D43511EFB
:1031B0008A4153461543029ADA40A4182D188542D5
:1031C000804140422418230200D4B6E05E4B013710
:1031D0009F4200D1ADE001215C4B6A081C402940B0
:1031E0000A43E507154364088DE7594A029B924656
:1031F0006246BA441A432CD08E422ED05246002A40
:1032000060D0002F00D1DBE063460E00029CD8089E
:1032100062070243E4081300234300D154E28025EF
:103220002D0325432D03484C2D0B8CE76146029B53
:10323000194300D1CCE029000139012D00D188E1EA
:10324000954200D1AAE00125382900DD2FE78A4602
:1032500018E7012251408E42D0D15346002B00D1B5
:10326000BEE0002F00D038E1CA462200024300D160
:10327000E2E15346591E012B00D10DE2324A92453C
:1032800000D1D2E10127382913DC1F2900DDEEE14E
:103290002022029B521A250007009A46CC409040FB
:1032A0009540CF40A244421E904153462F430743CE
:1032B00002933D00654465459241029B52424F4650
:1032C000D41880E7234A7D1C154200D0AAE062464C
:1032D0002500029B05431A43002F00D0F5E0002D86
:1032E00000D16BE1002A00D152E16346C51A029B6E
:1032F000E21AA8429B415B42D31A1A0200D4D5E1DC
:1033000063461D1AAC4592410126029B52421C1B8A
:103310008846A41A0E40F6E697423FD05246012551
:10332000382A00DD4AE78022029B120413430293ED
:103330002DE73C000025002205E707232B40002B4A
:1033400000D0E2E66BE0C046FF070000FFFF7FFF12
:1033500001F8FFFFFE070000280000F08FFA0300CD
:1033600018331F2B00DCB4E62A00083882409F4245
:1033700000DDB9E0DB1B581C1F2800DCA0E11500B4
:103380001F3BDD40202805D040231B1A9A40531EC6
:103390009A411543072300272B40D0E7C008620756
:1033A0000243E40837E7EA0863071A43D34BE4080B
:1033B0009F4200D12FE72403250B7C05640DC2E654
:1033C000CA462200024358D163460E00029C039372
:1033D000039B5746DA08E7E7C94CFF1A144092E608
:1033E000C84D7A1C2A4200D084E022000243002FFC
:1033F00000D0EFE0002A00D1E5E0624602990A43DE
:1034000000D1C5E06346C5188C46854280416444BE
:1034100040422418230202D5B94B01371C40BA465A
:103420000395D5E76246851AA842924152429146D9
:10343000029BE31A1A004B46D21A130091461A0255
:103440006CD44A464C462A4300D03AE60026002473
:10345000002578E6029953460D00203AD540202BEE
:1034600006D04022D21A0B00934062461A4393467C
:103470005B465A1E93411D4319E653465A1E012BC3
:1034800000D1C6E09D4EB24500D1BDE688460E0093
:103490000125382A10DC1F2A7FDC20212500891A0B
:1034A000070088408D40D740D440411E8841029B90
:1034B0003D431B1B054302936246551BAC4592419D
:1034C000029B52424F469C1AF6E5002D00D0B7E011
:1034D000002A00D1F0E001260E4063460298D90888
:1034E00042070A43C40896E6854CFF1A1440620757
:1034F000E40860E781498A4200D1C9E06346C11807
:1035000081428041029B4042E3181B18DD075C08A2
:10351000072349080D4317002B4010E763461D1A87
:10352000AC4592410126029B52421C1B8846A41ABC
:103530000E40C6E56346C518029B854280419C4605
:103540004042644424180127230200D4F5E60227F0
:1035500041E66346C51AA8428041029B4042E41AF4
:103560000127241AA8E5029D52462B00203AD34099
:1035700019005346202B06D04022D21A2B0093402C
:1035800062461A4393465D466B1E9D410D4315E608
:103590006207C0080243E4080DE711002700203944
:1035A000CF40202A05D040218A1A944025000543A7
:1035B0000395039D6A1E95413D437DE7002A00D196
:1035C00044E701260E406346D908029B5A070A4386
:1035D000DC08F0E6002A28D06246029FC0083A4381
:1035E00000D1DCE6620710438022E4081203144293
:1035F00009D0FD08154206D1634601262C00D808E3
:103600007B0718430E40420FC000C0085207024318
:1036100001E663461D1AAC459241029B52421C1BB7
:103620000E0088460127A41A46E56346D908029B86
:103630005A070A43DC08EEE56346029C0393C7E69B
:10364000C008002A00D1AAE6620710438022E408DD
:1036500012031442D7D0029FFD081542D3D163460E
:103660000126D8087B072C0018430E40CBE70A0040
:103670002700203AD740202905D04022521A9440F2
:10368000250005430395039D6A1E95412F4310E6CF
:1036900014000025002256E5029B604499466045CF
:1036A00092414C4452420500A4184CE71A001C00F9
:1036B0002A4300D0B3E6C9E6802400262403AEE501
:1036C00020210025091A17E5002200250B4C3AE5B8
:1036D000002D00D1F6E54B46DA1B9246002F00D1B3
:1036E0006FE6382A05DC80263604344388460E000F
:1036F000D1E688460E000125DEE6C046FF07000041
:10370000FFFF7FFFFE070000002D00D168E64B465B
:10371000D91B002F01D18A46A7E50127382900DDF2
:10372000C7E5802212041443AFE5C0460B00020037
:1037300070B5164D0C0382B0490000200092019331
:10374000240B490DDE0FA94204DD1148814203DD3F
:10375000104BF01802B070BD8020400320430E4C87
:10376000641A1F2C08DD0D4B5B1AD8400300584229
:10377000002EEFD11800EDE7094B009A9C4603009C
:1037800061448B40E2401343F1E7C046FE03000072
:103790001D040000FFFFFF7F33040000130400003E
:1037A000EDFBFFFF70B5002816D0C317C5185D40AC
:1037B000C40F280000F062F8104B1B1A5B055B0D6C
:1037C0000A2814DC02002E00153296400B22121A31
:1037D000D5402D032D0B03E00024002300250026F7
:1037E0001B052B43E40723433000190070BD0B3841
:1037F00085402D0300262D0BF2E7C0461E04000075
:103800008446100062468C461900634600E0C046BC
:103810001FB500F009F9002801D40021C8421FBDDE
:1038200010B500F049F84042013010BD10B500F06D
:10383000FBF8002801DB002010BD012010BDC046B0
:1038400010B500F0F1F8002801DD002010BD0120C6
:1038500010BDC04610B500F073F8002801DC002050
:1038600010BD012010BDC04610B500F069F8002859
:1038700001DA002010BD012010BDC0461C2101232B
:103880001B04984201D3000C10391B0A984201D343
:10389000000A08391B09984201D30009043902A221
:1038A000105C40187047C046040302020101010188
:1038B0000000000000000000F0B55746DE464E460E
:1038C0004546E0B50D000400E80F83460903D80F14
:1038D000090B824619488C461F0369005E00490D9A
:1038E0003F0B760D814218D086420FD00120B142A5
:1038F0000DD1BC450BD1944209D1D3451CD0002930
:1039000005D160462043431E984100E00120F0BCF1
:10391000BB46B246A946A046F0BD01208E42F6D174
:10392000614639430F0017432743F0D15B465246A7
:10393000981A431E9841EAE70020E8E7FF070000D5
:10394000F0B557464E464546DE46E0B50D000F033E
:10395000390B83B00400804601915800E90F314FC4
:10396000400D8C466E00190382469146760D090B78
:10397000D80FBE421FD0BA450FD0002E2FD15546CA
:10398000019E3443002D27D10A433AD0002C45D163
:1039900000281AD10120404217E011433BD1002EEC
:1039A00002D1019F2743F3D0844509D16346002B00
:1039B000F0D0604609E0019F27432CD1B24524D0C6
:1039C00063460220013B1840013803B0F0BCBB46FF
:1039D000B246A946A046F0BD002CD9D0E4E7544633
:1039E000002CEDD08445EBD15645E9DCDEDB019BB4
:1039F0008B42E5D8DAD1C845E2D80020C845E4D2E8
:103A0000D4E70020002CE0D0DAE7114303D184454D
:103A1000D6D10020D9E702204042D6E78445E6D03F
:103A2000CEE7C046FF070000F0B557464E46454674
:103A3000DE46E0B50D000F0304008046E80F390BA9
:103A4000844683B05800304F400D01911E03690039
:103A500082469146490D360BD80FB94220D0BA455F
:103A60000FD000292BD101990C435146002937D1A1
:103A7000324338D0002C44D1002819D101204042D3
:103A800016E0164313D1002902D1019F2743F3D03A
:103A9000844520D063460220013B1840013807E0EE
:103AA000019F274303D18A45F4D116431FD002203A
:103AB00003B0F0BCBB46B246A946A046F0BD544692
:103AC000002CE7D08445E5D15145E3DC03DB019BC5
:103AD000B342DFD80FD06346002BCFD06046E7E774
:103AE000002CC9D0D4E70020002CE1D0D2E78445D7
:103AF000D0D10020DCE7C845CCD80020C845D7D2BB
:103B0000E9E78445E3D0C5E7FF070000BFF34F8F27
:103B1000034B044ADA60BFF34F8FC046FDE7C0464F
:103B200000ED00E00400FA0500B587B01422002182
:103B300001A804F09FF8094A516B0123194351630E
:103B4000526B1A400092009AC0220192039301A97D
:103B5000034803F025F807B000BDC046001002403E
:103B60000004005010B5064803785A1CD2B2027007
:103B70000449AA24CC540233037055238B5410BD3E
:103B8000A0010020A401002010B5064803785A1CAB
:103B9000D2B2027004495524CC5402330370AA23D4
:103BA0008B5410BDA0010020A40100200378AA2B93
:103BB00001D0002070474378552B01D00020F9E751
:103BC0004318013B1B78AA2B01D00020F2E74018D4
:103BD00002380378552B01D00020EBE70120E9E7FC
:103BE00030B50339455C0022002105E083181B79BC
:103BF0005918C9B2013292B2C3781B0284782343A8
:103C0000013B9A42F2DBA94201D0002030BD0120E5
:103C1000FCE770B505000C0004290DD9FFF7C6FFBD
:103C2000012801D0002070BD21002800FFF7D8FF37
:103C30000128F8D00020F6E70020F4E710B50400D2
:103C40000023002004E0E25C1018C0B201339BB2F4
:103C50008B42F8D310BD10B501F056FD10BD10B564
:103C600001F09AFD10BD000010B583790133837116
:103C7000C3790133C371054B1B78012B02D0FFF7C9
:103C8000EEFF10BDFFF7E7FFFBE7C046D3000020C3
:103C900010B5FFF7E0FF10BD10B5FFF7DCFF10BD5A
:103CA00010B502480921FFF7D6FF10BDD80000204B
:103CB00010B5104B1B78DAB2002B19D10E4B002136
:103CC00019700C4B013119700BE00B490B78DCB209
:103CD0000133DBB20B7083185979084B1955013247
:103CE000D2B2C3781B0281780B43023B9A42ECDBD1
:103CF00010BDC046D7030020D8030020DC030020FD
:103D000010B50379013B0371CA1E835C013B8354E8
:103D1000FFF7A5FF10BD10B5037901330371CA1E6B
:103D2000835C01338354FFF796FF10BDF0B5C646A0
:103D300000B580460F0016001E4C00232370D51CD2
:103D4000ADB2FFF70FFF23785A1CD2B222701A4986
:103D5000CD54981CC0B220702D0A8D54DA1CD2B2FA
:103D6000227001250D540433237043468B540023E5
:103D700008E0104C2078421C2270FD5C0E4C25544B
:103D80000133DBB2B342F4D30A4E3578291F89B22E
:103D90000A4C2000FFF752FF043C60550135357096
:103DA000FFF7F2FE31782000FFF755FF80BCB846E0
:103DB000F0BDC046A0010020A4010020A801002001
:103DC00010B503490122F920FFF7B0FF10BDC0462E
:103DD000D603002010B503490122FA20FFF7A6FF01
:103DE00010BDC046D200002010B503490222FB20BE
:103DF000FFF79CFF10BDC046D000002030B583B057
:103E00006B46DD1DD87101F04FFE04002B78862B28
:103E100001D003B030BD01222900FF20FFF786FF4B
:103E20000A2001F047FE1A4D280003F0B9FD2B6867
:103E3000012293432B60EFF3108182F310882B68EB
:103E40001F3293432B6081F31088FFF76DFE06E06D
:103E500001F02AFE001BFA22920090420BD840216A
:103E60000C4802F057FF0028F2D18021094802F0E7
:103E700051FF0028ECD101F017FE001BFA239B0034
:103E8000984203D901F004FAFFF740FEFFF73EFE27
:103E9000003801400004005010B51C00431A02987D
:103EA000001B5843511AFEF7B9F90019844203DC8C
:103EB000029B834202DB0400200010BD029CFBE752
:103EC000094A1188094B1980518859809188998035
:103ED000D188D98011891981518959819189998114
:103EE000D289DA817047C046D4020020A80200209F
:103EF000F0B5C64600B582B0050002F0F1F9002425
:103F000014E05B4BA200D25892B25A4B6100CA52E5
:103F1000C85A80B2FF2300930023574A0021FFF7BD
:103F2000BBFFC0B2554A10550134E4B2012CE8D9A8
:103F3000504B1B889BB2524A5488A34247D84D4BE2
:103F40009846188880B21688002700974D4B2200AB
:103F50003100FFF7A1FF00B24B4B18804346188891
:103F600080B27F2300975B4222003100FFF794FF6D
:103F700040B2464B18703F4B5B889BB2404A548915
:103F8000A3424CD83B4B9846588880B216890027EC
:103F900000973C4B22003100FFF77EFF00B23A4B06
:103FA00058804346588880B27F2300975B422200A6
:103FB0003100FFF771FF40B2344B58702C49022298
:103FC000280002F0E5F802B080BCB846F0BD294BED
:103FD0001B889BB22A4A9488A3421AD3254F38885B
:103FE00080B2D6882A4B0093002332002100FFF7CD
:103FF00053FF00B2244B1880388880B27F2300938F
:10400000002332002100FFF747FF40B21F4B18701A
:10401000B1E71D4B00221A801C4B1A70ABE7154B01
:104020005B889BB2164A9489A3421AD3114F7888B1
:1040300080B2D689164B0093002332002100FFF78F
:104040002BFF00B2104B5880788880B27F230093FA
:10405000002332002100FFF71FFF40B20B4B5870C6
:10406000ACE7094B00225A80084B5A70A6E7C046BD
:10407000E4020020F0020020FFFF0000EC0200201C
:10408000A802002001F0FFFFD0020020CC02002097
:10409000FF0F000010B5054C200002F063F9044941
:1040A0000222200002F074F810BDC0467003002008
:1040B000E402002010B5034904223020FFF736FE49
:1040C00010BDC046F002002010B503490222312085
:1040D000FFF72CFE10BDC046EC02002010B50349CE
:1040E00010223220FFF722FE10BDC046D40200206D
:1040F00010B510291FD100230AE0C218527812020D
:10410000C45C59081443124A49008C520233DBB292
:104110000F2BF2D9FFF7D4FE0D48102101F04EFC11
:104120000C4B00221A7001321A700B490A703320AE
:10413000FFF7FCFD10BD074B00221A70012119701A
:1041400005490A7001323320FFF7F0FDF2E7C0465F
:10415000D4020020B8020020BC02002010B50349A0
:1041600004223420FFF7E2FD10BDC046D00200203B
:1041700010B5034902223520FFF7D8FD10BDC04617
:10418000CC02002010B5044911230B7001224020FD
:10419000FFF7CCFD10BDC046A402002010B50128D9
:1041A00000D010BD01F080FC054B1B68C31A952B95
:1041B000F7D9044B01221A70014B1860F1E7C04691
:1041C000C8020020D403002000B587B014220021CB
:1041D00001A803F04FFD80235B000193FF3B029396
:1041E0000493A02001A9C00502F0DAFC07B000BDCD
:1041F00000234DE0A022D205802149009161C046F4
:10420000C046C046C046C046C046C046C046C0467E
:10421000C046C046C046C046C046C046C046C0466E
:104220009162C046C046C046C046C046C046C04671
:10423000C046C046C046C046C046C046C046C0464E
:10424000C046C046C046C046C046C046C046C0463E
:10425000C046C046C046C046C046C046C046C0462E
:10426000C046C046C046C046C046C046C046C0461E
:10427000C046C046C046C046C046C046C046C0460E
:10428000C046C046C046C046C046C0460133DBB249
:10429000172B00D955E01721C91A01228A40104274
:1042A00000D1A7E7A022D205802149009161C04634
:1042B000C046C046C046C046C046C046C046C046CE
:1042C000C046C046C046C046C046C046C046C046BE
:1042D000C046C046C046C046C046C046C046C046AE
:1042E000C046C046C046C046C046C046C046C0469E
:1042F000C046C046C0469162C046C046C046C046A1
:10430000C046C046C046C046C046C046C046C0467D
:10431000C046C046C046C046C046C046C046C0466D
:10432000C046C046C046C046C046C046C046C0465D
:10433000C046C046C046C046C046C046C046C0464D
:10434000A4E77047024B80001B6819507047C046B5
:104350000C03002010B572B6002407E01B4BA2002E
:104360001B689858FFF744FF0134E4B2184B1B78E0
:10437000A342F3D862B6002325E0C046C046C0463B
:10438000C046C046C046C046C046C046C046C046FD
:10439000C046C046C046C046C046C046C046C046ED
:1043A000C046C046C046C046C046C046C046C046DD
:1043B000C046C046C046C046C046C046C046C046CD
:1043C000C0460133DBB2842BD7D910BD0C030020CB
:1043D00010030020F0B583B001AB164A12881A8092
:1043E00000229A70002619E0134B9F5D134B18783A
:1043F000C0B2FFF7D7F90022114BFEF719F80400FD
:104400000D003800FFF7CEF922002B00FEF72AFB43
:10441000FDF7F0FF01AB98550136F6B2022EE3D955
:1044200001AB98781A78120210435B781B0418438A
:1044300003B0F0BD407D0008F4020020D503002049
:104440000000594010B5FFF7BFFE002325E0C0462D
:10445000C046C046C046C046C046C046C046C0462C
:10446000C046C046C046C046C046C046C046C0461C
:10447000C046C046C046C046C046C046C046C0460C
:10448000C046C046C046C046C046C046C046C046FC
:10449000C046C046C0460133DBB2842BD7D90421C5
:1044A000012003F0FDFA034B1860034B01221A7040
:1044B00010BDC0460C0300201003002010B50329D6
:1044C0000BD0134B00221A700121197011490A7088
:1044D00001322020FFF72AFC10BD02780E4B1A7023
:1044E00042785A7082789A70FFF774FF01000020BA
:1044F000FFF728FFFFF72EFF054B00221A7001324D
:104500001A7004490A702020FFF710FCE4E7C04647
:10451000F7020020F8020020F402002010B5034941
:1045200003222120FFF702FC10BDC046F402002048
:1045300010B5154B1B78DBB2642B18D8124B1870D2
:104540001878C0B201F020FAFFF744FF0100002004
:10455000FFF7F8FEFFF7FEFE0C4B00221A70013247
:104560001A700B490A702220FFF7E0FB10BD074BC1
:1045700000221A700121197005490A7001322220A7
:10458000FFF7D4FBF2E7C046D5030020F702002076
:10459000F802002010B5064B00221A7001321A7082
:1045A000044B1B7804490B702320FFF7BFFB10BDA1
:1045B000F7020020D5030020F802002000B585B0E6
:1045C0000C22002101A803F055FB2148214B036078
:1045D0008023DB05436000238360C3601E4A0261C1
:1045E0000422426103764376033A8276C2614362D3
:1045F00083622C214254036325394163353142548F
:104600001B320264643242648364C36401F064FA5E
:10461000002813D1114B0193012302930C4801A9E7
:1046200001F0D0FB00280CD10D4B0193084801A9E3
:1046300001F0C8FB002807D105B000BD00F056F915
:10464000E8E700F053F9EFE700F050F9F4E7C0466F
:104650007003002000240140040000804000001886
:104660008000001C10B588B004001422002103A8AB
:1046700003F000FB2268204B9A4201D008B010BD25
:104680001E4B1A6C802149030A431A641A6C0A40B3
:104690000192019A596B0122114359635B6B1A40D5
:1046A0000292029BC0230393BD3B0493A02003A965
:1046B000C00502F075FA1248124B036005234360EF
:1046C00000238360C360803303618133FF33436120
:1046D00080231B0183612023C36180235B0103626C
:1046E00001F0B0FF002803D1054B23659C62C5E7AC
:1046F00000F0FCF8F8E7C04600240140001002403A
:10470000140300205800024000B583B0144A916B96
:10471000012319439163926B13400193019B114B49
:10472000C22292009858104908408021C9010143D3
:10473000995080218900196098580C4908408021BF
:10474000C90301439950F8321A60002201210B205D
:1047500001F010FF0B2001F011FF03B000BDC046B7
:104760000010024000E100E0FF00FFFFFFFF00FF3C
:1047700000B589B01422002103A803F07BFA124B84
:10478000596B012211435963596B114001910199F1
:10479000586B0221084358635B6B19400291029BDE
:1047A000039284239B030493059203A9074802F014
:1047B000F7F900220121052001F0DCFE052001F0BF
:1047C000DDFE09B000BDC0460010024000040050EC
:1047D0000B4B0C4A1A600C4A1A6002225A600B4AB0
:1047E0009A6002E00023012B05D0054BDB685B07D4
:1047F000F8D10123F7E7024B054A1A607047C0461B
:1048000000300040CCCC000055550000FF0F0000E8
:10481000AAAA000082B080229205002307E0990036
:104820000C4884466144096802C20133DBB22F2B75
:10483000F5D9094A116C012319431164126C134014
:104840000193019B054A136803210B43136002B0D7
:104850007047C046002000080010024000000140E0
:1048600010B501F0A5F81B4B187001F03DF801F0F0
:1048700085F8FF2814D12820174B18701878C0B27B
:1048800001F082F80023032B0DD81A1D13495200A2
:10489000525A92B212498A420FD10133DBB2F2E787
:1048A00001F06CF8E8E70023002B08D00D48102138
:1048B00001F098F8FFF704FB10BD0123F4E7094C61
:1048C00009491022200003F01BFA1021200001F0FA
:1048D00075F8EFE7D6030020D5030020FC12002076
:1048E000FFFF0000D4020020C000002072B6FEE7E7
:1048F00000B593B03822002104A803F0BBF91022C0
:104900000021684603F0B6F98020800002F022FA08
:104910000A230493F6330793002308934022099255
:104920003F3A0A9201320B920C920D9308330E9388
:1049300080239B020F93C023DB04109380239B05ED
:10494000119304A802F030FA00280ED10723009337
:10495000053B01930023029303930221684602F072
:10496000DBFC002803D113B000BDFFF7BFFFFFF74A
:10497000BDFF000070B5FFF74DFFFFF771FF01F0BD
:1049800073F8FFF7B5FFFFF7F3FEFFF7BDFE00F08A
:104990007FFC00F0E1FDFFF71BFF00F065FB00F07E
:1049A0009FFBFFF70BFE00F0D9FBFFF74BFDFFF776
:1049B00071FB012001F07EF8474B02256D421D611D
:1049C000DA6801242243DA601A6822431A6001205F
:1049D00001F070F8414B1D61DA682243DA601A6811
:1049E00022431A60012001F065F83D4B1D61DA6831
:1049F0002243DA601A6822431A60012001F05AF853
:104A000057E0384B1B78DBB2352B09D8202B1BD352
:104A1000203BDAB2152A17D89300334AD3589F4661
:104A2000FB2B40D007D9FF2B0ED12E4B5878C0B2AC
:104A3000FFF7E4F908E0F92B32D0FA2B04D1FFF7A5
:104A4000C9F901E0FFF736FB284B00221A7034E069
:104A5000FFF73AFBF8E7FFF741FBF5E7244B19783E
:104A6000013989B22348FFF743FBEDE7FFF776FBF7
:104A7000EAE7FFF77DFBE7E71D4B1978013989B2BB
:104A80001C48FFF71BFDDFE7FFF748FDDCE7154B90
:104A90005878C0B2FFF74CFDD6E7FFF77BFDD3E7B0
:104AA000FFF78EF9D0E7FFF79FF9CDE7124B134AD6
:104AB0001A600E4B1B78012BA3D0114B1B78002BD7
:104AC000F4D0104B1B78002BF0D0FFF75BFB0C4BA6
:104AD00000221A70EAE7C04600200040004801406A
:104AE00000440140DC030020847D0008D70300203F
:104AF000D8030020DD03002000300040AAAA0000F7
:104B0000D4030020D500002000B583B00D4B196CF4
:104B1000012211431964196C0A400092009ADA6B61
:104B2000802149050A43DA63DB6B0B400193019B4B
:104B300000220121032001F01DFD032001F01EFDD4
:104B400003B000BD00100240FEE7FEE7704770476B
:104B500010B500F09DFF10BD10B501F0CFFE10BDE7
:104B600010B5012002F0DEF810BD7047F0B5C64662
:104B700000B5224B1B689B0636D5204B20225A607D
:104B80001F4A136801218B4313601E4BC2229200FF
:104B90009B5C002B2BD072B61A4D1B4FEE5DF401BF
:104BA000A3195B00EB180133FF331B889846701C78
:104BB0000231FDF719FCE955C2229200AB5C013BC2
:104BC000AB54A419640064190D4BDC605A68120CD4
:104BD000120441460A435A601A6801210A431A60C6
:104BE0000A4B00221A7062B680BCB846F0BD72B69D
:104BF000064B01221A7062B6F6E7C046000002407A
:104C00001C000240F00F002006030000D500002029
:104C1000F0B5C64600B5244B1B689B0437D5224B24
:104C2000802292015A60214A136801218B4313604C
:104C30001F4BC22292009B5C002B2ED072B61C4DE3
:104C40001C4FEE5DF401A3195B00EB180133FF3339
:104C50001B889846701C0231FDF7C6FBE955C2223D
:104C60009200AB5C013BAB54A419640064190F4B78
:104C7000DC605A68120C120441460A435A601A68F2
:104C800001210A431A600C4B00221A7062B60B48CD
:104C900001F0BEFD80BCB846F0BD72B6064B0122E5
:104CA0001A7062B6F3E7C0460000024044000240BA
:104CB000E40C002006030000D400002014030020B0
:104CC00010B5134B1B69DB0720D5124C2378013B31
:104CD00023700F4B022252421A610F48092100F043
:104CE00013FD2378002B11D1094BD9680122914380
:104CF000D960196891431960084B02214942196132
:104D0000D9681143D96019680A431A6010BDC046BA
:104D100000200040ED000020E4000020004401409D
:104D20000C4B1B69DB0714D50A4B022252421A6155
:104D3000094B1B78002B0CD1074B01211970074B35
:104D4000DA680A43DA601A680A431A60044B0322DD
:104D50001A70704700440140D3000020002000403A
:104D6000ED00002010B5064B1B69DB0707D5044B8F
:104D7000022252421A610348092100F00DFD10BDC4
:104D800000480140D8000020F8B5CE46474680B51F
:104D90004D4BDB69DB063ED54B4B1B68DB063AD53A
:104DA000494B10221A62494B1A6801218A431A6042
:104DB0005B689BB280256D00ED1AADB2002D26D048
:104DC000434A1678F6B21378013301210B40137071
:104DD000127852023F4812183C4BDA605A68120CA3
:104DE00012048024640022435A601A680A431A603D
:104DF000EFF3108481F31088334A93683F310B43FB
:104E0000936084F3108876023618002423E02F4A3A
:104E100013680B431360C0BCB946B046F8BD0134FB
:104E2000A4B218E0FEF73CFF4BE033191B79012BCD
:104E300004D001004846FEF763FF42E00100484607
:104E4000FEF7E7FE01283CD141464846FEF730FF19
:104E500037E00134A4B2AC42DDD22200E31CAB4205
:104E6000F7DA30198146305DAA28F2D148464078F9
:104E70005528EED1A01C305C8046E01C305C00025E
:104E800047460743802040008742C8D83800063094
:104E900080B2804642449542DBDBB1180239097882
:104EA0005529D6D1B218013A1278AA2AD1D1621D59
:104EB000B25CFD2AB6D0FE2AB7D101004846FEF703
:104EC000D3FE4444A4B2C6E70038014008000240C3
:104ED000DD040020E0080020F8B5CE46474680B546
:104EE000484BDB69DB0643D5464B1B68DB063FD5E9
:104EF000444B10221A62444B1A6801218A431A60FB
:104F00005B689BB280256D00ED1AADB2002D2BD0F1
:104F10003E4A1678F6B21378013301210B40137024
:104F2000127852023A481218374BDA605A68120C5B
:104F300012048024640022435A601A680A431A60EB
:104F4000EFF3108481F310882E4A93683F310B43AE
:104F5000936084F3108800232E4A53622E4A137004
:104F600076023618002418E0274A13680B431360B2
:104F7000C0BCB946B046F8BD0134A4B20DE039005A
:104F80004846FEF785FEE419A4B206E0390048461B
:104F9000FEF782FEF7E70134A4B2AC42E8D2231D4B
:104FA000AB42F8DA230030198146375DAA2FF2D1DF
:104FB0004778552FEFD1A71CF05DE71CF75D3F0246
:104FC000384380277F00B842D6D807000637BFB2E3
:104FD0003A199542DFDBB118023909785529DAD13F
:104FE000B218013A1278AA2AD5D10533F35CFD2B09
:104FF000C9D0FE2BC3D0FC2BC8D039004846FEF7E1
:105000008AFEC0E70044004030000240DC0400207B
:10501000E004002000440140D300002010B503004C
:105020000C4A0D49521A0D490968002907D00B494D
:105030000868C318934206D8084A136010BD074990
:1050400007480860F3E702F02FFE0C2303600120FD
:105050004042F3E70020002000040000E00C0020A4
:10506000801400207047000030B587B001AC1422D6
:105070000021200002F0FEFD144B1A6C8021090271
:105080000A431A641B6C0B400093009B104AC42017
:10509000800013581B021B0A8021C9050B431350C3
:1050A00080231B0313600B4B2380002363600A4A99
:1050B000A260E360094D2100280002F0F1FB2B689B
:1050C000802213432B6007B030BDC0460010024061
:1050D00000E100E0FF180000A306000000200040EF
:1050E00030B587B001AC14220021200002F0C2FDCF
:1050F000144B1A6C802189020A431A641B6C0B4002
:105100000093009B104BC520800019580F4A114096
:105110008022D2010A431A50802292031A600C4B5B
:105120002380002363600B4AA260E36023610A4D81
:105130002100280002F0B4FB2B68802293432B60EF
:1051400007B030BD0010024000E100E0FF00FFFFAB
:10515000FF1800002F7500000044014030B587B0F3
:1051600001AC14220021200002F084FD134B1A6CC4
:105170008021C9020A431A641B6C0B400093009BF8
:105180000F4AC520800013580E490B408021C903E7
:105190000B43135011600C4B2380002363600B4AB8
:1051A000A260E36023610A4D2100280002F078FB31
:1051B0002B68802293432B6007B030BD0010024063
:1051C00000E100E0FFFF00FFFF1800000F270000D4
:1051D0000048014070B5EFF31084012181F310887D
:1051E000244A13680C2083430343136084F310881C
:1051F000EFF3108081F310881368102423431360A9
:1052000080F310881C4B1D4898601D4800784002B0
:105210001C4D4019D8605868000C000480256D00B2
:10522000284358601868FE3D28431860186808260F
:1052300030431860186808431860EFF3108081F35A
:105240001088936838363343936080F31088146273
:105250000D4B0E489860EFF3108081F31088916831
:1052600070342143916080F310881A682A431A60D1
:1052700070BDC0460038014008000240243801409B
:10528000DD040020E00800201C0002402838014016
:10529000F0B5DE4657464E464546E0B59BB0202267
:1052A000002112A802F0E6FC182200210CA802F04E
:1052B000E1FC2822002102A802F0DCFC0123029379
:1052C00002A802F0EFF8002800D0C6E0644B1A6C88
:1052D0008021C9010A431A641A6C0A400192019A9A
:1052E0005A6B02252A435A635B6B2B400093009B49
:1052F000402398460C930D950E9500240F9401269B
:1053000010961194574B99460CA9180002F0C4F955
:1053100080270C970D950E950F94109611940CA95B
:10532000484602F0B9F9504A13683F218A468B4338
:105330000D390B4313604D4B1A684D4989460A409D
:105340001A601A684B498C460A401A601A681E3562
:10535000AA431A601A6841468A431A601A68BA4317
:105360003A431A601A68444802401A601A6843496E
:105370008B460A401A60424A136851468B430C39E7
:105380000B4313603F4B1A6849460A4010210A43F9
:105390001A601A6861460A401A601A68AA431A60BD
:1053A0001A6841468A431A601A68BA433A431A6037
:1053B0001A6802401A601A6859460A401A60324A4E
:1053C000C621890053581B021B0A535080231B051A
:1053D00013601294E1235B021393149415941694B2
:1053E0000C23179318941994284C12A9200002F04A
:1053F00001FBEFF3108286F31088A368DB00DB0863
:10540000A36082F31088EFF3108286F31088A368FC
:105410001F490B40A36082F3108823681D4A134084
:10542000236063681C4A13406360A3682A22934385
:10543000A360236833432360144BDB699B02FBD5D5
:10544000124BDB695B02F7D5FFF7C4FE1BB0F0BC63
:10545000BB46B246A946A046F0BDFFF747FA35E77E
:105460000010024000040050000802400800024002
:10547000EFBFFFFFFFCFFFFFFFFCFFFFFFF3FFFFCB
:10548000040802401C00024000E100E00038014036
:10549000FFFFFFF1FFFFFFDFFFB7FFFF70B5EFF387
:1054A0001084012181F31088244A13680C2083435F
:1054B0000343136084F31088EFF3108081F31088A6
:1054C000136810242343136080F310881C4B1D487D
:1054D00098601D48007840021C4D4019D8605868FB
:1054E000000C000480256D00284358601868FE3DBC
:1054F0002843186018680826304318601868084365
:105500001860EFF3108081F31088936838363343C6
:10551000936080F3108814620D4B0E489860EFF38F
:10552000108081F31088916870342143916080F37A
:1055300010881A682A431A6070BDC04600440040B3
:105540003000024024440040DC040020E00400203D
:105550004400024028440040F0B5DE4657464E461F
:105560004546E0B591B020262022002108A802F08F
:1055700081FB1822002102A802F07CFB564BDA6B5B
:10558000802189020A43DA63DA6B0A400192019AA8
:105590005A6B01252A435A635B6B2B400093009B97
:1055A0000423029302240394049406950795A027EC
:1055B000FF0502A9380002F06FF808230293039454
:1055C0000494002405940695079502A9380002F07A
:1055D00063F8424A13683F218A468B430B390B43D9
:1055E00013603F4B1A683F4989460A401A601A689F
:1055F0003D4988460A401A601A68B2431A601A6820
:1056000040218C468A431A601A688027BA433A437D
:105610001A601A68354802401A601A6834498B4685
:105620000A401A60334A136851468B430A390B43C8
:105630001360314B1A6849460A4010210A431A6028
:105640001A6841460A401A601A68B2431A601A681A
:1056500061468A431A601A68BA433A431A601A6864
:1056600002401A601A6859460A401A60234BC72143
:1056700089005A58FF2082435A50802252051A60EE
:105680000894E1235B0209930A940B940C940C2375
:105690000D930E940F941A4C08A9200002F0AAF959
:1056A0006368184A13406360A3682A229343A36087
:1056B00023682B432360124BDB699B02FBD5104B05
:1056C000DB695B02F7D5FFF7E9FE11B0F0BCBB4622
:1056D000B246A946A046F0BD0010024008080240AC
:1056E00030000240EFBFFFFFFFCFFFFFFFFCFFFFD7
:1056F000FFF3FFFF0C0802404400024000E100E01D
:1057000000440040FFB7FFFF70B50C001E4B1B7834
:10571000002B10D072B61C4B00221A701B4AD060AE
:1057200053681B0C190421435160136801210B437A
:10573000136062B670BD164BC22292009B5C022BB6
:10574000F8D8FF29F6D872B6114D124EAA5DD301D2
:105750009B185B005B190A000100180002F0D0FAE8
:10576000A85DC3011B185B00EB180133FF331C80DD
:1057700001300321FCF738FEA955C2229200AB5C30
:105780000133AB5462B6D5E7D50000201C000240BF
:10579000F00F00200703000070B50C001E4B1B78B3
:1057A000002B10D072B61C4B00221A701B4AD0601E
:1057B00053681B0C190421435160136801210B43EA
:1057C000136062B670BD164BC22292009B5C022B26
:1057D000F8D8FF29F6D872B6114D124EAA5DD30142
:1057E0009B185B005B190A000100180002F088FAA0
:1057F000A85DC3011B185B00EB180133FF331C804D
:1058000001300321FCF7F0FDA955C2229200AB5CE8
:105810000133AB5462B6D5E7D40000204400024007
:10582000E40C0020070300000D488546FFF71AFC32
:105830000C480D490D4A002302E0D458C4500433EB
:10584000C4188C42F9D30A4A0A4C002301E01360C1
:105850000432A242FBD302F02DFAFFF78BF8FEE7E9
:1058600000200020C000002084010020747E000879
:10587000840100207C140020FEE7F8231B069C46D0
:105880006044C00A7047008880B20021704710B59C
:1058900086B00023059302330193FFF7EEFF0390D8
:1058A0000123049301F08AF805A901A801F034F955
:1058B000040001F003F963425C41E0B206B010BDA0
:1058C00070B5040016001D0001F078F832002B00BE
:1058D0002100012001F0C0F8040001F0EFF863425C
:1058E0005C41E0B270BD000010B500240AE0074B37
:1058F000E0184000FFF7C7FF80B2054B6200D052AE
:105900000134E4B20B2CF2D910BDC0460060000493
:10591000FC120020F8B51648FFF7B9FF002520E07B
:1059200020273F1B0600FE40A040024333430131C5
:10593000C9B203290ED868180B280BDC0D4C4000A7
:10594000005B80B20C012600203EE9D40700B7407E
:105950003E00E9E7084968184000FFF7B1FF043549
:10596000EDB20B2D03D8002100220023E1E7F8BDA2
:1059700000C00008FC12002000600004014B1878F1
:10598000C0B2704701C0000810B50400074A138870
:105990000102FF2003400B431380FFF7BBFFFFF71B
:1059A000EDFF001B43425841C0B210BDFC12002065
:1059B000014B1878C0B27047FF1F000870B5002374
:1059C00007E01C1D5A00155A054A6400A552013310
:1059D000DBB28B42F5D3FFF79DFF012070BDC046BF
:1059E000FC12002070B506000D00FFF77DFF0023BC
:1059F00007E01C1D5900054A6400A25A7252013387
:105A0000DBB2AB42F5D3E8B270BDC046FC12002059
:105A100010B50400114B1978002901D1012010BDE7
:105A2000FA208000FCF770FB01000D4B1868FCF7B2
:105A30006BFB00F0AFFD00280DD1032C01D9012034
:105A4000EDE7013000222100404200F093FD054BBC
:105A50001C600020E3E70120E1E7C046F4000020DD
:105A6000F0000020F800002010B5084A11688023DB
:105A70005B000B4313600320FFF7CAFF041E02D034
:105A80000124200010BDFFF73FF8FAE70020024094
:105A9000034B1B78034A11685B1813607047C046BC
:105AA000F400002014130020014B18687047C04612
:105AB0001413002070B50400FFF7F6FF0500631C07
:105AC00002D0044B1B78E418FFF7EEFF401BA04206
:105AD000FAD370BDF400002030B583B00400002379
:105AE0000193002800D106E1836D002B13D02368B9
:105AF0009A68D2001CD49968804A114080225205CD
:105B00000A439A607E4B18687E49FCF7FDFA013023
:105B10004000019009E0FEF7A5FD0023E365542253
:105B2000A354E4E7019B013B0193019B002BF9D1B6
:105B300023689A68D20000D59DE0A26D10210A4327
:105B4000A265E26D0F390A43E26501209A680421DB
:105B50000D001540114200D00125A26DD20600D5DE
:105B6000C2E0002D00D0BFE0A26D67490A400631B7
:105B7000FF310A43A2659A68D20752D4A268217EF7
:105B800089030A43617EC9030A43A57E69030A4368
:105B9000216B002901D0802149010A43E1680A43B1
:105BA0002169002969DB802189030A432C21615C7A
:105BB00049000A432021615C012961D0616A002902
:105BC00005D0E0256D002940A56A29430A43D9681C
:105BD0004E4D29400A43DA6063689B0F9B07E26CD5
:105BE0001A433C21615C012959D021680B69484D59
:105BF0002B4013430B616368C0221206934210D0FE
:105C00008022D20593420CD080221206934208D003
:105C100040490A68404D2A40F025AD032B4013430C
:105C20000B602168636B4A690725AA4313434B61E4
:105C30002168A26B4B696935AB43120113434B6179
:105C40002369002B35D12268916A103B0B43936284
:105C500023685A6907231340626B9A423BD0A36DB5
:105C600012229343023A1343A365E36D0F3A1343A1
:105C7000E36501203DE0002068E74900490894E71A
:105C8000002D03D1802149020A4397E7A16D202509
:105C90002943A165E16D1F3D2943E1658EE7216C34
:105CA0000B43616C0B43A16C0B43134301221A435A
:105CB0009BE7802292039342CAD121688B6AE369F1
:105CC000013B9B001C221A4010235B429340226E32
:105CD00013438B62BCE70023E365A36D0322934368
:105CE000023A1343A36504E0A36D10221343A36596
:105CF000012003B030BD0120FBE7C046E8FFFF6F85
:105D0000F0000020400D0300FDFEFFFF0102DEFF5A
:105D100002FCFF1F08270140FFFFC3FF704710B5BB
:105D2000806AFFF7FBFF10BD704710B5806A836D76
:105D3000402213438365C36D3C3A1343C365FFF7A9
:105D4000F3FF10BD10B50300806A826D502111422F
:105D50002AD1826D80239B00134383650368D96831
:105D6000C0221201114213D1827E002A10D11A687A
:105D700012070DD59A6852070DD45A680C218A4330
:105D80005A60836D0E4A13400432FF321343836519
:105D9000FEF7AEF810BD836D202213438365C36DFB
:105DA0001F3A1343C365F3E7826DD20604D4026D34
:105DB000526B18009047EDE7FFF7B6FFEAE7C046E1
:105DC000FEFEFFFFF0B583B00400002301930569D8
:105DD0005433C35C012B00D12FE154230122C25460
:105DE00000688368033216001E401A4209D0A36D72
:105DF0001C321343A365012054230022E25403B054
:105E0000F0BD4B68022B00D1D5E0802212069542EE
:105E100025D08B4A954222D0226E1F271F400F2586
:105E2000BD40AA430B685D032FD19B0E1F261E4069
:105E3000BE40324322664D68AB080133E2699342AB
:105E400013D80E68826A1F231D40103B1F00AF400D
:105E5000BA43B60E3340AB401343836205E00B6890
:105E6000826A5B035B0B1343836220680B688D6857
:105E700042691B029A432B40724D2B4013434361EE
:105E80000B68002B4FDB0020B6E7DD07D0D49D0761
:105E900027D45D0727D41D0727D4DD0627D49D0608
:105EA00027D45D0627D41D0627D4DD0527D49D05FC
:105EB00027D45D0527D41D0527D4DD0427D49D04F0
:105EC00027D45D0427D41D0427D4DD0327D49D03E4
:105ED00027D48025ED021E002E402B42A8D012268A
:105EE000A6E70126A4E70226A2E70326A0E70426E8
:105EF0009EE705269CE706269AE7072698E70826E8
:105F000096E7092694E70A2692E70B2690E70C26E7
:105F10008EE70D268CE70E268AE70F2688E71026E7
:105F200086E7112684E7484A1168E02252040A40B5
:105F30004648834207D04648834222D045488342A0
:105F40002CD0002058E70802F5D480231B0413430B
:105F50003D490A684048024013430B603F4B1868B4
:105F60003F49FCF7D1F8013043001B189B00019317
:105F700002E0019B013B0193019B002BF9D1002022
:105F80003AE7C801DAD480235B0413432E490A6838
:105F90003148024013430B6000202DE749024AD4E8
:105FA0008023DB03134328490A682B48024013432C
:105FB0000B60002020E780231B069D4202D0204B6F
:105FC0009D4205D10B68826A5B035B0B9A43826238
:105FD0000B68002B01DB00200EE71B4A12681B49EF
:105FE0008B4207D01A498B420FD01A498B4217D0E7
:105FF000002001E7A0235B041A4013490B681648F0
:1060000003401A430A600020F6E6C0231B041A402E
:106010000D490B68104803401A430A600020EBE664
:10602000C0235B041A4008490B680B4803401A431D
:106030000A600020E0E60020DEE60220DFE6C0463F
:106040000400008000FFFF0708270140001000B097
:10605000004000B8002000B4FFFF3FFEF000002029
:10606000400D030070B50400026893685B0724D5F7
:1060700093689B0705D4936811490B4010210B438B
:106080009360FFF711FD050023689B685B0712D53D
:10609000FFF70AFD401B0228F6D923689B685B07BF
:1060A000F2D5A36D10221343A365E36D0F3A13439A
:1060B000E365012002E0002000E0002070BDC04642
:1060C000E8FFFF7F30B583B004000023019303682D
:1060D0009A68D2074FD49968284A114211D19A6818
:1060E00027490A4001210A439A60264B1B681B027C
:1060F00017D5254B18682549FCF706F801300190A3
:106100000CE0836D102213438365C36D0F3A134374
:10611000C365012030E0019B013B0193019B002BF3
:10612000F9D1637E012B01D1002025E0FFF7BCFCF3
:10613000050023681A68D2071BD49A68D20705D4D1
:106140009A680F490A4001210A439A60FFF7ACFCA4
:10615000401B0228EDD923681B68DB07E9D4A36D37
:1061600010221343A365E36D0F3A1343E365012047
:1061700002E0002000E0002003B030BD17000080E6
:10618000E8FFFF7F08270140F0000020400D0300DA
:1061900070B504000D001600026893685B0747D4D1
:1061A0005423C35C012B45D0012354214354D168AF
:1061B0000B420DD19368DB0705D593681E490B4050
:1061C00002210B4393602268D36801210B43D36003
:1061D0002000FFF777FF00282BD1A26D174B1A4044
:1061E00080235B001343A3650023E365226D1449FC
:1061F000D162226D13491163226D134951632268E4
:106200001C2111605422A354226853680C390B439B
:10621000536021684031206D33002A0000F06AFA93
:106220002268936804490B4004210B43936000E00B
:10623000022070BD0220FCE7E8FFFF7FFEF0FFFFB9
:10624000455D00081F5D00082B5D000870B5040067
:1062500003689A68022108001040114200D0012012
:106260009A68D20735D5002835D1996805220A40A9
:10627000012A09D0A36D10221343A365E36D0F3AE1
:106280001343E365012025E09A6814490A4002217E
:106290000A439A60236803221A60FFF705FC050091
:1062A00023689B68DB0712D5FFF7FEFB401B022823
:1062B000F6D923689B68DB07F2D5A36D1022134340
:1062C000A365E36D0F3A1343E365012002E000206C
:1062D00000E0002070BD0020FCE7C046E8FFFF7F23
:1062E00070B504005423C35C012B36D05423012223
:1062F000C254FFF7B7FE051E1DD1206D2523C35CD8
:10630000022B1DD02268536810218B435360002D4F
:106310001FD12000FFF79AFF0500002D06D1A36DC5
:106320000F4A13400432FF321343A3652268D36837
:1063300001218B43D36054230022E254280070BD16
:1063400000F026FA051EDDD0A36D40221343A3659D
:10635000D8E72000FFF77AFFDFE70225EEE7C04627
:10636000FEFEFFFFF0B583B0040000230193543319
:10637000C35C012B00D1A2E001265423C654FFF7D1
:1063800065FF050023689A6831001140164209D064
:10639000A36D10221343A36554230022E254280066
:1063A00003B0F0BDA26D474802400630FF30024303
:1063B000A265DE68444A1640DA6844480240DA6062
:1063C000080005E0B4229A587F231340C018013119
