:020000040800F2
:102000000020002045570008854A0008874A00083C
:1020100000000000000000000000000000000000C0
:10202000000000000000000000000000894A0008D5
:1020300000000000000000008B4A00088D4A0008E4
:10204000955700089557000895570008954A0008CD
:1020500095570008955700089557000895570008B0
:10206000000000009D4A0008A14A0008454B0008F6
:102070009557000895570008955700089557000890
:10208000955700089557000895570008E94B000838
:1020900000000000314C0008754C000895570008FE
:1020A000955700089557000895570008994C000867
:0C20B000E94D00089557000800000000F2
:1020C00010B5064C2378002B07D1054B002B02D00E
:1020D000044800E000BF0123237010BD74010020FC
:1020E00000000000E07C0008044B10B5002B03D07A
:1020F0000349044800E000BF10BDC04600000000D6
:1021000078010020E07C0008002243088B4274D351
:1021100003098B425FD3030A8B4244D3030B8B42E8
:1021200028D3030C8B420DD3FF22090212BA030CF1
:102130008B4202D31212090265D0030B8B4219D3D2
:1021400000E0090AC30B8B4201D3CB03C01A5241F2
:10215000830B8B4201D38B03C01A5241430B8B423A
:1021600001D34B03C01A5241030B8B4201D30B0323
:10217000C01A5241C30A8B4201D3CB02C01A52414A
:10218000830A8B4201D38B02C01A5241430A8B420D
:1021900001D34B02C01A5241030A8B4201D30B02F6
:1021A000C01A5241CDD2C3098B4201D3CB01C01A10
:1021B000524183098B4201D38B01C01A524143091A
:1021C0008B4201D34B01C01A524103098B4201D308
:1021D0000B01C01A5241C3088B4201D3CB00C01A75
:1021E000524183088B4201D38B00C01A52414308ED
:1021F0008B4201D34B00C01A5241411A00D2014612
:10220000524110467047FFE701B5002000F0F0F89A
:1022100002BDC0460029F7D076E7704703460B435E
:102220007FD4002243088B4274D303098B425FD3CF
:10223000030A8B4244D3030B8B4228D3030C8B42FB
:102240000DD3FF22090212BA030C8B4202D31212E1
:10225000090265D0030B8B4219D300E0090AC30BB6
:102260008B4201D3CB03C01A5241830B8B4201D363
:102270008B03C01A5241430B8B4201D34B03C01A4C
:102280005241030B8B4201D30B03C01A5241C30AC4
:102290008B4201D3CB02C01A5241830A8B4201D335
:1022A0008B02C01A5241430A8B4201D34B02C01A1F
:1022B0005241030A8B4201D30B02C01A5241CDD2C4
:1022C000C3098B4201D3CB01C01A524183098B420F
:1022D00001D38B01C01A524143098B4201D34B01F8
:1022E000C01A524103098B4201D30B01C01A52415B
:1022F000C3088B4201D3CB00C01A524183088B42E2
:1023000001D38B00C01A524143088B4201D34B00CA
:10231000C01A5241411A00D201465241104670473C
:102320005DE0CA0F00D04942031000D34042534041
:1023300000229C4603098B422DD3030A8B4212D301
:10234000FC22890112BA030A8B420CD38901921133
:102350008B4208D3890192118B4204D389013AD070
:10236000921100E08909C3098B4201D3CB01C01A45
:10237000524183098B4201D38B01C01A5241430958
:102380008B4201D34B01C01A524103098B4201D346
:102390000B01C01A5241C3088B4201D3CB00C01AB3
:1023A000524183088B4201D38B00C01A5241D9D2CB
:1023B00043088B4201D34B00C01A5241411A00D24C
:1023C0000146634652415B10104601D34042002B48
:1023D00000D54942704763465B1000D3404201B5C7
:1023E000002000F005F802BD0029F8D016E770477C
:1023F0007047C04670B500220C4B04000D0001F080
:10240000B3FB002804D12000290001F00FFB70BDB0
:10241000064B00222000290000F06CFF01F006FBB3
:1024200080231B069C466044F1E7C0460000E04163
:10243000F0B54F464646D64643025B0A4500C0B556
:1024400099460F1C2D0EC60F002D00D188E0FF2DE0
:1024500000D18DE08022DB00D2041A430023914694
:1024600098469A467F3D7C027B00640A1B0EFF0F54
:10247000002B68D0FF2B21D08022E400D20414432B
:1024800042467F3B5B1900215D1C0A2A2EDC7E4000
:102490004246022A23DC013A012A00D9BDE0022982
:1024A0006ED001292CD100200022C005F607104370
:1024B0003043E0BCBA46B146A846F0BD2B00FF331E
:1024C000002C65D003224146114332000135884675
:1024D0007A40FF350A2900DDD8E016000321404686
:1024E00001228240A620C000024220D05346022B87
:1024F00046D0032B00D1BBE051464C460129D2D037
:102500002B007F33002B70DD620704D00F222240A6
:10251000042A00D00434220103D5634B1C402B0055
:102520008033FE2B2CDCA201520AD8B2BDE79020EA
:102530008000024227D1B938FF3810426DD03E00EA
:10254000A1468A46D2E7002C41D1012342461A43D4
:1025500090462B00424601215D1C0A2A97DDC5E703
:10256000002B26D104239846033B00259A467AE7A0
:10257000002B18D108239846063BFF259A4672E7A0
:10258000FF20002291E780220026FF20D2038CE763
:1025900041460222013511438846FF350A29A5DC50
:1025A00002217E4074E70C239846093BFF259A469A
:1025B00059E7180001F0E2FA4A46431F76259A408F
:1025C00000236D42914698469A462D1A4BE720000B
:1025D00001F0D4FA4246431F9C402B1A763B00215F
:1025E0005D1C0A2A00DC52E780E70122D31A1B2B6C
:1025F00000DD58E79E352200AC40DA40631E9C4166
:102600002243530704D00F231340042B00D004327D
:10261000530137D50120002247E7210C4A46240404
:10262000240C2700100C1204120C44435743484357
:1026300051433A0C09195218944203D98021490296
:102640008C4660443F0411043F0CC9198C01671E7D
:10265000BC41120C890E12180C4392011443120152
:102660000ED5012362081C40144349E73E00A146F1
:1026700080224B46D2031A435202FF20520A14E72B
:102680001D003DE792010020520A0EE70F29EDD10F
:1026900080224B46D2031342EAD01442E8D13E00D6
:1026A000FF20224301E7C046FFFFFFF770B5041E7D
:1026B0000ED001F063FA9E2301001B1A962B0CDC4E
:1026C00008282FD008398C406402640AD8B201E08F
:1026D00000200024C005204370BD992B16DC421F4A
:1026E000052800D09440220010480240650709D018
:1026F0000F252C40042C05D00432540102D59F2311
:1027000002405B1A9201540AD8B2E3E702002000AB
:102710001B3290400200501E82410520401AC440E6
:102720001443E0E764029620640AD3E7FFFFFFFB4F
:10273000F0B5DE46454657464E46E0B587B00092B6
:1027400001930B031B0B9B46CA0F4B0004008046F2
:102750005B0D029200D16AE1D44A934200D18CE130
:102760005946420FC9000A43802109041143C2009F
:102770009046CF4A894692469A4400230024039308
:10278000009E019F3B031B0B9B467B0030005B0DB3
:10279000FD0F002B00D128E1C44A934200D177E11C
:1027A0005946720FC9000A438021090411438B4620
:1027B000BF49F2008C4651466344CB1A9A46002327
:1027C000029E6E400F2C27D8BA49A40009598F46A3
:1027D000CB464246029E039B022B16D0032B00D110
:1027E000A6E2012B00D0DFE0002200230024904667
:1027F0001B052343F60733434046190007B0F0BCDE
:10280000BB46B246A946A046F0BD00220024904631
:10281000A64BEDE72E00DFE7CB4500D2D4E100D197
:10282000CFE101235B429C46444648460027E244F0
:102830005B46150E1B021D43190C2B04120200955A
:102840001D0C914602910395FFF7E4FC02006A43D8
:102850000B04210C804619438A4209D9009D0123AB
:10286000AC465B4261449C46E0448D4200D8FBE1AB
:10287000881A0299FFF7CEFC039A24044243090404
:10288000240C03000C43A24206D90099013B8C465C
:102890006444A14200D8E1E1A01A424612041A435E
:1028A00093464B4659461B0C1D0004930B044946A6
:1028B0000904090C0C001B0C5C43120C6B4388468A
:1028C00051436A43250CAC465B186344994203D9D3
:1028D000802149028C466244190C24041B04240CF8
:1028E0008A181C19904202D316D1A74214D25B4613
:1028F000009D013B4F4405934F459B41AC465B42D5
:102900006344C018854200D3A1E1824200D9F6E1B8
:1029100000D1F1E1059B9B463C1BA742BF41009DB6
:10292000801A7F42C01B854200D1D0E10299FFF797
:1029300071FC039A0B044243210C070019438A429D
:1029400000D978E1881A0299FFF764FC039A2404FD
:1029500042430904240C03000C43A24200D95DE168
:102960004146A41A3A041A43049D13041B0C59430C
:1029700047466B439C46100C47430B0CBC446344D6
:1029800068439F4203D980256D02AC4660441F0C0A
:1029900009041B04090C3F185B18BC4200D202E179
:1029A00000D1FDE001231A43434B5344002B00DCCC
:1029B000AEE0510700D098E15946C90106D5594605
:1029C0003E4B194080238B46DB0053443C498B42ED
:1029D00000DD1AE75946D208490711435A465B05FC
:1029E00054028846240B5B0D02E75A46009B1A43AB
:1029F00000D17EE05B46002B00D100E1584601F09B
:102A0000BDF8020003000B3A1D27009EBA1A1900F8
:102A10005846D64008398840320002439346009A0F
:102A20008A40284953448A469A440023C8E65B46B4
:102A30000343994656D05B46002B00D1CDE0584663
:102A400001F09CF80B235B429C46020084446646DE
:102A50001D239B1B260011005846DE400839884084
:102A600033000343994623008B409846164B0024BD
:102A70009B1A9A460023039382E65A4602439146E4
:102A80002AD100229A46022390460824039377E62F
:102A90005A46009B1A430D4B9C46E244002A17D12C
:102AA00002231C4300239B46023389E6FF070000F4
:102AB00001FCFFFF0C7D0008FF030000FFFFFFFE8D
:102AC000FE070000F30300000DFCFFFF01F8FFFF0D
:102AD000032332001C4373E69A460323D9460C2491
:102AE00003934DE6002398469A460133042403934A
:102AF00046E601231C4300239B46013360E6002386
:102B0000802498460026924B240371E6012252420B
:102B10000121C91A382900DD66E61F2900DCABE077
:102B20001F204042C31A5846D8400300202904D031
:102B300058468849514488400243511E8A411A43ED
:102B4000072319000024114013420CD00F23134017
:102B5000042B00D1F9E0111D91429B410A005B4218
:102B600059075B021C0BD2080A43904600233FE63C
:102B700080244B462403234209D05B46234206D1DE
:102B80001C4324032E009046714B240B30E6802416
:102B90004B4624031C432403029E6D4B240B27E663
:102BA000002B00D100E70098511E84466444844203
:102BB00000D284E0BC4200D2AEE000D1C1E00A0005
:102BC000F0E6424500D92CE64B46DC075808434660
:102BD0005B081C434346DF072AE600F0CFFF1523BE
:102BE0009C4684440200634620321C2B00DC2EE706
:102BF00023000838834099460023984636E700F0C2
:102C0000BDFF02000300153220331C2A00DCFBE666
:102C100000990838814000228B4602E70099013B69
:102C20008C466444A14200D99AE6A24200D897E6B5
:102C3000831E644494E6AC466144013F8D4200D952
:102C400080E68A4200D87DE6871E61447AE68542A6
:102C500000D05FE6B94500D95CE656E6A24200D84E
:102C60001AE6831E644417E68A4200D800E6AC46A2
:102C7000831E98466144FBE5374814005044824067
:102C80005B4617008340CC407A1E974123433B4369
:102C90001A005B46CB40510709D00F21114004298F
:102CA00005D0111D9142924152429B180A0019020F
:102CB00000D455E7002201230024904698E50A003D
:102CC000BC4200D06EE64B4500D06BE66CE6234B71
:102CD000234A5344924500DA18E7012149420A1D6C
:102CE0008A42894149428B4466E60F2111400429FA
:102CF00000D161E61100F2E7BC4200D80AE60223E7
:102D00005B429C4600994F444F459B41E3448C46AF
:102D10005B426344C018FFE54946009D48004845B2
:102D20008941AC46494261448146023A6418C7E78A
:102D300080245B4624031C4324039046044B240B4D
:102D400056E59945E8D30A00BDE7002308E7C046E9
:102D5000FF0700003E0400001E040000FF03000007
:102D600002FCFFFFF0B55746DE464E464546E0B54D
:102D70001F000B031B0B16009A46CA0F4B000400E2
:102D8000934687B05B0D00D1D5E0BB4A934200D19A
:102D9000F8E05146420FC9000A438021090411435B
:102DA000C2009146B54A8A469D1800239846029370
:102DB0003C037B00FA0F3000240B5B0D009200D126
:102DC00096E0AD4A934231D0720FE4002243802452
:102DD00024041443A94AF000944663445B195A1C26
:102DE0000192424600260A2A42DC5A4600994A408D
:102DF00093464246022A32DC013A012A00D949E1CF
:102E0000022E00D1CAE0012E3DD100230024002271
:102E100010005A461B052343D2071343190007B07D
:102E2000F0BCBB46B246A946A046F0BD924B264335
:102E3000EB18002E00D1BBE00322414611435A4655
:102E4000884600994A40802109018C462900614446
:102E5000019141460A2900DD33E2934603264246AA
:102E600001279740A6213A00C9000A400F4231D0FD
:102E7000029E022E00D135E2032E00D1D2E154464B
:102E80004846012EC1D0019A7D4B94466344002BE5
:102E900000DCC0E0420709D00F220240042A05D01E
:102EA000021D82428041404224181000E20106D5F2
:102EB000744B019A1C4080239446DB006344724AA1
:102EC00093426BDC6207C00864025B050243240B7B
:102ED0005B0D9DE7902189000F4263D188223A4221
:102EE00000D1D7E0009BA2469B4681460296BFE7F1
:102EF0002300334300D17FE0002C00D1ADE120005E
:102F000000F03CFE020003000B3A1D201900821A5B
:102F100030000839D0408C400443300088405B4A80
:102F2000EB1A944663445A1C0192424600260A2A30
:102F300000DC5AE79CE753460343994654D0534676
:102F4000002B00D177E1504600F018FE0B235B42C6
:102F50009C460200844411005046083988401D23D5
:102F6000804660461B1A2000D840030040460343B9
:102F70009A4623008B4099460023444D9846AD1A4B
:102F8000029315E752460243914626D100221D00C6
:102F90000223924608329046029309E70024002259
:102FA000354B35E7002380249B462403324B2FE723
:102FB0000222414611438022120194462A006244B3
:102FC000884601920A2900DD52E75A4600200099FE
:102FD00004004A40934602260BE70C221D000323FF
:102FE000814690460293E3E600239A4604339846CE
:102FF000033B00250293DBE6424601331A432B00D4
:1030000090465A1C019242460024002001260A2ABA
:1030100000DCEAE62CE70122D21A382A00DDF4E6C9
:103020001F2A00DC2AE11F214942CB1A2100D94086
:103030000B00202A05D0164A019D94466544AC40F9
:103040002043421E904118430723190000240140E9
:1030500003420CD00F230340042B00D140E1031D99
:103060008342A4411800644261076402240BC20831
:1030700000230A43CCE6C046FF07000001FCFFFF27
:10308000FF030000FFFFFFFEFE0700000DFCFFFF37
:103090003E04000049464A460904090C0D00160C7E
:1030A000020C0004000C4543AC4605007543A846DD
:1030B00015000F007543009202952A00009D6F4392
:1030C00065462D0CA94647444F44B84505D915001F
:1030D000802252029046454402953D0C0395654678
:1030E0002D043F042D0CAC463D0065440495250C91
:1030F0002404240CAC4625007543A84665460F0001
:103100006943414489466743390C49446E438845C5
:1031100003D980225202904646440D0CA846350041
:1031200045440595039D3F04A8463F0C0904C91971
:1031300088444546039555462E04360C2F0C350021
:103140004543784381463800A8462D0CAA46009A8C
:10315000504372434A445244914503D980256D023D
:10316000A9464844150CA94645462D042D0CA846F1
:1031700065467D43120448449044A94632006546A2
:1031800062436E437C43170C3619BF19BC4203D906
:1031900080246402A446E144029C039EA446059D4B
:1031A00066448E428941AC4612043C04120CA218BB
:1031B0006244494254184644A4464645A4418246C6
:1031C0006442A046AA4292418C458941E244D044DF
:1031D000494252420A43A045A44182458941644282
:1031E00049420C4341463F0CD2191219CC0D0499A7
:1031F00070020843411E884141464A44F60D52027E
:103200003043490214430843D20135D50122430813
:1032100002401343E0071843640834E6009BA246CB
:103220009B4681468024534624031C4324034A467C
:103230002E4B240BECE500F0A1FC15239C468444A6
:103240000200634620321C2B00DC84E600239946F2
:103250002300083883409A468EE600F08FFC020077
:103260000300153220331C2A00DC4EE60200340035
:10327000083A0020944052E6019304E61C4B2100DA
:103280009C460300019DD3406544A94019430300B7
:10329000AB40581E834119430800D4404B0709D066
:1032A0000F230B40042B05D00B1D8B428041404265
:1032B00024181800230200D4D6E60123002400229B
:1032C000A6E50F29AAD1802352461B031A42A9D092
:1032D0001C42A7D11C43009B02009B46034B97E571
:1032E0000024C1E60024014B220091E5FF07000005
:1032F0001E040000F0B54E464546DE465746E0B592
:1033000085B0009001910C034F00CE0F610A009C24
:10331000B046640F0C4300997F0DC80011001A00DD
:103320001B039C460091019251004B0D9946019B55
:10333000009DD90F63466A0F5B0A1343EA00944667
:103340009346C14A03900293914500D1CDE00125F7
:1033500069404D467D1BAA468E4200D180E0002D7B
:1033600000DC35E34946002900D1DFE0974200D177
:1033700094E152460125382A19DC8022029B12046E
:103380001343029352461F2A00DDE3E153462022F5
:103390006146029DD21A9540D9400D436146914045
:1033A0000A00511E8A411543029ADA40A41A451BAD
:1033B000A84280414042241A230200D43DE1640225
:1033C000640A002C00D147E1200000F0D7FB030085
:1033D000083B20212800CA1AD0409C4002009D4092
:1033E00022439F4200DD77E1D81B0130091A2C00EF
:1033F0008D40C4406B1E9D411300C2408B4025434D
:10340000002714001D436B0709D00F232B40042B0A
:1034100005D02B1DAB42AD416D4264191D00230246
:1034200000D440E1884A0137974200D101E10126EA
:1034300043468649ED0821404A072A437C054D0250
:103440002D0B640D1E4024052C43F6073443100059
:10345000210005B0F0BCBB46B246A946A046F0BD6F
:10346000002D00DCD0E24946002900D0D4E06146BE
:10347000029B194300D12BE1691E012D00D1D9E136
:10348000954200D10AE10125382917DC8A465346C6
:103490001F2B00DDE7E12022D21A029B61469340F8
:1034A0001D005346D940634693401A000D43511EF8
:1034B0008A4153461543029ADA40A4182D188542D2
:1034C000804140422418230200D4B6E05E4B01370D
:1034D0009F4200D1ADE001215C4B6A081C402940AD
:1034E0000A43E507154364088DE7594A029B924653
:1034F0006246BA441A432CD08E422ED05246002A3D
:1035000060D0002F00D1DBE063460E00029CD8089B
:1035100062070243E4081300234300D154E28025EC
:103520002D0325432D03484C2D0B8CE76146029B50
:10353000194300D1CCE029000139012D00D188E1E7
:10354000954200D1AAE00125382900DD2FE78A46FF
:1035500018E7012251408E42D0D15346002B00D1B2
:10356000BEE0002F00D038E1CA462200024300D15D
:10357000E2E15346591E012B00D10DE2324A924539
:1035800000D1D2E10127382913DC1F2900DDEEE14B
:103590002022029B521A250007009A46CC409040F8
:1035A0009540CF40A244421E904153462F430743CB
:1035B00002933D00654465459241029B52424F464D
:1035C000D41880E7234A7D1C154200D0AAE0624649
:1035D0002500029B05431A43002F00D0F5E0002D83
:1035E00000D16BE1002A00D152E16346C51A029B6B
:1035F000E21AA8429B415B42D31A1A0200D4D5E1D9
:1036000063461D1AAC4592410126029B52421C1B87
:103610008846A41A0E40F6E697423FD0524601254E
:10362000382A00DD4AE78022029B120413430293EA
:103630002DE73C000025002205E707232B40002B47
:1036400000D0E2E66BE0C046FF070000FFFF7FFF0F
:1036500001F8FFFFFE070000280000F08FFA0300CA
:1036600018331F2B00DCB4E62A00083882409F4242
:1036700000DDB9E0DB1B581C1F2800DCA0E11500B1
:103680001F3BDD40202805D040231B1A9A40531EC3
:103690009A411543072300272B40D0E7C008620753
:1036A0000243E40837E7EA0863071A43D34BE40808
:1036B0009F4200D12FE72403250B7C05640DC2E651
:1036C000CA462200024358D163460E00029C03936F
:1036D000039B5746DA08E7E7C94CFF1A144092E605
:1036E000C84D7A1C2A4200D084E022000243002FF9
:1036F00000D0EFE0002A00D1E5E0624602990A43DB
:1037000000D1C5E06346C5188C46854280416444BB
:1037100040422418230202D5B94B01371C40BA4657
:103720000395D5E76246851AA842924152429146D6
:10373000029BE31A1A004B46D21A130091461A0252
:103740006CD44A464C462A4300D03AE60026002470
:10375000002578E6029953460D00203AD540202BEB
:1037600006D04022D21A0B00934062461A43934679
:103770005B465A1E93411D4319E653465A1E012BC0
:1037800000D1C6E09D4EB24500D1BDE688460E0090
:103790000125382A10DC1F2A7FDC20212500891A08
:1037A000070088408D40D740D440411E8841029B8D
:1037B0003D431B1B054302936246551BAC4592419A
:1037C000029B52424F469C1AF6E5002D00D0B7E00E
:1037D000002A00D1F0E001260E4063460298D90885
:1037E00042070A43C40896E6854CFF1A1440620754
:1037F000E40860E781498A4200D1C9E06346C11804
:1038000081428041029B4042E3181B18DD075C089F
:10381000072349080D4317002B4010E763461D1A84
:10382000AC4592410126029B52421C1B8846A41AB9
:103830000E40C6E56346C518029B854280419C4602
:103840004042644424180127230200D4F5E60227ED
:1038500041E66346C51AA8428041029B4042E41AF1
:103860000127241AA8E5029D52462B00203AD34096
:1038700019005346202B06D04022D21A2B00934029
:1038800062461A4393465D466B1E9D410D4315E605
:103890006207C0080243E4080DE711002700203941
:1038A000CF40202A05D040218A1A944025000543A4
:1038B0000395039D6A1E95413D437DE7002A00D193
:1038C00044E701260E406346D908029B5A070A4383
:1038D000DC08F0E6002A28D06246029FC0083A437E
:1038E00000D1DCE6620710438022E4081203144290
:1038F00009D0FD08154206D1634601262C00D808E0
:103900007B0718430E40420FC000C0085207024315
:1039100001E663461D1AAC459241029B52421C1BB4
:103920000E0088460127A41A46E56346D908029B83
:103930005A070A43DC08EEE56346029C0393C7E698
:10394000C008002A00D1AAE6620710438022E408DA
:1039500012031442D7D0029FFD081542D3D163460B
:103960000126D8087B072C0018430E40CBE70A003D
:103970002700203AD740202905D04022521A9440EF
:10398000250005430395039D6A1E95412F4310E6CC
:1039900014000025002256E5029B604499466045CC
:1039A00092414C4452420500A4184CE71A001C00F6
:1039B0002A4300D0B3E6C9E6802400262403AEE5FE
:1039C00020210025091A17E5002200250B4C3AE5B5
:1039D000002D00D1F6E54B46DA1B9246002F00D1B0
:1039E0006FE6382A05DC80263604344388460E000C
:1039F000D1E688460E000125DEE6C046FF0700003E
:103A0000FFFF7FFFFE070000002D00D168E64B4658
:103A1000D91B002F01D18A46A7E50127382900DDEF
:103A2000C7E5802212041443AFE5C0460B00020034
:103A300070B5164D0C0382B049000020009201932E
:103A4000240B490DDE0FA94204DD1148814203DD3C
:103A5000104BF01802B070BD8020400320430E4C84
:103A6000641A1F2C08DD0D4B5B1AD8400300584226
:103A7000002EEFD11800EDE7094B009A9C46030099
:103A800061448B40E2401343F1E7C046FE0300006F
:103A90001D040000FFFFFF7F33040000130400003B
:103AA000EDFBFFFF70B5002816D0C317C5185D40A9
:103AB000C40F280000F062F8104B1B1A5B055B0D69
:103AC0000A2814DC02002E00153296400B22121A2E
:103AD000D5402D032D0B03E00024002300250026F4
:103AE0001B052B43E40723433000190070BD0B383E
:103AF00085402D0300262D0BF2E7C0461E04000072
:103B00008446100062468C461900634600E0C046B9
:103B10001FB500F009F9002801D40021C8421FBDDB
:103B200010B500F049F84042013010BD10B500F06A
:103B3000FBF8002801DB002010BD012010BDC046AD
:103B400010B500F0F1F8002801DD002010BD0120C3
:103B500010BDC04610B500F073F8002801DC00204D
:103B600010BD012010BDC04610B500F069F8002856
:103B700001DA002010BD012010BDC0461C21012328
:103B80001B04984201D3000C10391B0A984201D340
:103B9000000A08391B09984201D30009043902A21E
:103BA000105C40187047C046040302020101010185
:103BB0000000000000000000F0B55746DE464E460B
:103BC0004546E0B50D000400E80F83460903D80F11
:103BD000090B824619488C461F0369005E00490D97
:103BE0003F0B760D814218D086420FD00120B142A2
:103BF0000DD1BC450BD1944209D1D3451CD000292D
:103C000005D160462043431E984100E00120F0BCEE
:103C1000BB46B246A946A046F0BD01208E42F6D171
:103C2000614639430F0017432743F0D15B465246A4
:103C3000981A431E9841EAE70020E8E7FF070000D2
:103C4000F0B557464E464546DE46E0B50D000F033B
:103C5000390B83B00400804601915800E90F314FC1
:103C6000400D8C466E00190382469146760D090B75
:103C7000D80FBE421FD0BA450FD0002E2FD15546C7
:103C8000019E3443002D27D10A433AD0002C45D160
:103C900000281AD10120404217E011433BD1002EE9
:103CA00002D1019F2743F3D0844509D16346002BFD
:103CB000F0D0604609E0019F27432CD1B24524D0C3
:103CC00063460220013B1840013803B0F0BCBB46FC
:103CD000B246A946A046F0BD002CD9D0E4E7544630
:103CE000002CEDD08445EBD15645E9DCDEDB019BB1
:103CF0008B42E5D8DAD1C845E2D80020C845E4D2E5
:103D0000D4E70020002CE0D0DAE7114303D184454A
:103D1000D6D10020D9E702204042D6E78445E6D03C
:103D2000CEE7C046FF070000F0B557464E46454671
:103D3000DE46E0B50D000F0304008046E80F390BA6
:103D4000844683B05800304F400D01911E03690036
:103D500082469146490D360BD80FB94220D0BA455C
:103D60000FD000292BD101990C435146002937D19E
:103D7000324338D0002C44D1002819D101204042D0
:103D800016E0164313D1002902D1019F2743F3D037
:103D9000844520D063460220013B1840013807E0EB
:103DA000019F274303D18A45F4D116431FD0022037
:103DB00003B0F0BCBB46B246A946A046F0BD54468F
:103DC000002CE7D08445E5D15145E3DC03DB019BC2
:103DD000B342DFD80FD06346002BCFD06046E7E771
:103DE000002CC9D0D4E70020002CE1D0D2E78445D4
:103DF000D0D10020DCE7C845CCD80020C845D7D2B8
:103E0000E9E78445E3D0C5E7FF070000BFF34F8F24
:103E1000034B044ADA60BFF34F8FC046FDE7C0464C
:103E200000ED00E00400FA0500B587B0142200217F
:103E300001A803F005FF094A516B0123194351639F
:103E4000526B1A400092009AC0220192039301A97A
:103E5000034801F077FF07B000BDC04600100240E4
:103E60000004005010B5064803785A1CD2B2027004
:103E70000449AA24CC540233037055238B5410BD3B
:103E8000900100209401002010B5064803785A1CC8
:103E9000D2B2027004495524CC5402330370AA23D1
:103EA0008B5410BD90010020940100200378AA2BB0
:103EB00001D0002070474378552B01D00020F9E74E
:103EC0004318013B1B78AA2B01D00020F2E74018D1
:103ED00002380378552B01D00020EBE70120E9E7F9
:103EE00030B50339455C0022002105E083181B79B9
:103EF0005918C9B2013292B2C3781B0284782343A5
:103F0000013B9A42F2DBA94201D0002030BD0120E2
:103F1000FCE770B505000C0004290DD9FFF7C6FFBA
:103F2000012801D0002070BD21002800FFF7D8FF34
:103F30000128F8D00020F6E70020F4E710B50400CF
:103F40000023002004E0E25C1018C0B201339BB2F1
:103F50008B42F8D310BD10B501F064FB10BD10B555
:103F600001F0A8FB10BD000010B583790133837107
:103F7000C3790133C371054B1B78012B02D0FFF7C6
:103F8000EEFF10BDFFF7E7FFFBE7C046C5000020CE
:103F900010B5FFF7E0FF10BD10B5FFF7DCFF10BD57
:103FA00010B502480921FFF7D6FF10BDC800002058
:103FB00010B5104B1B78DAB2002B19D10E4B002133
:103FC00019700C4B013119700BE00B490B78DCB206
:103FD0000133DBB20B7083185979084B1955013244
:103FE000D2B2C3781B0281780B43023B9A42ECDBCE
:103FF00010BDC0460E0300200F0300201003002058
:1040000010B50379013B0371CA1E835C013B8354E5
:10401000FFF7A5FF10BD10B5037901330371CA1E68
:10402000835C01338354FFF796FF10BDF0B5C6469D
:1040300000B580460F0016001E4C00232370D51CCF
:10404000ADB2FFF70FFF23785A1CD2B222701A4983
:10405000CD54981CC0B220702D0A8D54DA1CD2B2F7
:10406000227001250D540433237043468B540023E2
:1040700008E0104C2078421C2270FD5C0E4C255448
:104080000133DBB2B342F4D30A4E3578291F89B22B
:104090000A4C2000FFF752FF043C60550135357093
:1040A000FFF7F2FE31782000FFF755FF80BCB846DD
:1040B000F0BDC0469001002094010020980100202E
:1040C00010B503490122F920FFF7B0FF10BDC0462B
:1040D0000D03002010B503490122FA20FFF7A6FFC7
:1040E00010BDC046C400002010B503490222FB20C9
:1040F000FFF79CFF10BDC046C200002030B583B062
:104100006B46DD1DD87101F043FC04002B78862B33
:1041100001D003B030BD01222900FF20FFF786FF48
:104120000A2001F03BFC1A4D280003F0E1F82B684F
:10413000012293432B60EFF3108182F310882B68E8
:104140001F3293432B6081F31088FFF76DFE06E06A
:1041500001F01EFC001BFA22920090420BD8402175
:104160000C4801F0A9FE0028F2D18021094801F095
:10417000A3FE0028ECD101F00BFC001BFA239B00EE
:10418000984203D901F012F8FFF740FEFFF73EFE18
:10419000003801400004005010B5034902225020AD
:1041A000FFF744FF10BDC0469602002010B5040082
:1041B000022818D803F0A2FA00280CD00E4B1C706D
:1041C000200001F049FB0D4901230B700122512011
:1041D000FFF72CFF0EE0094900230B70012251204C
:1041E000FFF724FF06E0054900230B700122512050
:1041F000FFF71CFF10BDC046C00000209402002045
:1042000010B5034901225220FFF710FF10BDC04630
:10421000C000002000B587B01422002101A803F0DF
:104220000FFD80235B000193FF3B02930493A020CA
:1042300001A9C00501F086FD07B000BD00234DE0D7
:10424000A022D205802149009161C046C046C046E7
:10425000C046C046C046C046C046C046C046C0462E
:10426000C046C046C046C046C046C0469162C04631
:10427000C046C046C046C046C046C046C046C0460E
:10428000C046C046C046C046C046C046C046C046FE
:10429000C046C046C046C046C046C046C046C046EE
:1042A000C046C046C046C046C046C046C046C046DE
:1042B000C046C046C046C046C046C046C046C046CE
:1042C000C046C046C046C046C046C046C046C046BE
:1042D000C046C046C046C0460133DBB2172B00D9EA
:1042E00055E01721C91A01228A40104200D1A7E7E0
:1042F000A022D205802149009161C046C046C04637
:10430000C046C046C046C046C046C046C046C0467D
:10431000C046C046C046C046C046C046C046C0466D
:10432000C046C046C046C046C046C046C046C0465D
:10433000C046C046C046C046C046C046C046C0464D
:10434000C0469162C046C046C046C046C046C04650
:10435000C046C046C046C046C046C046C046C0462D
:10436000C046C046C046C046C046C046C046C0461D
:10437000C046C046C046C046C046C046C046C0460D
:10438000C046C046C046C046C046C046A4E77047C7
:10439000024B80001B6819507047C046B0020020D5
:1043A00010B572B6002407E01B4BA2001B6898589A
:1043B000FFF744FF0134E4B2184B1B78A342F3D853
:1043C00062B6002325E0C046C046C046C046C0468F
:1043D000C046C046C046C046C046C046C046C046AD
:1043E000C046C046C046C046C046C046C046C0469D
:1043F000C046C046C046C046C046C046C046C0468D
:10440000C046C046C046C046C046C046C04601334E
:10441000DBB2842BD7D910BDB0020020B40200203B
:10442000F0B583B001AB164A12881A8000229A7048
:10443000002619E0134B9F5D134B1878C0B2FFF7AD
:1044400031FB0022114BFEF773F904000D00380018
:10445000FFF728FB22002B00FEF784FCFDF7CAFFC4
:1044600001AB98550136F6B2022EE3D901AB98782C
:104470001A78120210435B781B04184303B0F0BD96
:10448000087D0008980200200C030020000059401D
:1044900010B5FFF7BFFE002325E0C046C046C0466A
:1044A000C046C046C046C046C046C046C046C046DC
:1044B000C046C046C046C046C046C046C046C046CC
:1044C000C046C046C046C046C046C046C046C046BC
:1044D000C046C046C046C046C046C046C046C046AC
:1044E000C0460133DBB2842BD7D90421012003F06D
:1044F000BDFA034B1860034B01221A7010BDC04671
:10450000B0020020B402002010B503290BD0134BD9
:1045100000221A700121197011490A7001322020FD
:10452000FFF784FD10BD02780E4B1A7042785A7066
:1045300082789A70FFF774FF01000020FFF728FFD0
:10454000FFF72EFF054B00221A7001321A70044942
:104550000A702020FFF76AFDE4E7C0469B020020B6
:104560009C0200209802002010B50349032221205C
:10457000FFF75CFD10BDC0469802002010B5154B3A
:104580001B78DBB2642B18D8124B18701878C0B2A5
:1045900001F08AF9FFF744FF01000020FFF7F8FE61
:1045A000FFF7FEFE0C4B00221A7001321A700B4905
:1045B0000A702220FFF73AFD10BD074B00221A7047
:1045C0000121197005490A7001322220FFF72EFDE2
:1045D000F2E7C0460C0300209B0200209C02002052
:1045E00010B5064B00221A7001321A70044B1B786A
:1045F00004490B702320FFF719FD10BD9B0200201A
:104600000C0300209C02002000B583B0144A916B7B
:10461000012319439163926B13400193019B114B4A
:10462000C22292009858104908408021C9010143D4
:10463000995080218900196098580C4908408021C0
:10464000C90301439950F8321A60002201210B205E
:1046500001F002FA0B2001F003FA03B000BDC046DE
:104660000010024000E100E0FF00FFFFFFFF00FF3D
:1046700082B0094B596B012211435963596B0A40AF
:104680000092009A596B0222114359635B6B1A40E6
:104690000192019B02B070470010024010B514480F
:1046A000144B0360144B4360002383600122C260FB
:1046B000036143618361C361036201F0A9FD0028C6
:1046C0000CD10B48002101F097FF002809D10848C0
:1046D000002101F0BDFF002806D110BD00F0B4F8A4
:1046E000EFE700F0B1F8F2E700F0AEF8F5E7C0460A
:1046F000B802002000580040BC7D701010B588B092
:1047000004001422002103A803F09AFA2268124B35
:104710009A4201D008B010BD104C626B01231A43BD
:104720006263626B13400193019BC0235B0103939F
:10473000122304930C3B0793A02003A9C00501F0AA
:1047400001FBE36B8022D2031343E363E36B13406B
:104750000293029BDEE7C046005800400010024072
:104760000B4B0C4A1A600C4A1A6002225A600B4A20
:104770009A6002E00023012B05D0054BDB685B0744
:10478000F8D10123F7E7024B054A1A607047C0468B
:1047900000300040CCCC000055550000FF0F000059
:1047A000AAAA000082B080229205002307E09900A7
:1047B0000C4884466144096802C20133DBB22F2BE6
:1047C000F5D9094A116C012319431164126C134085
:1047D0000193019B054A136803210B43136002B048
:1047E0007047C04600200008001002400000014051
:1047F00010B501F07BF8114B187001F027F8FF2875
:104800000CD001F023F80E4B187001F047F8FF2888
:104810000CD001F043F80B4B187010BD084B02226E
:104820001A701878C0B201F017F8EEE7054B28228D
:104830001A701878C0B201F037F8EEE70D030020C7
:10484000C00000200C03002072B6FEE700B593B054
:104850003822002104A803F0F3F910220021684651
:1048600003F0EEF98020800001F01CFF0A2304937E
:10487000F633079300230893402209923F3A0A92A5
:1048800001320B920C920D9308330E9380239B02FE
:104890000F93C023DB04109380239B05119304A87E
:1048A00001F02AFF00280ED107230093053B019356
:1048B0000023029303930221684602F0D5F90028F1
:1048C00003D113B000BDFFF7BFFFFFF7BDFF00002E
:1048D00070B5FFF767FFFFF78BFF01F039F8FFF7BF
:1048E000B5FFFFF7C5FEFFF78FFE00F05FFC00F09D
:1048F000C1FDFFF735FF00F045FB00F07FFBFFF740
:10490000CDFE00F0B9FBFFF7C3FD012001F046F832
:10491000404B02256D421D61DA6801242243DA60B2
:104920001A6822431A60012001F038F83A4B1D61E1
:10493000DA682243DA601A6822431A60012001F023
:104940002DF8364B1D61DA682243DA601A6822437B
:104950001A60012001F022F8314B1878C0B202F041
:10496000CDFE4EE02F4B1B78DBB2522B09D8202B0B
:104970001BD3203BDAB2322A17D893002A4AD358E5
:104980009F46FB2B35D007D9FF2B0ED1254B5878EE
:10499000C0B2FFF7B3FB08E0F92B27D0FA2B04D104
:1049A000FFF798FB01E0FFF7F7FB204B00221A709E
:1049B0002BE01C4B5878C0B2FFF7F8FBF5E7FFF788
:1049C0001FFCF2E71A4B1978013989B21948FFF731
:1049D0009BFDEAE7FFF7C8FDE7E7124B5878C0B246
:1049E000FFF7CCFDE1E7FFF7FBFDDEE7FFF768FB34
:1049F000DBE7FFF779FBD8E70F4B18800F4B104A26
:104A00001A600A4B1B78012BACD003F017F8030493
:104A1000F2D5F3E700200040004801400044014087
:104A2000C0000020100300204C7D00080E03002071
:104A30000F030020110300209602002000300040E8
:104A4000AAAA000000B583B00D4B196C01221143D6
:104A50001964196C0A400092009ADA6B80214905AA
:104A60000A43DA63DB6B0B400193019B00220121B7
:104A7000032000F0F1FF032000F0F2FF03B000BDBF
:104A800000100240FEE7FEE77047704710B500F0E7
:104A900073FF10BD10B501F003F810BD70470000A2
:104AA000F0B5C64600B5224B1B689B0636D5204B99
:104AB00020225A601F4A136801218B4313601E4B4A
:104AC000C22292009B5C002B2BD072B61A4D1B4F5A
:104AD000EE5DF401A3195B00EB180133FF331B8873
:104AE0009846701C0231FDF77FFCE955C222920006
:104AF000AB5C013BAB54A419640064190D4BDC6042
:104B00005A68120C120441460A435A601A6801217D
:104B10000A431A600A4B00221A7062B680BCB8467B
:104B2000F0BD72B6064B01221A7062B6F6E7C046B7
:104B3000000002401C000240240F00200603000079
:104B4000C7000020F0B5C64600B5224B1B689B0489
:104B500037D5204B802292015A601F4A13680121E9
:104B60008B4313601D4BC22292009B5C002B2BD009
:104B700072B61A4D1A4FEE5DF401A3195B00EB18E3
:104B80000133FF331B889846701C0231FDF72CFC63
:104B9000E955C2229200AB5C013BAB54A4196400FE
:104BA00064190D4BDC605A68120C120441460A432A
:104BB0005A601A6801210A431A600A4B00221A70CF
:104BC00062B680BCB846F0BD72B6064B01221A70C0
:104BD00062B6F6E70000024044000240180C0020D4
:104BE00006030000C600002010B50E4B1B69DB0752
:104BF00016D50C4B022252421A610B4C2378013B12
:104C000023700A48092100F00DFD2378002B07D1FD
:104C1000044BDA6801218A43DA601A688A431A6011
:104C200010BDC04600200040DD000020D400002060
:104C30000C4B1B69DB0714D50A4B022252421A6146
:104C4000094B1B78002B0CD1074B01211970074B26
:104C5000DA680A43DA601A680A431A60044B0322CE
:104C60001A70704700440140C50000200020004039
:104C7000DD00002010B5064B1B69DB0707D5044B90
:104C8000022252421A610348092100F013FD10BDAF
:104C900000480140C8000020F8B5CE46474680B520
:104CA0004D4BDB69DB063ED54B4B1B68DB063AD52B
:104CB000494B10221A62494B1A6801218A431A6033
:104CC0005B689BB280256D00ED1AADB2002D26D039
:104CD000434A1678F6B21378013301210B40137062
:104CE000127852023F4812183C4BDA605A68120C94
:104CF00012048024640022435A601A680A431A602E
:104D0000EFF3108481F31088334A93683F310B43EB
:104D1000936084F3108876023618002423E02F4A2B
:104D200013680B431360C0BCB946B046F8BD0134EC
:104D3000A4B218E0FFF734F94BE033191B79012BCB
:104D400004D001004846FFF75BF942E00100484605
:104D5000FFF7DFF801283CD141464846FFF728F924
:104D600037E00134A4B2AC42DDD22200E31CAB42F6
:104D7000F7DA30198146305DAA28F2D148464078EA
:104D80005528EED1A01C305C8046E01C305C00024F
:104D900047460743802040008742C8D83800063085
:104DA00080B2804642449542DBDBB1180239097873
:104DB0005529D6D1B218013A1278AA2AD1D1621D4A
:104DC000B25CFD2AB6D0FE2AB7D101004846FFF7F3
:104DD000CBF84444A4B2C6E70038014008000240C2
:104DE0001104002014080020F8B5CE46474680B5CF
:104DF0004B4BDB69DB0643D5494B1B68DB063FD5D4
:104E0000474B10221A62474B1A6801218A431A60E5
:104E10005B689BB280256D00ED1AADB2002D2BD0E2
:104E2000414A1678F6B21378013301210B40137012
:104E3000127852023D4812183A4BDA605A68120C46
:104E400012048024640022435A601A680A431A60DC
:104E5000EFF3108481F31088314A93683F310B439C
:104E6000936084F310880023314A5362314A1370EF
:104E70007602361800241DE02A4A13680B4313609B
:104E8000C0BCB946B046F8BD0134A4B212E0390046
:104E90004846FFF77DF8E419A4B20BE00023244A4A
:104EA0005362244A137039004846FFF775F8F2E759
:104EB0000134A4B2AC42E3D2231DAB42F8DA2300A2
:104EC00030198146375DAA2FF2D14778552FEFD19F
:104ED000A71CF05DE71CF75D3F02384380277F0089
:104EE000B842D1D807000637BFB23A199542DFDB86
:104EF000B118023909785529DAD1B218013A127875
:104F0000AA2AD5D10533F35CFD2BC4D0FE2BBED02D
:104F1000FC2BC3D039004846FFF77DF8BBE7C046FD
:104F2000004400403000024010040020140400201F
:104F300000440140C500002010B503000C4A0D4993
:104F4000521A0D490968002907D00B490868C3188F
:104F5000934206D8084A136010BD07490748086005
:104F6000F3E702F087FE0C23036001204042F3E7E1
:104F70000020002000040000140C0020B8130020C2
:104F80007047000030B587B001AC1422002120002A
:104F900002F056FE144B1A6C802109020A431A646F
:104FA0001B6C0B400093009B104AC42080001358D8
:104FB0001B021B0A8021C9050B43135080231B03CE
:104FC00013600B4B2380002363600A4AA260E360F6
:104FD000094D2100280002F00BF92B6880221343B1
:104FE0002B6007B030BDC0460010024000E100E079
:104FF000FF180000A30600000020004030B587B075
:1050000001AC14220021200002F01AFE144B1A6C8D
:10501000802189020A431A641B6C0B400093009B99
:10502000104BC520800019580F4A11408022D20130
:105030000A431A50802292031A600C4B23800023EB
:1050400063600B4AA260E36023610A4D21002800DF
:1050500002F0CEF82B68802293432B6007B030BD5E
:105060000010024000E100E0FF00FFFFFF18000019
:105070002F7500000044014030B587B001AC142208
:105080000021200002F0DCFD134B1A6C8021C902C4
:105090000A431A641B6C0B400093009B0F4AC52007
:1050A000800013580E490B408021C9030B43135055
:1050B00011600C4B2380002363600B4AA260E36005
:1050C00023610A4D2100280002F092F82B6880220B
:1050D00093432B6007B030BD0010024000E100E0B8
:1050E000FFFF00FFFF1800000F27000000480140ED
:1050F00070B5EFF31084012181F31088244A1368FE
:105100000C2083430343136084F31088EFF3108073
:1051100081F31088136810242343136080F31088F0
:105120001C4B1D4898601D48007840021C4D4019DA
:10513000D8605868000C000480256D002843586032
:105140001868FE3D28431860186808263043186028
:10515000186808431860EFF3108081F31088936893
:1051600038363343936080F3108814620D4B0E4839
:105170009860EFF3108081F31088916870342143B8
:10518000916080F310881A682A431A6070BDC04687
:10519000003801400800024024380140110400207A
:1051A000140800201C00024028380140F0B5DE46FB
:1051B00057464E464546E0B59BB02022002112A836
:1051C00002F03EFD182200210CA802F039FD282231
:1051D000002102A802F034FD0123029302A801F08D
:1051E00009FE002800D0C6E0644B1A6C8021C9017A
:1051F0000A431A641A6C0A400192019A5A6B0225FA
:105200002A435A635B6B2B400093009B40239846D4
:105210000C930D950E9500240F9401261096119471
:10522000574B99460CA9180001F0DEFE80270C9719
:105230000D950E950F94109611940CA9484601F007
:10524000D3FE504A13683F218A468B430D390B43E6
:1052500013604D4B1A684D4989460A401A601A6816
:105260004B498C460A401A601A681E35AA431A60D8
:105270001A6841468A431A601A68BA433A431A6068
:105280001A68444802401A601A6843498B460A402B
:105290001A60424A136851468B430C390B43136022
:1052A0003F4B1A6849460A4010210A431A601A689F
:1052B00061460A401A601A68AA431A601A68414691
:1052C0008A431A601A68BA433A431A601A6802405D
:1052D0001A601A6859460A401A60324AC621890083
:1052E00053581B021B0A535080231B051360129452
:1052F000E1235B0213931494159416940C231793D3
:1053000018941994284C12A9200002F01BF8EFF30E
:10531000108286F31088A368DB00DB08A36082F3A9
:105320001088EFF3108286F31088A3681F490B40A2
:10533000A36082F3108823681D4A134023606368CA
:105340001C4A13406360A3682A229343A360236826
:1053500033432360144BDB699B02FBD5124BDB69A3
:105360005B02F7D5FFF7C4FE1BB0F0BCBB46B246EC
:10537000A946A046F0BDFFF767FA35E700100240E6
:10538000000400500008024008000240EFBFFFFF89
:10539000FFCFFFFFFFFCFFFFFFF3FFFF040802400A
:1053A0001C00024000E100E000380140FFFFFFF177
:1053B000FFFFFFDFFFB7FFFF70B5EFF310840121A0
:1053C00081F31088244A13680C208343034313603D
:1053D00084F31088EFF3108081F310881368102491
:1053E0002343136080F310881C4B1D4898601D48B0
:1053F000007840021C4D4019D8605868000C000429
:1054000080256D00284358601868FE3D28431860C9
:105410001868082630431860186808431860EFF3CE
:10542000108081F31088936838363343936080F39B
:10543000108814620D4B0E489860EFF3108081F3D2
:105440001088916870342143916080F310881A6845
:105450002A431A6070BDC04600440040300002403C
:1054600024440040100400201404002044000240A2
:1054700028440040F0B5DE4657464E464546E0B566
:1054800091B020262022002108A802F0D9FB182282
:10549000002102A802F0D4FB564BDA6B802189026E
:1054A0000A43DA63DA6B0A400192019A5A6B0125CA
:1054B0002A435A635B6B2B400093009B04230293A7
:1054C00002240394049406950795A027FF0502A9DA
:1054D000380001F089FD082302930394049400240A
:1054E00005940695079502A9380001F07DFD424A12
:1054F00013683F218A468B430B390B4313603F4BA4
:105500001A683F4989460A401A601A683D49884628
:105510000A401A601A68B2431A601A6840218C4621
:105520008A431A601A688027BA433A431A601A6895
:10553000354802401A601A6834498B460A401A609E
:10554000334A136851468B430A390B431360314B7E
:105550001A6849460A4010210A431A601A684146EF
:105560000A401A601A68B2431A601A6861468A4390
:105570001A601A68BA433A431A601A6802401A60FD
:105580001A6859460A401A60234BC72189005A58A5
:10559000FF2082435A50802252051A600894E1236A
:1055A0005B0209930A940B940C940C230D930E94B4
:1055B0000F941A4C08A9200001F0C4FE6368184A31
:1055C00013406360A3682A229343A36023682B439C
:1055D0002360124BDB699B02FBD5104BDB695B023E
:1055E000F7D5FFF7E9FE11B0F0BCBB46B246A946BD
:1055F000A046F0BD00100240080802403000024002
:10560000EFBFFFFFFFCFFFFFFFFCFFFFFFF3FFFF39
:105610000C0802404400024000E100E00044004069
:10562000FFB7FFFF70B50C001E4B1B78002B10D08E
:1056300072B61C4B00221A701B4AD06053681B0CB8
:10564000190421435160136801210B43136062B6B2
:1056500070BD164BC22292009B5C022BF8D8FF292A
:10566000F6D872B6114D124EAA5DD3019B185B009D
:105670005B190A000100180002F028FBA85DC301B5
:105680001B185B00EB180133FF331C800130032132
:10569000FCF7AAFEA955C2229200AB5C0133AB54C1
:1056A00062B6D5E7C70000201C000240240F00208E
:1056B0000703000070B50C001E4B1B78002B10D0A8
:1056C00072B61C4B00221A701B4AD06053681B0C28
:1056D000190421435160136801210B43136062B622
:1056E00070BD164BC22292009B5C022BF8D8FF299A
:1056F000F6D872B6114D124EAA5DD3019B185B000D
:105700005B190A000100180002F0E0FAA85DC3016D
:105710001B185B00EB180133FF331C8001300321A1
:10572000FCF762FEA955C2229200AB5C0133AB5478
:1057300062B6D5E7C600002044000240180C0020E5
:10574000070300000D488546FFF71AFC0C480D4979
:105750000D4A002302E0D458C4500433C4188C42CC
:10576000F9D30A4A0A4C002301E013600432A24232
:10577000FBD302F085FAFFF7ABF8FEE7002000202C
:10578000C000002074010020FC7E0008740100208D
:10579000B4130020FEE7F8231B069C466044C00AB1
:1057A000704770B504684368C9000E00203E13D4EA
:1057B000FF25B540FF268E40B443AB4304604360F1
:1057C0000D00203D0DD41600AE4035008A40144334
:1057D00004602B43436070BD2026761AFF25F540F8
:1057E000E8E720256D1A1600EE403500EEE7416827
:1057F0000068704710B586B000230593023301930B
:10580000FFF7C9FF03900123049300F0A9F905A94C
:1058100001A800F053FA040000F022FA63425C4150
:10582000E0B206B010BD70B5040016001D0000F017
:1058300097F932002B002100012000F0DFF904006D
:1058400000F00EFA63425C41E0B270BD014B187883
:10585000C0B2704700C0000830B583B004000E4DE0
:105860002800FFF7C4FF0090019122000021684644
:10587000FFF797FF2800FFF7BDFF009A019B06483E
:10588000FFF7D1FF0028F8D0FFF7E0FF001B4342ED
:105890005841C0B203B030BD00C00008014B1878B9
:1058A000C0B2704701C0000830B583B004000E4D8F
:1058B0002800FFF79CFF009001912200012168461B
:1058C000FFF76FFF2800FFF795FF009A019B06483E
:1058D000FFF7A9FF0028F8D0FFF7E0FF001B4342C5
:1058E0005841C0B203B030BD00C00008014B187869
:1058F000C0B27047FF1F000810B50400114B1978A3
:10590000002901D1012010BDFA208000FCF7FCFB2A
:1059100001000D4B1868FCF7F7FB00F0ADF800280C
:105920000DD1032C01D90120EDE701300022210027
:10593000404200F091F8054B1C600020E3E7012095
:10594000E1E7C046E4000020E0000020E80000207D
:1059500010B5084A116880235B000B4313600320D5
:10596000FFF7CAFF041E02D00124200010BDFFF77C
:1059700069F8FAE700200240034B1B78034A1168DC
:105980005B1813607047C046E4000020301200200E
:10599000014B18687047C0463012002070B50400F3
:1059A000FFF7F6FF0500631C02D0044B1B78E418D8
:1059B000FFF7EEFF401BA042FAD370BDE4000020C9
:1059C00070B5002811DB8308134DC0339B005C5970
:1059D00003221040C000FC3216008640B443890107
:1059E0000A40824022435A5170BD0F230340083BB6
:1059F0009B0806339B00094A944663445C68032273
:105A00001040C000FC3215008540AC4389010A40BB
:105A1000824022435A60E7E700E100E000ED00E049
:105A2000013880235B0498420FD2094A506009482C
:105A3000036A1B021B0AC02109060B4303620023F1
:105A4000936007331360002070470120FCE7C046D5
:105A500010E000E000ED00E010B5FFF7B1FF10BD71
:105A6000002805DB1F22024001239340014A1360F6
:105A70007047C04600E100E010B5FFF7D1FF10BD50
:105A800030B5054C61690125294361610260BFF3AE
:105A90006F8F436030BDC0460020024070477047A2
:105AA00010B52A4B1B692A4A13402A4A92685107AB
:105AB00021D5284A1469002B2AD1244B1B69DB0706
:105AC0000CD5224B01221A61224B9B68022B2CD051
:105AD000204B00229A602000FFF7E0FF1D4B9B68DF
:105AE000002B07D1194A53691B490B405361194BCD
:105AF00000221A7010BD1548416991434161174950
:105B00000A4202D0134AD468D5E7124A5469D2E750
:105B1000104A51680B4353600C4B0D491961002327
:105B200093602000FFF7BBFFC7E70A4A9369013B78
:105B30009361002B03D1074B00229A60CBE7516998
:105B400001315161106900F0A9F8C4E7002002405A
:105B5000FAC3000034120020FFFFFFFC0100040024
:105B6000084B5B69002B01DB00207047054B064AA0
:105B70009A60064A9A605B69002B01DB0020F4E71B
:105B80000120F2E70020024023016745AB89EFCDF9
:105B900070B50400FFF7FCFE0500144B1B69DB0326
:105BA00008D5631CF9D0FFF7F3FE401BA042F4D3E5
:105BB00003201AE00D490A690D4B16001E400D48DE
:105BC00008611A420CD1094B1B695B030CD5631C9D
:105BD000F9D0FFF7DDFE401BA042F4D3032004E020
:105BE000054B5E60012000E0002070BD00200240F7
:105BF000FAC30000FBC3000034120020F8B5070010
:105C00000C0015001E00144B1B78012B22D0124BE8
:105C100001221A7000225A60FA208000FFF7B8FFB4
:105C200000280DD1012F0FD02900200002F064F8C8
:105C3000FA208000FFF7ACFF084A5369BB43536169
:105C4000054B00221A70F8BD2A0033002000FFF730
:105C500017FFEDE70220F6E7341200200020024093
:105C600010B5FA208000FFF793FF064B5969802298
:105C700012060A435A615B69002B01DB012010BD4B
:105C80000020FCE700200240034A536903438020C0
:105C9000400218435061704700200240044A536993
:105CA00004480340C9001943034B0B435361704739
:105CB0000020024007E0FFFF0200010070B5040071
:105CC0000E001E4B1B78012B36D01C4B01221A7084
:105CD00000225A60FA208000FFF75AFF002827D1DF
:105CE000042363602368042B14D001235B423360D8
:105CF000A568A368E2689B18AB4214D960682900C4
:105D0000FFF7CCFFFA208000FFF742FF002809D1FF
:105D10000135EEE70430FFF7B7FFFA208000FFF708
:105D200037FF05E03560064A536902218B43536112
:105D3000024B00221A7070BD0220FCE734120020D2
:105D400000200240F0B5002359E086685F0003247C
:105D5000BC40A643CC68BC40344384604468944350
:105D60004E683609012232409A402243426056E092
:105D7000DE080836B600375805321A4092000F2464
:105D80009440A7430C69944022003A43325059E0B2
:105D9000032600E00026A64034003C43424E183261
:105DA000920094513768EA433E00AE434C68E402E7
:105DB00001D53E002E433C4C266067683E001640ED
:105DC0004C68A40201D53E002E43374C6660842601
:105DD000A7593E0016404C68A40301D53E002E434F
:105DE000314C8427E6518026A65932404C68E403A2
:105DF00001D52A0032432C4D80242A5101330C68EE
:105E00002200DA404ED001229A402500154014426B
:105E1000F4D04E6803243440013C012C95D94C68E1
:105E200003222240032A08D0C4685E000322B24045
:105E300094438A68B2402243C2604C6803222240E5
:105E4000022A95D004685E0003221700B740BC43C5
:105E50004F683A40B240224302604C68C02292022E
:105E60001442CBD09A0814001834A4000E4EA7593F
:105E700003241C40E4000F26A640B743A026F605E5
:105E8000B04287D0094EB04208D0094EB04207D088
:105E9000084EB04200D17BE705267CE701267AE771
:105EA000022678E7F0BDC04600180240000400500A
:105EB00000080050000C005003690B4201D0012083
:105EC00070470020FCE7026893699B0701D5002317
:105ED000936203689A69D20703D49A6901210A433D
:105EE0009A61704710B58905890D12041143194351
:105EF000029B194349004908046862685B0D8020D1
:105F0000C0000340034803439A4313000B436360FC
:105F100010BDC046FF63FF03F0B5C64600B50400E0
:105F20000D00170001688B69102216001E401A42EE
:105F300000D175E01023CB6100239846002620682D
:105F400083699B0631D4002E2FD16B1CF7D0FFF74D
:105F50001FFDC01BA84201D8002DF0D121684B685D
:105F60008022D20113404222A25CD2B2886900048E
:105F700003D5002B01D1202A0ED123689B699B06F3
:105F8000DDD4FFF705FDC01B1928F6D920234246B2
:105F90001A4390460126D2E74A688023DB01134367
:105FA0004B60FFF7F5FC0700E7E7002E01D1202347
:105FB000C3610426434633431E00012522689369CA
:105FC000D90504D501210E43FF31D16101255A05C0
:105FD00006D50822164322688021C900D161012517
:105FE0009B051FD502231E43236880229200DA619D
:105FF00001252000FFF767FF226853680B490B401B
:106000005360636C3343636441232022E2540023D2
:106010002232A354023AA354280080BCB846F0BDF3
:106020000025CBE7002DF7D0E3E7C04600E800FEEF
:1060300070B504000D00160023689B699B0720D4EF
:10604000320029002000FFF767FF00281BD16B1CDE
:10605000F2D0FFF79DFC801BA84201D8002DEBD1A8
:1060600023689B699B07E7D4636C20221343636416
:106070004123E25400232232A354023AA3540120C4
:1060800000E0002070BD0120FCE7F0B5D6464F4689
:1060900080B583B007000D00160099460A9B9A460A
:1060A0003B689C692C40641B63425C410196B4428E
:1060B00028D1524649463800FFF72EFF002827D145
:1060C0004B460133ECD0FFF763FC5346C01A4845FA
:1060D00002D84B46002BE3D13B689B692B405B1BEE
:1060E0005A425341019A9342DAD17B6C20221343E6
:1060F0007B644123FA5400232232BB54023ABB543E
:10610000012000E0002003B0C0BCBA46B146F0BD9B
:106110000120F8E770B504000D00160003E02368C5
:106120009B699B0612D523689B699B061BD4320092
:1061300029002000FFF7F0FE002816D1FFF728FC09
:10614000801BA842EBD8002DEDD1E8E7636C20223C
:10615000134363644123E25400232232A354023ADE
:10616000A354012000E0002070BD0120FCE70000E6
:10617000F8B504000E001700002518E00023636442
:10618000FFF706FCC01BB04201D8002E0FD1002D36
:106190000DD123689B695B0709D4636C20221343EC
:1061A00063644123E254013B0022E2540135236839
:1061B0009B695B0728D4002D26D13A0031002000CE
:1061C000FFF7AAFE002800D00125226893699B06EC
:1061D000D6D5002DD4D193699369DB06CED5102393
:1061E000D3610C3B636423682022DA6121684B6829
:1061F000064803404B604123E25400232232A3545B
:10620000023AA3540135BBE72800F8BD00E800FEC0
:1062100010B5041E60D04123C35C002B48D041233D
:106220002422E2542268136801218B4313606368BF
:1062300022682A490B4013612268936828490B4061
:106240009360E368012B39D0A168226884231B0284
:106250000B439360E368022B37D0226853682149CF
:106260000B405360226851681F4B0B4353602268F8
:10627000D3681B490B40D360236962691343A26949
:10628000120221681343CB60E369216A22680B4341
:1062900013602268136801210B43136000236364B9
:1062A00041221F31A15423630132A354002010BDA9
:1062B00040330022C254FEF721FAB0E7A1682268F9
:1062C00080231B020B439360C4E72268516880233C
:1062D0001B010B435360C5E70120E8E7FFFFFFF018
:1062E000FF7FFFFFFFF7FFFF00800002F0B585B0E2
:1062F00004000E00029203930A9D4123C35C202BED
:1063000000D0AEE02033C35C012B00D1ACE04023D1
:106310000122C254FFF73CFB0700802100901923A3
:10632000012209022000FFF7B0FE002800D09DE006
:1063300041232122E2540133113AE25400236364E1
:10634000029A6262039A62856363638D9BB2FF2B3C
:106350001ED9FF23238580235B04228D002A1CD0B5
:106360002268029909789162626A01326262628DE2
:10637000013A92B26285228D013A92B222850132AF
:10638000D2B23E49009131002000FFF7ABFD18E08A
:10639000638D238580239B04DFE7D2B237490091C8
:1063A00031002000FFF79EFD0BE0628D92B2228546
:1063B0008023D2B2002100919B0431002000FFF71E
:1063C00091FD638D9BB2002B34D03A002900200050
:1063D000FFF72EFE00284BD1626A236812789A627A
:1063E000636A01336362638D013B9BB26385238DD6
:1063F000013B9BB22385628D92B2002AE1D0002B33
:10640000DFD100972B00002280212000FFF73DFE06
:1064100000282FD1638D9BB2FF2BC6D9FF23238584
:106420007F3B002200925B04FF3231002000FFF727
:1064300059FDC6E73A0029002000FFF76BFE00284F
:106440001AD123682022DA6121684B680C4D2B4059
:106450004B604123E25400232232A354023AA35456
:1064600000E0022005B0F0BD0220FBE70120F9E7C3
:106470000120F7E70120F5E70120F3E70020008085
:1064800000E800FEF0B585B004000F00029203930F
:106490000A9D4123C35C202B00D09BE02033C35CCA
:1064A000012B00D199E040230122C254FFF770FA7A
:1064B0000600802100901923012209022000FFF725
:1064C000E4FD002800D08AE041232222E254013377
:1064D000123AE25400236364029A6262039A62856C
:1064E0006363638D9BB2FF2B0BD9FF2323857F3B17
:1064F0003F4A00925B04FF2239002000FFF7F2FCC4
:1065000018E0628D92B222858023D2B23849009180
:106510009B0439002000FFF7E5FC0BE0628D92B28E
:1065200022858023D2B2002100919B0439002000F3
:10653000FFF7D8FC638D9BB2002B34D032002900CA
:106540002000FFF715FE00284BD123685A6A636AC2
:106550001A70636A01336362238D013B9BB223850A
:10656000628D013A92B26285628D92B2002AE1D0C8
:10657000002BDFD100962B00002280212000FFF7A6
:1065800084FD00282FD1638D9BB2FF2BC6D9FF233A
:1065900023857F3B002200925B04FF3239002000FC
:1065A000FFF7A0FCC6E7320029002000FFF7B2FD8C
:1065B00000281AD123682022DA6121684B680D4D2A
:1065C0002B404B604123E25400232232A354023A71
:1065D000A35400E0022005B0F0BD0220FBE701203B
:1065E000F9E70120F7E70120F5E70120F3E7C046CE
:1065F0000024008000E800FEF0B54123C35C202B9E
:1066000020D12033C35C012B1ED04024012202552F
:106610004125242343550668336893433360066855
:1066200033680A4F3B403360066833680B4333607E
:1066300001680B6813430B60202343550023035567
:106640000020F0BD0220FCE70220FAE7FFEFFFFF89
:10665000F0B54123C35C202B1ED12033C35C012B3A
:106660001CD04024012202554125242343550668AD
:1066700033689343336006683368094F3B4009022F
:106680001943316001680B6813430B6020234355A5
:10669000002303550020F0BD0220FCE70220FAE7AA
:1066A000FFF0FFFF10B5104A136810490B40034379
:1066B000136080239B00984201D0002010BD0C4B3A
:1066C0001B685800C01840000A49FBF71DFD013047
:1066D000054B5B695B0503D5002803D00138F7E75C
:1066E0000020EBE70320E9E700700040FFF9FFFF1F
:1066F000E000002040420F0070B582B0041E00D1BF
:1067000031E20368DB0739D5C14A916838230B4071
:10671000D16803220A40102B26D0082B26D06368AC
:106720008022520293427FD0A022D202934200D113
:1067300081E0B74B1A68B7490A401A601A68B6492F
:106740000A401A606368002B00D180E0FFF720F94F
:106750000500AF4B1B689B0310D4FFF719F9401BD2
:106760006428F6D90320FFE1032AD6D1A84B1B6881
:106770009B0303D56368002B00D1F7E123689B07D7
:1067800031D5A34A916838230B40D16803220A40CF
:10679000102B6AD0002B6BD19D4A1268520503D58D
:1067A000E268002A00D1E3E1994842689B490A4027
:1067B000616909020A434260002B0DD103689849C0
:1067C0000B4021690B4303600368DB0A07221A4070
:1067D000944BD340944A1360944B1868FFF78CF89D
:1067E000002800D0C6E123681B0700D481E0884B55
:1067F0009A6838231340182B73D0A369002B00D15B
:10680000B4E0834A136E01210B431366FFF7C0F80F
:1068100005007F4B1B6E9B076BD4FFF7B9F8401B3D
:106820000228F6D903209FE1794A116880235B0290
:106830000B43136086E7764B19688022D2020A4325
:106840001A601968802252020A431A607AE7FFF739
:106850009FF805006E4B1B689B038FD5FFF798F8D8
:10686000401B6428F6D903207EE1022A92D193E7E7
:10687000E368002B22D0664A136869490B402169FE
:106880000B431360116880235B000B431360FFF719
:106890007FF805005E4B1B685B0506D4FFF778F8B0
:1068A000401B0228F6D903205EE159494B685B4A38
:1068B00013406269120213434B6094E7544A136811
:1068C0005B490B401360FFF763F80500504B1B68F2
:1068D0005B0588D5FFF75CF8401B0228F6D903203A
:1068E00042E14B4B1B6E9B0703D5A369002B00D1E4
:1068F00042E123685B0700D4A2E0454B9A68382345
:106900001340202B45D0424BDB6BDB004AD4404B7D
:10691000DA6B802149050A43DA63DB6B0B40019394
:10692000019B0125434B1B68DB053DD5A368012B6B
:106930004ED0052B52D0364BDA6D01218A43DA65F1
:10694000DA6D03318A43DA65A368002B50D0FFF774
:106950001FF806002E4BDB6D9B076FD4FFF718F86E
:10696000801B354B9842F5D90320FDE0284A136E71
:1069700001218B431366FFF70BF80500244B1B6EB8
:106980009B07B6D5FFF704F8401B0228F6D9032071
:10699000EAE01F4BDB6D9B0752D5A368002B4FD15C
:1069A0000120E1E00025BDE7224A116880235B0059
:1069B0000B431360FEF7ECFF06001E4B1B68DB0564
:1069C000B4D4FEF7E5FF801B0228F6D90320CBE004
:1069D0000F4AD36D01210B43D365B5E70C4BDA6D3C
:1069E00004210A43DA65DA6D03390A43DA65ABE755
:1069F000FEF7CEFF0600064BDB6D9B071ED5FEF7AC
:106A0000C7FF801B0C4B9842F5D90320ACE0C04671
:106A100000100240FFFFFEFFFFFFFBFFFF80FFFFB4
:106A2000FFC7FFFF0024F400E0000020E800002082
:106A3000FFFEFFFF0070004088130000012D1ED0F4
:106A4000E369002B00D199E0544A916838220A404A
:106A5000102A60D0022B18D0504A136850490B40BE
:106A60001360FEF795FF04004C4B1B689B014BD550
:106A7000FEF78EFF001B0228F6D9032074E0474A78
:106A8000D36B48490B40D363DAE7444A136844495F
:106A90000B401360FEF77CFF0500404B1B689B0119
:106AA00006D5FEF775FF401B0228F6D903205BE0F0
:106AB0003A4AD3683C491940236A606A0343A06A92
:106AC00000020343E06A0343206B0343606B03430C
:106AD0000B43D360116880235B040B431360D168C0
:106AE00080235B050B43D360FEF752FF04002B4B62
:106AF0001B689B0106D4FEF74BFF001B0228F6D94A
:106B0000032031E000202FE0244AD36827490B40BE
:106B1000D360002028E0012B32D0204BDA68032319
:106B20001340216A8B422DD170231340616A8B423E
:106B30002AD1FE21C9011140A36A1B02994225D125
:106B4000F8239B031340E16A8B4221D1E0231B050C
:106B50001340216B8B421DD1520F5207636B9A4237
:106B60001AD1002000E0012002B070BD0120FBE737
:106B70000120F9E70120F7E70120F5E70020F3E71E
:106B80000120F1E70120EFE70120EDE70120EBE72D
:106B90000120E9E70120E7E70120E5E700100240D6
:106BA000FFFFFFFEFFFFFFEF8C80C111FCFFFEEE39
:106BB00010B52A4B9B6838221A4207D1274B1A6816
:106BC000D20A072313402648D84010BD234B9A68A9
:106BD00038231340082B3BD0204B9A6838231340AE
:106BE000102B0DD01D4B9A6838231340202B31D029
:106BF0001A4B9A6838231340182B26D00020E4E75C
:106C0000164AD1680D3B0B40D2681209072111408A
:106C10000131032B0FD01248FBF776FA0F4BDA68DD
:106C2000120A7F23134058430C4BD968490F013196
:106C3000FBF76AFAC9E70B48FBF766FA074BDA6815
:106C4000120A7F2313405843EEE7FA20C001BCE745
:106C50000448BAE780200002B7E7C04600100240AF
:106C60000024F40000127A0070B504000D00002822
:106C700000D1AAE0574B1A68072313408B4221D357
:106C800023689A070ED55B0705D5534A9168E02320
:106C9000DB010B439360504A936850490B40A16855
:106CA0000B4393602368DB0754D56368012B20D026
:106CB000022B3BD0002B3FD1474A126852051CD40F
:106CC00001206AE0434A136807218B432B4313607A
:106CD000FEF75EFE06003F4B1A6807231340AB42E7
:106CE000CED0FEF755FE801B3D4A9042F3D90320DB
:106CF00053E0394A1268920369D537498A680720F8
:106D0000824313438B60FEF743FE0600324B9B68C1
:106D100038221A406368DB009A421BD0FEF738FE27
:106D2000801B2F4B9842F1D9032036E02A4A126883
:106D30009201E2D4012030E0032B05D0264AD26D27
:106D40009207DAD4012028E0234A126E9207D4D4A5
:106D5000012022E01F4B1A6807231340AB421DD8C5
:106D600023685B0706D51C4A93681E490B40E168FF
:106D70000B439360FFF71CFF174B9A68120A0F230F
:106D80001340194A9B009A581F231340D840174BB1
:106D90001860174B1868FEF7AFFD70BD0D4A1368F9
:106DA00007218B432B431360FEF7F2FD0600094BCE
:106DB0001A6807231340AB42D2D0FEF7E9FD801BCF
:106DC000074B9842F3D90320E7E70120E5E70120CC
:106DD000E3E7C0460020024000100240FFF0FFFF42
:106DE00088130000FF8FFFFF387E0008E0000020BE
:106DF000E8000020F0B583B0040003689B0362D56F
:106E00006D4BDB6BDB001ED46B4BDA6B80214905CD
:106E10000A43DA63DB6B0B400193019B0126674A4F
:106E2000116880235B000B431360FEF7B1FD050082
:106E3000624B1B68DB0508D4FEF7AAFD401B022845
:106E4000F6D9032502E00026E9E70025002D23D12D
:106E5000594BD96DC02292000B001340114210D043
:106E6000626A9A420DD0544AD36D55490B40D06D99
:106E7000802149020143D165D16D52480140D1655D
:106E8000D365DB0710D4002D06D14B4AD36D4C4996
:106E90000B40616A0B43D365012E15D1464AD36B73
:106EA00049490B40D3630FE0FEF772FD0700424BE8
:106EB000DB6D9B07E7D4FEF76BFDC01B434B98428D
:106EC000F5D90325DFE700252368DB0706D53A4A15
:106ED000536D03218B4361680B4353652368DB06C5
:106EE00006D5354A536D3A490B40A1680B435365AB
:106EF00023689B0506D5304A536D36490B406169BE
:106F00000B43536523685B0506D52B4A536D324905
:106F10000B40A1690B43536523689B0606D5264A9F
:106F2000536D2E490B40E1680B43536523685B04A6
:106F30000BD5214A536D9B009B08E1690B435365B8
:106F4000E2698023DB059A4220D023689B020BD59F
:106F5000194A536D22490B40216A0B435365226A3B
:106F60008023DB039A4218D023681B050BD5124AF5
:106F7000536D1C490B4021690B43536522698023E3
:106F8000DB019A4210D0280003B0F0BD0A4AD16854
:106F900080235B020B43D360D7E7074AD168802385
:106FA0005B040B43D360DFE7034AD16880235B02B5
:106FB0000B43D360E7E7C04600100240007000407A
:106FC000FFFCFFFFFFFFFEFFFFFFFFEF8813000046
:106FD000FFF3FFFFFFFFF3FFFFFFCFFFFFCFFFFF39
:106FE000FFFFBFFFFF3FFFFFF0B5002216E00B6978
:106FF0009C46C4682B006B435E00F618F743B4430D
:1070000066465E433443C4604C68022C25D04D680C
:1070100004683C406B432343036001320C68230047
:10702000D3403AD00123934025001D401C42F4D0A8
:107030004B68013B012BDAD88F6883682C006C43C6
:1070400066003619B3437C4323438360CC684368AE
:10705000AB436C4323434360C9E7FF2D0DD84C6914
:10706000A446066A1C006C436C4325012D1BAE43ED
:1070700065466C4334430462C9E74C69A446466ADA
:107080002D0A2C006C436C436C4325012D1BAE4331
:1070900065466C4334434462B9E70020F0BD00000C
:1070A000054B9A68120A0F231340044A9B009A5812
:1070B0001F231340D840704700100240387E00085C
:1070C000054B9A68120B07231340044A9B009A58F9
:1070D0001F231340D840704700100240187E00085C
:1070E00010B50E4BDA6803231340032B13D00C4A60
:1070F0000A4CE3681B0A7F2018405043E3681B09D1
:10710000072119400131FAF7FFFFE168490F01310A
:10711000FAF7FAFF10BD034AEAE7C0460010024042
:107120000024F40000127A0010B50A4B9A68382344
:107130001340082B0CD0102B02D1FFF7D1FF10BD4C
:10714000044B1A68D20A072313400348D840F6E7D5
:107150000248F4E7001002400024F40000127A0014
:1071600010B50400FFF7E0FF2060FFF799FF6060B3
:10717000FFF7A6FFA06010BD10B5032801D00020C6
:1071800010BD164B5B6D034000040343144A934249
:107190000FD0144A934216D0134A934206D0FFF7F9
:1071A000C3FFFFF77DFFFFF78BFFE9E7FFF7BCFFAA
:1071B000E6E70A4B1A688023DB00100018401A42E9
:1071C000DED00A48DCE7054BDB6D022210001840D8
:1071D0001A42D5D080200002D2E7C04600100240FB
:1071E0000200030003000300010003000024F40078
:1071F00003681D4A904206D08022D205904202D0F8
:107200001A4A904203D1702293434A681343164AA4
:1072100090420FD08022D20590420BD0134A904268
:1072200008D0134A904205D0124A904202D0124A26
:10723000904203D1114A1A40CB68134303608B6814
:10724000C3620B888362084B984205D0094B984271
:1072500002D0094B984201D10B69036343690122B3
:107260001343436100207047002C0140000400409C
:10727000002000400044014000480140FFFCFFFFA7
:1072800010B5040008000B2A16D80299002913D063
:10729000802109028B4210D0FF231340124A9B0029
:1072A0009958FAF731FF029B5B08C0180299FAF768
:1072B0002BFF0004000CE06010BDFF2313400A4ABE
:1072C0009B009958FAF720FF4000029B5B08C0180A
:1072D0000299FAF719FF054A02400004400C0723FF
:1072E00003401343E360E7E7787E0008F0FF000007
:1072F0000F4B984204D00F4B98420DD0012070479D
:107300000D4B196B8022D2010A431A631A6B0B4989
:107310000A401A630020F2E7074BD96A80229202E2
:107320000A43DA62DA6A06490A40DA620020E6E7CE
:10733000003801400044004000100240FFBFFFFF42
:10734000FFFFFDFF30B587B004000D000368DB07C9
:1073500042D40368214A1A408B6809690B43696962
:107360000B43E9690B4313430360EB6842681C4914
:107370000A4013434360AB6982681A490A401343C9
:107380008360194B98420DD0184B984215D00120BC
:107390002B68E26A0F218A431B041B0C1343E36230
:1073A00007B030BD0320FFF7E7FE0100002911D030
:1073B0006868002806D10120EAE703A8FFF7D0FE9D
:1073C0000599F3E72A68EB6900902000FFF758FF62
:1073D0000020DDE70120DBE70120E1E7F369FFEFB3
:1073E000FFCFFFFFFFFCFFFF0038014000440040DB
:1073F00030B585B000236A46D373030A1373507304
:107400000A4CFA256D000095022303AA52212000A0
:10741000FEF76CFF009501230F226A4452212000E1
:10742000FFF730F86B46D87B05B030BDB8020020BE
:1074300030B585B0030A6A46137250720C4CFA25B7
:107440006D000095022302AA52212000FEF74EFF94
:107450000095022303AA52212000FFF713F86B4680
:107460001B7B1B026A46507B184305B030BDC046EB
:10747000B802002000B585B003AA030A137050704B
:1074800091700748FA235B000093F23BFF3B5221C7
:10749000FEF72CFF43425841C0B205B000BDC046C4
:1074A000B802002000B585B003AA030A137050701B
:1074B0000B0A9370D1700748FA235B000093F13BED
:1074C000FF3B5221FEF712FF43425841C0B205B0C4
:1074D00000BDC046B802002000B585B002AA030A6C
:1074E000137050700B0E93700B0CD3700B0A13714A
:1074F00051710748FA235B000093EF3BFF3B522199
:10750000FEF7F4FE43425841C0B205B000BDC0468C
:10751000B802002010B5012823D002283FD000284F
:1075200001D0002010BD07216030FFF7A3FF052127
:107530006320FFF79FFF38216920FFF79BFF07219A
:107540007820FFF797FF05217920FFF793FF0621A9
:107550007A20FFF78FFF06217B20FFF78BFF0120AA
:10756000E0E70B216020FFF785FF09216320FFF78B
:1075700081FF78216920FFF77DFF0B217820FFF73D
:1075800079FF09217920FFF775FF0A217A20FFF79B
:1075900071FF0A217B20FFF76DFF0120C2E70F2159
:1075A0006020FFF767FF0D216320FFF763FFB8211D
:1075B0006920FFF75FFF0F217820FFF75BFF0D21A8
:1075C0007920FFF757FF0E217A20FFF753FF0E2196
:1075D0007B20FFF74FFF0120A4E710B53120FFF714
:1075E00007FF012343400120184010BD10B50400DF
:1075F000084B19888020C005FAF786FD0134E4B2F3
:107600006400E4B2C30018180002800960438009D6
:1076100010BDC0465212002000280DD0421E00238B
:1076200002E0520801339BB2FF2AFAD81B0298B23B
:10763000FF231340184370470020FCE710B50003F8
:107640004B08C018FAF760FD10BD000070B5284B5C
:1076500098424AD9274B9C466044274B984201D90F
:10766000002043E044086020FFF7C2FEFFF7BEFFA2
:107670000500FA2029008000FFF7E0FFFF2800D96D
:10768000FF20C1B24B20FFF7F5FE29000120FFF7D4
:10769000D5FFFFF7C1FF01005A20FFF703FF2900C4
:1076A0002000FFF7CBFFFFF7B7FF01005E20FFF7D9
:1076B000F9FE6320FFF79CFEFFF798FF050001002D
:1076C0000120FFF7BBFFFFF7A7FF01005C20FFF7DA
:1076D000E9FE29002000FFF7B1FFFFF79DFF010041
:1076E0006120FFF7DFFE012000E0002070BDC046F2
:1076F000B011000050EEFFFFE0C8100010B504000C
:1077000000210020FFF7B6FE002800D110BD0A209E
:10771000FEF744F901210020FFF7ACFE0028F5D068
:107720000620FFF785FE5B4B1880DE20FFF780FE0A
:10773000594B1880A02109012420FFF7B3FE00282F
:10774000E4D002213120FFF795FE0028DED0082189
:107750003620FFF78FFE0028D8D010213720FFF702
:1077600089FE0028D2D001213920FFF783FE0028AE
:10777000CCD0FF213E20FFF77DFE0028C6D000219F
:107780003F20FFF777FE0028C0D002214020FFF7FE
:1077900071FE0028BAD000215020FFF783FE002898
:1077A000B4D000215220FFF77DFE0028AED0382152
:1077B0005720FFF75FFE0028A8D0B42149006420BD
:1077C000FFF770FE0028A1D0C0216620FFF76AFEF7
:1077D00000289BD001217120FFF74CFE002895D096
:1077E00001217C20FFF746FE002800D18EE7022110
:1077F0007E20FFF73FFE002800D187E7002182208E
:10780000FFF738FE002800D180E701217720FFF73D
:1078100031FE002800D179E78B218120FFF72AFE75
:10782000002800D172E7C82109025420FFF73AFE70
:10783000002800D16AE702214F20FFF71BFE002835
:1078400000D163E72000FFF765FE1448FFF7FEFE56
:107850002220FFF7EDFD810089B21E20FFF722FEF6
:10786000002800D152E70C4B1B88322159436C2071
:10787000FFF732FE002800D148E701218620FFF7FC
:10788000F9FD002800D141E740218720FFF7F2FDF4
:107890003CE7C046521200205012002050C30000A6
:1078A00070B588B000236A46137789335377184D33
:1078B000FA2676000096873B07AA52212800FEF799
:1078C00015FD02AC00961123220052212800FEF77C
:1078D000D9FD22780F4B1A70A2785A70E278120202
:1078E0005A8021790A435A80E27912029A80217AD9
:1078F0000A439A80627B1202DA80A17B0A43DA8013
:10790000E27B12021A81217C0A431A8108B070BD01
:10791000B80200206012002070B5144B5D88002D65
:107920000ED018899B88C01880235B02984200D330
:107930000F48040429002000FAF7E6FBA54205D908
:10794000802109025420FFF7ADFD70BD0100A02089
:107950000005FAF7D9FB80235B02984200D3044864
:1079600081B25420FFF79EFDEFE7C0466012002071
:10797000FFFF000010B5FAF799FEF0218905FAF72C
:1079800057FD10BD70B52A49CA8893019B1ADB00C8
:107990009B1A9B009B1A8022D20094466344DB0A08
:1079A000244A13800B78122B3DD89B00224AD358CF
:1079B0009F46204B05229A701D4D2889FFF7DAFF5C
:1079C0001C4C6060A888FFF7D5FFA06070BD194B04
:1079D0000D229A70F0E7174B0A229A70ECE7154BCC
:1079E00004229A70E8E7134B02229A70E4E7114BE5
:1079F00001229A70E0E70F4B07229A70DCE70D4BEB
:107A000009229A70D8E70B4B03229A70D4E7084BEF
:107A10005B78002B03D1074B06229A70CCE7054B0D
:107A200000229A70C8E7034BFF229A70C4E7C04651
:107A30006012002054120020A87E000810B5FFF745
:107A4000CCFD002801D1074810BDFFF729FFFFF743
:107A500063FFFFF797FF01218620FFF70BFD024B25
:107A60001888F1E7FFFF00005412002010B5034B07
:107A70000A000100186800F003F810BDEC000020B7
:107A800070B50B0C150C002B1ED1002D0CD189B23A
:107A900094B24C43210000F043F8051E1AD0220096
:107AA000002100F0CDF816E02B1C0C1C89B292B21C
:107AB0004A439BB2A1B25943140C0C19230C07D1B1
:107AC000240492B21443E5E7002D01D1141CEDE724
:107AD0000C2303600025280070BD000070B50F4E18
