:020000040800F2
:1000000000200020D1140008930A0008950A000877
:1000100000000000000000000000000000000000E0
:10002000000000000000000000000000970A000827
:100030000000000000000000990A00089B0A000868
:10004000211500082115000821150008A30A000841
:1000500021150008211500082115000821150008A8
:1000600000000000AB0A0008AD0A0008D90A000829
:100070002115000821150008211500082115000888
:10008000211500082115000821150008050B00089E
:1000900000000000650B000821150008211500086C
:1000A000211500082115000821150008F50B00088E
:0C00B000F90C00082115000800000000F9
:1000C00010B5064C2378002B07D1054B002B02D02E
:1000D000044800E000BF0123237010BDB0000020E1
:1000E00000000000583C0008044B10B5002B03D062
:1000F0000349044800E000BF10BDC04600000000F6
:10010000B4000020583C00080023C25C0133002AE0
:10011000FBD1581E7047000003B4714649084000E7
:100120004900095E49008E4403BC70470022430821
:100130008B4274D303098B425FD3030A8B4244D3AF
:10014000030B8B4228D3030C8B420DD3FF220902F1
:1001500012BA030C8B4202D31212090265D0030BB0
:100160008B4219D300E0090AC30B8B4201D3CB03A6
:10017000C01A5241830B8B4201D38B03C01A5241E8
:10018000430B8B4201D34B03C01A5241030B8B42EA
:1001900001D30B03C01A5241C30A8B4201D3CB02D5
:1001A000C01A5241830A8B4201D38B02C01A5241BA
:1001B000430A8B4201D34B02C01A5241030A8B42BD
:1001C00001D30B02C01A5241CDD2C3098B4201D3D5
:1001D000CB01C01A524183098B4201D38B01C01A53
:1001E000524143098B4201D34B01C01A52410309CA
:1001F0008B4201D30B01C01A5241C3088B4201D379
:10020000CB00C01A524183088B4201D38B00C01A25
:10021000524143088B4201D34B00C01A5241411A4C
:1002200000D20146524110467047FFE701B5002059
:1002300000F0F0F802BDC0460029F7D076E770471D
:1002400003460B437FD4002243088B4274D3030937
:100250008B425FD3030A8B4244D3030B8B4228D3D8
:10026000030C8B420DD3FF22090212BA030C8B42FE
:1002700002D31212090265D0030B8B4219D300E09E
:10028000090AC30B8B4201D3CB03C01A5241830B23
:100290008B4201D38B03C01A5241430B8B4201D3D3
:1002A0004B03C01A5241030B8B4201D30B03C01AFC
:1002B0005241C30A8B4201D3CB02C01A5241830A76
:1002C0008B4201D38B02C01A5241430A8B4201D3A5
:1002D0004B02C01A5241030A8B4201D30B02C01ACF
:1002E0005241CDD2C3098B4201D3CB01C01A524136
:1002F00083098B4201D38B01C01A524143098B42BF
:1003000001D34B01C01A524103098B4201D30B01A7
:10031000C01A5241C3088B4201D3CB00C01A5241CC
:1003200083088B4201D38B00C01A524143088B4291
:1003300001D34B00C01A5241411A00D2014652412A
:10034000104670475DE0CA0F00D04942031000D349
:100350004042534000229C4603098B422DD3030A9E
:100360008B4212D3FC22890112BA030A8B420CD3AE
:10037000890192118B4208D3890192118B4204D3D7
:1003800089013AD0921100E08909C3098B4201D357
:10039000CB01C01A524183098B4201D38B01C01A91
:1003A000524143098B4201D34B01C01A5241030908
:1003B0008B4201D30B01C01A5241C3088B4201D3B7
:1003C000CB00C01A524183088B4201D38B00C01A64
:1003D0005241D9D243088B4201D34B00C01A52413B
:1003E000411A00D20146634652415B10104601D3C8
:1003F0004042002B00D54942704763465B1000D352
:10040000404201B5002000F005F802BD0029F8D0F7
:1004100016E770477047C0460378AA2B01D000202A
:1004200070474378552B01D00020F9E74318013B72
:100430001B78AA2B01D00020F2E74018023803787D
:10044000552B01D00020EBE70120E9E730B5033957
:10045000455C0022002105E083181B795918C9B2B8
:10046000013292B2C3781B0284782343013B9A4243
:10047000F2DBA94201D0002030BD0120FCE770B5BD
:1004800005000C0004290DD9FFF7C6FF012801D093
:10049000002070BD21002800FFF7D8FF0128F8D008
:1004A0000020F6E70020F4E710B500F0E1FF10BDF2
:1004B00010B500F0F5FF10BD10B5837901338371DD
:1004C000C3790133C371054B1B78012B02D0FFF7B1
:1004D000EFFF10BDFFF7E8FFFBE7C046000000207C
:1004E00010B5FFF7E1FF10BD10B5FFF7DDFF10BD40
:1004F00010B502480921FFF7D7FF10BD0400002006
:1005000010B5054B187802300321FFF77FFF034B2E
:1005100001225A5410BDC046680B00206C0B00200D
:1005200010B5104B1B78DAB2002B19D10E4B0021FD
:1005300019700C4B013119700BE00B490B78DCB2D0
:100540000133DBB20B7083185979084B195501320E
:10055000D2B2C3781B0281780B43023B9A42ECDB98
:1005600010BDC0466101002062010020640100202E
:1005700010B50379013B0371CA1E835C013B8354B0
:10058000FFF796FF10BD10B5037901330371CA1E42
:10059000835C01338354FFF787FF10BD00B587B03C
:1005A0001422002101A802F08DFF80235B0001933B
:1005B000FF3B02930493A02001A9C00501F060FA5B
:1005C00007B000BD10B5FFF7E9FF002325E0C046E6
:1005D000C046C046C046C046C046C046C046C046EB
:1005E000C046C046C046C046C046C046C046C046DB
:1005F000C046C046C046C046C046C046C046C046CB
:10060000C046C046C046C046C046C046C046C046BA
:10061000C046C046C0460133DBB2842BD7D9042183
:10062000012002F045FE034B1860034B01221A70B3
:1006300010BDC046CC000020D000002000B583B023
:10064000144A916B012319439163926B13400193F8
:10065000019B114BC22292009858104908408021FA
:10066000C9010143995080218900196098580C49AB
:1006700008408021C90301439950F8321A600022D2
:1006800001210B2001F086F80B2001F087F803B060
:1006900000BDC0460010024000E100E0FF00FFFF87
:1006A000FFFF00FF82B0094B596B012211435963D0
:1006B000596B0A400092009A596B02221143596308
:1006C0005B6B1A400192019B02B070470010024020
:1006D00010B51448144B0360144B4360002383602F
:1006E0000122C260036143618361C361036201F05F
:1006F0004DFC00280CD10B48002101F007FF002819
:1007000009D10848002101F02DFF002806D110BDB5
:1007100000F062F8EFE700F05FF8F2E700F05CF855
:10072000F5E7C046D400002000580040BC7D7010A2
:1007300010B588B004001422002103A802F0C2FE04
:100740002268134B9A4201D008B010BD114C626B65
:1007500001231A436263626B1A400192019AC0221C
:1007600052010392122204920593069305330793D4
:10077000A02003A9C00501F083F9E36B8022D20316
:100780001343E363E36B13400293029BDCE7C04631
:10079000005800400010024010B500F045FF094B22
:1007A000187000F019FFFF2804D000F015FF064B69
:1007B000187010BD044B0A221A701878C0B200F0ED
:1007C00011FFF6E7600100205F0100200902FF230E
:1007D00003400B4398B2704772B6FEE700B593B082
:1007E0003822002104A802F06DFE10220021684684
:1007F00002F068FE8020800001F0DEFE0A230493F0
:10080000F633079300230893402209923F3A0A9255
:1008100001320B920C920D9308330E9380239B02AE
:100820000F93C023DB04109380239B05119304A82E
:1008300001F0ECFE00280ED107230093053B019345
:100840000023029303930221684602F097F90028DF
:1008500003D113B000BDFFF7BFFFFFF7BDFF0000DE
:1008600030B589B0FFF798FF00F010FFFFF7B6FF33
:10087000FFF718FFFFF7E2FE00F0BEFB00F020FDDF
:1008800000F0E2FA00F01CFBFFF722FFFFF79AFEF0
:10089000524BD96801221143D9601968114319607C
:1008A0001F236B441A7004E01F226A44137801333B
:1008B00013701F236B4419781B785BB2002B0DDB80
:1008C000490047480223022201F072FD0028EBD1C3
:1008D00001211F30684400F0CBFDE5E71E236B4487
:1008E00002221A703E48FA229200029201220192DC
:1008F000009301230022522101F0B6FB002817D1FA
:10090000384C394B220023CB23C2196811609B88D5
:1009100093802000FFF7F8FB81B2200000F0A8FDD3
:10092000002304930822002105A802F0CBFD35E046
:100930002C4C2E4B220023CB23C22000FFF7E4FBDC
:1009400081B2200000F094FDEAE7264C284B2200FB
:1009500023CB23C2196811601B7913712000FFF7A4
:10096000D3FB81B2200000F083FD282000F0B4FE0C
:1009700004ABD87A997AFFF729FF02001D49194C78
:10098000200002F07FFD2000FFF7BEFB81B22000B7
:1009900000F06EFDFA20800000F09EFE1048FA2361
:1009A0009B0002930C23019304AB009301231422B8
:1009B000522101F029FC0028C7D00A4C0E4B22001E
:1009C00003CB03C2198811809B7893702000FFF736
:1009D0009BFB81B2200000F04BFDC6E700200040E9
:1009E000D400002028010020803C0008943C00082E
:1009F000A03C0008C03C0008B43C000800B583B02F
:100A00000D4B196C012211431964196C0A400092B4
:100A1000009ADA6B802149050A43DA63DB6B0B40ED
:100A20000193019B00220121032000F0B3FE03206B
:100A300000F0B4FE03B000BD0010024010B5040089
:100A4000FFF71DFD012801D0002010BD6379FE2BAA
:100A500006D0FD2BF9D02379012B03D00330F4E726
:100A60000220F2E70520F0E710B50400FFF707FDCC
:100A7000012801D0002010BD6379FD2BFBD0FE2B97
:100A800005D0FC2B01D00420F5E70530F3E7032067
:100A9000F1E7FEE7FEE77047704710B500F00AFE89
:100AA00010BD10B500F09AFE10BD7047074B1B68D3
:100AB0009B0609D5054B20225A6005490B681F3A51
:100AC00093430B60034B1A707047C046000002400E
:100AD0001C00024002000020074B1B689B040AD543
:100AE000054B802292015A6004490B68012293430E
:100AF0000B60034B1A707047000002404400024034
:100B00000100002010B5134B1B69DB0720D5124CE8
:100B10002378013B23700F4B022252421A610F4887
:100B2000092100F0A5FC2378002B11D1094BD968CD
:100B300001229143D960196891431960084B022141
:100B400049421961D9681143D96019680A431A608A
:100B500010BDC046002000401900002010000020F9
:100B60000044014070B51C4B1B69DB0732D51A4BA2
:100B7000022252421A611948092100F091FC184DD5
:100B80002878184C002323540130C0B22870032168
:100B9000FFF752FB29702378002B18D16378002BC4
:100BA00015D1A378002B12D10F4B1B78002B0AD143
:100BB0000E4BDA6801210A43DA601A680A431A60A8
:100BC0000B4B03221A70084B01221A7002E0064BED
:100BD00000221A7070BDC04600440140040000208D
:100BE000680B00206C0B002000000020002000405B
:100BF0001900002070B53A4BDB69DB0633D5384B62
:100C00001B68DB062FD5364910230B62354B1A685B
:100C1000012082431A605A681204120C5242324C6C
:100C20002270324D2E780122921BD2B22A702A787D
:100C300052022F4D5219DA605A68120C12048025A4
:100C4000AD002A435A601A6802431A60EFF310821B
:100C500080F310888B683F3003438B6082F31088E9
:100C60002178002900D170BD204B1B783F38C01A75
:100C700040021F4BC018FFF7E1FE1E4A1070042807
:100C800021D00FD801281BD00228ECD1174B1B789C
:100C90000120C01A4002164BC018134B1978FFF7F9
:100CA0000BFCE0E70528DED1104B1B780120C01AB1
:100CB00040020F4BC0180C4B1978FFF731FCD2E7FC
:100CC000FFF716FCCFE7094B1B780120C01A400242
:100CD000074BC018044B1978FFF74AFCC3E7C0461E
:100CE0000038014008000240700B0020650300201E
:100CF000680700206F0B002070B53A4BDB69DB06FC
:100D000033D5384B1B68DB062FD5364910230B62D1
:100D1000354B1A68012082431A605A681204120C7B
:100D20005242324C2270324D2E780122921BD2B2A6
:100D30002A702A7852022F4D5219DA605A68120C22
:100D400012048025AD002A435A601A6802431A60D3
:100D5000EFF3108280F310888B683F3003438B6081
:100D600082F310882178002900D170BD204B1B78B8
:100D70003F38C01A40021F4BC018FFF775FE1E4ACD
:100D80001070042821D00FD801281BD00328ECD1E3
:100D9000174B1B780120C01A4002164BC018134B8A
:100DA0001978FFF79DFBE0E70628DED1104B1B7892
:100DB0000120C01A40020F4BC0180C4B1978FFF7E6
:100DC00093FBD2E7FFF79CFBCFE7094B1B78012091
:100DD000C01A4002074BC018044B1978FFF7D3FB29
:100DE000C3E7C0460044004030000240700B0020C2
:100DF00064030020680300206F0B002010B503007F
:100E00000C4A0D49521A0D490968002907D00B49AF
:100E10000868C318934206D8084A136010BD0749F2
:100E200007480860F3E702F067FB0C23036001202A
:100E30004042F3E70020002000040000740B002073
:100E4000E00C00207047000030B587B001AC1422E0
:100E50000021200002F036FB144B1A6C802109029D
:100E60000A431A641B6C0B400093009B104AC42079
:100E7000800013581B021B0A8021C9050B43135025
:100E800080231B0313600B4B2380002363600A4AFB
:100E9000A260E360094D2100280002F033F92B68BD
:100EA000802213432B6007B030BDC04600100240C3
:100EB00000E100E0FF180000A30600000020004051
:100EC00030B587B001AC14220021200002F0FAFAFC
:100ED000144B1A6C802189020A431A641B6C0B4064
:100EE0000093009B104BC520800019580F4A1140F9
:100EF0008022D2010A431A50802292031A600C4BBE
:100F00002380002363600B4AA260E36023610A4DE3
:100F10002100280002F0F6F82B68802293432B6012
:100F200007B030BD0010024000E100E0FF00FFFF0D
:100F3000FF1800000F2700000044014070B5EFF3D8
:100F40001084012181F31088244A13680C20834304
:100F50000343136084F31088EFF3108081F310884B
:100F6000136810242343136080F310881C4B1D4822
:100F700098601D48007840021C4D4019D8605868A0
:100F8000000C00048025AD00284358601868FF3D20
:100F9000FF3D284318601868082630431860186819
:100FA00008431860EFF3108081F310889368383697
:100FB0003343936080F3108814620D4B0D489860A2
:100FC000EFF3108081F310889168703421439160B1
:100FD00080F310881A682A431A6070BD00380140F7
:100FE0000800024024380140650300206807002003
:100FF0001C00024028380140F0B5DE4657464E46F8
:101000004546E0B59BB02022002112A802F05AFA12
:10101000182200210CA802F055FA2822002102A86B
:1010200002F050FA0123029302A801F06DFE00289D
:1010300000D0C6E0644B1A6C8021C9010A431A64CF
:101040001A6C0A400192019A5A6B02252A435A638C
:101050005B6B2B400093009B402398460C930D95AF
:101060000E9500240F94012610961194574B994623
:101070000CA9180001F042FF80270C970D950E95E2
:101080000F94109611940CA9484601F037FF504A6E
:1010900013683F218A468B430D390B4313604D4B38
:1010A0001A684D4989460A401A601A684B498C46AD
:1010B0000A401A601A681E35AA431A601A68414627
:1010C0008A431A601A68BA433A431A601A68444855
:1010D00002401A601A6843498B460A401A60424A25
:1010E000136851468B430C390B4313603F4B1A680E
:1010F00049460A4010210A431A601A6861460A40AC
:101100001A601A68AA431A601A6841468A431A602C
:101110001A68BA433A431A601A6802401A601A6899
:1011200059460A401A60324AC621890053581B02A8
:101130001B0A535080231B0513601294E1235B02AA
:1011400013931494159416940C23179318941994CC
:10115000284C12A9200002F055F8EFF3108286F314
:101160001088A368DB00DB08A36082F31088EFF32C
:10117000108286F31088A3681F490B40A36082F396
:10118000108823681D4A1340236063681C4A13407B
:101190006360A3682A229343A360236833432360D8
:1011A000144BDB699B02FBD5124BDB695B02F7D565
:1011B000FFF7C4FE1BB0F0BCBB46B246A946A04632
:1011C000F0BDFFF709FB35E70010024000040050B6
:1011D0000008024008000240EFBFFFFFFFCFFFFF03
:1011E000FFFCFFFFFFF3FFFF040802401C0002406A
:1011F00000E100E000380140FFFFFFF1FFFFFFDFEB
:10120000FFB7FFFF70B5EFF31084012181F3108861
:10121000244A13680C2083430343136084F310882B
:10122000EFF3108081F310881368102423431360B8
:1012300080F310881C4B1D4898601D4800784002C0
:101240001C4D4019D8605868000C00048025AD0082
:10125000284358601868FF3DFF3D28431860186810
:10126000082630431860186808431860EFF31080B0
:1012700081F31088936838363343936080F3108885
:1012800014620D4B0D489860EFF3108081F31088C5
:10129000916870342143916080F310881A682A4362
:1012A0001A6070BD004400403000024024440040F9
:1012B00064030020680300204400024028440040EA
:1012C000F0B5DE4657464E464546E0B591B020267D
:1012D0002022002108A802F0F5F81822002102A817
:1012E00002F0F0F8564BDA6B802189020A43DA6388
:1012F000DA6B0A400192019A5A6B01252A435A631C
:101300005B6B2B400093009B042302930224039405
:10131000049406950795A027FF0502A9380001F05F
:10132000EDFD08230293039404940024059406958C
:10133000079502A9380001F0E1FD424A13683F21F8
:101340008A468B430B390B4313603F4B1A683F4966
:1013500089460A401A601A683D4988460A401A6060
:101360001A68B2431A601A6840218C468A431A6090
:101370001A688027BA433A431A601A68354802400F
:101380001A601A6834498B460A401A60334A136857
:1013900051468B430A390B431360314B1A68494657
:1013A0000A4010210A431A601A6841460A401A602E
:1013B0001A68B2431A601A6861468A431A601A684A
:1013C000BA433A431A601A6802401A601A685946CA
:1013D0000A401A60234BC72189005A58FF208243D4
:1013E0005A50802252051A600894E1235B02099347
:1013F0000A940B940C940C230D930E940F941A4C96
:1014000008A9200001F0FEFE6368184A13406360DB
:10141000A3682A229343A36023682B432360124BC3
:10142000DB699B02FBD5104BDB695B02F7D5FFF74D
:10143000E9FE11B0F0BCBB46B246A946A046F0BDDD
:10144000001002400808024030000240EFBFFFFFDA
:10145000FFCFFFFFFFFCFFFFFFF3FFFF0C08024081
:101460004400024000E100E000440040FFB7FFFFFD
:10147000094B1B78012B00D07047074B00221A70D4
:10148000064BD8605A68120C1204114359601A684E
:1014900001210A431A60EFE7020000201C0002400D
:1014A000094B1B78012B00D07047074B00221A70A4
:1014B000064BD8605A68120C1204114359601A681E
:1014C00001210A431A60EFE70100002044000240B6
:1014D0000D488546FFF7B6FC0C480D490D4A002320
:1014E00002E0D458C4500433C4188C42F9D30A4AD9
:1014F0000A4C002301E013600432A242FBD302F045
:1015000001F8FFF7ADF9FEE7002000200000002001
:10151000B0000020943D0008B0000020E00C002046
:10152000FEE7F8231B069C466044C00A704770B56E
:1015300004684368C9000E00203E13D4FF25B5405F
:10154000FF268E40B443AB43046043600D00203D52
:101550000DD41600AE4035008A40144304602B437E
:10156000436070BD2026761AFF25F540E8E7202568
:101570006D1A1600EE403500EEE7416800687047CE
:1015800010B586B00023059302330193FFF7C9FF1E
:1015900003900123049300F081F905A901A800F04C
:1015A0002BFA040000F0FAF963425C41E0B206B0A5
:1015B00010BD70B5040016001D0000F06FF9320078
:1015C0002B002100012000F0B7F9040000F0E6F93B
:1015D00063425C41E0B270BD014B1878C0B2704705
:1015E00001C0000830B583B004000E4D2800FFF79D
:1015F000C4FF00900191220001216846FFF797FF88
:101600002800FFF7BDFF009A019B0648FFF7D1FFB6
:101610000028F8D0FFF7E0FF001B43425841C0B25A
:1016200003B030BD00C00008014B1878C0B270474D
:10163000FF1F000810B50400114B1978002901D1D3
:10164000012010BDFA208000FEF770FD01000D4B57
:101650001868FEF76BFD00F0ADF800280DD1032CE3
:1016600001D90120EDE7013000222100404200F0C5
:1016700091F8054B1C600020E3E70120E1E7C0463C
:10168000200000201C0000202400002010B5084A83
:10169000116880235B000B4313600320FFF7CAFF30
:1016A000041E02D00124200010BDFFF7A7F9FAE7BD
:1016B00000200240034B1B78034A11685B1813603B
:1016C0007047C04620000020780B0020014B1868AE
:1016D0007047C046780B002070B50400FFF7F6FF96
:1016E0000500631C02D0044B1B78E418FFF7EEFFE3
:1016F000401BA042FAD370BD2000002070B5002826
:1017000011DB8308134DC0339B005C59032210404A
:10171000C000FC3216008640B44389010A40824072
:1017200022435A5170BD0F230340083B9B080633E8
:101730009B00094A944663445C6803221040C00041
:10174000FC3215008540AC4389010A4082402243A7
:101750005A60E7E700E100E000ED00E00138802397
:101760005B0498420FD2094A50600948036A1B0281
:101770001B0AC02109060B43036200239360073351
:101780001360002070470120FCE7C04610E000E035
:1017900000ED00E010B5FFF7B1FF10BD002805DB3C
:1017A0001F22024001239340014A13607047C04644
:1017B00000E100E010B5FFF7D1FF10BD30B5054CDA
:1017C00061690125294361610260BFF36F8F436046
:1017D00030BDC046002002407047704710B52A4B0C
:1017E0001B692A4A13402A4A9268510721D5284A80
:1017F0001469002B2AD1244B1B69DB070CD5224B23
:1018000001221A61224B9B68022B2CD0204B002214
:101810009A602000FFF7E0FF1D4B9B68002B07D16B
:10182000194A53691B490B405361194B00221A7026
:1018300010BD154841699143416117490A4202D0E0
:10184000134AD468D5E7124A5469D2E7104A51685E
:101850000B4353600C4B0D4919610023936020002A
:10186000FFF7BBFFC7E70A4A9369013B9361002B6F
:1018700003D1074B00229A60CBE7516901315161D6
:10188000106900F0A9F8C4E700200240FAC3000084
:101890007C0B0020FFFFFFFC01000400084B5B698C
:1018A000002B01DB00207047054B064A9A60064A70
:1018B0009A605B69002B01DB0020F4E70120F2E76E
:1018C0000020024023016745AB89EFCD70B50400CD
:1018D000FFF7FCFE0500144B1B69DB0308D5631CF6
:1018E000F9D0FFF7F3FE401BA042F4D303201AE027
:1018F0000D490A690D4B16001E400D4808611A4239
:101900000CD1094B1B695B030CD5631CF9D0FFF7A5
:10191000DDFE401BA042F4D3032004E0054B5E60D3
:10192000012000E0002070BD00200240FAC300004A
:10193000FBC300007C0B0020F8B507000C0015006D
:101940001E00144B1B78012B22D0124B01221A705F
:1019500000225A60FA208000FFF7B8FF00280DD15E
:10196000012F0FD02900200002F082F9FA20800018
:10197000FFF7ACFF084A5369BB435361054B002294
:101980001A70F8BD2A0033002000FFF717FFEDE7BB
:101990000220F6E77C0B00200020024010B5FA2060
:1019A0008000FFF793FF064B5969802212060A4315
:1019B0005A615B69002B01DB012010BD0020FCE7B0
:1019C00000200240034A5369034380204002184329
:1019D0005061704700200240044A536904480340A4
:1019E000C9001943034B0B43536170470020024069
:1019F00007E0FFFF0200010070B504000E001E4B5F
:101A00001B78012B36D01C4B01221A7000225A6021
:101A1000FA208000FFF75AFF002827D104236360D3
:101A20002368042B14D001235B423360A568A368AC
:101A3000E2689B18AB4214D960682900FFF7CCFF1D
:101A4000FA208000FFF742FF002809D10135EEE7B8
:101A50000430FFF7B7FFFA208000FFF737FF05E0FB
:101A60003560064A536902218B435361024B0022C1
:101A70001A7070BD0220FCE77C0B002000200240A1
:101A8000F0B5002359E086685F000324BC40A643FC
:101A9000CC68BC4034438460446894434E68360943
:101AA000012232409A402243426056E0DE08083666
:101AB000B600375805321A4092000F249440A743CD
:101AC0000C69944022003A43325059E0032600E06A
:101AD0000026A64034003C43424E183292009451F6
:101AE0003768EA433E00AE434C68E40201D53E004D
:101AF0002E433C4C266067683E0016404C68A402AA
:101B000001D53E002E43374C66608426A7593E001F
:101B100016404C68A40301D53E002E43314C842767
:101B2000E6518026A65932404C68E40301D52A00CC
:101B300032432C4D80242A5101330C682200DA40B4
:101B40004ED001229A40250015401442F4D04E6830
:101B500003243440013C012C95D94C6803222240D7
:101B6000032A08D0C4685E000322B24094438A6806
:101B7000B2402243C2604C6803222240022A95D020
:101B800004685E0003221700B740BC434F683A4028
:101B9000B240224302604C68C02292021442CBD071
:101BA0009A0814001834A4000E4EA75903241C40B0
:101BB000E4000F26A640B743A026F605B04287D022
:101BC000094EB04208D0094EB04207D0084EB0428C
:101BD00000D17BE705267CE701267AE7022678E735
:101BE000F0BDC0460018024000040050000800503C
:101BF000000C0050026893699B0701D50023936293
:101C000003689A69D20703D49A6901210A439A6149
:101C10007047000010B58905890D1204114319435E
:101C2000029B194349004908046862685B0D8020E3
:101C3000C0000340034803439A4313000B4363600F
:101C400010BDC046FF63FF03F0B5C64600B50400F3
:101C50000D00170001688B69102216001E401A4201
:101C600000D175E01023CB61002398460026206840
:101C700083699B0631D4002E2FD16B1CF7D0FFF760
:101C800025FDC01BA84201D8002DF0D121684B686A
:101C90008022D20113404222A25CD2B288690004A1
:101CA00003D5002B01D1202A0ED123689B699B0606
:101CB000DDD4FFF70BFDC01B1928F6D920234246BF
:101CC0001A4390460126D2E74A688023DB0113437A
:101CD0004B60FFF7FBFC0700E7E7002E01D1202354
:101CE000C3610426434633431E00012522689369DD
:101CF000D90504D501210E43FF31D16101255A05D3
:101D000006D50822164322688021C900D161012529
:101D10009B051FD502231E43236880229200DA61AF
:101D200001252000FFF766FF226853680B490B402E
:101D30005360636C3343636441232022E2540023E5
:101D40002232A354023AA354280080BCB846F0BD06
:101D50000025CBE7002DF7D0E3E7C04600E800FE02
:101D600070B504000D00160023689B699B0720D402
:101D7000320029002000FFF767FF00281BD16B1CF1
:101D8000F2D0FFF7A3FC801BA84201D8002DEBD1B5
:101D900023689B699B07E7D4636C20221343636429
:101DA0004123E25400232232A354023AA3540120D7
:101DB00000E0002070BD0120FCE7F0B5D6464F469C
:101DC00080B583B007000D00160099460A9B9A461D
:101DD0003B689C692C40641B63425C410196B442A1
:101DE00028D1524649463800FFF72EFF002827D158
:101DF0004B460133ECD0FFF769FC5346C01A484507
:101E000002D84B46002BE3D13B689B692B405B1B00
:101E10005A425341019A9342DAD17B6C20221343F8
:101E20007B644123FA5400232232BB54023ABB5450
:101E3000012000E0002003B0C0BCBA46B146F0BDAE
:101E40000120F8E770B582B0040015001E00802361
:101E5000F2B2194800905B042000FFF7DBFE079AFE
:101E600006992000FFF77CFF00281ED1012E0ED11D
:101E70002368EDB29D62079B0093069B00228021A0
:101E80002000FFF79AFF002813D102B070BD23682D
:101E90002A0A9A62079A06992000FFF761FF002834
:101EA00005D12368EDB29D62E5E70120EDE7012051
:101EB000EBE70120E9E7C0460020008070B582B062
:101EC000040015001E00DAB2184B00930023FFF740
:101ED000A1FE079A06992000FFF742FF00281ED1B5
:101EE000012E0ED12368EDB29D62079B0093069BE5
:101EF000002240212000FFF760FF002813D102B02C
:101F000070BD23682A0A9A62079A06992000FFF793
:101F100027FF002805D12368EDB29D62E5E7012087
:101F2000EDE70120EBE70120E9E7C0460020008053
:101F300070B504000D00160003E023689B699B0642
:101F400012D523689B699B061BD432002900200010
:101F5000FFF77AFE002816D1FFF7B8FB801BA842D6
:101F6000EBD8002DEDD1E8E7636C202213436364C6
:101F70004123E25400232232A354023AA354012005
:101F800000E0002070BD0120FCE7000010B5041E39
:101F900060D04123C35C002B48D041232422E2546B
:101FA0002268136801218B431360636822682A4901
:101FB0000B4013612268936828490B409360E368E3
:101FC000012B39D0A168226884231B020B43936044
:101FD000E368022B37D02268536821490B405360D5
:101FE000226851681F4B0B4353602268D3681B491A
:101FF0000B40D360236962691343A269120221680E
:102000001343CB60E369216A22680B4313602268A3
:10201000136801210B4313600023636441221F31C5
:10202000A15423630132A354002010BD4033002289
:10203000C254FEF77DFBB0E7A168226880231B0233
:102040000B439360C4E72268516880231B010B4354
:102050005360C5E70120E8E7FFFFFFF0FF7FFFFFC8
:10206000FFF7FFFF00800002F0B587B00400039186
:10207000049205930CAB20CB1F884123C35C202B1B
:1020800000D0B3E0002D18D0002F16D04023C35C41
:10209000012B00D1ADE040230122C254FFF716FB13
:1020A0000600802100901923012209022000FFF779
:1020B00084FE002806D0012099E080239B00636401
:1020C000012094E041232122E25401331F32E254E3
:1020D0000023636465626785636301960E9B0093CA
:1020E000059B049A03992000FFF7ACFE00280FD14E
:1020F000638D9BB2FF2B10D9FF2323857F3B0022EA
:1021000000925B04FF3203992000FFF783FD21E07A
:1021100040230022E254012069E0628D92B22285C0
:102120008023D2B2002100919B0403992000FFF785
:1021300071FD0FE0628D92B222858023D2B2002120
:1021400000919B0403992000FFF764FD638D9BB20F
:10215000002B34D032000E992000FFF701FE00283A
:1021600049D1626A236812789A62636A01336362B2
:10217000638D013B9BB26385238D013B9BB223851D
:10218000628D92B2002AE1D0002BDFD100960E9B27
:10219000002280212000FFF710FE00282DD1638D42
:1021A0009BB2FF2BC6D9FF2323857F3B00220092E1
:1021B0005B04FF3203992000FFF72CFDC6E73200D5
:1021C0000E992000FFF7B4FE002818D123682022C2
:1021D000DA6121684B680B4D2B404B604123E25480
:1021E00000232232A354023AA35400E0022007B095
:1021F000F0BD0220FBE70120F9E70120F7E701200D
:10220000F5E7C04600E800FEF0B587B00400039192
:10221000049205930CAB20CB1F884123C35C202B79
:1022200000D0B5E0002D18D0002F16D04023C35C9D
:10223000012B00D1AFE040230122C254FFF746FA40
:102240000600802100901923012209022000FFF7D7
:10225000B4FD002806D001209BE080239B0063642E
:10226000012096E041232222E25401331E32E2543F
:102270000023636465626785636301960E9B009328
:10228000059B049A03992000FFF718FE00280FD140
:10229000638D9BB2FF2B10D9FF2323857F3B424ADE
:1022A00000925B04FF2203992000FFF7B3FC21E0BA
:1022B00040230022E25401206BE0628D92B222851D
:1022C0008023D2B2384900919B0403992000FFF784
:1022D000A1FC0FE0628D92B222858023D2B2002150
:1022E00000919B0403992000FFF794FC638D9BB23F
:1022F000002B36D000960E9B002204212000FFF711
:102300005CFD002849D123685A6A636A1A70636ABF
:1023100001336362238D013B9BB22385628D013AB9
:1023200092B26285628D92B2002ADFD0002BDDD19D
:1023300000960E9B002280212000FFF73EFD002822
:102340002DD1638D9BB2FF2BC4D9FF2323857F3B07
:10235000002200925B04FF3203992000FFF75AFC31
:10236000C4E732000E992000FFF7E2FD002818D1E3
:1023700023682022DA6121684B680C4D2B404B60AA
:102380004123E25400232232A354023AA35400E032
:10239000022007B0F0BD0220FBE70120F9E7012091
:1023A000F7E70120F5E7C0460024008000E800FEC2
:1023B000F0B5CE4600B586B00700894603921E00F0
:1023C000002305934133C35C202B00D08FE00368CA
:1023D0009B691B0400D58CE04023C35C012B00D11A
:1023E00089E040230122C25401332332C254002326
:1023F0004364FB68012B17D04B469A05920D414B65
:1024000013433A685360FFF761F905003A68916930
:1024100020230B40591E8B41DBB2926910241440DB
:10242000621E9441E4B212E04B469A05920D364B7F
:102430001343E6E73A68916920230B40591E8B410C
:10244000DBB2926910241440621E9441E4B21C4332
:1024500016D1731CEED0FFF739F9401BB04201D8FA
:10246000002EE7D120224123FA547B6C13437B6476
:1024700040230022FA54012006B080BCB946F0BDCA
:102480003B689B69DB0620D50095330000222021A4
:102490003800FFF792FC002831D13B681022DA6146
:1024A0003B681032DA61059B01330593059B039A63
:1024B00093429ED320224123FA547B6C13437B64C6
:1024C00040230022FA540130D6E700953300002261
:1024D00020213800FFF771FC00280ED13A68202334
:1024E000D3614122BB5420330022FA54C4E70220B6
:1024F000C2E70220C0E70220BEE70120BCE70120BE
:10250000BAE7C0460028000200200002F0B54123CF
:10251000C35C202B20D12033C35C012B1ED0402470
:10252000012202554125242343550668336893430D
:102530003360066833680A4F3B403360066833688F
:102540000B43336001680B6813430B602023435532
:10255000002303550020F0BD0220FCE70220FAE72B
:10256000FFEFFFFFF0B54123C35C202B1ED12033CA
:10257000C35C012B1CD04024012202554125242399
:102580004355066833689343336006683368094FE0
:102590003B4009021943316001680B6813430B602B
:1025A00020234355002303550020F0BD0220FCE703
:1025B0000220FAE7FFF0FFFF10B5104A1368104938
:1025C0000B400343136080239B00984201D00020FE
:1025D00010BD0C4B1B685800C01840000A49FDF79D
:1025E000A5FD0130054B5B695B0503D5002803D0D1
:1025F0000138F7E70020EBE70320E9E7007000402F
:10260000FFF9FFFF1C00002040420F0070B582B0B0
:10261000041E00D131E20368DB0739D5C14A916855
:1026200038230B40D16803220A40102B26D0082BF8
:1026300026D063688022520293427FD0A022D20229
:10264000934200D181E0B74B1A68B7490A401A603B
:102650001A68B6490A401A606368002B00D180E00E
:10266000FFF734F80500AF4B1B689B0310D4FFF74E
:102670002DF8401B6428F6D90320FFE1032AD6D1A8
:10268000A84B1B689B0303D56368002B00D1F7E1BF
:1026900023689B0731D5A34A916838230B40D16842
:1026A00003220A40102B6AD0002B6BD19D4A12687E
:1026B000520503D5E268002A00D1E3E19948426857
:1026C0009B490A40616909020A434260002B0DD10F
:1026D000036898490B4021690B4303600368DB0AD8
:1026E00007221A40944BD340944A1360944B1868C5
:1026F000FEF7A0FF002800D0C6E123681B0700D426
:1027000081E0884B9A6838231340182B73D0A36953
:10271000002B00D1B4E0834A136E01210B431366F2
:10272000FEF7D4FF05007F4B1B6E9B076BD4FEF7B3
:10273000CDFF401B0228F6D903209FE1794A11689A
:1027400080235B020B43136086E7764B1968802277
:10275000D2020A431A601968802252020A431A60A0
:102760007AE7FEF7B3FF05006E4B1B689B038FD51E
:10277000FEF7ACFF401B6428F6D903207EE1022A55
:1027800092D193E7E368002B22D0664A1368694927
:102790000B4021690B431360116880235B000B43DE
:1027A0001360FEF793FF05005E4B1B685B0506D4C4
:1027B000FEF78CFF401B0228F6D903205EE1594941
:1027C0004B685B4A13406269120213434B6094E703
:1027D000544A13685B490B401360FEF777FF05000E
:1027E000504B1B685B0588D5FEF770FF401B022825
:1027F000F6D9032042E14B4B1B6E9B0703D5A3691F
:10280000002B00D142E123685B0700D4A2E0454BD6
:102810009A6838231340202B45D0424BDB6BDB00FA
:102820004AD4404BDA6B802149050A43DA63DB6BFB
:102830000B400193019B0125434B1B68DB053DD5F4
:10284000A368012B4ED0052B52D0364BDA6D0121F7
:102850008A43DA65DA6D03318A43DA65A368002BAF
:1028600050D0FEF733FF06002E4BDB6D9B076FD475
:10287000FEF72CFF801B354B9842F5D90320FDE075
:10288000284A136E01218B431366FEF71FFF0500D4
:10289000244B1B6E9B07B6D5FEF718FF401B022882
:1028A000F6D90320EAE01F4BDB6D9B0752D5A368E6
:1028B000002B4FD10120E1E00025BDE7224A11683D
:1028C00080235B000B431360FEF700FF06001E4BE6
:1028D0001B68DB05B4D4FEF7F9FE801B0228F6D98D
:1028E0000320CBE00F4AD36D01210B43D365B5E73D
:1028F0000C4BDA6D04210A43DA65DA6D03390A43B9
:10290000DA65ABE7FEF7E2FE0600064BDB6D9B07E0
:102910001ED5FEF7DBFE801B0C4B9842F5D9032039
:10292000ACE0C04600100240FFFFFEFFFFFFFBFFD0
:10293000FF80FFFFFFC7FFFF0024F4001C00002002
:1029400024000020FFFEFFFF0070004088130000FD
:10295000012D1ED0E369002B00D199E0544A916803
:1029600038220A40102A60D0022B18D0504A13682F
:1029700050490B401360FEF7A9FE04004C4B1B6846
:102980009B014BD5FEF7A2FE001B0228F6D90320BF
:1029900074E0474AD36B48490B40D363DAE7444AB3
:1029A000136844490B401360FEF790FE0500404B4E
:1029B0001B689B0106D5FEF789FE401B0228F6D94D
:1029C00003205BE03A4AD3683C491940236A606AB5
:1029D0000343A06A00020343E06A0343206B0343FE
:1029E000606B03430B43D360116880235B040B438C
:1029F0001360D16880235B050B43D360FEF766FE4E
:102A000004002B4B1B689B0106D4FEF75FFE001BE6
:102A10000228F6D9032031E000202FE0244AD368B1
:102A200027490B40D360002028E0012B32D0204BF7
:102A3000DA6803231340216A8B422DD1702313409F
:102A4000616A8B422AD1FE21C9011140A36A1B028F
:102A5000994225D1F8239B031340E16A8B4221D18F
:102A6000E0231B051340216B8B421DD1520F5207EF
:102A7000636B9A421AD1002000E0012002B070BDC1
:102A80000120FBE70120F9E70120F7E70120F5E746
:102A90000020F3E70120F1E70120EFE70120EDE757
:102AA0000120EBE70120E9E70120E7E70120E5E766
:102AB00000100240FFFFFFFEFFFFFFEF8C80C111FF
:102AC000FCFFFEEE10B52A4B9B6838221A4207D154
:102AD000274B1A68D20A072313402648D84010BD56
:102AE000234B9A6838231340082B3BD0204B9A681D
:102AF00038231340102B0DD01D4B9A6838231340F8
:102B0000202B31D01A4B9A6838231340182B26D02B
:102B10000020E4E7164AD1680D3B0B40D268120949
:102B2000072111400131032B0FD01248FDF7FEFAA7
:102B30000F4BDA68120A7F23134058430C4BD968B5
:102B4000490F0131FDF7F2FAC9E70B48FDF7EEFA3C
:102B5000074BDA68120A7F2313405843EEE7FA2046
:102B6000C001BCE70448BAE780200002B7E7C046CE
:102B7000001002400024F40000127A0070B5040036
:102B80000D00002800D1AAE0574B1A680723134014
:102B90008B4221D323689A070ED55B0705D5534A8C
:102BA0009168E023DB010B439360504A93685049DE
:102BB0000B40A1680B4393602368DB0754D563681F
:102BC000012B20D0022B3BD0002B3FD1474A12686B
:102BD00052051CD401206AE0434A136807218B4345
:102BE0002B431360FEF772FD06003F4B1A68072364
:102BF0001340AB42CED0FEF769FD801B3D4A9042A8
:102C0000F3D9032053E0394A1268920369D5374952
:102C10008A680720824313438B60FEF757FD060046
:102C2000324B9B6838221A406368DB009A421BD003
:102C3000FEF74CFD801B2F4B9842F1D9032036E064
:102C40002A4A12689201E2D4012030E0032B05D019
:102C5000264AD26D9207DAD4012028E0234A126E68
:102C60009207D4D4012022E01F4B1A680723134097
:102C7000AB421DD823685B0706D51C4A93681E49E2
:102C80000B40E1680B439360FFF71CFF174B9A68FA
:102C9000120A0F231340194A9B009A581F2313400E
:102CA000D840174B1860174B1868FEF7C3FC70BD6F
:102CB0000D4A136807218B432B431360FEF706FD73
:102CC0000600094B1A6807231340AB42D2D0FEF727
:102CD000FDFC801B074B9842F3D90320E7E7012056
:102CE000E5E70120E3E7C046002002400010024073
:102CF000FFF0FFFF88130000FF8FFFFFE83C000894
:102D00001C00002024000020F0B583B004000368FC
:102D10009B0362D56D4BDB6BDB001ED46B4BDA6B18
:102D2000802149050A43DA63DB6B0B400193019B69
:102D30000126674A116880235B000B431360FEF78E
:102D4000C5FC0500624B1B68DB0508D4FEF7BEFC22
:102D5000401B0228F6D9032502E00026E9E70025FA
:102D6000002D23D1594BD96DC02292000B00134086
:102D7000114210D0626A9A420DD0544AD36D55491F
:102D80000B40D06D802149020143D165D16D52487D
:102D90000140D165D365DB0710D4002D06D14B4A25
:102DA000D36D4C490B40616A0B43D365012E15D19D
:102DB000464AD36B49490B40D3630FE0FEF786FCCC
:102DC0000700424BDB6D9B07E7D4FEF77FFCC01B7F
:102DD000434B9842F5D90325DFE700252368DB073D
:102DE00006D53A4A536D03218B4361680B43536503
:102DF0002368DB0606D5354A536D3A490B40A16876
:102E00000B43536523689B0506D5304A536D3649FD
:102E10000B4061690B43536523685B0506D52B4A5C
:102E2000536D32490B40A1690B43536523689B06E0
:102E300006D5264A536D2E490B40E1680B43536576
:102E400023685B040BD5214A536D9B009B08E16905
:102E50000B435365E2698023DB059A4220D0236847
:102E60009B020BD5194A536D22490B40216A0B4333
:102E70005365226A8023DB039A4218D023681B051E
:102E80000BD5124A536D1C490B4021690B43536506
:102E900022698023DB019A4210D0280003B0F0BDE4
:102EA0000A4AD16880235B020B43D360D7E7074A05
:102EB000D16880235B040B43D360DFE7034AD1680A
:102EC00080235B020B43D360E7E7C046001002405B
:102ED00000700040FFFCFFFFFFFFFEFFFFFFFFEF62
:102EE00088130000FFF3FFFFFFFFF3FFFFFFCFFF9B
:102EF000FFCFFFFFFFFFBFFFFF3FFFFFF0B5002247
:102F000016E00B699C46C4682B006B435E00F61804
:102F1000F743B44366465E433443C4604C68022CB6
:102F200025D04D6804683C406B4323430360013265
:102F30000C682300D3403AD00123934025001D4064
:102F40001C42F4D04B68013B012BDAD88F688368B0
:102F50002C006C4366003619B3437C4323438360E3
:102F6000CC684368AB436C4323434360C9E7FF2D00
:102F70000DD84C69A446066A1C006C436C432501BD
:102F80002D1BAE4365466C4334430462C9E74C696C
:102F9000A446466A2D0A2C006C436C436C43250101
:102FA0002D1BAE4365466C4334434462B9E70020B1
:102FB000F0BD0000054B9A68120A0F231340044A23
:102FC0009B009A581F231340D840704700100240BE
:102FD000E83C0008054B9A68120B07231340044A8B
:102FE0009B009A581F231340D8407047001002409E
:102FF000C83C000810B50E4BDA6803231340032BBE
:1030000013D00C4A0A4CE3681B0A7F201840504337
:10301000E3681B09072119400131FDF787F8E168D2
:10302000490F0131FDF782F810BD034AEAE7C046B7
:10303000001002400024F40000127A0010B50A4B80
:103040009A6838231340082B0CD0102B02D1FFF7BD
:10305000D1FF10BD044B1A68D20A0723134003485E
:10306000D840F6E70248F4E7001002400024F400DC
:1030700000127A0010B50400FFF7E0FF2060FFF7B0
:1030800099FF6060FFF7A6FFA06010BD10B5032890
:1030900001D0002010BD164B5B6D034000040343BC
:1030A000144A93420FD0144A934216D0134A9342C3
:1030B00006D0FFF7C3FFFFF77DFFFFF78BFFE9E7C0
:1030C000FFF7BCFFE6E70A4B1A688023DB0010001D
:1030D00018401A42DED00A48DCE7054BDB6D0222BD
:1030E000100018401A42D5D080200002D2E7C04616
:1030F000001002400200030003000300010003006F
:103100000024F40003681D4A904206D08022D205B4
:10311000904202D01A4A904203D1702293434A68E7
:103120001343164A90420FD08022D20590420BD012
:10313000134A904208D0134A904205D0124A904256
:1031400002D0124A904203D1114A1A40CB6813436D
:1031500003608B68C3620B888362084B984205D07A
:10316000094B984202D0094B984201D10B69036385
:10317000436901221343436100207047002C014042
:10318000000400400020004000440140004801408D
:10319000FFFCFFFF10B5040008000B2A16D80299A7
:1031A000002913D0802109028B4210D0FF23134045
:1031B000124A9B009958FCF7B9FF029B5B08C018A4
:1031C0000299FCF7B3FF0004000CE06010BDFF2380
:1031D00013400A4A9B009958FCF7A8FF4000029B45
:1031E0005B08C0180299FCF7A1FF054A02400004E1
:1031F000400C072303401343E360E7E7283D000842
:10320000F0FF000030B587B004000D000368DB0755
:1032100042D40368214A1A408B6809690B436969E3
:103220000B43E9690B4313430360EB6842681C4995
:103230000A4013434360AB6982681A490A4013434A
:103240008360194B98420DD0184B984215D001203D
:103250002B68E26A0F218A431B041B0C1343E362B1
:1032600007B030BD0320FFF711FF0100002911D086
:103270006868002806D10120EAE703A8FFF7FAFEF4
:103280000599F3E72A68EB6900902000FFF782FFB9
:103290000020DDE70120DBE70120E1E7F369FFEF34
:1032A000FFCFFFFFFFFCFFFF00380140004400405C
:1032B00010B5034B0A000100186800F003F810BDB8
:1032C0002800002070B50B0C150C002B1ED1002D12
:1032D0000CD189B294B24C43210000F043F8051E92
:1032E0001AD02200002100F0EDF816E02B1C0C1C77
:1032F00089B292B24A439BB2A1B25943140C0C1941
:10330000230C07D1240492B21443E5E7002D01D128
:10331000141CEDE70C2303600025280070BD00009D
:1033200070B50F4E0D0031680400002902D100F085
:10333000D1F830602900200000F0CCF8431C03D104
:1033400001256D42280070BD0323C51C9D43A84282
:10335000F8D0291A200000F0BDF80130F2D1EFE7D3
:10336000980B0020F7B50322CB1C934308330500CC
:103370001F000C2B34D20C27B94233D8280000F0A0
:1033800071F8374E33681C00002C2FD1390028000B
:10339000FFF7C6FF0400431C5FD134680094009B14
:1033A000002B4AD1002C52D023682800E318009942
:1033B000019300F08FF8019B834248D123682800D5
:1033C000FF1A3900FFF7ACFF013040D02368DB194A
:1033D000236033685A68002A33D1009B336019E0B8
:1033E000002BC9DA0C232B600020FEBD2168C91B0D
:1033F00020D40B290AD9E2192760A34204D13260F4
:1034000063681160536005E05A60F9E76268A3429F
:103410000ED13260280000F02DF8200007220B307A
:10342000231D9043C21A9842DFD01B1AA350DCE739
:103430005A60EFE723006468A6E7009C6368009386
:10344000ADE71A005B68A342FBD10023DAE70C2347
:1034500028002B6000F00EF8C6E70760DAE7C046E8
:103460009C0B002010B5024800F070F810BDC0465B
:10347000DC0C002010B5024800F069F810BDC04611
:10348000DC0C00200EB400B50B499CB01DAB0290C3
:103490000690079104910948094904CB05910068F9
:1034A00002A9019300F0FEF80022029B1A701CB0E2
:1034B00008BC03B01847C046FFFFFF7F280000206C
:1034C0000802FFFF03008218934200D17047197071
:1034D0000133F9E7002370B5064D040008002B60A6
:1034E000FDF78CFC431C03D12B68002B00D023601C
:1034F00070BDC046D80C0020014B18687047C0460C
:103500002800002070B500260C4C0D4D641BA41043
:10351000A64209D1002600F09FFB0A4C0A4D641B0D
:10352000A410A64205D170BDB300EB5898470136F0
:10353000EEE7B300EB5898470136F2E78C3D000800
:103540008C3D0008903D00088C3D00087047704796
:1035500070B505000C1E10D0043C2368002B00DA67
:10356000E4182800FFF77EFF1D4A1368002B05D1E1
:10357000636014602800FFF77DFF70BDA34208D987
:10358000206821188B42F3D119685B680918216003
:10359000EEE71A005B68002B01D0A342F9D911684D
:1035A0005018A0420BD120680918501811608342AE
:1035B000E0D118685B68411811605360DAE7A042F7
:1035C00002D90C232B60D5E7206821188B4203D148
:1035D00019685B680918216063605460CAE7C046D7
:1035E0009C0B0020F0B58E6885B01F000C000B68A6
:1035F00002900392BE4230D80C21625E9021C90035
:103600000A4228D0032021695B1A0193636943436E
:103610000198DD0FED187B1C1B186D10AB4200D913
:103620001D00520528D529000298FFF79BFE061EB3
:103630002CD0019A216900F0CFFAA289184B1A40C8
:1036400080231343A381019B2661F61826603E0068
:103650006561ED1AA560BE4200D93E0032000399B3
:10366000206800F09BFA0020A3689B1BA3602368DE
:103670009B19236005B0F0BD2A00029800F0B5FA4E
:10368000061EE0D121690298FFF762FF0C2301209A
:10369000029A40421360A28934331343A381E9E7BD
:1036A0007FFBFFFFF0B5A1B003901D008B890F00D9
:1036B00016001B0611D50B69002B0ED14021FFF718
:1036C00051FE38603861002805D10C23039A13603D
:1036D00001204042CFE040237B61002308AC6361BE
:1036E000203363761033A376079535002B78002BB3
:1036F00001D0252B48D1AB1B0593B5420BD032002E
:1037000039000398FFF76EFF013000D1AEE0636926
:10371000059A9B1863612B78002B00D1A6E001224B
:1037200000235242626004A9543252186E1C236076
:10373000E360A3601370A365544B05221800317831
:10374000059300F03EFA751C00281FD12268D306AD
:1037500004D5532304A95B1820211970130704D53D
:10376000532304A95B182B21197033782A2B16D008
:10377000350000210A20E3682A786E1C303A092AB5
:1037800050D9002911D117E00135AFE7059B226818
:10379000C01A0123834013432E002360CCE7079B0C
:1037A000191D1B680791002B01DB0B9304E05B42A2
:1037B000E3600223134323602B782E2B0CD16B780C
:1037C0002A2B34D1079B02351A1D1B680792002B48
:1037D00001DA01235B4209932D4E03223000297840
:1037E00000F0EFF9002806D04023801B83402268B8
:1037F0000135134323602978062226486E1C217662
:1038000000F0DFF9002838D0234B002B22D107220B
:10381000079B07339343083307936369049A9B1804
:10382000636162E74343350001219B18A4E700234D
:103830000A201900013563602A786E1C303A092A83
:1038400003D9002BC8D00991C6E7414335000123B5
:103850008918F1E707AA009221003A000F4B03985C
:1038600000E000BF0490049B0133D6D1BB890D98C2
:103870005B0600D52CE721B0F0BD07AA009221001D
:103880003A00064B039800F07BF8EBE7583D000840
:103890005E3D0008623D000800000000E5350008BC
:1038A000F7B5160001938A680B690C0000909342EB
:1038B00000DA13002200336043321278002A01D06C
:1038C0000133336023689B0602D5336802333360CB
:1038D0002268062315001D401A4227D023004333D7
:1038E0001B785A1E93412268920630D42200019917
:1038F0000098089D4332A847013025D0062223684E
:1039000000251340042B05D13368E568ED1AEB431D
:10391000DB171D40A3682269934201DD9B1AED1855
:103920000026B54220D1002010E00135E36832685E
:103930009B1AAB42D2DD2200012301990098089F17
:103940001932B8470130F0D101204042FEBD30208D
:10395000E1184331087021005A1C45310978A2183A
:10396000433202331170C1E722000123019900980C
:10397000089F1A32B8470130E6D00136D1E700007F
:10398000F0B58BB006920A0043320793059003927C
:103990000A7E0C00109B782A09D8622A0BD8002ACC
:1039A00000D1BCE07B490491582A00D190E0250069
:1039B00042352A7022E0100063381528F7D8FCF74A
:1039C000ABFB16001F00F6FFF6FFF6FFF6FF1F0029
:1039D000F6FFF6FFF6FFF6FFA10036008000F6FFC7
:1039E000F6FFB200F6FF3600F6FFF6FF8400250072
:1039F0001A684235111D196013682B700123A0E06D
:103A000018680968021D0D060BD506681A60002E9D
:103A100003DA2D23039A764213705E4B0A27049330
:103A200018E006681A604906F1D536B2EFE7086873
:103A3000196840C9050602D4400600D5B6B219601F
:103A4000544B0A2704936F2A00D1023F230000221F
:103A500043331A706368A360002B03DB04212268E0
:103A60008A432260002E02D1039D002B0CD0039DBF
:103A700030003900FCF7E0FB049B013D5B5C2B70E0
:103A8000330006009F42F3D9082F09D12368DB07D2
:103A900006D5626823699A4202DC3023013D2B700F
:103AA000039B5B1B2361079B210000930598069BEA
:103AB00009AAFFF7F5FE013048D1012040420BB0C2
:103AC000F0BD202209680A4322607822324904911D
:103AD000210045310A701968226840C9100602D4D5
:103AE000500600D5B6B21960D30702D52023134380
:103AF0002360002E01D01027A8E7202223689343DB
:103B00002360F8E71A680D68101D4969186013688A
:103B10002E0601D5196002E06D06FBD51980002341
:103B2000039D2361BFE71A68111D19601568002104
:103B30002800626800F045F8002801D0401B606052
:103B4000636823610023039A1370ACE72A0023699A
:103B500006990598079DA8470130AED023689B07BA
:103B600015D4099BE0689842A9DA1800A7E722005B
:103B7000012306990598079E1932B04701309CD061
:103B80000135E368099A9B1AAB42F0DCE9E70025AE
:103B9000F7E7C046693D00087A3D000810B5884245
:103BA00006D800239A4208D0CC5CC4540133F9E70C
:103BB0008B189842F5D2013A00D210BD8B5C835429
:103BC000F9E7C9B28218904201D10020704703780A
:103BD0008B42FBD00130F6E7002310B59A4200D1AA
:103BE00010BDCC5CC4540133F8E7F7B506000C00F7
:103BF0001500002905D11100FFF7B4FB04002000D7
:103C0000FEBD002A03D1FFF7A3FC0024F7E700F074
:103C10001BF80700854202D84308AB42EFD32900C6
:103C20003000FFF79FFB01900028EED02A00BD4234
:103C300000D93A0021000198FFF7CEFF21003000A3
:103C4000FFF786FC019CDAE70B1F1B68181F002B8F
:103C500001DA0B58C0187047F8B5C046F8BC08BC6C
:103C60009E467047F8B5C046F8BC08BC9E467047F3
:103C700001B40248844601BC604700BF79000020BF
:103C80007772697465207375636365737366756CA9
:103C90000A0000007772697465206572726F7200A5
:103CA00072656164207375636365737366756C0A0E
:103CB0000000000072656164206572726F7200001E
:103CC0002564206D6D200A00000000000000000047
:103CD00000000000000000000100000002000000E1
:103CE00003000000040000000000000000000000CD
:103CF00000000000000000000000000000000000C4
:103D000000000000000000000100000002000000B0
:103D1000030000000400000006000000070000008F
:103D2000080000000900000001000000020000007F
:103D30000400000006000000080000000A00000067
:103D40000C000000100000002000000040000000F7
:103D50008000000000010000232D302B2000686C43
:103D60004C0065666745464700303132333435369E
:103D700037383941424344454600303132333435D7
:0C3D800036373839616263646566000004
:043D8C00E900000842
:043D9000C100000866
:103D940001010100AA550300FFFDFC55AA00000023
:103DA400AA550300FFFCFB55AA0300000024F400FD
:103DB40001000000040000002C00002000000000AE
:103DC400A00B0020080C0020700C00200000000054
:103DD40000000000000000000000000000000000DF
:103DE40000000000000000000000000000000000CF
:103DF40000000000000000000000000000000000BF
:103E0400000000000000000010B50C4A5469802333
:103E1400DB0223435361EFF3108472B6002303E003
:103E240004C904C00133DBB23F2BF9D9034B1B692E
:103E3400DB03FBD484F3108810BDC046002002408D
:04000005080014D10A
:00000001FF
