:020000040800F2
:10000000002000208113000843090008450900086A
:1000100000000000000000000000000000000000E0
:100020000000000000000000000000004709000878
:100030000000000000000000490900084B0900080A
:10004000D1130008D1130008D11300085309000888
:10005000D1130008D1130008D1130008D1130008F0
:10006000000000005B0900085D090008890900081C
:10007000D1130008D1130008D1130008D1130008D0
:10008000D1130008D1130008D1130008B5090008E6
:1000900000000000150A0008D1130008D113000861
:1000A000D1130008D1130008D1130008A50A0008D5
:0C00B000A90B0008D1130008000000009C
:1000C00010B5064C2378002B07D1054B002B02D02E
:1000D000044800E000BF0123237010BDB0000020E1
:1000E0000000000018360008044B10B5002B03D0A8
:1000F0000349044800E000BF10BDC04600000000F6
:10010000B4000020183600080023C25C0133002A26
:10011000FBD1581E70470000002243088B4274D365
:1001200003098B425FD3030A8B4244D3030B8B42F8
:1001300028D3030C8B420DD3FF22090212BA030C01
:100140008B4202D31212090265D0030B8B4219D3E2
:1001500000E0090AC30B8B4201D3CB03C01A524102
:10016000830B8B4201D38B03C01A5241430B8B424A
:1001700001D34B03C01A5241030B8B4201D30B0333
:10018000C01A5241C30A8B4201D3CB02C01A52415A
:10019000830A8B4201D38B02C01A5241430A8B421D
:1001A00001D34B02C01A5241030A8B4201D30B0206
:1001B000C01A5241CDD2C3098B4201D3CB01C01A20
:1001C000524183098B4201D38B01C01A524143092A
:1001D0008B4201D34B01C01A524103098B4201D318
:1001E0000B01C01A5241C3088B4201D3CB00C01A85
:1001F000524183088B4201D38B00C01A52414308FD
:100200008B4201D34B00C01A5241411A00D2014621
:10021000524110467047FFE701B5002000F0F0F8AA
:1002200002BDC0460029F7D076E7704703460B436E
:100230007FD4002243088B4274D303098B425FD3DF
:10024000030A8B4244D3030B8B4228D3030C8B420B
:100250000DD3FF22090212BA030C8B4202D31212F1
:10026000090265D0030B8B4219D300E0090AC30BC6
:100270008B4201D3CB03C01A5241830B8B4201D373
:100280008B03C01A5241430B8B4201D34B03C01A5C
:100290005241030B8B4201D30B03C01A5241C30AD4
:1002A0008B4201D3CB02C01A5241830A8B4201D345
:1002B0008B02C01A5241430A8B4201D34B02C01A2F
:1002C0005241030A8B4201D30B02C01A5241CDD2D4
:1002D000C3098B4201D3CB01C01A524183098B421F
:1002E00001D38B01C01A524143098B4201D34B0108
:1002F000C01A524103098B4201D30B01C01A52416B
:10030000C3088B4201D3CB00C01A524183088B42F1
:1003100001D38B00C01A524143088B4201D34B00DA
:10032000C01A5241411A00D201465241104670474C
:100330005DE0CA0F00D04942031000D34042534051
:1003400000229C4603098B422DD3030A8B4212D311
:10035000FC22890112BA030A8B420CD38901921143
:100360008B4208D3890192118B4204D389013AD080
:10037000921100E08909C3098B4201D3CB01C01A55
:10038000524183098B4201D38B01C01A5241430968
:100390008B4201D34B01C01A524103098B4201D356
:1003A0000B01C01A5241C3088B4201D3CB00C01AC3
:1003B000524183088B4201D38B00C01A5241D9D2DB
:1003C00043088B4201D34B00C01A5241411A00D25C
:1003D0000146634652415B10104601D34042002B58
:1003E00000D54942704763465B1000D3404201B5D7
:1003F000002000F005F802BD0029F8D016E770478C
:100400007047C0460378AA2B01D00020704743787C
:10041000552B01D00020F9E74318013B1B78AA2B8C
:1004200001D00020F2E7401802380378552B01D0A4
:100430000020EBE70120E9E730B50339455C0022F5
:10044000002105E083181B795918C9B2013292B214
:10045000C3781B0284782343013B9A42F2DBA94212
:1004600001D0002030BD0120FCE770B505000C0074
:1004700004290DD9FFF7C6FF012801D0002070BD67
:1004800021002800FFF7D8FF0128F8D00020F6E768
:100490000020F4E710B500F043FF10BD10B500F0E8
:1004A00057FF10BD10B5837901338371C3790133D0
:1004B000C371054B1B78012B02D0FFF7EFFF10BD76
:1004C000FFF7E8FFFBE7C0460000002010B5FFF78C
:1004D000E1FF10BD10B5FFF7DDFF10BD10B50248FC
:1004E0000921FFF7D7FF10BD0400002010B5054B10
:1004F000187802300321FFF77FFF034B01225A5483
:1005000010BDC046680B00206C0B002010B5104BCE
:100510001B78DAB2002B19D10E4B002119700C4B4D
:10052000013119700BE00B490B78DCB20133DBB2FF
:100530000B7083185979084B19550132D2B2C37820
:100540001B0281780B43023B9A42ECDB10BDC04694
:1005500061010020620100206401002010B50379D0
:10056000013B0371CA1E835C013B8354FFF796FF76
:1005700010BD10B5037901330371CA1E835C0133CA
:100580008354FFF787FF10BD00B587B01422002108
:1005900001A802F0FBFF80235B000193FF3B029365
:1005A0000493A02001A9C00501F0C2F907B000BD65
:1005B00010B5FFF7E9FF002325E0C046C046C0465E
:1005C000C046C046C046C046C046C046C046C046FB
:1005D000C046C046C046C046C046C046C046C046EB
:1005E000C046C046C046C046C046C046C046C046DB
:1005F000C046C046C046C046C046C046C046C046CB
:10060000C0460133DBB2842BD7D90421012002F08C
:10061000D3FE034B1860034B01221A7010BDC04675
:10062000CC000020D000002000B583B0144A916BAC
:10063000012319439163926B13400193019B114B6A
:10064000C22292009858104908408021C9010143F4
:10065000995080218900196098580C4908408021E0
:10066000C90301439950F8321A60002201210B207E
:1006700000F0E8FF0B2000F0E9FF03B000BDC0462A
:100680000010024000E100E0FF00FFFFFFFF00FF5D
:1006900082B0094B596B012211435963596B0A40CF
:1006A0000092009A596B0222114359635B6B1A4006
:1006B0000192019B02B070470010024010B514482F
:1006C000144B0360144B4360002383600122C2601B
:1006D000036143618361C361036201F0AFFB0028E2
:1006E0000CD10B48002101F0BBFD002809D10848BE
:1006F000002101F0E1FD002806D110BD00F05AF8FC
:10070000EFE700F057F8F2E700F054F8F5E7C046DD
:10071000D400002000580040BC7D701010B588B097
:1007200004001422002103A802F030FF2268124BBB
:100730009A4201D008B010BD104C626B01231A43DD
:100740006263626B1A400192019AC02252010392C5
:1007500012220492059305330793A02003A9C00534
:1007600001F0E6F8E36B8022D2031343E363E36B0B
:1007700013400293029BDDE7005800400010024046
:1007800010B500F0A9FE094B187000F07DFEFF289F
:1007900004D000F079FE064B187010BD044B0A22FD
:1007A0001A701878C0B200F075FEF6E760010020FC
:1007B0005F01002072B6FEE700B593B03822002139
:1007C00004A802F0E3FE10220021684602F0DEFEDB
:1007D0008020800001F09AFD0A230493F6330793EA
:1007E00000230893402209923F3A0A9201320B9269
:1007F0000C920D9308330E9380239B020F93C0231A
:10080000DB04109380239B05119304A801F0A8FD3D
:1008100000280ED107230093053B01930023029388
:1008200003930221684602F053F8002803D113B065
:1008300000BDFFF7BFFFFFF7BDFF000010B5FFF7DA
:100840009FFF00F07BFEFFF7B7FFFFF721FFFFF7E9
:10085000EBFE00F029FB00F08BFC00F04DFA00F0FD
:1008600087FAFFF72BFFFFF7A3FE02F0A1FC002899
:1008700006D1FA20800000F087FE02F087FDF8E73D
:100880000A2000F081FE074C30232370064B220023
:1008900003CB03C22000FFF737FC81B2200000F039
:1008A0003FFDE6E7280100204036000800B583B090
:1008B0000D4B196C012211431964196C0A40009206
:1008C000009ADA6B802149050A43DA63DB6B0B403F
:1008D0000193019B00220121032000F0B3FE0320BD
:1008E00000F0B4FE03B000BD0010024010B50400DB
:1008F000FFF7BBFD012801D0002010BD6379FE2B5E
:1009000006D0FD2BF9D02379012B03D00330F4E777
:100910000220F2E70520F0E710B50400FFF7A5FD7F
:10092000012801D0002010BD6379FD2BFBD0FE2BE8
:1009300005D0FC2B01D00420F5E70530F3E70320B8
:10094000F1E7FEE7FEE77047704710B500F00AFEDA
:1009500010BD10B500F09AFE10BD7047074B1B6824
:100960009B0609D5054B20225A6005490B681F3AA2
:1009700093430B60034B1A707047C046000002405F
:100980001C00024002000020074B1B689B040AD594
:10099000054B802292015A6004490B68012293435F
:1009A0000B60034B1A707047000002404400024085
:1009B0000100002010B5134B1B69DB0720D5124C3A
:1009C0002378013B23700F4B022252421A610F48D9
:1009D000092100F0A5FC2378002B11D1094BD9681F
:1009E00001229143D960196891431960084B022193
:1009F00049421961D9681143D96019680A431A60DC
:100A000010BDC0460020004019000020100000204A
:100A10000044014070B51C4B1B69DB0732D51A4BF3
:100A2000022252421A611948092100F091FC184D26
:100A30002878184C002323540130C0B228700321B9
:100A4000FFF7F0FB29702378002B18D16378002B77
:100A500015D1A378002B12D10F4B1B78002B0AD194
:100A60000E4BDA6801210A43DA601A680A431A60F9
:100A70000B4B03221A70084B01221A7002E0064B3E
:100A800000221A7070BDC0460044014004000020DE
:100A9000680B00206C0B00200000002000200040AC
:100AA0001900002070B53A4BDB69DB0633D5384BB3
:100AB0001B68DB062FD5364910230B62354B1A68AD
:100AC000012082431A605A681204120C5242324CBE
:100AD0002270324D2E780122921BD2B22A702A78CF
:100AE00052022F4D5219DA605A68120C12048025F6
:100AF000AD002A435A601A6802431A60EFF310826D
:100B000080F310888B683F3003438B6082F310883A
:100B10002178002900D170BD204B1B783F38C01AC6
:100B200040021F4BC018FFF7E1FE1E4A1070042858
:100B300021D00FD801281BD00228ECD1174B1B78ED
:100B40000120C01A4002164BC018134B1978FFF74A
:100B5000A9FCE0E70528DED1104B1B780120C01A64
:100B600040020F4BC0180C4B1978FFF7CFFCD2E7AF
:100B7000FFF7B4FCCFE7094B1B780120C01A4002F5
:100B8000074BC018044B1978FFF7E8FCC3E7C046D1
:100B90000038014008000240700B0020650300206F
:100BA000680700206F0B002070B53A4BDB69DB064D
:100BB00033D5384B1B68DB062FD5364910230B6223
:100BC000354B1A68012082431A605A681204120CCD
:100BD0005242324C2270324D2E780122921BD2B2F8
:100BE0002A702A7852022F4D5219DA605A68120C74
:100BF00012048025AD002A435A601A6802431A6025
:100C0000EFF3108280F310888B683F3003438B60D2
:100C100082F310882178002900D170BD204B1B7809
:100C20003F38C01A40021F4BC018FFF775FE1E4A1E
:100C30001070042821D00FD801281BD00328ECD134
:100C4000174B1B780120C01A4002164BC018134BDB
:100C50001978FFF73BFCE0E70628DED1104B1B7844
:100C60000120C01A40020F4BC0180C4B1978FFF737
:100C700031FCD2E7FFF73AFCCFE7094B1B780120A4
:100C8000C01A4002074BC018044B1978FFF771FCDB
:100C9000C3E7C0460044004030000240700B002013
:100CA00064030020680300206F0B002010B50300D0
:100CB0000C4A0D49521A0D490968002907D00B4901
:100CC0000868C318934206D8084A136010BD074944
:100CD00007480860F3E702F073FC0C23036001206F
:100CE0004042F3E70020002000040000740B0020C5
:100CF000E80C00207047000030B587B001AC14222A
:100D00000021200002F042FC144B1A6C80210902E1
:100D10000A431A641B6C0B400093009B104AC420CA
:100D2000800013581B021B0A8021C9050B43135076
:100D300080231B0313600B4B2380002363600A4A4C
:100D4000A260E360094D2100280002F085F82B68BD
:100D5000802213432B6007B030BDC0460010024014
:100D600000E100E0FF180000A306000000200040A2
:100D700030B587B001AC14220021200002F006FC3F
:100D8000144B1A6C802189020A431A641B6C0B40B5
:100D90000093009B104BC520800019580F4A11404A
:100DA0008022D2010A431A50802292031A600C4B0F
:100DB0002380002363600B4AA260E36023610A4D35
:100DC0002100280002F048F82B68802293432B6012
:100DD00007B030BD0010024000E100E0FF00FFFF5F
:100DE000FF1800000F2700000044014070B5EFF32A
:100DF0001084012181F31088244A13680C20834356
:100E00000343136084F31088EFF3108081F310889C
:100E1000136810242343136080F310881C4B1D4873
:100E200098601D48007840021C4D4019D8605868F1
:100E3000000C00048025AD00284358601868FF3D71
:100E4000FF3D28431860186808263043186018686A
:100E500008431860EFF3108081F3108893683836E8
:100E60003343936080F3108814620D4B0D489860F3
:100E7000EFF3108081F31088916870342143916002
:100E800080F310881A682A431A6070BD0038014048
:100E90000800024024380140650300206807002054
:100EA0001C00024028380140F0B5DE4657464E4649
:100EB0004546E0B59BB02022002112A802F066FB57
:100EC000182200210CA802F061FB2822002102A8B0
:100ED00002F05CFB0123029302A801F0BFFD002891
:100EE00000D0C6E0644B1A6C8021C9010A431A6421
:100EF0001A6C0A400192019A5A6B02252A435A63DE
:100F00005B6B2B400093009B402398460C930D9500
:100F10000E9500240F94012610961194574B994674
:100F20000CA9180001F094FE80270C970D950E95E2
:100F30000F94109611940CA9484601F089FE504A6E
:100F400013683F218A468B430D390B4313604D4B89
:100F50001A684D4989460A401A601A684B498C46FE
:100F60000A401A601A681E35AA431A601A68414678
:100F70008A431A601A68BA433A431A601A684448A6
:100F800002401A601A6843498B460A401A60424A76
:100F9000136851468B430C390B4313603F4B1A685F
:100FA00049460A4010210A431A601A6861460A40FD
:100FB0001A601A68AA431A601A6841468A431A607E
:100FC0001A68BA433A431A601A6802401A601A68EB
:100FD00059460A401A60324AC621890053581B02FA
:100FE0001B0A535080231B0513601294E1235B02FC
:100FF00013931494159416940C231793189419941E
:10100000284C12A9200001F0A7FFEFF3108286F30D
:101010001088A368DB00DB08A36082F31088EFF37D
:10102000108286F31088A3681F490B40A36082F3E7
:10103000108823681D4A1340236063681C4A1340CC
:101040006360A3682A229343A36023683343236029
:10105000144BDB699B02FBD5124BDB695B02F7D5B6
:10106000FFF7C4FE1BB0F0BCBB46B246A946A04683
:10107000F0BDFFF79FFB35E7001002400004005071
:101080000008024008000240EFBFFFFFFFCFFFFF54
:10109000FFFCFFFFFFF3FFFF040802401C000240BB
:1010A00000E100E000380140FFFFFFF1FFFFFFDF3C
:1010B000FFB7FFFF70B5EFF31084012181F31088B3
:1010C000244A13680C2083430343136084F310887D
:1010D000EFF3108081F3108813681024234313600A
:1010E00080F310881C4B1D4898601D480078400212
:1010F0001C4D4019D8605868000C00048025AD00D4
:10110000284358601868FF3DFF3D28431860186861
:10111000082630431860186808431860EFF3108001
:1011200081F31088936838363343936080F31088D6
:1011300014620D4B0D489860EFF3108081F3108816
:10114000916870342143916080F310881A682A43B3
:101150001A6070BD0044004030000240244400404A
:10116000640300206803002044000240284400403B
:10117000F0B5DE4657464E464546E0B591B02026CE
:101180002022002108A802F001FA1822002102A85A
:1011900002F0FCF9564BDA6B802189020A43DA63CC
:1011A000DA6B0A400192019A5A6B01252A435A636D
:1011B0005B6B2B400093009B042302930224039457
:1011C000049406950795A027FF0502A9380001F0B1
:1011D0003FFD08230293039404940024059406958C
:1011E000079502A9380001F033FD424A13683F21F8
:1011F0008A468B430B390B4313603F4B1A683F49B8
:1012000089460A401A601A683D4988460A401A60B1
:101210001A68B2431A601A6840218C468A431A60E1
:101220001A688027BA433A431A601A683548024060
:101230001A601A6834498B460A401A60334A1368A8
:1012400051468B430A390B431360314B1A684946A8
:101250000A4010210A431A601A6841460A401A607F
:101260001A68B2431A601A6861468A431A601A689B
:10127000BA433A431A601A6802401A601A6859461B
:101280000A401A60234BC72189005A58FF20824325
:101290005A50802252051A600894E1235B02099398
:1012A0000A940B940C940C230D930E940F941A4CE7
:1012B00008A9200001F050FE6368184A13406360DB
:1012C000A3682A229343A36023682B432360124B15
:1012D000DB699B02FBD5104BDB695B02F7D5FFF79F
:1012E000E9FE11B0F0BCBB46B246A946A046F0BD2F
:1012F000001002400808024030000240EFBFFFFF2C
:10130000FFCFFFFFFFFCFFFFFFF3FFFF0C080240D2
:101310004400024000E100E000440040FFB7FFFF4E
:10132000094B1B78012B00D07047074B00221A7025
:10133000064BD8605A68120C1204114359601A689F
:1013400001210A431A60EFE7020000201C0002405E
:10135000094B1B78012B00D07047074B00221A70F5
:10136000064BD8605A68120C1204114359601A686F
:1013700001210A431A60EFE7010000204400024007
:101380000D488546FFF7B6FC0C480D490D4A002371
:1013900002E0D458C4500433C4188C42F9D30A4A2A
:1013A0000A4C002301E013600432A242FBD302F096
:1013B0000DF9FFF743FAFEE70020002000000020AF
:1013C000B0000020E0360008B0000020E40C00204F
:1013D000FEE7F8231B069C466044C00A704770B5C0
:1013E00004684368C9000E00203E13D4FF25B540B1
:1013F000FF268E40B443AB43046043600D00203DA4
:101400000DD41600AE4035008A40144304602B43CF
:10141000436070BD2026761AFF25F540E8E72025B9
:101420006D1A1600EE403500EEE74168006870471F
:1014300010B586B00023059302330193FFF7C9FF6F
:1014400003900123049300F081F905A901A800F09D
:101450002BFA040000F0FAF963425C41E0B206B0F6
:1014600010BD70B5040016001D0000F06FF93200C9
:101470002B002100012000F0B7F9040000F0E6F98C
:1014800063425C41E0B270BD014B1878C0B2704756
:1014900001C0000830B583B004000E4D2800FFF7EE
:1014A000C4FF00900191220001216846FFF797FFD9
:1014B0002800FFF7BDFF009A019B0648FFF7D1FF08
:1014C0000028F8D0FFF7E0FF001B43425841C0B2AC
:1014D00003B030BD00C00008014B1878C0B270479F
:1014E000FF1F000810B50400114B1978002901D125
:1014F000012010BDFA208000FEF70EFE01000D4B0A
:101500001868FEF709FE00F0ADF800280DD1032C95
:1015100001D90120EDE7013000222100404200F016
:1015200091F8054B1C600020E3E70120E1E7C0468D
:10153000200000201C0000202400002010B5084AD4
:10154000116880235B000B4313600320FFF7CAFF81
:10155000041E02D00124200010BDFFF7A7F9FAE70E
:1015600000200240034B1B78034A11685B1813608C
:101570007047C04620000020780B0020014B1868FF
:101580007047C046780B002070B50400FFF7F6FFE7
:101590000500631C02D0044B1B78E418FFF7EEFF34
:1015A000401BA042FAD370BD2000002070B5002877
:1015B00011DB8308134DC0339B005C59032210409C
:1015C000C000FC3216008640B44389010A408240C4
:1015D00022435A5170BD0F230340083B9B0806333A
:1015E0009B00094A944663445C6803221040C00093
:1015F000FC3215008540AC4389010A4082402243F9
:101600005A60E7E700E100E000ED00E001388023E8
:101610005B0498420FD2094A50600948036A1B02D2
:101620001B0AC02109060B430362002393600733A2
:101630001360002070470120FCE7C04610E000E086
:1016400000ED00E010B5FFF7B1FF10BD002805DB8D
:101650001F22024001239340014A13607047C04695
:1016600000E100E010B5FFF7D1FF10BD30B5054C2B
:1016700061690125294361610260BFF36F8F436097
:1016800030BDC046002002407047704710B52A4B5D
:101690001B692A4A13402A4A9268510721D5284AD1
:1016A0001469002B2AD1244B1B69DB070CD5224B74
:1016B00001221A61224B9B68022B2CD0204B002266
:1016C0009A602000FFF7E0FF1D4B9B68002B07D1BD
:1016D000194A53691B490B405361194B00221A7078
:1016E00010BD154841699143416117490A4202D032
:1016F000134AD468D5E7124A5469D2E7104A5168B0
:101700000B4353600C4B0D4919610023936020007B
:10171000FFF7BBFFC7E70A4A9369013B9361002BC0
:1017200003D1074B00229A60CBE751690131516127
:10173000106900F0A9F8C4E700200240FAC30000D5
:101740007C0B0020FFFFFFFC01000400084B5B69DD
:10175000002B01DB00207047054B064A9A60064AC1
:101760009A605B69002B01DB0020F4E70120F2E7BF
:101770000020024023016745AB89EFCD70B504001E
:10178000FFF7FCFE0500144B1B69DB0308D5631C47
:10179000F9D0FFF7F3FE401BA042F4D303201AE078
:1017A0000D490A690D4B16001E400D4808611A428A
:1017B0000CD1094B1B695B030CD5631CF9D0FFF7F7
:1017C000DDFE401BA042F4D3032004E0054B5E6025
:1017D000012000E0002070BD00200240FAC300009C
:1017E000FBC300007C0B0020F8B507000C001500BF
:1017F0001E00144B1B78012B22D0124B01221A70B1
:1018000000225A60FA208000FFF7B8FF00280DD1AF
:10181000012F0FD02900200001F00AFFFA208000DC
:10182000FFF7ACFF084A5369BB435361054B0022E5
:101830001A70F8BD2A0033002000FFF717FFEDE70C
:101840000220F6E77C0B00200020024010B5FA20B1
:101850008000FFF793FF064B5969802212060A4366
:101860005A615B69002B01DB012010BD0020FCE701
:1018700000200240034A536903438020400218437A
:101880005061704700200240044A536904480340F5
:10189000C9001943034B0B435361704700200240BA
:1018A00007E0FFFF0200010070B504000E001E4BB0
:1018B0001B78012B36D01C4B01221A7000225A6073
:1018C000FA208000FFF75AFF002827D10423636025
:1018D0002368042B14D001235B423360A568A368FE
:1018E000E2689B18AB4214D960682900FFF7CCFF6F
:1018F000FA208000FFF742FF002809D10135EEE70A
:101900000430FFF7B7FFFA208000FFF737FF05E04C
:101910003560064A536902218B435361024B002212
:101920001A7070BD0220FCE77C0B002000200240F2
:10193000F0B5002359E086685F000324BC40A6434D
:10194000CC68BC4034438460446894434E68360994
:10195000012232409A402243426056E0DE080836B7
:10196000B600375805321A4092000F249440A7431E
:101970000C69944022003A43325059E0032600E0BB
:101980000026A64034003C43424E18329200945147
:101990003768EA433E00AE434C68E40201D53E009E
:1019A0002E433C4C266067683E0016404C68A402FB
:1019B00001D53E002E43374C66608426A7593E0071
:1019C00016404C68A40301D53E002E43314C8427B9
:1019D000E6518026A65932404C68E40301D52A001E
:1019E00032432C4D80242A5101330C682200DA4006
:1019F0004ED001229A40250015401442F4D04E6882
:101A000003243440013C012C95D94C680322224028
:101A1000032A08D0C4685E000322B24094438A6857
:101A2000B2402243C2604C6803222240022A95D071
:101A300004685E0003221700B740BC434F683A4079
:101A4000B240224302604C68C02292021442CBD0C2
:101A50009A0814001834A4000E4EA75903241C4001
:101A6000E4000F26A640B743A026F605B04287D073
:101A7000094EB04208D0094EB04207D0084EB042DD
:101A800000D17BE705267CE701267AE7022678E786
:101A9000F0BDC0460018024000040050000800508D
:101AA000000C0050026893699B0701D500239362E4
:101AB00003689A69D20703D49A6901210A439A619B
:101AC0007047000010B58905890D120411431943B0
:101AD000029B194349004908046862685B0D802035
:101AE000C0000340034803439A4313000B43636061
:101AF00010BDC046FF63FF03F0B5C64600B5040045
:101B00000D00170001688B69102216001E401A4252
:101B100000D175E01023CB61002398460026206891
:101B200083699B0631D4002E2FD16B1CF7D0FFF7B1
:101B300025FDC01BA84201D8002DF0D121684B68BB
:101B40008022D20113404222A25CD2B288690004F2
:101B500003D5002B01D1202A0ED123689B699B0657
:101B6000DDD4FFF70BFDC01B1928F6D92023424610
:101B70001A4390460126D2E74A688023DB011343CB
:101B80004B60FFF7FBFC0700E7E7002E01D12023A5
:101B9000C3610426434633431E000125226893692E
:101BA000D90504D501210E43FF31D16101255A0524
:101BB00006D50822164322688021C900D16101257B
:101BC0009B051FD502231E43236880229200DA6101
:101BD00001252000FFF766FF226853680B490B4080
:101BE0005360636C3343636441232022E254002337
:101BF0002232A354023AA354280080BCB846F0BD58
:101C00000025CBE7002DF7D0E3E7C04600E800FE53
:101C100070B504000D00160023689B699B0720D453
:101C2000320029002000FFF767FF00281BD16B1C42
:101C3000F2D0FFF7A3FC801BA84201D8002DEBD106
:101C400023689B699B07E7D4636C2022134363647A
:101C50004123E25400232232A354023AA354012028
:101C600000E0002070BD0120FCE7F0B5D6464F46ED
:101C700080B583B007000D00160099460A9B9A466E
:101C80003B689C692C40641B63425C410196B442F2
:101C900028D1524649463800FFF72EFF002827D1A9
:101CA0004B460133ECD0FFF769FC5346C01A484558
:101CB00002D84B46002BE3D13B689B692B405B1B52
:101CC0005A425341019A9342DAD17B6C202213434A
:101CD0007B644123FA5400232232BB54023ABB54A2
:101CE000012000E0002003B0C0BCBA46B146F0BD00
:101CF0000120F8E770B582B0040015001E008023B3
:101D0000F2B2194800905B042000FFF7DBFE079A4F
:101D100006992000FFF77CFF00281ED1012E0ED16E
:101D20002368EDB29D62079B0093069B00228021F1
:101D30002000FFF79AFF002813D102B070BD23687E
:101D40002A0A9A62079A06992000FFF761FF002885
:101D500005D12368EDB29D62E5E70120EDE70120A2
:101D6000EBE70120E9E7C0460020008070B582B0B3
:101D7000040015001E00DAB2184B00930023FFF791
:101D8000A1FE079A06992000FFF742FF00281ED106
:101D9000012E0ED12368EDB29D62079B0093069B36
:101DA000002240212000FFF760FF002813D102B07D
:101DB00070BD23682A0A9A62079A06992000FFF7E5
:101DC00027FF002805D12368EDB29D62E5E70120D9
:101DD000EDE70120EBE70120E9E7C04600200080A5
:101DE00070B504000D00160003E023689B699B0694
:101DF00012D523689B699B061BD432002900200062
:101E0000FFF77AFE002816D1FFF7B8FB801BA84227
:101E1000EBD8002DEDD1E8E7636C20221343636417
:101E20004123E25400232232A354023AA354012056
:101E300000E0002070BD0120FCE7000010B5041E8A
:101E400060D04123C35C002B48D041232422E254BC
:101E50002268136801218B431360636822682A4952
:101E60000B4013612268936828490B409360E36834
:101E7000012B39D0A168226884231B020B43936095
:101E8000E368022B37D02268536821490B40536026
:101E9000226851681F4B0B4353602268D3681B496B
:101EA0000B40D360236962691343A269120221685F
:101EB0001343CB60E369216A22680B4313602268F5
:101EC000136801210B4313600023636441221F3117
:101ED000A15423630132A354002010BD40330022DB
:101EE000C254FEF71BFCB0E7A168226880231B02E6
:101EF0000B439360C4E72268516880231B010B43A6
:101F00005360C5E70120E8E7FFFFFFF0FF7FFFFF19
:101F1000FFF7FFFF00800002F0B587B004000391D7
:101F2000049205930CAB20CB1F884123C35C202B6C
:101F300000D0B3E0002D18D0002F16D04023C35C92
:101F4000012B00D1ADE040230122C254FFF716FB64
:101F50000600802100901923012209022000FFF7CA
:101F600084FE002806D0012099E080239B00636452
:101F7000012094E041232122E25401331F32E25434
:101F80000023636465626785636301960E9B00931B
:101F9000059B049A03992000FFF7ACFE00280FD19F
:101FA000638D9BB2FF2B10D9FF2323857F3B00223B
:101FB00000925B04FF3203992000FFF783FD21E0CC
:101FC00040230022E254012069E0628D92B2228512
:101FD0008023D2B2002100919B0403992000FFF7D7
:101FE00071FD0FE0628D92B222858023D2B2002172
:101FF00000919B0403992000FFF764FD638D9BB261
:10200000002B34D032000E992000FFF701FE00288B
:1020100049D1626A236812789A62636A0133636203
:10202000638D013B9BB26385238D013B9BB223856E
:10203000628D92B2002AE1D0002BDFD100960E9B78
:10204000002280212000FFF710FE00282DD1638D93
:102050009BB2FF2BC6D9FF2323857F3B0022009232
:102060005B04FF3203992000FFF72CFDC6E7320026
:102070000E992000FFF7B4FE002818D12368202213
:10208000DA6121684B680B4D2B404B604123E254D1
:1020900000232232A354023AA35400E0022007B0E6
:1020A000F0BD0220FBE70120F9E70120F7E701205E
:1020B000F5E7C04600E800FEF0B587B004000391E4
:1020C000049205930CAB20CB1F884123C35C202BCB
:1020D00000D0B5E0002D18D0002F16D04023C35CEF
:1020E000012B00D1AFE040230122C254FFF746FA92
:1020F0000600802100901923012209022000FFF729
:10210000B4FD002806D001209BE080239B0063647F
:10211000012096E041232222E25401331E32E25490
:102120000023636465626785636301960E9B009379
:10213000059B049A03992000FFF718FE00280FD191
:10214000638D9BB2FF2B10D9FF2323857F3B424A2F
:1021500000925B04FF2203992000FFF7B3FC21E00B
:1021600040230022E25401206BE0628D92B222856E
:102170008023D2B2384900919B0403992000FFF7D5
:10218000A1FC0FE0628D92B222858023D2B20021A1
:1021900000919B0403992000FFF794FC638D9BB290
:1021A000002B36D000960E9B002204212000FFF762
:1021B0005CFD002849D123685A6A636A1A70636A11
:1021C00001336362238D013B9BB22385628D013A0B
:1021D00092B26285628D92B2002ADFD0002BDDD1EF
:1021E00000960E9B002280212000FFF73EFD002874
:1021F0002DD1638D9BB2FF2BC4D9FF2323857F3B59
:10220000002200925B04FF3203992000FFF75AFC82
:10221000C4E732000E992000FFF7E2FD002818D134
:1022200023682022DA6121684B680C4D2B404B60FB
:102230004123E25400232232A354023AA35400E083
:10224000022007B0F0BD0220FBE70120F9E70120E2
:10225000F7E70120F5E7C0460024008000E800FE13
:10226000F0B54123C35C202B20D12033C35C012B6C
:102270001ED04024012202554125242343550668DF
:10228000336893433360066833680A4F3B403360DA
:10229000066833680B43336001680B6813430B60B7
:1022A00020234355002303550020F0BD0220FCE706
:1022B0000220FAE7FFEFFFFFF0B54123C35C202BBC
:1022C0001ED12033C35C012B1CD0402401220255B7
:1022D00041252423435506683368934333600668D9
:1022E0003368094F3B4009021943316001680B68AC
:1022F00013430B6020234355002303550020F0BDFA
:102300000220FCE70220FAE7FFF0FFFF10B5104AB9
:10231000136810490B400343136080239B009842CD
:1023200001D0002010BD0C4B1B685800C0184000A5
:102330000A49FDF7F1FE0130054B5B695B0503D5EA
:10234000002803D00138F7E70020EBE70320E9E796
:1023500000700040FFF9FFFF1C00002040420F000A
:1023600070B582B0041E00D131E20368DB0739D5B5
:10237000C14A916838230B40D16803220A40102BD0
:1023800026D0082B26D063688022520293427FD049
:10239000A022D202934200D181E0B74B1A68B7491C
:1023A0000A401A601A68B6490A401A606368002B2E
:1023B00000D180E0FFF7E2F80500AF4B1B689B03FC
:1023C00010D4FFF7DBF8401B6428F6D90320FFE1A7
:1023D000032AD6D1A84B1B689B0303D56368002B47
:1023E00000D1F7E123689B0731D5A34A91683823D0
:1023F0000B40D16803220A40102B6AD0002B6BD10E
:102400009D4A1268520503D5E268002A00D1E3E133
:10241000994842689B490A40616909020A4342603F
:10242000002B0DD1036898490B4021690B430360D1
:102430000368DB0A07221A40944BD340944A136086
:10244000944B1868FFF74EF8002800D0C6E12368C7
:102450001B0700D481E0884B9A6838231340182B5F
:1024600073D0A369002B00D1B4E0834A136E01211D
:102470000B431366FFF782F805007F4B1B6E9B072B
:102480006BD4FFF77BF8401B0228F6D903209FE1AD
:10249000794A116880235B020B43136086E7764B11
:1024A00019688022D2020A431A60196880225202F7
:1024B0000A431A607AE7FFF761F805006E4B1B6864
:1024C0009B038FD5FFF75AF8401B6428F6D90320E9
:1024D0007EE1022A92D193E7E368002B22D0664A7C
:1024E000136869490B4021690B431360116880230D
:1024F0005B000B431360FFF741F805005E4B1B6860
:102500005B0506D4FFF73AF8401B0228F6D90320F2
:102510005EE159494B685B4A1340626912021343FA
:102520004B6094E7544A13685B490B401360FFF714
:1025300025F80500504B1B685B0588D5FFF71EF892
:10254000401B0228F6D9032042E14B4B1B6E9B0730
:1025500003D5A369002B00D142E123685B0700D4B7
:10256000A2E0454B9A6838231340202B45D0424BBC
:10257000DB6BDB004AD4404BDA6B802149050A4310
:10258000DA63DB6B0B400193019B0125434B1B6816
:10259000DB053DD5A368012B4ED0052B52D0364B21
:1025A000DA6D01218A43DA65DA6D03318A43DA652F
:1025B000A368002B50D0FEF7E1FF06002E4BDB6D29
:1025C0009B076FD4FEF7DAFF801B354B9842F5D995
:1025D0000320FDE0284A136E01218B431366FEF7AA
:1025E000CDFF0500244B1B6E9B07B6D5FEF7C6FF3B
:1025F000401B0228F6D90320EAE01F4BDB6D9B0746
:1026000052D5A368002B4FD10120E1E00025BDE7A2
:10261000224A116880235B000B431360FEF7AEFF74
:1026200006001E4B1B68DB05B4D4FEF7A7FF801B1A
:102630000228F6D90320CBE00F4AD36D01210B43CA
:10264000D365B5E70C4BDA6D04210A43DA65DA6D20
:1026500003390A43DA65ABE7FEF790FF0600064B45
:10266000DB6D9B071ED5FEF789FF801B0C4B984244
:10267000F5D90320ACE0C04600100240FFFFFEFF8A
:10268000FFFFFBFFFF80FFFFFFC7FFFF0024F400F9
:102690001C00002024000020FFFEFFFF007000400F
:1026A00088130000012D1ED0E369002B00D199E0B2
:1026B000544A916838220A40102A60D0022B18D060
:1026C000504A136850490B401360FEF757FF04004F
:1026D0004C4B1B689B014BD5FEF750FF001B02289B
:1026E000F6D9032074E0474AD36B48490B40D363C3
:1026F000DAE7444A136844490B401360FEF73EFF93
:102700000500404B1B689B0106D5FEF737FF401BB9
:102710000228F6D903205BE03A4AD3683C491940C5
:10272000236A606A0343A06A00020343E06A03432A
:10273000206B0343606B03430B43D360116880231A
:102740005B040B431360D16880235B050B43D360AC
:10275000FEF714FF04002B4B1B689B0106D4FEF709
:102760000DFF001B0228F6D9032031E000202FE0E6
:10277000244AD36827490B40D360002028E0012B6E
:1027800032D0204BDA6803231340216A8B422DD1CB
:1027900070231340616A8B422AD1FE21C901114086
:1027A000A36A1B02994225D1F8239B031340E16AD7
:1027B0008B4221D1E0231B051340216B8B421DD19D
:1027C000520F5207636B9A421AD1002000E0012099
:1027D00002B070BD0120FBE70120F9E70120F7E717
:1027E0000120F5E70020F3E70120F1E70120EFE702
:1027F0000120EDE70120EBE70120E9E70120E7E711
:102800000120E5E700100240FFFFFFFEFFFFFFEFA2
:102810008C80C111FCFFFEEE10B52A4B9B6838225C
:102820001A4207D1274B1A68D20A072313402648B9
:10283000D84010BD234B9A6838231340082B3BD057
:10284000204B9A6838231340102B0DD01D4B9A68EB
:1028500038231340202B31D01A4B9A683823134069
:10286000182B26D00020E4E7164AD1680D3B0B4018
:10287000D2681209072111400131032B0FD01248F1
:10288000FDF74AFC0F4BDA68120A7F2313405843C6
:102890000C4BD968490F0131FDF73EFCC9E70B48E5
:1028A000FDF73AFC074BDA68120A7F2313405843BE
:1028B000EEE7FA20C001BCE70448BAE78020000236
:1028C000B7E7C046001002400024F40000127A006E
:1028D00070B504000D00002800D1AAE0574B1A681B
:1028E000072313408B4221D323689A070ED55B0739
:1028F00005D5534A9168E023DB010B439360504AAE
:10290000936850490B40A1680B4393602368DB0731
:1029100054D56368012B20D0022B3BD0002B3FD134
:10292000474A126852051CD401206AE0434A1368E2
:1029300007218B432B431360FEF720FE06003F4B1D
:102940001A6807231340AB42CED0FEF717FE801B58
:102950003D4A9042F3D9032053E0394A126892036A
:1029600069D537498A680720824313438B60FEF795
:1029700005FE0600324B9B6838221A406368DB0074
:102980009A421BD0FEF7FAFD801B2F4B9842F1D9DB
:10299000032036E02A4A12689201E2D4012030E096
:1029A000032B05D0264AD26D9207DAD4012028E005
:1029B000234A126E9207D4D4012022E01F4B1A68DA
:1029C00007231340AB421DD823685B0706D51C4A7A
:1029D00093681E490B40E1680B439360FFF71CFFAF
:1029E000174B9A68120A0F231340194A9B009A58F2
:1029F0001F231340D840174B1860174B1868FEF779
:102A000071FD70BD0D4A136807218B432B43136082
:102A1000FEF7B4FD0600094B1A6807231340AB42CA
:102A2000D2D0FEF7ABFD801B074B9842F3D90320B1
:102A3000E7E70120E5E70120E3E7C0460020024088
:102A400000100240FFF0FFFF88130000FF8FFFFF20
:102A5000683600081C00002024000020F0B583B078
:102A6000040003689B0362D56D4BDB6BDB001ED457
:102A70006B4BDA6B802149050A43DA63DB6B0B4051
:102A80000193019B0126674A116880235B000B4379
:102A90001360FEF773FD0500624B1B68DB0508D46D
:102AA000FEF76CFD401B0228F6D9032502E0002644
:102AB000E9E70025002D23D1594BD96DC0229200A2
:102AC0000B001340114210D0626A9A420DD0544A52
:102AD000D36D55490B40D06D802149020143D1652A
:102AE000D16D52480140D165D365DB0710D4002D6C
:102AF00006D14B4AD36D4C490B40616A0B43D365F9
:102B0000012E15D1464AD36B49490B40D3630FE0E0
:102B1000FEF734FD0700424BDB6D9B07E7D4FEF761
:102B20002DFDC01B434B9842F5D90325DFE7002557
:102B30002368DB0706D53A4A536D03218B4361684E
:102B40000B4353652368DB0606D5354A536D3A4976
:102B50000B40A1680B43536523689B0506D5304A9B
:102B6000536D36490B4061690B43536523685B0520
:102B700006D52B4A536D32490B40A1690B4353656F
:102B800023689B0606D5264A536D2E490B40E16803
:102B90000B43536523685B040BD5214A536D9B009F
:102BA0009B08E1690B435365E2698023DB059A4288
:102BB00020D023689B020BD5194A536D22490B4044
:102BC000216A0B435365226A8023DB039A4218D0A3
:102BD00023681B050BD5124A536D1C490B40216914
:102BE0000B43536522698023DB019A4210D02800F1
:102BF00003B0F0BD0A4AD16880235B020B43D36067
:102C0000D7E7074AD16880235B040B43D360DFE733
:102C1000034AD16880235B020B43D360E7E7C046D9
:102C20000010024000700040FFFCFFFFFFFFFEFFAE
:102C3000FFFFFFEF88130000FFF3FFFFFFFFF3FF2D
:102C4000FFFFCFFFFFCFFFFFFFFFBFFFFF3FFFFFF4
:102C5000F0B5002216E00B699C46C4682B006B435C
:102C60005E00F618F743B44366465E433443C460DF
:102C70004C68022C25D04D6804683C406B432343CC
:102C8000036001320C682300D3403AD00123934003
:102C900025001D401C42F4D04B68013B012BDAD8C3
:102CA0008F6883682C006C4366003619B3437C43FD
:102CB00023438360CC684368AB436C432343436046
:102CC000C9E7FF2D0DD84C69A446066A1C006C4369
:102CD0006C4325012D1BAE4365466C4334430462AF
:102CE000C9E74C69A446466A2D0A2C006C436C4324
:102CF0006C4325012D1BAE4365466C43344344624F
:102D0000B9E70020F0BD0000054B9A68120A0F23B6
:102D10001340044A9B009A581F231340D840704721
:102D20000010024068360008054B9A68120B072312
:102D30001340044A9B009A581F231340D840704701
:102D4000001002404836000810B50E4BDA68032325
:102D50001340032B13D00C4A0A4CE3681B0A7F2054
:102D600018405043E3681B09072119400131FDF762
:102D7000D3F9E168490F0131FDF7CEF910BD034ADF
:102D8000EAE7C046001002400024F40000127A0076
:102D900010B50A4B9A6838231340082B0CD0102B1F
:102DA00002D1FFF7D1FF10BD044B1A68D20A0723E6
:102DB00013400348D840F6E70248F4E70010024009
:102DC0000024F40000127A0010B50400FFF7E0FFC1
:102DD0002060FFF799FF6060FFF7A6FFA06010BDBD
:102DE00010B5032801D0002010BD164B5B6D0340C9
:102DF00000040343144A93420FD0144A934216D05E
:102E0000134A934206D0FFF7C3FFFFF77DFFFFF79A
:102E10008BFFE9E7FFF7BCFFE6E70A4B1A68802360
:102E2000DB00100018401A42DED00A48DCE7054BF0
:102E3000DB6D0222100018401A42D5D0802000021B
:102E4000D2E7C04600100240020003000300030066
:102E5000010003000024F40003681D4A904206D0DC
:102E60008022D205904202D01A4A904203D17022A9
:102E700093434A681343164A90420FD08022D205EA
:102E800090420BD0134A904208D0134A904205D08A
:102E9000124A904202D0124A904203D1114A1A407B
:102EA000CB68134303608B68C3620B888362084B53
:102EB000984205D0094B984202D0094B984201D163
:102EC0000B69036343690122134343610020704788
:102ED000002C01400004004000200040004401405C
:102EE00000480140FFFCFFFF10B5040008000B2A5A
:102EF00016D80299002913D0802109028B4210D0E4
:102F0000FF231340124A9B009958FDF705F9029BD5
:102F10005B08C0180299FDF7FFF80004000CE060A0
:102F200010BDFF2313400A4A9B009958FDF7F4F89F
:102F30004000029B5B08C0180299FDF7EDF8054AB6
:102F400002400004400C072303401343E360E7E71B
:102F5000A8360008F0FF000030B587B004000D006F
:102F60000368DB0742D40368214A1A408B68096969
:102F70000B4369690B43E9690B4313430360EB6837
:102F800042681C490A4013434360AB6982681A498E
:102F90000A4013438360194B98420DD0184B984256
:102FA00015D001202B68E26A0F218A431B041B0CF9
:102FB0001343E36207B030BD0320FFF711FF0100A8
:102FC000002911D06868002806D10120EAE703A88B
:102FD000FFF7FAFE0599F3E72A68EB6900902000F5
:102FE000FFF782FF0020DDE70120DBE70120E1E7BA
:102FF000F369FFEFFFCFFFFFFFFCFFFF0038014049
:103000000044004010B50221FEF78AF910BD00000F
:1030100030B587B0020005AC00232380074D643330
:103020000293623B0193009452212800FFF744F879
:1030300023781B026078184307B030BDD40000200D
:1030400010B586B0020017236B441970074C642139
:103050000291633901910093022351312000FEF760
:103060005BFF43425841C0B206B010BDD4000020FF
:1030700010B586B0020005AB00201880080A187051
:103080005970084C64210291623901910093022326
:1030900050312000FEF740FF43425841C0B206B015
:1030A00010BDC046D400002010B586B0020005ABAC
:1030B00000200590080E1870080C5870080A9870C7
:1030C000D970084C64210291603901910093022368
:1030D0004E312000FEF720FF43425841C0B206B0F7
:1030E00010BDC046D400002010B5012823D002280E
:1030F0003FD0002801D0002010BD07216030FFF72D
:103100009FFF05216320FFF79BFF38216920FFF710
:1031100097FF07217820FFF793FF05217920FFF71C
:103120008FFF06217A20FFF78BFF06217B20FFF718
:1031300087FF0120E0E70B216020FFF781FF0921D5
:103140006320FFF77DFF78216920FFF779FF0B21CE
:103150007820FFF775FF09217920FFF771FF0A2119
:103160007A20FFF76DFF0A217B20FFF769FF01201E
:10317000C2E70F216020FFF763FF0D216320FFF7F7
:103180005FFFB8216920FFF75BFF0F217820FFF771
:1031900057FF0D217920FFF753FF0E217A20FFF70B
:1031A0004FFF0E217B20FFF74BFF0120A4E700001B
:1031B00010B500210020FFF743FF002800D110BD0B
:1031C0000A20FEF7E1F901210020FFF739FF00286E
:1031D000F5D00620FFF71CFF594B1880DE20FFF7C3
:1031E00017FF584B1880A02109012420FFF740FF4A
:1031F0000028E4D002213120FFF722FF0028DED092
:1032000008213620FFF71CFF0028D8D010213720D6
:10321000FFF716FF0028D2D001213920FFF710FF59
:103220000028CCD0FF213E20FFF70AFF0028C6D09F
:1032300000213F20FFF704FF0028C0D002214020DA
:10324000FFF7FEFE0028BAD000215020FFF710FF44
:103250000028B4D000215220FFF70AFF0028AED08A
:1032600038215720FFF7ECFE0028A8D0B4214900F0
:103270006420FFF7FDFE0028A1D0C0216620FFF7E3
:10328000F7FE00289BD001217120FFF7D9FE00280E
:1032900095D001217C20FFF7D3FE002800D18EE7D6
:1032A00002217E20FFF7CCFE002800D187E7002115
:1032B0008220FFF7C5FE002800D180E7012177209A
:1032C000FFF7BEFE002800D179E78B218120FFF7B0
:1032D000B7FE002800D172E7C82109025420FFF789
:1032E000C7FE002800D16AE702214F20FFF7A8FEA1
:1032F000002800D163E70220FFF7F6FE2220FFF747
:1033000087FE810089B21E20FFF7B2FE002800D19F
:1033100055E70C4B1B88322159436C20FFF7C4FE44
:10332000002800D14BE701218620FFF789FE002805
:1033300000D144E740218720FFF782FE3FE7C046E7
:103340009A0B0020980B002010B58AB005AC002322
:1033500005930D22002106A800F018F90A4832232F
:103360000293213B019300940F3B89225221FEF7E7
:10337000A3FE11212000FFF745FEA37B1B02E07B8B
:1033800018430AB010BDC046D400002010B5FFF7A6
:10339000DBFF040001218620FFF752FEA001001B85
:1033A000C000001B8000001B8023DB009C466044A3
:1033B000C00A80B210BD000010B5034B0A00010026
:1033C000186800F003F810BD2800002070B50B0C41
:1033D000150C002B1ED1002D0CD189B294B24C4398
:1033E000210000F043F8051E1AD02200002100F051
:1033F000CDF816E02B1C0C1C89B292B24A439BB24A
:10340000A1B25943140C0C19230C07D1240492B215
:103410001443E5E7002D01D1141CEDE70C230360F4
:103420000025280070BD000070B50F4E0D003168FA
:103430000400002902D100F0B1F83060290020001A
:1034400000F0ACF8431C03D101256D42280070BD8B
:103450000323C51C9D43A842F8D0291A200000F080
:103460009DF80130F2D1EFE79C0B0020F7B5032265
:10347000CB1C9343083305001F000C2B34D20C27C0
:10348000B94233D8280000F071F8374E33681C0079
:10349000002C2FD139002800FFF7C6FF0400431C81
:1034A0005FD134680094009B002B4AD1002C52D08D
:1034B00023682800E3180099019300F06FF8019B3E
:1034C000834248D123682800FF1A3900FFF7ACFF78
:1034D000013040D02368DB19236033685A68002A22
:1034E00033D1009B336019E0002BC9DA0C232B6029
:1034F0000020FEBD2168C91B20D40B290AD9E2197E
:103500002760A34204D1326063681160536005E014
:103510005A60F9E76268A3420ED13260280000F0D9
:103520002DF8200007220B30231D9043C21A984229
:10353000DFD01B1AA350DCE75A60EFE72300646872
:10354000A6E7009C63680093ADE71A005B68A3429E
:10355000FBD10023DAE70C2328002B6000F00EF8E3
:10356000C6E70760DAE7C046A00B002010B50248A6
:1035700000F050F810BDC046E00C002010B5024825
:1035800000F049F810BDC046E00C0020030082188E
:10359000934200D1704719700133F9E7002370B5E9
:1035A000064D040008002B60FDF780FB431C03D18F
:1035B0002B68002B00D0236070BDC046DC0C0020BF
:1035C000014B18687047C0462800002070B50026DF
:1035D0000C4C0D4D641BA410A64209D1002600F02E
:1035E0001BF80A4C0A4D641BA410A64205D170BDFD
:1035F000B300EB5898470136EEE7B300EB58984715
:103600000136F2E7D8360008D8360008DC36000864
:10361000D836000870477047F8B5C046F8BC08BCFB
:103620009E467047F8B5C046F8BC08BC9E46704739
:1036300001B40248844601BC604700BF7900002005
:10364000696E6974206F6B000000000000000000CC
:103650000000000000000000010000000200000067
:103660000300000004000000000000000000000053
:10367000000000000000000000000000000000004A
:103680000000000000000000010000000200000037
:103690000300000004000000060000000700000016
:1036A0000800000009000000010000000200000006
:1036B0000400000006000000080000000A000000EE
:1036C0000C0000001000000020000000400000007E
:0836D000800000000001000071
:0436D800E9000008FD
:0436DC00C100000821
:1036E00001010100AA550300FFFDFC55AA000000DE
:1036F000AA550300FFFCFB55AA0300000024F400B8
:1037000001000000040000002C0000200000000068
:10371000A40B00200C0C0020740C00200000000002
:103720000000000000000000000000000000000099
:103730000000000000000000000000000000000089
:103740000000000000000000000000000000000079
:10375000000000000000000010B50C4A54698023EE
:10376000DB0223435361EFF3108472B6002303E0BE
:1037700004C904C00133DBB23F2BF9D9034B1B69E9
:10378000DB03FBD484F3108810BDC0460020024048
:04000005080013815B
:00000001FF
