:020000040800F2
:1020000000200020B1540008D1450008D345000845
:1020100000000000000000000000000000000000C0
:10202000000000000000000000000000D54500088E
:102030000000000000000000D7450008D945000856
:10204000015500080155000801550008E145000848
:1020500001550008E9450008015500080155000830
:1020600000000000F3450008F54500089946000807
:1020700001550008015500080155000801550008E8
:102080000155000801550008015500086D4700087A
:1020900000000000B5470008F94700080155000896
:1020A0000155000801550008015500081D480008A9
:0C20B0006D490008015500080000000008
:1020C00010B5064C2378002B07D1054B002B02D00E
:1020D000044800E000BF0123237010BD240100204C
:1020E00000000000C86D0008044B10B5002B03D0A1
:1020F0000349044800E000BF10BDC04600000000D6
:1021000028010020C86D0008002243088B4274D3C8
:1021100003098B425FD3030A8B4244D3030B8B42E8
:1021200028D3030C8B420DD3FF22090212BA030CF1
:102130008B4202D31212090265D0030B8B4219D3D2
:1021400000E0090AC30B8B4201D3CB03C01A5241F2
:10215000830B8B4201D38B03C01A5241430B8B423A
:1021600001D34B03C01A5241030B8B4201D30B0323
:10217000C01A5241C30A8B4201D3CB02C01A52414A
:10218000830A8B4201D38B02C01A5241430A8B420D
:1021900001D34B02C01A5241030A8B4201D30B02F6
:1021A000C01A5241CDD2C3098B4201D3CB01C01A10
:1021B000524183098B4201D38B01C01A524143091A
:1021C0008B4201D34B01C01A524103098B4201D308
:1021D0000B01C01A5241C3088B4201D3CB00C01A75
:1021E000524183088B4201D38B00C01A52414308ED
:1021F0008B4201D34B00C01A5241411A00D2014612
:10220000524110467047FFE701B5002000F0F0F89A
:1022100002BDC0460029F7D076E7704703460B435E
:102220007FD4002243088B4274D303098B425FD3CF
:10223000030A8B4244D3030B8B4228D3030C8B42FB
:102240000DD3FF22090212BA030C8B4202D31212E1
:10225000090265D0030B8B4219D300E0090AC30BB6
:102260008B4201D3CB03C01A5241830B8B4201D363
:102270008B03C01A5241430B8B4201D34B03C01A4C
:102280005241030B8B4201D30B03C01A5241C30AC4
:102290008B4201D3CB02C01A5241830A8B4201D335
:1022A0008B02C01A5241430A8B4201D34B02C01A1F
:1022B0005241030A8B4201D30B02C01A5241CDD2C4
:1022C000C3098B4201D3CB01C01A524183098B420F
:1022D00001D38B01C01A524143098B4201D34B01F8
:1022E000C01A524103098B4201D30B01C01A52415B
:1022F000C3088B4201D3CB00C01A524183088B42E2
:1023000001D38B00C01A524143088B4201D34B00CA
:10231000C01A5241411A00D201465241104670473C
:102320005DE0CA0F00D04942031000D34042534041
:1023300000229C4603098B422DD3030A8B4212D301
:10234000FC22890112BA030A8B420CD38901921133
:102350008B4208D3890192118B4204D389013AD070
:10236000921100E08909C3098B4201D3CB01C01A45
:10237000524183098B4201D38B01C01A5241430958
:102380008B4201D34B01C01A524103098B4201D346
:102390000B01C01A5241C3088B4201D3CB00C01AB3
:1023A000524183088B4201D38B00C01A5241D9D2CB
:1023B00043088B4201D34B00C01A5241411A00D24C
:1023C0000146634652415B10104601D34042002B48
:1023D00000D54942704763465B1000D3404201B5C7
:1023E000002000F005F802BD0029F8D016E770477C
:1023F0007047C04670B500220C4B04000D0001F080
:1024000033FA002804D12000290001F08FF970BDB3
:10241000064B00222000290000F0ECFD01F086F9B7
:1024200080231B069C466044F1E7C0460000E04163
:10243000F0B5DE46454657464E46E0B587B00092B9
:1024400001930B031B0B9B46CA0F4B0004008046F5
:102450005B0D029200D16AE1D44A934200D18CE133
:102460005946420FC9000A43802109041143C200A2
:102470009046CF4A894692469A440023002403930B
:10248000009E019F3B031B0B9B467B0030005B0DB6
:10249000FD0F002B00D128E1C44A934200D177E11F
:1024A0005946720FC9000A438021090411438B4623
:1024B000BF49F2008C4651466344CB1A9A4600232A
:1024C000029E6E400F2C27D8BA49A40009598F46A6
:1024D000CB464246029E039B022B16D0032B00D113
:1024E000A6E2012B00D0DFE000220023002490466A
:1024F0001B052343F60733434046190007B0F0BCE1
:10250000BB46B246A946A046F0BD00220024904634
:10251000A64BEDE72E00DFE7CB4500D2D4E100D19A
:10252000CFE101235B429C46444648460027E244F3
:102530005B46150E1B021D43190C2B04120200955D
:102540001D0C914602910395FFF764FE02006A4359
:102550000B04210C804619438A4209D9009D0123AE
:10256000AC465B4261449C46E0448D4200D8FBE1AE
:10257000881A0299FFF74EFE039A24044243090485
:10258000240C03000C43A24206D90099013B8C465F
:102590006444A14200D8E1E1A01A424612041A4361
:1025A00093464B4659461B0C1D0004930B044946A9
:1025B0000904090C0C001B0C5C43120C6B4388468D
:1025C00051436A43250CAC465B186344994203D9D6
:1025D000802149028C466244190C24041B04240CFB
:1025E0008A181C19904202D316D1A74214D25B4616
:1025F000009D013B4F4405934F459B41AC465B42D8
:102600006344C018854200D3A1E1824200D9F6E1BB
:1026100000D1F1E1059B9B463C1BA742BF41009DB9
:10262000801A7F42C01B854200D1D0E10299FFF79A
:10263000F1FD039A0B044243210C070019438A421F
:1026400000D978E1881A0299FFF7E4FD039A24047F
:1026500042430904240C03000C43A24200D95DE16B
:102660004146A41A3A041A43049D13041B0C59430F
:1026700047466B439C46100C47430B0CBC446344D9
:1026800068439F4203D980256D02AC4660441F0C0D
:1026900009041B04090C3F185B18BC4200D202E17C
:1026A00000D1FDE001231A43434B5344002B00DCCF
:1026B000AEE0510700D098E15946C90106D5594608
:1026C0003E4B194080238B46DB0053443C498B42F0
:1026D00000DD1AE75946D208490711435A465B05FF
:1026E00054028846240B5B0D02E75A46009B1A43AE
:1026F00000D17EE05B46002B00D100E1584601F09E
:10270000BDF8020003000B3A1D27009EBA1A1900FB
:102710005846D64008398840320002439346009A12
:102720008A40284953448A469A440023C8E65B46B7
:102730000343994656D05B46002B00D1CDE0584666
:1027400001F09CF80B235B429C46020084446646E1
:102750001D239B1B260011005846DE400839884087
:1027600033000343994623008B409846164B0024C0
:102770009B1A9A460023039382E65A4602439146E7
:102780002AD100229A46022390460824039377E632
:102790005A46009B1A430D4B9C46E244002A17D12F
:1027A00002231C4300239B46023389E6FF070000F7
:1027B00001FCFFFFF06D0008FF030000FFFFFFFEBC
:1027C000FE070000F30300000DFCFFFF01F8FFFF10
:1027D000032332001C4373E69A460323D9460C2494
:1027E00003934DE6002398469A460133042403934D
:1027F00046E601231C4300239B46013360E6002389
:10280000802498460026924B240371E6012252420E
:102810000121C91A382900DD66E61F2900DCABE07A
:102820001F204042C31A5846D8400300202904D034
:1028300058468849514488400243511E8A411A43F0
:10284000072319000024114013420CD00F2313401A
:10285000042B00D1F9E0111D91429B410A005B421B
:1028600059075B021C0BD2080A43904600233FE63F
:1028700080244B462403234209D05B46234206D1E1
:102880001C4324032E009046714B240B30E6802419
:102890004B4624031C432403029E6D4B240B27E666
:1028A000002B00D100E70098511E84466444844206
:1028B00000D284E0BC4200D2AEE000D1C1E00A0008
:1028C000F0E6424500D92CE64B46DC075808434663
:1028D0005B081C434346DF072AE600F0CFFF1523C1
:1028E0009C4684440200634620321C2B00DC2EE709
:1028F00023000838834099460023984636E700F0C5
:10290000BDFF02000300153220331C2A00DCFBE669
:1029100000990838814000228B4602E70099013B6C
:102920008C466444A14200D99AE6A24200D897E6B8
:10293000831E644494E6AC466144013F8D4200D955
:1029400080E68A4200D87DE6871E61447AE68542A9
:1029500000D05FE6B94500D95CE656E6A24200D851
:102960001AE6831E644417E68A4200D800E6AC46A5
:10297000831E98466144FBE537481400504482406A
:102980005B4617008340CC407A1E974123433B436C
:102990001A005B46CB40510709D00F211140042992
:1029A00005D0111D9142924152429B180A00190212
:1029B00000D455E7002201230024904698E50A0040
:1029C000BC4200D06EE64B4500D06BE66CE6234B74
:1029D000234A5344924500DA18E7012149420A1D6F
:1029E0008A42894149428B4466E60F2111400429FD
:1029F00000D161E61100F2E7BC4200D80AE60223EA
:102A00005B429C4600994F444F459B41E3448C46B2
:102A10005B426344C018FFE54946009D48004845B5
:102A20008941AC46494261448146023A6418C7E78D
:102A300080245B4624031C4324039046044B240B50
:102A400056E59945E8D30A00BDE7002308E7C046EC
:102A5000FF0700003E0400001E040000FF0300000A
:102A600002FCFFFFF0B55746DE464E464546E0B550
:102A70001F000B031B0B16009A46CA0F4B000400E5
:102A8000934687B05B0D00D1D5E0BB4A934200D19D
:102A9000F8E05146420FC9000A438021090411435E
:102AA000C2009146B54A8A469D1800239846029373
:102AB0003C037B00FA0F3000240B5B0D009200D129
:102AC00096E0AD4A934231D0720FE4002243802455
:102AD00024041443A94AF000944663445B195A1C29
:102AE0000192424600260A2A42DC5A4600994A4090
:102AF00093464246022A32DC013A012A00D949E1D2
:102B0000022E00D1CAE0012E3DD100230024002274
:102B100010005A461B052343D2071343190007B080
:102B2000F0BCBB46B246A946A046F0BD924B264338
:102B3000EB18002E00D1BBE00322414611435A4658
:102B4000884600994A40802109018C462900614449
:102B5000019141460A2900DD33E2934603264246AD
:102B600001279740A6213A00C9000A400F4231D000
:102B7000029E022E00D135E2032E00D1D2E154464E
:102B80004846012EC1D0019A7D4B94466344002BE8
:102B900000DCC0E0420709D00F220240042A05D021
:102BA000021D82428041404224181000E20106D5F5
:102BB000744B019A1C4080239446DB006344724AA4
:102BC00093426BDC6207C00864025B050243240B7E
:102BD0005B0D9DE7902189000F4263D188223A4224
:102BE00000D1D7E0009BA2469B4681460296BFE7F4
:102BF0002300334300D17FE0002C00D1ADE1200061
:102C000000F03CFE020003000B3A1D201900821A5E
:102C100030000839D0408C400443300088405B4A83
:102C2000EB1A944663445A1C0192424600260A2A33
:102C300000DC5AE79CE753460343994654D0534679
:102C4000002B00D177E1504600F018FE0B235B42C9
:102C50009C460200844411005046083988401D23D8
:102C6000804660461B1A2000D840030040460343BC
:102C70009A4623008B4099460023444D9846AD1A4E
:102C8000029315E752460243914626D100221D00C9
:102C90000223924608329046029309E7002400225C
:102CA000354B35E7002380249B462403324B2FE726
:102CB0000222414611438022120194462A006244B6
:102CC000884601920A2900DD52E75A460020009901
:102CD00004004A40934602260BE70C221D00032302
:102CE000814690460293E3E600239A4604339846D1
:102CF000033B00250293DBE6424601331A432B00D7
:102D000090465A1C019242460024002001260A2ABD
:102D100000DCEAE62CE70122D21A382A00DDF4E6CC
:102D20001F2A00DC2AE11F214942CB1A2100D94089
:102D30000B00202A05D0164A019D94466544AC40FC
:102D40002043421E904118430723190000240140EC
:102D500003420CD00F230340042B00D140E1031D9C
:102D60008342A4411800644261076402240BC20834
:102D700000230A43CCE6C046FF07000001FCFFFF2A
:102D8000FF030000FFFFFFFEFE0700000DFCFFFF3A
:102D90003E04000049464A460904090C0D00160C81
:102DA000020C0004000C4543AC4605007543A846E0
:102DB00015000F007543009202952A00009D6F4395
:102DC00065462D0CA94647444F44B84505D9150022
:102DD000802252029046454402953D0C039565467B
:102DE0002D043F042D0CAC463D0065440495250C94
:102DF0002404240CAC4625007543A84665460F0004
:102E00006943414489466743390C49446E438845C8
:102E100003D980225202904646440D0CA846350044
:102E200045440595039D3F04A8463F0C0904C91974
:102E300088444546039555462E04360C2F0C350024
:102E40004543784381463800A8462D0CAA46009A8F
:102E5000504372434A445244914503D980256D0240
:102E6000A9464844150CA94645462D042D0CA846F4
:102E700065467D43120448449044A94632006546A5
:102E800062436E437C43170C3619BF19BC4203D909
:102E900080246402A446E144029C039EA446059D4E
:102EA00066448E428941AC4612043C04120CA218BE
:102EB0006244494254184644A4464645A4418246C9
:102EC0006442A046AA4292418C458941E244D044E2
:102ED000494252420A43A045A44182458941644285
:102EE00049420C4341463F0CD2191219CC0D0499AA
:102EF00070020843411E884141464A44F60D520281
:102F00003043490214430843D20135D50122430816
:102F100002401343E0071843640834E6009BA246CE
:102F20009B4681468024534624031C4324034A467F
:102F30002E4B240BECE500F0A1FC15239C468444A9
:102F40000200634620321C2B00DC84E600239946F5
:102F50002300083883409A468EE600F08FFC02007A
:102F60000300153220331C2A00DC4EE60200340038
:102F7000083A0020944052E6019304E61C4B2100DD
:102F80009C460300019DD3406544A94019430300BA
:102F9000AB40581E834119430800D4404B0709D069
:102FA0000F230B40042B05D00B1D8B428041404268
:102FB00024181800230200D4D6E60123002400229E
:102FC000A6E50F29AAD1802352461B031A42A9D095
:102FD0001C42A7D11C43009B02009B46034B97E574
:102FE0000024C1E60024014B220091E5FF07000008
:102FF0001E040000F0B54E464546DE465746E0B595
:1030000085B0009001910C034F00CE0F610A009C27
:10301000B046640F0C4300997F0DC80011001A00E0
:103020001B039C460091019251004B0D9946019B58
:10303000009DD90F63466A0F5B0A1343EA0094466A
:103040009346C14A03900293914500D1CDE00125FA
:1030500069404D467D1BAA468E4200D180E0002D7E
:1030600000DC35E34946002900D1DFE0974200D17A
:1030700094E152460125382A19DC8022029B120471
:103080001343029352461F2A00DDE3E153462022F8
:103090006146029DD21A9540D9400D436146914048
:1030A0000A00511E8A411543029ADA40A41A451BB0
:1030B000A84280414042241A230200D43DE1640228
:1030C000640A002C00D147E1200000F0D7FB030088
:1030D000083B20212800CA1AD0409C4002009D4095
:1030E00022439F4200DD77E1D81B0130091A2C00F2
:1030F0008D40C4406B1E9D411300C2408B40254350
:10310000002714001D436B0709D00F232B40042B0D
:1031100005D02B1DAB42AD416D4264191D00230249
:1031200000D440E1884A0137974200D101E10126ED
:1031300043468649ED0821404A072A437C054D0253
:103140002D0B640D1E4024052C43F607344310005C
:10315000210005B0F0BCBB46B246A946A046F0BD72
:10316000002D00DCD0E24946002900D0D4E06146C1
:10317000029B194300D12BE1691E012D00D1D9E139
:10318000954200D10AE10125382917DC8A465346C9
:103190001F2B00DDE7E12022D21A029B61469340FB
:1031A0001D005346D940634693401A000D43511EFB
:1031B0008A4153461543029ADA40A4182D188542D5
:1031C000804140422418230200D4B6E05E4B013710
:1031D0009F4200D1ADE001215C4B6A081C402940B0
:1031E0000A43E507154364088DE7594A029B924656
:1031F0006246BA441A432CD08E422ED05246002A40
:1032000060D0002F00D1DBE063460E00029CD8089E
:1032100062070243E4081300234300D154E28025EF
:103220002D0325432D03484C2D0B8CE76146029B53
:10323000194300D1CCE029000139012D00D188E1EA
:10324000954200D1AAE00125382900DD2FE78A4602
:1032500018E7012251408E42D0D15346002B00D1B5
:10326000BEE0002F00D038E1CA462200024300D160
:10327000E2E15346591E012B00D10DE2324A92453C
:1032800000D1D2E10127382913DC1F2900DDEEE14E
:103290002022029B521A250007009A46CC409040FB
:1032A0009540CF40A244421E904153462F430743CE
:1032B00002933D00654465459241029B52424F4650
:1032C000D41880E7234A7D1C154200D0AAE062464C
:1032D0002500029B05431A43002F00D0F5E0002D86
:1032E00000D16BE1002A00D152E16346C51A029B6E
:1032F000E21AA8429B415B42D31A1A0200D4D5E1DC
:1033000063461D1AAC4592410126029B52421C1B8A
:103310008846A41A0E40F6E697423FD05246012551
:10332000382A00DD4AE78022029B120413430293ED
:103330002DE73C000025002205E707232B40002B4A
:1033400000D0E2E66BE0C046FF070000FFFF7FFF12
:1033500001F8FFFFFE070000280000F08FFA0300CD
:1033600018331F2B00DCB4E62A00083882409F4245
:1033700000DDB9E0DB1B581C1F2800DCA0E11500B4
:103380001F3BDD40202805D040231B1A9A40531EC6
:103390009A411543072300272B40D0E7C008620756
:1033A0000243E40837E7EA0863071A43D34BE4080B
:1033B0009F4200D12FE72403250B7C05640DC2E654
:1033C000CA462200024358D163460E00029C039372
:1033D000039B5746DA08E7E7C94CFF1A144092E608
:1033E000C84D7A1C2A4200D084E022000243002FFC
:1033F00000D0EFE0002A00D1E5E0624602990A43DE
:1034000000D1C5E06346C5188C46854280416444BE
:1034100040422418230202D5B94B01371C40BA465A
:103420000395D5E76246851AA842924152429146D9
:10343000029BE31A1A004B46D21A130091461A0255
:103440006CD44A464C462A4300D03AE60026002473
:10345000002578E6029953460D00203AD540202BEE
:1034600006D04022D21A0B00934062461A4393467C
:103470005B465A1E93411D4319E653465A1E012BC3
:1034800000D1C6E09D4EB24500D1BDE688460E0093
:103490000125382A10DC1F2A7FDC20212500891A0B
:1034A000070088408D40D740D440411E8841029B90
:1034B0003D431B1B054302936246551BAC4592419D
:1034C000029B52424F469C1AF6E5002D00D0B7E011
:1034D000002A00D1F0E001260E4063460298D90888
:1034E00042070A43C40896E6854CFF1A1440620757
:1034F000E40860E781498A4200D1C9E06346C11807
:1035000081428041029B4042E3181B18DD075C08A2
:10351000072349080D4317002B4010E763461D1A87
:10352000AC4592410126029B52421C1B8846A41ABC
:103530000E40C6E56346C518029B854280419C4605
:103540004042644424180127230200D4F5E60227F0
:1035500041E66346C51AA8428041029B4042E41AF4
:103560000127241AA8E5029D52462B00203AD34099
:1035700019005346202B06D04022D21A2B0093402C
:1035800062461A4393465D466B1E9D410D4315E608
:103590006207C0080243E4080DE711002700203944
:1035A000CF40202A05D040218A1A944025000543A7
:1035B0000395039D6A1E95413D437DE7002A00D196
:1035C00044E701260E406346D908029B5A070A4386
:1035D000DC08F0E6002A28D06246029FC0083A4381
:1035E00000D1DCE6620710438022E4081203144293
:1035F00009D0FD08154206D1634601262C00D808E3
:103600007B0718430E40420FC000C0085207024318
:1036100001E663461D1AAC459241029B52421C1BB7
:103620000E0088460127A41A46E56346D908029B86
:103630005A070A43DC08EEE56346029C0393C7E69B
:10364000C008002A00D1AAE6620710438022E408DD
:1036500012031442D7D0029FFD081542D3D163460E
:103660000126D8087B072C0018430E40CBE70A0040
:103670002700203AD740202905D04022521A9440F2
:10368000250005430395039D6A1E95412F4310E6CF
:1036900014000025002256E5029B604499466045CF
:1036A00092414C4452420500A4184CE71A001C00F9
:1036B0002A4300D0B3E6C9E6802400262403AEE501
:1036C00020210025091A17E5002200250B4C3AE5B8
:1036D000002D00D1F6E54B46DA1B9246002F00D1B3
:1036E0006FE6382A05DC80263604344388460E000F
:1036F000D1E688460E000125DEE6C046FF07000041
:10370000FFFF7FFFFE070000002D00D168E64B465B
:10371000D91B002F01D18A46A7E50127382900DDF2
:10372000C7E5802212041443AFE5C0460B00020037
:1037300070B5164D0C0382B0490000200092019331
:10374000240B490DDE0FA94204DD1148814203DD3F
:10375000104BF01802B070BD8020400320430E4C87
:10376000641A1F2C08DD0D4B5B1AD8400300584229
:10377000002EEFD11800EDE7094B009A9C4603009C
:1037800061448B40E2401343F1E7C046FE03000072
:103790001D040000FFFFFF7F33040000130400003E
:1037A000EDFBFFFF70B5002816D0C317C5185D40AC
:1037B000C40F280000F062F8104B1B1A5B055B0D6C
:1037C0000A2814DC02002E00153296400B22121A31
:1037D000D5402D032D0B03E00024002300250026F7
:1037E0001B052B43E40723433000190070BD0B3841
:1037F00085402D0300262D0BF2E7C0461E04000075
:103800008446100062468C461900634600E0C046BC
:103810001FB500F009F9002801D40021C8421FBDDE
:1038200010B500F049F84042013010BD10B500F06D
:10383000FBF8002801DB002010BD012010BDC046B0
:1038400010B500F0F1F8002801DD002010BD0120C6
:1038500010BDC04610B500F073F8002801DC002050
:1038600010BD012010BDC04610B500F069F8002859
:1038700001DA002010BD012010BDC0461C2101232B
:103880001B04984201D3000C10391B0A984201D343
:10389000000A08391B09984201D30009043902A221
:1038A000105C40187047C046040302020101010188
:1038B0000000000000000000F0B55746DE464E460E
:1038C0004546E0B50D000400E80F83460903D80F14
:1038D000090B824619488C461F0369005E00490D9A
:1038E0003F0B760D814218D086420FD00120B142A5
:1038F0000DD1BC450BD1944209D1D3451CD0002930
:1039000005D160462043431E984100E00120F0BCF1
:10391000BB46B246A946A046F0BD01208E42F6D174
:10392000614639430F0017432743F0D15B465246A7
:10393000981A431E9841EAE70020E8E7FF070000D5
:10394000F0B557464E464546DE46E0B50D000F033E
:10395000390B83B00400804601915800E90F314FC4
:10396000400D8C466E00190382469146760D090B78
:10397000D80FBE421FD0BA450FD0002E2FD15546CA
:10398000019E3443002D27D10A433AD0002C45D163
:1039900000281AD10120404217E011433BD1002EEC
:1039A00002D1019F2743F3D0844509D16346002B00
:1039B000F0D0604609E0019F27432CD1B24524D0C6
:1039C00063460220013B1840013803B0F0BCBB46FF
:1039D000B246A946A046F0BD002CD9D0E4E7544633
:1039E000002CEDD08445EBD15645E9DCDEDB019BB4
:1039F0008B42E5D8DAD1C845E2D80020C845E4D2E8
:103A0000D4E70020002CE0D0DAE7114303D184454D
:103A1000D6D10020D9E702204042D6E78445E6D03F
:103A2000CEE7C046FF070000F0B557464E46454674
:103A3000DE46E0B50D000F0304008046E80F390BA9
:103A4000844683B05800304F400D01911E03690039
:103A500082469146490D360BD80FB94220D0BA455F
:103A60000FD000292BD101990C435146002937D1A1
:103A7000324338D0002C44D1002819D101204042D3
:103A800016E0164313D1002902D1019F2743F3D03A
:103A9000844520D063460220013B1840013807E0EE
:103AA000019F274303D18A45F4D116431FD002203A
:103AB00003B0F0BCBB46B246A946A046F0BD544692
:103AC000002CE7D08445E5D15145E3DC03DB019BC5
:103AD000B342DFD80FD06346002BCFD06046E7E774
:103AE000002CC9D0D4E70020002CE1D0D2E78445D7
:103AF000D0D10020DCE7C845CCD80020C845D7D2BB
:103B0000E9E78445E3D0C5E7FF070000BFF34F8F27
:103B1000034B044ADA60BFF34F8FC046FDE7C0464F
:103B200000ED00E00400FA0500B587B01422002182
:103B300001A803F013F9094A516B0123194351639A
:103B4000526B1A400092009AC0220192039301A97D
:103B5000034801F085FF07B000BDC04600100240D9
:103B60000004005010B5064803785A1CD2B2027007
:103B70000449AA24CC540233037055238B5410BD3E
:103B8000400100204401002010B5064803785A1C6B
:103B9000D2B2027004495524CC5402330370AA23D4
:103BA0008B5410BD40010020440100200378AA2B53
:103BB00001D0002070474378552B01D00020F9E751
:103BC0004318013B1B78AA2B01D00020F2E74018D4
:103BD00002380378552B01D00020EBE70120E9E7FC
:103BE00030B50339455C0022002105E083181B79BC
:103BF0005918C9B2013292B2C3781B0284782343A8
:103C0000013B9A42F2DBA94201D0002030BD0120E5
:103C1000FCE770B505000C0004290DD9FFF7C6FFBD
:103C2000012801D0002070BD21002800FFF7D8FF37
:103C30000128F8D00020F6E70020F4E710B50400D2
:103C40000023002004E0E25C1018C0B201339BB2F4
:103C50008B42F8D310BD10B501F09AFB10BD10B522
:103C600001F0DEFB10BD000010B5837901338371D4
:103C7000C3790133C371054B1B78012B02D0FFF7C9
:103C8000EEFF10BDFFF7E7FFFBE7C046C3000020D3
:103C900010B5FFF7E0FF10BD10B5FFF7DCFF10BD5A
:103CA00010B502480921FFF7D6FF10BDC80000205B
:103CB00010B5104B1B78DAB2002B19D10E4B002136
:103CC00019700C4B013119700BE00B490B78DCB209
:103CD0000133DBB20B7083185979084B1955013247
:103CE000D2B2C3781B0281780B43023B9A42ECDBD1
:103CF00010BDC046960200209702002098020020C6
:103D000010B50379013B0371CA1E835C013B8354E8
:103D1000FFF7A5FF10BD10B5037901330371CA1E6B
:103D2000835C01338354FFF796FF10BDF0B5C646A0
:103D300000B580460F0016001E4C00232370D51CD2
:103D4000ADB2FFF70FFF23785A1CD2B222701A4986
:103D5000CD54981CC0B220702D0A8D54DA1CD2B2FA
:103D6000227001250D540433237043468B540023E5
:103D700008E0104C2078421C2270FD5C0E4C25544B
:103D80000133DBB2B342F4D30A4E3578291F89B22E
:103D90000A4C2000FFF752FF043C60550135357096
:103DA000FFF7F2FE31782000FFF755FF80BCB846E0
:103DB000F0BDC04640010020440100204801002021
:103DC00010B503490122F920FFF7B0FF10BDC0462E
:103DD0009502002010B503490122FA20FFF7A6FF43
:103DE00010BDC046C200002010B503490222FB20CE
:103DF000FFF79CFF10BDC046C000002030B583B067
:103E00006B46DD1DD87101F051FC04002B78862B28
:103E100001D003B030BD01222900FF20FFF786FF4B
:103E20000A2001F049FC1A4D280002F017FF2B6808
:103E3000012293432B60EFF3108182F310882B68EB
:103E40001F3293432B6081F31088FFF76DFE06E06D
:103E500001F02CFC001BFA22920090420BD840216A
:103E60000C4801F0B7FE0028F2D18021094801F08A
:103E7000B1FE0028ECD101F019FC001BFA239B00D5
:103E8000984203D901F048F8FFF740FEFFF73EFEE5
:103E9000003801400004005010B5044911230B7094
:103EA00001224020FFF742FF10BDC046440200201F
:103EB000144A53681B0C1B0430210B435360124BF4
:103EC000D360124B9360124B8021490259608021CC
:103ED00089025960136802210B4313600D4BD968A6
:103EE000802292000A43DA60596C802212020A434F
:103EF0005A645A6808218A435A601A6A07390A4381
:103F00001A627047580002405C020020342C0140C5
:103F100000000240002C0140F0B5D6464F46464610
:103F2000C0B584B0050003AC039123789846484B94
:103F30009A461878C0B2FFF735FC0022454BFEF7D1
:103F400077FA06000F004046FFF72CFC32003B00DA
:103F5000FEF788FDFEF74EFAC7B227706678534623
:103F60001878C0B2FFF71EFC00223A4BFEF760FA49
:103F7000009001913000FFF715FC009A019BFEF7BD
:103F800071FDFEF737FAC3B299466370A6785346BF
:103F90001878C0B2FFF706FC00222E4BFEF748FA55
:103FA000009001913000FFF7FDFB009A019BFEF7A6
:103FB00059FDFEF71FFAC0B2A070002308E01926D1
:103FC000254A69004919C900521816550133DBB258
:103FD000072B09D81C000722D21A494611410A00B2
:103FE000D207ECD53426EBE7082308E019261A4A55
:103FF00069004919C900521816550133DBB20F2B5D
:1040000009D81C000F22D21A390011410A00D20728
:10401000ECD53426EBE7102308E019260E4A690098
:104020004919C900521816550133DBB2172B09D8AC
:104030001C001722D21A010011410A00D207ECD548
:104040003426EBE704B0E0BCBA46B146A846F0BD62
:1040500094020020000059405C020020002305E08B
:10406000044AD218002111760133DBB2172BF7D99D
:104070007047C0465C020020074A53681B0C1B04B3
:1040800030210B43536013682F390B431360034AED
:1040900013680B431360704758000240002C014026
:1040A00010B5054B19680020FFF736FFFFF7D6FF64
:1040B000FFF7E2FF10BDC046306E000810B5FFF7F5
:1040C000F7FEFFF7EDFF012001F0F6FA10BD00004A
:1040D00010B503290BD0134B00221A70012119705F
:1040E00011490A7001322020FFF720FE10BD02782E
:1040F0000E4B1A7042785A7082789A7019680020B4
:10410000FFF70AFFFFF7AAFFFFF7B6FF054B0022F4
:104110001A7001321A7004490A702020FFF706FE57
:10412000E4E7C04645020020480200208C0200203F
:1041300010B50B4B00221A7001321A70094A107820
:1041400009490870022018705078487003201870D0
:1041500093788B7003221E30FFF7E8FD10BDC04638
:10416000450200208C0200204802002010B564287F
:1041700019D8134B18701878C0B201F023FA114BFC
:1041800019680020FFF7C8FEFFF768FFFFF774FF0C
:104190000D4B00221A7001321A700C490A7022204D
:1041A000FFF7C4FD10BD084B00221A7001211970E1
:1041B00006490A7001322220FFF7B8FDF2E7C04637
:1041C000940200208C0200204502002048020020BA
:1041D00010B5064B00221A7001321A70044B1B787E
:1041E00004490B702320FFF7A1FD10BD45020020FC
:1041F000940200204802002000B583B0144A916B5D
:10420000012319439163926B13400193019B114B5E
:10421000C22292009858104908408021C9010143E8
:10422000995080218900196098580C4908408021D4
:10423000C90301439950F8321A60002201210B2072
:1042400001F098FA0B2001F099FA03B000BDC046C6
:104250000010024000E100E0FF00FFFFFFFF00FF51
:1042600000B589B01422002103A802F077FD124B9B
:10427000596B012211435963596B11400191019906
:10428000586B0221084358635B6B19400291029BF3
:10429000039284239B030493059203A9074801F02A
:1042A000DFFB00220121052001F064FA052001F066
:1042B00065FA09B000BDC04600100240000400507D
:1042C0000B4B0C4A1A600C4A1A6002225A600B4AC5
:1042D0009A6002E00023012B05D0054BDB685B07E9
:1042E000F8D10123F7E7024B054A1A607047C04630
:1042F00000300040CCCC000055550000FF0F0000FE
:10430000AAAA000082B080229205002307E099004B
:104310000C4884466144096802C20133DBB22F2B8A
:10432000F5D9094A116C012319431164126C134029
:104330000193019B054A136803210B43136002B0EC
:104340007047C046002000080010024000000140F5
:1043500010B501F059F9094B187001F02DF9FF283B
:1043600004D001F029F9064B187010BD044B282227
:104370001A701878C0B201F025F9F6E7950200200E
:104380009402002010B5012800D010BD01F08EF974
:10439000054B1B68C31A312BF7D9044B01221A7045
:1043A000014B1860F1E7C046900200208F02002008
:1043B00072B6FEE700B593B03822002104A802F0DF
:1043C000CDFC10220021684602F0C8FC802080004D
:1043D00001F020FC0A230493F6330793002308938B
:1043E000402209923F3A0A9201320B920C920D93AD
:1043F00008330E9380239B020F93C023DB0410939A
:1044000080239B05119304A801F02EFC00280ED1F7
:1044100007230093053B019300230293039302219A
:10442000684601F0D9FE002803D113B000BDFFF7A4
:10443000BFFFFFF7BDFF000070B5FFF763FFFFF799
:1044400087FF01F013F9FFF7B5FFFFF709FFFFF74B
:10445000D3FE00F061FD00F0C3FEFFF731FF00F076
:1044600047FC00F067FB00F07FFC00F0BBFCFFF7AF
:1044700025FE012001F020F93A4B02256D421D6115
:10448000DA6801242243DA601A6822431A600120A4
:1044900001F012F9344B1D61DA682243DA601A68C0
:1044A00022431A60012001F007F9304B1D61DA68E0
:1044B0002243DA601A6822431A60012001F0FCF8F6
:1044C0003DE02B4B1B78DBB2F92B2FD00ED8222BE3
:1044D00026D004D9232B1FD1FFF77AFE1CE0202B16
:1044E00013D0212B18D1FFF723FE15E0FB2B20D092
:1044F000FF2B05D11E4B5878C0B2FFF77FFC0BE0B5
:10450000FA2B09D1FFF766FC06E01A4B197801393E
:1045100089B21948FFF7DCFD184B00221A7012E02F
:10452000134B5878C0B2FFF721FEF5E7FFF748FCC0
:10453000F2E7FFF759FCEFE7114B124A1A600F4BF5
:104540001B78012BBDD0104B1B78002BF4D00F4BE8
:104550001B78002BF0D0FFF79FFC0B4B00221A704A
:10456000EAE7C04600200040004801400044014006
:104570009802002097020020990200209602002055
:1045800000300040AAAA00008F020020C5000020D1
:1045900000B583B00D4B196C012211431964196CDD
:1045A0000A400092009ADA6B802149050A43DA63D7
:1045B000DB6B0B400193019B00220121032001F0E2
:1045C000D9F8032001F0DAF803B000BD0010024072
:1045D000FEE7FEE77047704710B501F05BF810BDCD
:1045E00010B501F0EBF810BD10B5012001F0FAFA9A
:1045F00010BD7047F0B5C64600B5224B1B689B0640
:1046000036D5204B20225A601F4A136801218B4364
:1046100013601E4BC22292009B5C002B2BD072B603
:104620001A4D1B4FEE5DF401A3195B00EB1801332B
:10463000FF331B889846701C0231FDF7D5FEE95503
:10464000C2229200AB5C013BAB54A4196400641914
:104650000D4BDC605A68120C120441460A435A6042
:104660001A6801210A431A600A4B00221A7062B6C6
:1046700080BCB846F0BD72B6064B01221A7062B615
:10468000F6E7C046000002401C000240A80E0020D1
:1046900006030000C5000020F0B5C64600B52C4B4F
:1046A0001B689B0437D52A4B802292015A60294A05
:1046B000136801218B431360274BC22292009B5C3D
:1046C000002B3FD072B6244D244FEE5DF401A319A8
:1046D0005B00EB180133FF331B889846701C0231D6
:1046E000FDF782FEE955C2229200AB5C013BAB5460
:1046F000A41964006419174BDC605A68120C120488
:1047000041460A435A601A6801210A431A60144B51
:1047100000221A7062B60E4B1B689B030FD50C4B20
:10472000802252025A60802292025A600D4A136817
:1047300001218B4313600C4A13688B43136080BCC8
:10474000B846F0BD72B6064B01221A7062B6E2E7B7
:1047500000000240440002409C0B002006030000C1
:10476000C400002058000240002C014010B50E4B40
:104770001B69DB0716D50C4B022252421A610B4C07
:104780002378013B23700A48092100F001FE2378B9
:10479000002B07D1044BDA6801218A43DA601A68DA
:1047A0008A431A6010BDC04600200040DD00002092
:1047B000D40000200C4B1B69DB0714D50A4B0222E6
:1047C00052421A61094B1B78002B0CD1074B012177
:1047D0001970074BDA680A43DA601A680A431A60EC
:1047E000044B03221A70704700440140C3000020AC
:1047F00000200040DD00002010B5064B1B69DB07E0
:1048000007D5044B022252421A610348092100F0E5
:1048100007FE10BD00480140C8000020F8B5CE4694
:10482000474680B54D4BDB69DB063ED54B4B1B68DD
:10483000DB063AD5494B10221A62494B1A6801210E
:104840008A431A605B689BB280256D00ED1AADB299
:10485000002D26D0434A1678F6B213780133012191
:104860000B401370127852023F4812183C4BDA602A
:104870005A68120C12048024640022435A601A6899
:104880000A431A60EFF3108481F31088334A936867
:104890003F310B43936084F310887602361800246E
:1048A00023E02F4A13680B431360C0BCB946B046DF
:1048B000F8BD0134A4B218E0FFF7F2F94BE0331968
:1048C0001B79012B04D001004846FFF719FA42E09A
:1048D00001004846FFF79DF901283CD14146484672
:1048E000FFF7E6F937E00134A4B2AC42DDD2220092
:1048F000E31CAB42F7DA30198146305DAA28F2D1C9
:10490000484640785528EED1A01C305C8046E01C1B
:10491000305C000247460743802040008742C8D8E9
:104920003800063080B2804642449542DBDBB11845
:10493000023909785529D6D1B218013A1278AA2A33
:10494000D1D1621DB25CFD2AB6D0FE2AB7D10100DA
:104950004846FFF789F94444A4B2C6E7003801404D
:1049600008000240990300209C070020F8B5CE46BD
:10497000474680B5484BDB69DB0643D5464B1B6891
:10498000DB063FD5444B10221A62444B1A680121C2
:104990008A431A605B689BB280256D00ED1AADB248
:1049A000002D2BD03E4A1678F6B213780133012140
:1049B0000B401370127852023A481218374BDA60E3
:1049C0005A68120C12048024640022435A601A6848
:1049D0000A431A60EFF3108481F310882E4A93681B
:1049E0003F310B43936084F3108800232E4A5362B7
:1049F0002E4A137076023618002418E0274A1368EE
:104A00000B431360C0BCB946B046F8BD0134A4B234
:104A10000DE039004846FFF73BF9E419A4B206E07F
:104A200039004846FFF738F9F7E70134A4B2AC4241
:104A3000E8D2231DAB42F8DA230030198146375DF6
:104A4000AA2FF2D14778552FEFD1A71CF05DE71CB4
:104A5000F75D3F02384380277F00B842D6D8070071
:104A60000637BFB23A199542DFDBB118023909782F
:104A70005529DAD1B218013A1278AA2AD5D10533CC
:104A8000F35CFD2BC9D0FE2BC3D0FC2BC8D0390062
:104A90004846FFF740F9C0E70044004030000240BC
:104AA000980300209C03002000440140C300002024
:104AB0007047000080235B00994228D017D8102946
:104AC00027D003D940292AD1032304E0012922D089
:104AD000042922D1FF3B1830144AD25C80180268A6
:104AE0001349C95C04238B409A43026070478023BA
:104AF0005B01994215D080235B02994201D10723C3
:104B0000E9E78023DB0099420DD10523E3E7042385
:104B1000E1E70223DFE70023DDE70823DBE70823E3
:104B2000D9E70623D7E70823D5E7C046A06E0008DB
:104B3000946E0008F0B5C64600B5ACB01422002152
:104B400027A802F00BF9202200211FA802F006F985
:104B50003022002113A802F001F92822002109A81F
:104B600002F0FCF880239B03099309A801F0FAFBEB
:104B7000002800D0A3E01822002103A802F0EEF8DC
:104B8000504E336C8022120113433364336C134054
:104B90000293029B4C4A13683F218B432B390B43F2
:104BA00013604A4B1A684A490A4010210A431A60A6
:104BB0001A6848490A401A601A6820218A431A6014
:104BC0001A6820318A431A601A688027BA433A4328
:104BD0001A601A6840490A408021490088460A4301
:104BE0001A601A683D490A401A6027A900240C80FF
:104BF0004C604F238B60CC600C61394D280001F074
:104C000031FF2B68BB432B60AB68364A1340AB6067
:104C1000354A136808210B43136060231F932094C7
:104C20002194229423942494259426941FAA07392E
:104C3000280001F05FFF01212800FFF73BFF6B68B0
:104C4000702293436B606B68284A13406B60AB68BB
:104C5000BB43AB6013941494159400236A46582107
:104C6000521813706B465A229B181C8080239B019C
:104C70001793189419941A9480239B041B931C94E3
:104C80001D941E9413A9280001F062FF726B01238A
:104C90001A437263726B13400193019B4346039363
:104CA000FE3B04930594069407940893A02003A95F
:104CB000C00501F051FC2CB080BCB846F0BDFFF738
:104CC00077FB58E7001002401008024058000240ED
:104CD000EFBFFFFFFFCFFFFFFFFCFFFFFFF3FFFF73
:104CE000002C0140F8BFFEFF182C0140FFFF0FFF12
:104CF00030B587B001AC14220021200002F02EF85C
:104D0000144B1A6C802109020A431A641B6C0B4075
:104D10000093009B104AC420800013581B021B0AFA
:104D20008021C9050B43135080231B0313600B4BD9
:104D30002380002363600A4AA260E360094D2100DA
:104D4000280001F08FFE2B68802213432B6007B0F0
:104D500030BDC0460010024000E100E0FF18000036
:104D6000A30600000020004030B587B001AC14223B
:104D70000021200001F0F2FF144B1A6C80218902FF
:104D80000A431A641B6C0B400093009B104BC52018
:104D9000800019580F4A11408022D2010A431A504C
:104DA000802292031A600C4B2380002363600B4A1D
:104DB000A260E36023610A4D2100280001F052FE49
:104DC0002B68802293432B6007B030BD0010024057
:104DD00000E100E0FF00FFFFFF1800002F7500005A
:104DE0000044014030B587B001AC142200212000FE
:104DF00001F0B4FF134B1A6C8021C9020A431A64F4
:104E00001B6C0B400093009B0F4AC5208000135879
:104E10000E490B408021C9030B43135011600C4B0A
:104E20002380002363600B4AA260E36023610A4D84
:104E30002100280001F016FE2B68802293432B608E
:104E400007B030BD0010024000E100E0FFFF00FFAE
:104E5000FF1800000F2700000048014070B5EFF375
:104E60001084012181F31088244A13680C208343A5
:104E70000343136084F31088EFF3108081F31088EC
:104E8000136810242343136080F310881C4B1D48C3
:104E900098601D48007840021C4D4019D860586841
:104EA000000C000480256D00284358601868FE3D02
:104EB00028431860186808263043186018680843AB
:104EC0001860EFF3108081F310889368383633430D
:104ED000936080F3108814620D4B0E489860EFF3D6
:104EE000108081F31088916870342143916080F3C1
:104EF00010881A682A431A6070BDC0460038014005
:104F00000800024024380140990300209C0700203B
:104F10001C00024028380140F0B5DE4657464E4698
:104F20004546E0B59BB02022002112A801F016FFF3
:104F3000182200210CA801F011FF2822002102A84C
:104F400001F00CFF0123029302A801F00BFA0028E4
:104F500000D0C6E0644B1A6C8021C9010A431A6470
:104F60001A6C0A400192019A5A6B02252A435A632D
:104F70005B6B2B400093009B402398460C930D9550
:104F80000E9500240F94012610961194574B9946C4
:104F90000CA9180001F0E0FA80270C970D950E95EA
:104FA0000F94109611940CA9484601F0D5FA504A76
:104FB00013683F218A468B430D390B4313604D4BD9
:104FC0001A684D4989460A401A601A684B498C464E
:104FD0000A401A601A681E35AA431A601A684146C8
:104FE0008A431A601A68BA433A431A601A684448F6
:104FF00002401A601A6843498B460A401A60424AC6
:10500000136851468B430C390B4313603F4B1A68AE
:1050100049460A4010210A431A601A6861460A404C
:105020001A601A68AA431A601A6841468A431A60CD
:105030001A68BA433A431A601A6802401A601A683A
:1050400059460A401A60324AC621890053581B0249
:105050001B0A535080231B0513601294E1235B024B
:1050600013931494159416940C231793189419946D
:10507000284C12A9200001F01BFEEFF3108286F3EA
:105080001088A368DB00DB08A36082F31088EFF3CD
:10509000108286F31088A3681F490B40A36082F337
:1050A000108823681D4A1340236063681C4A13401C
:1050B0006360A3682A229343A36023683343236079
:1050C000144BDB699B02FBD5124BDB695B02F7D506
:1050D000FFF7C4FE1BB0F0BCBB46B246A946A046D3
:1050E000F0BDFFF765F935E70010024000040050FD
:1050F0000008024008000240EFBFFFFFFFCFFFFFA4
:10510000FFFCFFFFFFF3FFFF040802401C0002400A
:1051100000E100E000380140FFFFFFF1FFFFFFDF8B
:10512000FFB7FFFF70B5EFF31084012181F3108802
:10513000244A13680C2083430343136084F31088CC
:10514000EFF3108081F31088136810242343136059
:1051500080F310881C4B1D4898601D480078400261
:105160001C4D4019D8605868000C000480256D0063
:10517000284358601868FE3D2843186018680826C0
:1051800030431860186808431860EFF3108081F30B
:105190001088936838363343936080F31088146224
:1051A0000D4B0E489860EFF3108081F310889168E2
:1051B00070342143916080F310881A682A431A6082
:1051C00070BDC0460044004030000240244400400E
:1051D000980300209C030020440002402844004023
:1051E000F0B5DE4657464E464546E0B591B020261E
:1051F0002022002108A801F0B1FD1822002102A8F8
:1052000001F0ACFD564BDA6B802189020A43DA6368
:10521000DA6B0A400192019A5A6B01252A435A63BC
:105220005B6B2B400093009B0423029302240394A6
:10523000049406950795A027FF0502A9380001F000
:105240008BF9082302930394049400240594069593
:10525000079502A9380001F07FF9424A13683F21FF
:105260008A468B430B390B4313603F4B1A683F4907
:1052700089460A401A601A683D4988460A401A6001
:105280001A68B2431A601A6840218C468A431A6031
:105290001A688027BA433A431A601A6835480240B0
:1052A0001A601A6834498B460A401A60334A1368F8
:1052B00051468B430A390B431360314B1A684946F8
:1052C0000A4010210A431A601A6841460A401A60CF
:1052D0001A68B2431A601A6861468A431A601A68EB
:1052E000BA433A431A601A6802401A601A6859466B
:1052F0000A401A60234BC72189005A58FF20824375
:105300005A50802252051A600894E1235B020993E7
:105310000A940B940C940C230D930E940F941A4C36
:1053200008A9200001F0C4FC6368184A13406360B8
:10533000A3682A229343A36023682B432360124B64
:10534000DB699B02FBD5104BDB695B02F7D5FFF7EE
:10535000E9FE11B0F0BCBB46B246A946A046F0BD7E
:10536000001002400808024030000240EFBFFFFF7B
:10537000FFCFFFFFFFFCFFFFFFF3FFFF0C08024022
:105380004400024000E100E000440040FFB7FFFF9E
:1053900070B50C001E4B1B78002B10D072B61C4B46
:1053A00000221A701B4AD06053681B0C1904214359
:1053B0005160136801210B43136062B670BD164B38
:1053C000C22292009B5C022BF8D8FF29F6D872B655
:1053D000114D124EAA5DD3019B185B005B190A00A8
:1053E0000100180001F0E6FCA85DC3011B185B007A
:1053F000EB180133FF331C8001300321FCF7F4FF6D
:10540000A955C2229200AB5C0133AB5462B6D5E71A
:10541000C50000201C000240A80E00200703000069
:1054200070B50C001E4B1B78002B10D072B61C4BB5
:1054300000221A701B4AD06053681B0C19042143C8
:105440005160136801210B43136062B670BD164BA7
:10545000C22292009B5C022BF8D8FF29F6D872B6C4
:10546000114D124EAA5DD3019B185B005B190A0017
:105470000100180001F09EFCA85DC3011B185B0031
:10548000EB180133FF331C8001300321FCF7ACFF24
:10549000A955C2229200AB5C0133AB5462B6D5E78A
:1054A000C4000020440002409C0B002007030000C1
:1054B0000D488546FFF7FCFA0C480D490D4A0023BC
:1054C00002E0D458C4500433C4188C42F9D30A4AB9
:1054D0000A4C002301E013600432A242FBD301F026
:1054E00045FCFEF7A9FFFEE700200020C0000020D9
:1054F00024010020E46E000824010020D4110020C3
:10550000FEE7F8231B069C466044C00A704770B54E
:1055100004684368C9000E00203E13D4FF25B5403F
:10552000FF268E40B443AB43046043600D00203D32
:105530000DD41600AE4035008A40144304602B435E
:10554000436070BD2026761AFF25F540E8E7202548
:105550006D1A1600EE403500EEE7416800687047AE
:1055600010B586B00023059302330193FFF7C9FFFE
:1055700003900123049300F081F905A901A800F02C
:105580002BFA040000F0FAF963425C41E0B206B085
:1055900010BD70B5040016001D0000F06FF9320058
:1055A0002B002100012000F0B7F9040000F0E6F91B
:1055B00063425C41E0B270BD014B1878C0B27047E5
:1055C00001C0000830B583B004000E4D2800FFF77D
:1055D000C4FF00900191220001216846FFF797FF68
:1055E0002800FFF7BDFF009A019B0648FFF7D1FF97
:1055F0000028F8D0FFF7E0FF001B43425841C0B23B
:1056000003B030BD00C00008014B1878C0B270472D
:10561000FF1F000810B50400114B1978002901D1B3
:10562000012010BDFA208000FCF76EFD01000D4B3B
:105630001868FCF769FD00F0ADF800280DD1032CC7
:1056400001D90120EDE7013000222100404200F0A5
:1056500091F8054B1C600020E3E70120E1E7C0461C
:10566000E4000020E0000020E800002010B5084A17
:10567000116880235B000B4313600320FFF7CAFF10
:10568000041E02D00124200010BDFEF781FFFAE7BE
:1056900000200240034B1B78034A11685B1813601B
:1056A0007047C046E4000020B4110020014B186888
:1056B0007047C046B411002070B50400FFF7F6FF34
:1056C0000500631C02D0044B1B78E418FFF7EEFFC3
:1056D000401BA042FAD370BDE400002070B5002842
:1056E00011DB8308134DC0339B005C59032210402B
:1056F000C000FC3216008640B44389010A40824053
:1057000022435A5170BD0F230340083B9B080633C8
:105710009B00094A944663445C6803221040C00021
:10572000FC3215008540AC4389010A408240224387
:105730005A60E7E700E100E000ED00E00138802377
:105740005B0498420FD2094A50600948036A1B0261
:105750001B0AC02109060B43036200239360073331
:105760001360002070470120FCE7C04610E000E015
:1057700000ED00E010B5FFF7B1FF10BD002805DB1C
:105780001F22024001239340014A13607047C04624
:1057900000E100E010B5FFF7D1FF10BD30B5054CBA
:1057A00061690125294361610260BFF36F8F436026
:1057B00030BDC046002002407047704710B52A4BEC
:1057C0001B692A4A13402A4A9268510721D5284A60
:1057D0001469002B2AD1244B1B69DB070CD5224B03
:1057E00001221A61224B9B68022B2CD0204B0022F5
:1057F0009A602000FFF7E0FF1D4B9B68002B07D14C
:10580000194A53691B490B405361194B00221A7006
:1058100010BD154841699143416117490A4202D0C0
:10582000134AD468D5E7124A5469D2E7104A51683E
:105830000B4353600C4B0D4919610023936020000A
:10584000FFF7BBFFC7E70A4A9369013B9361002B4F
:1058500003D1074B00229A60CBE7516901315161B6
:10586000106900F0A9F8C4E700200240FAC3000064
:10587000B8110020FFFFFFFC01000400084B5B692A
:10588000002B01DB00207047054B064A9A60064A50
:105890009A605B69002B01DB0020F4E70120F2E74E
:1058A0000020024023016745AB89EFCD70B50400AD
:1058B000FFF7FCFE0500144B1B69DB0308D5631CD6
:1058C000F9D0FFF7F3FE401BA042F4D303201AE007
:1058D0000D490A690D4B16001E400D4808611A4219
:1058E0000CD1094B1B695B030CD5631CF9D0FFF786
:1058F000DDFE401BA042F4D3032004E0054B5E60B4
:10590000012000E0002070BD00200240FAC300002A
:10591000FBC30000B8110020F8B507000C0015000B
:105920001E00144B1B78012B22D0124B01221A703F
:1059300000225A60FA208000FFF7B8FF00280DD13E
:10594000012F0FD02900200001F04AFAFA20800030
:10595000FFF7ACFF084A5369BB435361054B002274
:105960001A70F8BD2A0033002000FFF717FFEDE79B
:105970000220F6E7B81100200020024010B5FA20FE
:105980008000FFF793FF064B5969802212060A43F5
:105990005A615B69002B01DB012010BD0020FCE790
:1059A00000200240034A5369034380204002184309
:1059B0005061704700200240044A53690448034084
:1059C000C9001943034B0B43536170470020024049
:1059D00007E0FFFF0200010070B504000E001E4B3F
:1059E0001B78012B36D01C4B01221A7000225A6002
:1059F000FA208000FFF75AFF002827D104236360B4
:105A00002368042B14D001235B423360A568A3688C
:105A1000E2689B18AB4214D960682900FFF7CCFFFD
:105A2000FA208000FFF742FF002809D10135EEE798
:105A30000430FFF7B7FFFA208000FFF737FF05E0DB
:105A40003560064A536902218B435361024B0022A1
:105A50001A7070BD0220FCE7B8110020002002403F
:105A6000F0B5002359E086685F000324BC40A643DC
:105A7000CC68BC4034438460446894434E68360923
:105A8000012232409A402243426056E0DE08083646
:105A9000B600375805321A4092000F249440A743AD
:105AA0000C69944022003A43325059E0032600E04A
:105AB0000026A64034003C43424E183292009451D6
:105AC0003768EA433E00AE434C68E40201D53E002D
:105AD0002E433C4C266067683E0016404C68A4028A
:105AE00001D53E002E43374C66608426A7593E0000
:105AF00016404C68A40301D53E002E43314C842748
:105B0000E6518026A65932404C68E40301D52A00AC
:105B100032432C4D80242A5101330C682200DA4094
:105B20004ED001229A40250015401442F4D04E6810
:105B300003243440013C012C95D94C6803222240B7
:105B4000032A08D0C4685E000322B24094438A68E6
:105B5000B2402243C2604C6803222240022A95D000
:105B600004685E0003221700B740BC434F683A4008
:105B7000B240224302604C68C02292021442CBD051
:105B80009A0814001834A4000E4EA75903241C4090
:105B9000E4000F26A640B743A026F605B04287D002
:105BA000094EB04208D0094EB04207D0084EB0426C
:105BB00000D17BE705267CE701267AE7022678E715
:105BC000F0BDC0460018024000040050000800501C
:105BD000000C005003690B4201D0012070470020E7
:105BE000FCE7704710B50400094BDB68184204D18C
:105BF000074B1B69234205D110BD054BD860FFF749
:105C0000F0FFF5E7024B1C612000FEF7BBFBF3E75A
:105C10000018024010B5104A136810490B400343A6
:105C2000136080239B00984201D0002010BD0C4BD4
:105C30001B685800C01840000A49FCF765FA01309B
:105C4000054B5B695B0503D5002803D00138F7E7F6
:105C50000020EBE70320E9E700700040FFF9FFFFB9
:105C6000E000002040420F0070B582B0041E00D159
:105C700031E20368DB0739D5C14A916838230B400C
:105C8000D16803220A40102B26D0082B26D0636847
:105C90008022520293427FD0A022D202934200D1AE
:105CA00081E0B74B1A68B7490A401A601A68B649CA
:105CB0000A401A606368002B00D180E0FFF7F6FC11
:105CC0000500AF4B1B689B0310D4FFF7EFFC401B94
:105CD0006428F6D90320FFE1032AD6D1A84B1B681C
:105CE0009B0303D56368002B00D1F7E123689B0772
:105CF00031D5A34A916838230B40D16803220A406A
:105D0000102B6AD0002B6BD19D4A1268520503D527
:105D1000E268002A00D1E3E1994842689B490A40C1
:105D2000616909020A434260002B0DD1036898495A
:105D30000B4021690B4303600368DB0A07221A400A
:105D4000944BD340944A1360944B1868FFF762FC5D
:105D5000002800D0C6E123681B0700D481E0884BEF
:105D60009A6838231340182B73D0A369002B00D1F5
:105D7000B4E0834A136E01210B431366FFF796FCD0
:105D800005007F4B1B6E9B076BD4FFF78FFC401BFE
:105D90000228F6D903209FE1794A116880235B022B
:105DA0000B43136086E7764B19688022D2020A43C0
:105DB0001A601968802252020A431A607AE7FFF7D4
:105DC00075FC05006E4B1B689B038FD5FFF76EFCBF
:105DD000401B6428F6D903207EE1022A92D193E782
:105DE000E368002B22D0664A136869490B40216999
:105DF0000B431360116880235B000B431360FFF7B4
:105E000055FC05005E4B1B685B0506D4FFF74EFC96
:105E1000401B0228F6D903205EE159494B685B4AD2
:105E200013406269120213434B6094E7544A1368AB
:105E30005B490B401360FFF739FC0500504B1B68B2
:105E40005B0588D5FFF732FC401B0228F6D90320FA
:105E500042E14B4B1B6E9B0703D5A369002B00D17E
:105E600042E123685B0700D4A2E0454B9A683823DF
:105E70001340202B45D0424BDB6BDB004AD4404B18
:105E8000DA6B802149050A43DA63DB6B0B4001932F
:105E9000019B0125434B1B68DB053DD5A368012B06
:105EA0004ED0052B52D0364BDA6D01218A43DA658C
:105EB000DA6D03318A43DA65A368002B50D0FFF70F
:105EC000F5FB06002E4BDB6D9B076FD4FFF7EEFB57
:105ED000801B354B9842F5D90320FDE0284A136E0C
:105EE00001218B431366FFF7E1FB0500244B1B6E7A
:105EF0009B07B6D5FFF7DAFB401B0228F6D9032033
:105F0000EAE01F4BDB6D9B0752D5A368002B4FD1F6
:105F10000120E1E00025BDE7224A116880235B00F3
:105F20000B431360FFF7C2FB06001E4B1B68DB052B
:105F3000B4D4FFF7BBFB801B0228F6D90320CBE0CB
:105F40000F4AD36D01210B43D365B5E70C4BDA6DD6
:105F500004210A43DA65DA6D03390A43DA65ABE7EF
:105F6000FFF7A4FB0600064BDB6D9B071ED5FFF772
:105F70009DFB801B0C4B9842F5D90320ACE0C0463A
:105F800000100240FFFFFEFFFFFFFBFFFF80FFFF4F
:105F9000FFC7FFFF0024F400E0000020E80000201D
:105FA000FFFEFFFF0070004088130000012D1ED08F
:105FB000E369002B00D199E0544A916838220A40E5
:105FC000102A60D0022B18D0504A136850490B4059
:105FD0001360FFF76BFB04004C4B1B689B014BD518
:105FE000FFF764FB001B0228F6D9032074E0474A40
:105FF000D36B48490B40D363DAE7444A13684449FA
:106000000B401360FFF752FB0500404B1B689B01E0
:1060100006D5FFF74BFB401B0228F6D903205BE0B7
:106020003A4AD3683C491940236A606A0343A06A2C
:1060300000020343E06A0343206B0343606B0343A6
:106040000B43D360116880235B040B431360D1685A
:1060500080235B050B43D360FFF728FB04002B4B29
:106060001B689B0106D4FFF721FB001B0228F6D911
:10607000032031E000202FE0244AD36827490B4059
:10608000D360002028E0012B32D0204BDA680323B4
:106090001340216A8B422DD170231340616A8B42D9
:1060A0002AD1FE21C9011140A36A1B02994225D1C0
:1060B000F8239B031340E16A8B4221D1E0231B05A7
:1060C0001340216B8B421DD1520F5207636B9A42D2
:1060D0001AD1002000E0012002B070BD0120FBE7D2
:1060E0000120F9E70120F7E70120F5E70020F3E7B9
:1060F0000120F1E70120EFE70120EDE70120EBE7C8
:106100000120E9E70120E7E70120E5E70010024070
:10611000FFFFFFFEFFFFFFEF8C80C111FCFFFEEED3
:1061200010B52A4B9B6838221A4207D1274B1A68B0
:10613000D20A072313402648D84010BD234B9A6843
:1061400038231340082B3BD0204B9A683823134048
:10615000102B0DD01D4B9A6838231340202B31D0C3
:106160001A4B9A6838231340182B26D00020E4E7F6
:10617000164AD1680D3B0B40D26812090721114025
:106180000131032B0FD01248FBF7BEFF0F4BDA682B
:10619000120A7F23134058430C4BD968490F013131
:1061A000FBF7B2FFC9E70B48FBF7AEFF074BDA6816
:1061B000120A7F2313405843EEE7FA20C001BCE7E0
:1061C0000448BAE780200002B7E7C046001002404A
:1061D0000024F40000127A0070B504000D000028BD
:1061E00000D1AAE0574B1A68072313408B4221D3F2
:1061F00023689A070ED55B0705D5534A9168E023BB
:10620000DB010B439360504A936850490B40A168EF
:106210000B4393602368DB0754D56368012B20D0C0
:10622000022B3BD0002B3FD1474A126852051CD4A9
:1062300001206AE0434A136807218B432B43136014
:10624000FFF734FA06003F4B1A6807231340AB42AE
:10625000CED0FFF72BFA801B3D4A9042F3D90320A2
:1062600053E0394A1268920369D537498A68072092
:10627000824313438B60FFF719FA0600324B9B6889
:1062800038221A406368DB009A421BD0FFF70EFAEF
:10629000801B2F4B9842F1D9032036E02A4A12681E
:1062A0009201E2D4012030E0032B05D0264AD26DC2
:1062B0009207DAD4012028E0234A126E9207D4D440
:1062C000012022E01F4B1A6807231340AB421DD860
:1062D00023685B0706D51C4A93681E490B40E1689A
:1062E0000B439360FFF71CFF174B9A68120A0F23AA
:1062F0001340194A9B009A581F231340D840174B4C
:106300001860174B1868FFF785F970BD0D4A1368C0
:1063100007218B432B431360FFF7C8F90600094B95
:106320001A6807231340AB42D2D0FFF7BFF9801B96
:10633000074B9842F3D90320E7E70120E5E7012066
:10634000E3E7C0460020024000100240FFF0FFFFDC
:1063500088130000FF8FFFFF546E0008E00000204C
:10636000E8000020F0B583B0040003689B0362D509
:106370006D4BDB6BDB001ED46B4BDA6B8021490568
:106380000A43DA63DB6B0B400193019B0126674AEA
:10639000116880235B000B431360FFF787F905004A
:1063A000624B1B68DB0508D4FFF780F9401B02280D
:1063B000F6D9032502E00026E9E70025002D23D1C8
:1063C000594BD96DC02292000B001340114210D0DE
:1063D000626A9A420DD0544AD36D55490B40D06D34
:1063E000802149020143D165D16D52480140D165F8
:1063F000D365DB0710D4002D06D14B4AD36D4C4931
:106400000B40616A0B43D365012E15D1464AD36B0D
:1064100049490B40D3630FE0FFF748F90700424BAF
:10642000DB6D9B07E7D4FFF741F9C01B434B984254
:10643000F5D90325DFE700252368DB0706D53A4AAF
:10644000536D03218B4361680B4353652368DB065F
:1064500006D5354A536D3A490B40A1680B43536545
:1064600023689B0506D5304A536D36490B40616958
:106470000B43536523685B0506D52B4A536D3249A0
:106480000B40A1690B43536523689B0606D5264A3A
:10649000536D2E490B40E1680B43536523685B0441
:1064A0000BD5214A536D9B009B08E1690B43536553
:1064B000E2698023DB059A4220D023689B020BD53A
:1064C000194A536D22490B40216A0B435365226AD6
:1064D0008023DB039A4218D023681B050BD5124A90
:1064E000536D1C490B4021690B435365226980237E
:1064F000DB019A4210D0280003B0F0BD0A4AD168EF
:1065000080235B020B43D360D7E7074AD16880231F
:106510005B040B43D360DFE7034AD16880235B024F
:106520000B43D360E7E7C046001002400070004014
:10653000FFFCFFFFFFFFFEFFFFFFFFEF88130000E0
:10654000FFF3FFFFFFFFF3FFFFFFCFFFFFCFFFFFD3
:10655000FFFFBFFFFF3FFFFFF0B5002216E00B6912
:106560009C46C4682B006B435E00F618F743B443A7
:1065700066465E433443C4604C68022C25D04D68A7
:1065800004683C406B432343036001320C682300E2
:10659000D3403AD00123934025001D401C42F4D043
:1065A0004B68013B012BDAD88F6883682C006C4361
:1065B00066003619B3437C4323438360CC68436849
:1065C000AB436C4323434360C9E7FF2D0DD84C69AF
:1065D000A446066A1C006C436C4325012D1BAE4388
:1065E00065466C4334430462C9E74C69A446466A75
:1065F0002D0A2C006C436C436C4325012D1BAE43CC
:1066000065466C4334434462B9E70020F0BD0000A6
:10661000054B9A68120A0F231340044A9B009A58AC
:106620001F231340D840704700100240546E0008EA
:10663000054B9A68120B07231340044A9B009A5893
:106640001F231340D840704700100240346E0008EA
:1066500010B50E4BDA6803231340032B13D00C4AFA
:106660000A4CE3681B0A7F2018405043E3681B096B
:10667000072119400131FBF747FDE168490F01315E
:10668000FBF742FD10BD034AEAE7C0460010024096
:106690000024F40000127A0010B50A4B9A683823DF
:1066A0001340082B0CD0102B02D1FFF7D1FF10BDE7
:1066B000044B1A68D20A072313400348D840F6E770
:1066C0000248F4E7001002400024F40000127A00AF
:1066D00010B50400FFF7E0FF2060FFF799FF60604E
:1066E000FFF7A6FFA06010BD10B5032801D0002061
:1066F00010BD164B5B6D034000040343144A9342E4
:106700000FD0144A934216D0134A934206D0FFF793
:10671000C3FFFFF77DFFFFF78BFFE9E7FFF7BCFF44
:10672000E6E70A4B1A688023DB00100018401A4283
:10673000DED00A48DCE7054BDB6D02221000184072
:106740001A42D5D080200002D2E7C0460010024095
:106750000200030003000300010003000024F40012
:1067600070B5036A0126B3430362036A4568826910
:10677000164C22400C681443022293430A691343C7
:10678000B3434A681343124A904205D0114A9042DB
:1067900002D0114A904212D1082293434A699200D2
:1067A0001343042293438A68920013430B4A2A40FE
:1067B0008D692A430A4D2A40CD696D001543456015
:1067C0008461CA6842630362002070BD8CFFFEFFD3
:1067D000002C01400044014000480140FFFEFFFF43
:1067E000FFFDFFFF70B5036A1026B3430362036A1F
:1067F00044688269184D2A400D682D022A432025DD
:10680000AB430D692D012B43B3434D682D012B4341
:10681000124DA84205D0124DA84202D0114DA842F7
:1068200013D18025AB434D69AD012B434025AB43CC
:106830008D68AD012B430C4D25408C69A400254388
:106840000A4C2540CC69E4002C4344608261CA684C
:1068500082630362002070BDFF8CFFFE002C0140AC
:106860000044014000480140FFFBFFFFFFF7FFFF2E
:1068700070B5036A1B4E33400362036A4468C26901
:10688000194D2A400D682A43184D2B400D692D02E1
:106890002B4333404D682D022B43154DA84205D0A4
:1068A000144DA84202D0144DA84213D1134D1D40DF
:1068B0004B699B021D43124B1D408B689B022B436F
:1068C000104D25408C69240125430F4C2540CC698F
:1068D00064012C434460C261CA68C2630362002041
:1068E00070BDC046FFFEFFFF8CFFFEFFFFFDFFFFF8
:1068F000002C01400044014000480140FFF7FFFF29
:10690000FFFBFFFFFFEFFFFFFFDFFFFF70B5036A35
:10691000144E33400362036A4468C269124D2A4030
:106920000D682D022A43114D2B400D692D032B4379
:1069300033404D682D032B430D4DA84205D00D4D1E
:10694000A84202D00C4DA84204D10C4D25408C69C0
:10695000A4012C434460C261CA680264036200203F
:1069600070BDC046FFEFFFFFFF8CFFFEFFDFFFFFA4
:10697000002C01400044014000480140FFBFFFFFE0
:1069800030B5036A144D2B400362036A426D134C09
:1069900022400C682243124C23400C6924042343F8
:1069A0002B404C68240423430E4CA04205D00E4CCF
:1069B000A04202D00D4CA04206D14468064D2C40A6
:1069C0008D692D022C4344604265CA68816D8265E1
:1069D0000362002030BDC046FFFFFEFF8FFFFEFFB9
:1069E000FFFFFDFF002C0140004401400048014032
:1069F00030B5036A144D2B400362036A426D134C99
:106A000022400C6824022243114C23400C692405C7
:106A100023432B404C68240523430E4CA04205D051
:106A20000D4CA04202D00D4CA04206D144680C4D42
:106A30002C408D69AD022C4344604265CA68C26532
:106A40000362002030BDC046FFFFEFFFFF8FFFFE57
:106A5000FFFFDFFF002C01400044014000480140DF
:106A6000FFFFFBFF03681D4A904206D08022D2053B
:106A7000904202D01A4A904203D1702293434A684E
:106A80001343164A90420FD08022D20590420BD079
:106A9000134A904208D0134A904205D0124A9042BD
:106AA00002D0124A904203D1114A1A40CB681343D4
:106AB00003608B68C3620B888362084B984205D0E1
:106AC000094B984202D0094B984201D10B690363EC
:106AD000436901221343436100207047002C0140A9
:106AE00000040040002000400044014000480140F4
:106AF000FFFCFFFF10B50B001100802252019342F2
:106B000020D00FD8102B1AD080225200934202D1ED
:106B1000FFF7AEFE05E0012B02D1FFF721FE00E0FA
:106B2000012010BD8022520293420ED080225203D7
:106B3000934202D1FFF75CFFF3E70120F1E7FFF793
:106B400051FEEEE7FFF7E2FEEBE7FFF719FFE8E79C
:106B50000B7B8A681343194A13404A681343184A47
:106B600013400A681343174A1340CA891343164A4D
:106B700013400A691343154A1340CA6A1343144A5F
:106B800013404A691343134A13408A691343124A54
:106B9000904202D0436400207047104A13404A6A72
:106BA00013430F4A1340CA6913430E4A13400A6A3B
:106BB00013430D4A13408A6A1343EBE7FFFBFFFFC1
:106BC000FFF7FFFFFFEFFFFFFFDFFFFFFFBFFFFF4D
:106BD000FFFFF0FFFFFFFFEF002C0140FFFF0FFF63
:106BE000FFFFFFFEFFFFFFFDFFFFFFDF10B504000B
:106BF00008000B2A16D80299002913D08021090217
:106C00008B4210D0FF231340124A9B009958FBF788
:106C10007BFA029B5B08C0180299FBF775FA000427
:106C2000000CE06010BDFF2313400A4A9B009958F6
:106C3000FBF76AFA4000029B5B08C0180299FBF759
:106C400063FA054A02400004400C07230340134343
:106C5000E360E7E7AC6E0008F0FF00000F4B9842DE
:106C600004D00F4B98420DD0012070470D4B196B8B
:106C70008022D2010A431A631A6B0B490A401A6335
:106C80000020F2E7074BD96A802292020A43DA62B7
:106C9000DA6A06490A40DA620020E6E70038014075
:106CA0000044004000100240FFBFFFFFFFFFFDFF58
:106CB00030B587B004000D000368DB0742D40368D9
:106CC000214A1A408B6809690B4369690B43E969DA
:106CD0000B4313430360EB6842681C490A401343AB
:106CE0004360AB6982681A490A4013438360194BB9
:106CF00098420DD0184B984215D001202B68E26ABB
:106D00000F218A431B041B0C1343E36207B030BD01
:106D10000320FFF7E9FC0100002911D06868002872
:106D200006D10120EAE703A8FFF7D2FC0599F3E7B3
:106D30002A68EB6900902000FFF758FF0020DDE78C
:106D40000120DBE70120E1E7F369FFEFFFCFFFFF61
:106D5000FFFCFFFF003801400044004003008218A0
:106D6000934200D1704719700133F9E770B50026DE
:106D70000C4C0D4D641BA410A64209D1002600F056
:106D800023F80A4C0A4D641BA410A64205D170BD1D
:106D9000B300EB5898470136EEE7B300EB5898473D
:106DA0000136F2E7DC6E0008DC6E0008E06E0008D9
:106DB000DC6E0008002310B59A4200D110BDCC5CF7
:106DC000C4540133F8E70000F8B5C046F8BC08BC6D
:106DD0009E467047F8B5C046F8BC08BC9E46704752
:106DE00001B40248844601BC604700BFED000020AA
:106DF000182500080A250008E824000814250008C2
:106E0000E8240008FE270008E824000814250008EC
:106E10000A2500080A250008FE2700081425000896
:106E2000D0240008D0240008D024000870280008CE
:106E30000000000000000000000000000000000052
:106E4000000000000100000002000000030000003C
:106E5000040000000000000000000000000000002E
:106E60000000000000000000000000000000000022
:106E7000000000000100000002000000030000000C
:106E800004000000060000000700000008000000E9
:106E900009000000000008000000080008000000D1
:106EA000000000000404043C3C000000010000005D
:106EB00002000000040000000600000008000000BE
:106EC0000A0000000C00000010000000200000007C
:0C6ED000400000008000000000010000F5
:046EDC00E9200008A1
:046EE000C1200008C5
:106EE4000300010101010000AA550300FFFDFC5548
:106EF400AA000000AA550300FFFCFB55AA030000EA
:106F04000024F400010000000400000010B50C4A45
:106F140054698023DB0223435361EFF3108472B678
:106F2400002303E004C904C00133DBB23F2BF9D9C9
:106F3400034B1B69DB03FBD484F3108810BDC046EC
:046F440000200240E7
:04000005080054B1EA
:00000001FF
