:020000040800F2
:100000000020002019090008E5070008E70700089C
:1000100000000000000000000000000000000000E0
:10002000000000000000000000000000E9070008D8
:100030000000000000000000EB070008ED070008CA
:10004000690900086909000869090008F50700083E
:1000500069090008690900086909000869090008B8
:100060000000000069090008690900086909000822
:100070006909000869090008690900086909000898
:100080006909000869090008690900086909000888
:1000900000000000690900086909000869090008F2
:1000A000690900086909000869090008DD030008FA
:0C00B00069090008690900080000000050
:1000C00010B5064C2378002B07D1054B002B02D02E
:1000D000044800E000BF0123237010BD440000204D
:1000E00000000000B4150008044B10B5002B03D02D
:1000F0000349044800E000BF10BDC04600000000F6
:1001000048000020B4150008002243088B4274D335
:1001100003098B425FD3030A8B4244D3030B8B4208
:1001200028D3030C8B420DD3FF22090212BA030C11
:100130008B4202D31212090265D0030B8B4219D3F2
:1001400000E0090AC30B8B4201D3CB03C01A524112
:10015000830B8B4201D38B03C01A5241430B8B425A
:1001600001D34B03C01A5241030B8B4201D30B0343
:10017000C01A5241C30A8B4201D3CB02C01A52416A
:10018000830A8B4201D38B02C01A5241430A8B422D
:1001900001D34B02C01A5241030A8B4201D30B0216
:1001A000C01A5241CDD2C3098B4201D3CB01C01A30
:1001B000524183098B4201D38B01C01A524143093A
:1001C0008B4201D34B01C01A524103098B4201D328
:1001D0000B01C01A5241C3088B4201D3CB00C01A95
:1001E000524183088B4201D38B00C01A524143080D
:1001F0008B4201D34B00C01A5241411A00D2014632
:10020000524110467047FFE701B5002000F006F8A4
:1002100002BDC0460029F7D076E770477047C04658
:1002200010B50B480B4B036000230371013343717E
:1002300001225242026121324261603282610362D4
:1002400000F0B0FC002800D110BD00F0FDF9FBE784
:10025000600000200030024082B00268074B9A42E2
:1002600001D002B07047064B9A6B802149010A43C6
:100270009A639B6B0B400193019BF2E700300240B5
:100280000010024082B0054A516B022319435163AA
:10029000526B13400193019B02B070470010024063
:1002A000F8231B069C466044C00A704710B5074BF4
:1002B0001C680748074A084900F0B6FCC04384425E
:1002C00001D0002010BD0120FCE7C046FCBF0008A3
:1002D00060000020FC9F00000020000801E0002BCF
:1002E00008D10C4BDA6980210B0013401142F6D083
:1002F0000123F4E7074A906201E0002808D1054A8B
:10030000D2694021080010401142F6D01800F4E7ED
:100310007047C0460038014010B5184C200001F06D
:1003200083F82368012293432360EFF3108182F363
:10033000108823681F329343236081F310880023C1
:100340000F4A13600F4A10680321014011600E49E3
:1003500001204042802408510134FF3408510B49E8
:100360000B664B668B66CB6691690133FF330B439B
:10037000936100F08DFF00F0F9FA10BD00380140E4
:1003800010E000E00000014000E100E00018024041
:1003900010B5FFF78BFF002807D00B4B1B680B4AEB
:1003A000134080229205934200D010BDFFF7B4FFA6
:1003B000074B1B68074A1360074A1360024A12681A
:1003C00082F308889847F0E7002000080000FE2F1D
:1003D000042000088C0000208800002010B5244B69
:1003E000DB699B060AD5224B5B6ADBB2214A13709C
:1003F000214A1278002A02D0022A0DD010BD992B72
:1004000003D06620FFF76AFFF8E71B4B02221A7041
:100410008820FFF763FFF1E7184801884A1C92B271
:10042000028017484354012A0ED0144B1A88154BEA
:100430009A42E3D1124B1B78012B11D0022B13D01F
:100440000E4B00221A80D9E70378013BDBB2012B67
:10045000EBD90A4B00221A806620FFF73FFFE4E742
:10046000054B03221A70EBE7034B04221A70E7E7EF
:10047000003801408500002084000020900000200A
:100480009400002008080000F0B5C64600B586B00C
:1004900000230593354A5678360693781B041E438D
:1004A000D3781B021E4313791E4380231B019846F9
:1004B000B04453791B0292799B189BB2002B08D150
:1004C0002A482B4A002101F049F806B080BCB84602
:1004D000F0BD322000F08CFC00F072FC0028FBD153
:1004E0003000FFF7DDFE022301930390013B0493EC
:1004F000322000F07DFC05A901A800F00FFD0028C6
:10050000F6D1082729E0194BDD5D7A1C9A5C1202AE
:100510001543BA1C9A5C12041543FA1C9A5C120625
:1005200015433A1D9C5C7A1D9A5C12021443BA1D55
:100530009A5C12041443FA1D9B5C1B061C43322078
:1005400000F056FC2A0023003100012000F086FC58
:100550000028F4D108360837BFB24645D3D300F09F
:10056000AFFC322000F044FCAAE7C0469400002013
:100570000808000070B51CE0EFF31082012686F336
:100580001088204C23682025AB43236082F3108819
:10059000FFF77AFFEFF3108286F3108823682B436E
:1005A000236082F310887720FFF798FE164B022213
:1005B0001A70154B1B78032BDED0042BF9D1772052
:1005C000FFF78CFEEFF31082012686F310880D4CA6
:1005D00023682025AB43236082F31088FFF754FF84
:1005E000EFF3108286F3108823682B43236082F395
:1005F00010885520FFF772FE0A2000F095FFFFF7E4
:10060000C7FED6E7003801408400002000B587B05F
:100610001422002101A800F0A1FF094A516B012317
:1006200019435163526B1A400092009AC022019202
:10063000039301A9034800F0B5FC07B000BDC04614
:10064000001002400004005072B6FEE710B52F4AB9
:10065000136807218B4305390B4313602B4B1A6832
:1006600007231340022BF9D1294A1168FE330B43AB
:10067000136001E0012B09D0254B19688022D200BC
:100680000B0013401142F5D00123F3E7204AD06854
:100690002049084020490143D16010688021490465
:1006A00001431160D068802149050143D16001E018
:1006B000012809D0164A11688022920408001040CF
:1006C0001142F5D01800F3E7114A936813490B4023
:1006D0009360936807218B4305390B4393600C4B60
:1006E0009A6838231340102BF9D1094A93680C49B2
:1006F0000B4093600B4800F02BFF032000F04AF9F9
:10070000002800D110BDFFF79FFFC0460020024027
:10071000001002408C80FF1F02080020FFF0FFFF46
:10072000FF8FFFFF0090D00310B500F05FF9FFF7D7
:100730008DFFFFF7A7FDFFF773FDFFF767FF96201B
:10074000400000F0F1FE154B1B695B0603D4134B10
:100750001B691B0611D5FFF71BFE00F051F8EFF3E4
:100760001081012383F310880D4A1368202003436E
:10077000136081F31088FFF7FDFE00F041F8EFF3FE
:100780001081012383F31088054A10681F33034347
:10079000136081F31088FFF7EDFEC046000400509F
:1007A0000038014000B583B00D4B196C0122114394
:1007B0001964196C0A400092009ADA6B802149058D
:1007C0000A43DA63DB6B0B400193019B002200219B
:1007D000032000F07DF9032000F07EF903B000BD96
:1007E00000100240FEE7FEE77047704710B500F0CA
:1007F00011F910BD10B500F083FA10BD704700006C
:1008000030B591B02022002108A800F0A7FE1822E0
:10081000002102A800F0A2FE384B5A6D03218A4342
:100820005A651A6C8021C9010A431A641A6C0A407D
:100830000192019A5A6B022422435A635B6B234054
:100840000093009B4023029303942D4D02A928009E
:1008500000F062FC80230293039400240494059426
:100860000694079402A9280000F056FC254AC621E8
:10087000890053581B021B0A535080231B05136029
:100880000894E1235B0209930A940B940C940C23C3
:100890000D930E940F941C4C08A9200000F0EEFD5F
:1008A000EFF31081012282F31088A368DB00DB08DC
:1008B000A36081F31088EFF3108182F31088A3689E
:1008C00012480340A36081F31088236810490B404D
:1008D000236063680F490B406360A3682A218B4340
:1008E000A360236813432360074BDB699B02FBD59E
:1008F000054BDB695B02F7D511B030BD001002403B
:100900000004005000E100E000380140FFFFFFF16B
:10091000FFFFFFDFFFB7FFFF0D488546FFF76EFFC4
:100920000C480D490D4A002302E0D458C45004334A
:10093000C4188C42F9D30A4A0A4C002301E0136020
:100940000432A242FBD300F011FEFFF7EDFEFEE7FA
:10095000002000200000002044000020781600083D
:1009600044000020BC080020FEE7704710B5084B8B
:1009700001214942D9620022DA6219631A6399623D
:100980009A6259625A62FFF7F0FF002010BDC0461C
:100990000010024010B50400114B1978002901D154
:1009A000012010BDFA208000FFF7AEFB01000D4BC7
:1009B0001868FFF7A9FB00F09BF800280DD1032C65
:1009C00001D90120EDE7013000222100404200F072
:1009D0007FF8054B1C600020E3E70120E1E7C046FB
:1009E00004000020000000200800002010B5084A84
:1009F000116880235B000B4313600320FFF7CAFFDD
:100A0000041E02D00124200010BDFFF7CBFEFAE740
:100A100000200240034B1B78034A11685B181360E7
:100A20007047C046040000209C080020014B186855
:100A30007047C0469C08002070B5002811DB830871
:100A4000134DC0339B005C5903221040C000FC32A0
:100A500016008640B44389010A40824022435A511D
:100A600070BD0F230340083B9B0806339B00094AD7
:100A7000944663445C6803221040C000FC321500B9
:100A80008540AC4389010A40824022435A60E7E72F
:100A900000E100E000ED00E0013880235B049842B3
:100AA0000FD2094A50600948036A1B021B0AC02181
:100AB00009060B4303620023936007331360002091
:100AC00070470120FCE7C04610E000E000ED00E0C8
:100AD00010B5FFF7B1FF10BD002805DB1F22024053
:100AE00001239340014A13607047C04600E100E0D3
:100AF00010B5FFF7D1FF10BD70B500250EE0AC00BA
:100B00000B5D1B060C19667836043343A678360253
:100B10003343E67804683343236001359308AB42DE
:100B2000EDD803231C001440134205D0012C06D03D
:100B3000022C09D0032C10D00368186870BDAB00DC
:100B40000268CB5C1370F3E7AB00CA5C1202CB18EF
:100B50005B78134302681380ECE7AD004A5D120234
:100B600049194B7813430268138003688A781A7016
:100B7000E2E770B5002508E0AC000B5B1B040C1924
:100B8000668804683343236001355308AB42F3D8C9
:100B9000D20703D50368AD006A5A1A800368186843
:100BA00070BD000010B5041E39D0437F002B25D046
:100BB000022363772379002B24D12368194A5A61D1
:100BC0002268936818218B4393606379002B22D1AC
:100BD0002368012252421A612268936860218B4384
:100BE00061690B4393602268936880218B43A169FC
:100BF0000B43936001236377002010BD0377FFF759
:100C00002BFBD5E7E268A168200000F035F800284A
:100C1000DBD00120F1E7236822691A61DCE70120BB
:100C2000EBE7C046B71DC10470B50400022343774B
:100C30000068836801252B438360236A022B17D049
:100C4000032B0FD0012B0FD000200123637770BD41
:100C500020689D006D58056001339342F8D32368E6
:100C60001868F2E70023F8E72000FFF745FFECE7FC
:100C70002000FFF77EFFE8E730B5CB072AD51F231A
:100C80001C00013B002C06D01F241C400D00E54039
:100C90002C00E407F4D5102A18D009D8002A0BD06C
:100CA000082A03D10F2B07D9012014E0012012E0FC
:100CB000182A11D1062B11D80368596101688B6875
:100CC0001820834313438B60002004E0072BF3D9E3
:100CD000012000E0012030BD0120FCE70120FAE7FF
:100CE00030B5054C61690125294361610260BFF39C
:100CF0006F8F436030BDC046002002407047704790
:100D000010B52A4B1B692A4A13402A4A9268510798
:100D100021D5284A1469002B2AD1244B1B69DB07F3
:100D20000CD5224B01221A61224B9B68022B2CD03E
:100D3000204B00229A602000FFF7E0FF1D4B9B68CC
:100D4000002B07D1194A53691B490B405361194BBA
:100D500000221A7010BD154841699143416117493D
:100D60000A4202D0134AD468D5E7124A5469D2E73E
:100D7000104A51680B4353600C4B0D491961002315
:100D800093602000FFF7BBFFC7E70A4A9369013B66
:100D90009361002B03D1074B00229A60CBE7516986
:100DA00001315161106900F0A9F8C4E70020024048
:100DB000FAC30000A0080020FFFFFFFC01000400B0
:100DC000084B5B69002B01DB00207047054B064A8E
:100DD0009A60064A9A605B69002B01DB0020F4E709
:100DE0000120F2E70020024023016745AB89EFCDE7
:100DF00070B50400FFF71AFE0500144B1B69DB03F6
:100E000008D5631CF9D0FFF711FE401BA042F4D3B4
:100E100003201AE00D490A690D4B16001E400D48CB
:100E200008611A420CD1094B1B695B030CD5631C8A
:100E3000F9D0FFF7FBFD401BA042F4D3032004E0F0
:100E4000054B5E60012000E0002070BD00200240E4
:100E5000FAC30000FBC30000A0080020F8B507009B
:100E60000C0015001E00144B1B78012B22D0124BD6
:100E700001221A7000225A60FA208000FFF7B8FFA2
:100E800000280DD1012F0FD02900200000F0A0FB79
:100E9000FA208000FFF7ACFF084A5369BB43536157
:100EA000054B00221A70F8BD2A0033002000FFF71E
:100EB00017FFEDE70220F6E7A0080020002002401F
:100EC00010B5FA208000FFF793FF064B5969802286
:100ED00012060A435A615B69002B01DB012010BD39
:100EE0000020FCE700200240034A536903438020AE
:100EF000400218435061704700200240044A536981
:100F000004480340C9001943034B0B435361704726
:100F10000020024007E0FFFF0200010070B504005E
:100F20000E001E4B1B78012B36D01C4B01221A7071
:100F300000225A60FA208000FFF75AFF002827D1CC
:100F4000042363602368042B14D001235B423360C5
:100F5000A568A368E2689B18AB4214D960682900B1
:100F6000FFF7CCFFFA208000FFF742FF002809D1ED
:100F70000135EEE70430FFF7B7FFFA208000FFF7F6
:100F800037FF05E03560064A536902218B43536100
:100F9000024B00221A7070BD0220FCE7A00800205E
:100FA00000200240F0B5002359E086685F0003246A
:100FB000BC40A643CC68BC4034438460446894433E
:100FC0004E683609012232409A402243426056E080
:100FD000DE080836B600375805321A4092000F2452
:100FE0009440A7430C69944022003A43325059E0A0
:100FF000032600E00026A64034003C43424E18324F
:10100000920094513768EA433E00AE434C68E402D4
:1010100001D53E002E433C4C266067683E001640DA
:101020004C68A40201D53E002E43374C66608426EE
:10103000A7593E0016404C68A40301D53E002E433C
:10104000314C8427E6518026A65932404C68E4038F
:1010500001D52A0032432C4D80242A5101330C68DB
:101060002200DA404ED001229A4025001540144259
:10107000F4D04E6803243440013C012C95D94C68CF
:1010800003222240032A08D0C4685E000322B24033
:1010900094438A68B2402243C2604C6803222240D3
:1010A000022A95D004685E0003221700B740BC43B3
:1010B0004F683A40B240224302604C68C02292021C
:1010C0001442CBD09A0814001834A4000E4EA7592D
:1010D00003241C40E4000F26A640B743A026F605D3
:1010E000B04287D0094EB04208D0094EB04207D076
:1010F000084EB04200D17BE705267CE701267AE75F
:10110000022678E7F0BDC0460018024000040050F7
:1011100000080050000C0050F0B5002216E00B69EA
:101120009C46C4682B006B435E00F618F743B4433B
:1011300066465E433443C4604C68022C25D04D683B
:1011400004683C406B432343036001320C68230076
:10115000D3403AD00123934025001D401C42F4D0D7
:101160004B68013B012BDAD88F6883682C006C43F5
:1011700066003619B3437C4323438360CC684368DD
:10118000AB436C4323434360C9E7FF2D0DD84C6943
:10119000A446066A1C006C436C4325012D1BAE431C
:1011A00065466C4334430462C9E74C69A446466A09
:1011B0002D0A2C006C436C436C4325012D1BAE4360
:1011C00065466C4334434462B9E70020F0BD00003B
:1011D000054B9A68120A0F231340044A9B009A5841
:1011E0001F231340D840704700100240001600082B
:1011F000054B9A68120B07231340044A9B009A5828
:101200001F231340D840704700100240E01500082B
:1012100010B50E4BDA6803231340032B13D00C4A8E
:101220000A4CE3681B0A7F2018405043E3681B09FF
:10123000072119400131FEF767FFE168490F0131CD
:10124000FEF762FF10BD034AEAE7C0460010024005
:101250000024F40000127A0010B50A4B9A68382373
:101260001340082B0CD0102B02D1FFF7D1FF10BD7B
:10127000044B1A68D20A072313400348D840F6E704
:101280000248F4E7001002400024F40000127A0043
:10129000234A116880235B000B43136001E0012B9C
:1012A00009D01F4B19688022D2000B001340114255
:1012B000F5D00123F3E71A4A50681A490840802103
:1012C000C90101435160002191600131FF3111607A
:1012D00001E0002809D0124A116880229202080019
:1012E00010401142F5D01800F3E70D4A8021490063
:1012F000116001E0002809D0094A11688022920497
:10130000080010401142F5D01800F3E7044B80228A
:101310005201DA6000229A61013A1A627047C046AF
:1013200000100240FF80FFFF10B50400FFF794FF9C
:101330002060FFF74DFF6060FFF75AFFA06010BD0F
:1013400010B5032801D0002010BD164B5B6D034083
:1013500000040343144A93420FD0144A934216D018
:10136000134A934206D0FFF777FFFFF731FFFFF7ED
:101370003FFFE9E7FFF770FFE6E70A4B1A688023B3
:10138000DB00100018401A42DED00A48DCE7054BAB
:10139000DB6D0222100018401A42D5D080200002D6
:1013A000D2E7C04600100240020003000300030021
:1013B000010003000024F40010B5040008000B2A0B
:1013C00016D80299002913D0802109028B4210D02F
:1013D000FF231340124A9B009958FEF795FE029B8B
:1013E0005B08C0180299FEF78FFE0004000CE06055
:1013F00010BDFF2313400A4A9B009958FEF784FE54
:101400004000029B5B08C0180299FEF77DFE054A6A
:1014100002400004400C072303401343E360E7E766
:1014200040160008F0FF00000F4B984204D00F4B0D
:1014300098420DD0012070470D4B196B8022D201CC
:101440000A431A631A6B0B490A401A630020F2E739
:10145000074BD96A802292020A43DA62DA6A0649A5
:101460000A40DA620020E6E700380140004400400C
:1014700000100240FFBFFFFFFFFFFDFF30B587B048
:1014800004000D000368DB0742D40368214A1A40B8
:101490008B6809690B4369690B43E9690B43134383
:1014A0000360EB6842681C490A4013434360AB6920
:1014B00082681A490A4013438360194B98420DD041
:1014C000184B984215D001202B68E26A0F218A43FD
:1014D0001B041B0C1343E36207B030BD0320FFF76E
:1014E0002FFF0100002911D06868002806D10120D3
:1014F000EAE703A8FFF718FF0599F3E72A68EB6905
:1015000000902000FFF758FF0020DDE70120DBE717
:101510000120E1E7F369FFEFFFCFFFFFFFFCFFFFD3
:10152000003801400044004082B0084B1B68019322
:10153000019B431C00D00130002805D0034B1B68E1
:10154000DB03F9D50138F7E702B0704710E000E09F
:10155000014B18607047C04600000020030082184D
:10156000934200D1704719700133F9E770B5002636
:101570000C4C0D4D641BA410A64209D1002600F0AE
:1015800019F80A4C0A4D641BA410A64205D170BD7F
:10159000B300EB5898470136EEE7B300EB58984795
:1015A0000136F2E77016000870160008741600087D
:1015B00070160008F8B5C046F8BC08BC9E467047D7
:1015C000F8B5C046F8BC08BC9E4670470000000055
:1015D00001B40248844601BC604700BF0D000020F2
:1015E00000000000000000000000000000000000FB
:1015F00001000000020000000300000004000000E1
:1016000000000000000000000000000000000000DA
:1016100000000000000000000000000000000000CA
:1016200001000000020000000300000004000000B0
:10163000060000000700000008000000090000008C
:10164000010000000200000004000000060000008D
:10165000080000000A0000000C000000100000005C
:101660002000000040000000800000000001000099
:04167000E900000885
:04167400C1000008A9
:101678000024F400010000000400000010B50C4A2A
:1016880054698023DB0223435361EFF3108472B65D
:10169800002303E004C904C00133DBB23F2BF9D9AE
:1016A800034B1B69DB03FBD484F3108810BDC046D1
:0416B80000200240CC
:0400000508000919CD
:00000001FF
