:020000040800F2
:1020000000200020F561000893570008955700084C
:1020100000000000000000000000000000000000C0
:1020200000000000000000000000000097570008BA
:102030000000000000000000995700089B570008AE
:10204000456200084562000845620008A357000881
:1020500045620008456200084562000879480008AA
:1020600000000000AB570008AD570008D957000822
:1020700045620008456200084562000845620008A4
:1020800045620008456200084562000829580008BA
:1020900000000000895800084562000845620008F9
:1020A00045620008456200084562000819590008A9
:0C20B0001D5A00084562000800000000F6
:1020C00010B5064C2378002B07D1054B002B02D00E
:1020D000044800E000BF0123237010BD7001002000
:1020E0000000000034950008044B10B5002B03D00D
:1020F0000349044800E000BF10BDC04600000000D6
:102100007401002034950008002243088B4274D3E8
:1021100003098B425FD3030A8B4244D3030B8B42E8
:1021200028D3030C8B420DD3FF22090212BA030CF1
:102130008B4202D31212090265D0030B8B4219D3D2
:1021400000E0090AC30B8B4201D3CB03C01A5241F2
:10215000830B8B4201D38B03C01A5241430B8B423A
:1021600001D34B03C01A5241030B8B4201D30B0323
:10217000C01A5241C30A8B4201D3CB02C01A52414A
:10218000830A8B4201D38B02C01A5241430A8B420D
:1021900001D34B02C01A5241030A8B4201D30B02F6
:1021A000C01A5241CDD2C3098B4201D3CB01C01A10
:1021B000524183098B4201D38B01C01A524143091A
:1021C0008B4201D34B01C01A524103098B4201D308
:1021D0000B01C01A5241C3088B4201D3CB00C01A75
:1021E000524183088B4201D38B00C01A52414308ED
:1021F0008B4201D34B00C01A5241411A00D2014612
:10220000524110467047FFE701B5002000F0F0F89A
:1022100002BDC0460029F7D076E7704703460B435E
:102220007FD4002243088B4274D303098B425FD3CF
:10223000030A8B4244D3030B8B4228D3030C8B42FB
:102240000DD3FF22090212BA030C8B4202D31212E1
:10225000090265D0030B8B4219D300E0090AC30BB6
:102260008B4201D3CB03C01A5241830B8B4201D363
:102270008B03C01A5241430B8B4201D34B03C01A4C
:102280005241030B8B4201D30B03C01A5241C30AC4
:102290008B4201D3CB02C01A5241830A8B4201D335
:1022A0008B02C01A5241430A8B4201D34B02C01A1F
:1022B0005241030A8B4201D30B02C01A5241CDD2C4
:1022C000C3098B4201D3CB01C01A524183098B420F
:1022D00001D38B01C01A524143098B4201D34B01F8
:1022E000C01A524103098B4201D30B01C01A52415B
:1022F000C3088B4201D3CB00C01A524183088B42E2
:1023000001D38B00C01A524143088B4201D34B00CA
:10231000C01A5241411A00D201465241104670473C
:102320005DE0CA0F00D04942031000D34042534041
:1023300000229C4603098B422DD3030A8B4212D301
:10234000FC22890112BA030A8B420CD38901921133
:102350008B4208D3890192118B4204D389013AD070
:10236000921100E08909C3098B4201D3CB01C01A45
:10237000524183098B4201D38B01C01A5241430958
:102380008B4201D34B01C01A524103098B4201D346
:102390000B01C01A5241C3088B4201D3CB00C01AB3
:1023A000524183088B4201D38B00C01A5241D9D2CB
:1023B00043088B4201D34B00C01A5241411A00D24C
:1023C0000146634652415B10104601D34042002B48
:1023D00000D54942704763465B1000D3404201B5C7
:1023E000002000F005F802BD0029F8D016E770477C
:1023F0007047C04670B500220C4B04000D0001F080
:1024000033FA002804D12000290001F08FF970BDB3
:10241000064B00222000290000F0ECFD01F086F9B7
:1024200080231B069C466044F1E7C0460000E04163
:10243000F0B5DE46454657464E46E0B587B00092B9
:1024400001930B031B0B9B46CA0F4B0004008046F5
:102450005B0D029200D16AE1D44A934200D18CE133
:102460005946420FC9000A43802109041143C200A2
:102470009046CF4A894692469A440023002403930B
:10248000009E019F3B031B0B9B467B0030005B0DB6
:10249000FD0F002B00D128E1C44A934200D177E11F
:1024A0005946720FC9000A438021090411438B4623
:1024B000BF49F2008C4651466344CB1A9A4600232A
:1024C000029E6E400F2C27D8BA49A40009598F46A6
:1024D000CB464246029E039B022B16D0032B00D113
:1024E000A6E2012B00D0DFE000220023002490466A
:1024F0001B052343F60733434046190007B0F0BCE1
:10250000BB46B246A946A046F0BD00220024904634
:10251000A64BEDE72E00DFE7CB4500D2D4E100D19A
:10252000CFE101235B429C46444648460027E244F3
:102530005B46150E1B021D43190C2B04120200955D
:102540001D0C914602910395FFF764FE02006A4359
:102550000B04210C804619438A4209D9009D0123AE
:10256000AC465B4261449C46E0448D4200D8FBE1AE
:10257000881A0299FFF74EFE039A24044243090485
:10258000240C03000C43A24206D90099013B8C465F
:102590006444A14200D8E1E1A01A424612041A4361
:1025A00093464B4659461B0C1D0004930B044946A9
:1025B0000904090C0C001B0C5C43120C6B4388468D
:1025C00051436A43250CAC465B186344994203D9D6
:1025D000802149028C466244190C24041B04240CFB
:1025E0008A181C19904202D316D1A74214D25B4616
:1025F000009D013B4F4405934F459B41AC465B42D8
:102600006344C018854200D3A1E1824200D9F6E1BB
:1026100000D1F1E1059B9B463C1BA742BF41009DB9
:10262000801A7F42C01B854200D1D0E10299FFF79A
:10263000F1FD039A0B044243210C070019438A421F
:1026400000D978E1881A0299FFF7E4FD039A24047F
:1026500042430904240C03000C43A24200D95DE16B
:102660004146A41A3A041A43049D13041B0C59430F
:1026700047466B439C46100C47430B0CBC446344D9
:1026800068439F4203D980256D02AC4660441F0C0D
:1026900009041B04090C3F185B18BC4200D202E17C
:1026A00000D1FDE001231A43434B5344002B00DCCF
:1026B000AEE0510700D098E15946C90106D5594608
:1026C0003E4B194080238B46DB0053443C498B42F0
:1026D00000DD1AE75946D208490711435A465B05FF
:1026E00054028846240B5B0D02E75A46009B1A43AE
:1026F00000D17EE05B46002B00D100E1584601F09E
:10270000BDF8020003000B3A1D27009EBA1A1900FB
:102710005846D64008398840320002439346009A12
:102720008A40284953448A469A440023C8E65B46B7
:102730000343994656D05B46002B00D1CDE0584666
:1027400001F09CF80B235B429C46020084446646E1
:102750001D239B1B260011005846DE400839884087
:1027600033000343994623008B409846164B0024C0
:102770009B1A9A460023039382E65A4602439146E7
:102780002AD100229A46022390460824039377E632
:102790005A46009B1A430D4B9C46E244002A17D12F
:1027A00002231C4300239B46023389E6FF070000F7
:1027B00001FCFFFF64950008FF030000FFFFFFFE20
:1027C000FE070000F30300000DFCFFFF01F8FFFF10
:1027D000032332001C4373E69A460323D9460C2494
:1027E00003934DE6002398469A460133042403934D
:1027F00046E601231C4300239B46013360E6002389
:10280000802498460026924B240371E6012252420E
:102810000121C91A382900DD66E61F2900DCABE07A
:102820001F204042C31A5846D8400300202904D034
:1028300058468849514488400243511E8A411A43F0
:10284000072319000024114013420CD00F2313401A
:10285000042B00D1F9E0111D91429B410A005B421B
:1028600059075B021C0BD2080A43904600233FE63F
:1028700080244B462403234209D05B46234206D1E1
:102880001C4324032E009046714B240B30E6802419
:102890004B4624031C432403029E6D4B240B27E666
:1028A000002B00D100E70098511E84466444844206
:1028B00000D284E0BC4200D2AEE000D1C1E00A0008
:1028C000F0E6424500D92CE64B46DC075808434663
:1028D0005B081C434346DF072AE600F0CFFF1523C1
:1028E0009C4684440200634620321C2B00DC2EE709
:1028F00023000838834099460023984636E700F0C5
:10290000BDFF02000300153220331C2A00DCFBE669
:1029100000990838814000228B4602E70099013B6C
:102920008C466444A14200D99AE6A24200D897E6B8
:10293000831E644494E6AC466144013F8D4200D955
:1029400080E68A4200D87DE6871E61447AE68542A9
:1029500000D05FE6B94500D95CE656E6A24200D851
:102960001AE6831E644417E68A4200D800E6AC46A5
:10297000831E98466144FBE537481400504482406A
:102980005B4617008340CC407A1E974123433B436C
:102990001A005B46CB40510709D00F211140042992
:1029A00005D0111D9142924152429B180A00190212
:1029B00000D455E7002201230024904698E50A0040
:1029C000BC4200D06EE64B4500D06BE66CE6234B74
:1029D000234A5344924500DA18E7012149420A1D6F
:1029E0008A42894149428B4466E60F2111400429FD
:1029F00000D161E61100F2E7BC4200D80AE60223EA
:102A00005B429C4600994F444F459B41E3448C46B2
:102A10005B426344C018FFE54946009D48004845B5
:102A20008941AC46494261448146023A6418C7E78D
:102A300080245B4624031C4324039046044B240B50
:102A400056E59945E8D30A00BDE7002308E7C046EC
:102A5000FF0700003E0400001E040000FF0300000A
:102A600002FCFFFFF0B55746DE464E464546E0B550
:102A70001F000B031B0B16009A46CA0F4B000400E5
:102A8000934687B05B0D00D1D5E0BB4A934200D19D
:102A9000F8E05146420FC9000A438021090411435E
:102AA000C2009146B54A8A469D1800239846029373
:102AB0003C037B00FA0F3000240B5B0D009200D129
:102AC00096E0AD4A934231D0720FE4002243802455
:102AD00024041443A94AF000944663445B195A1C29
:102AE0000192424600260A2A42DC5A4600994A4090
:102AF00093464246022A32DC013A012A00D949E1D2
:102B0000022E00D1CAE0012E3DD100230024002274
:102B100010005A461B052343D2071343190007B080
:102B2000F0BCBB46B246A946A046F0BD924B264338
:102B3000EB18002E00D1BBE00322414611435A4658
:102B4000884600994A40802109018C462900614449
:102B5000019141460A2900DD33E2934603264246AD
:102B600001279740A6213A00C9000A400F4231D000
:102B7000029E022E00D135E2032E00D1D2E154464E
:102B80004846012EC1D0019A7D4B94466344002BE8
:102B900000DCC0E0420709D00F220240042A05D021
:102BA000021D82428041404224181000E20106D5F5
:102BB000744B019A1C4080239446DB006344724AA4
:102BC00093426BDC6207C00864025B050243240B7E
:102BD0005B0D9DE7902189000F4263D188223A4224
:102BE00000D1D7E0009BA2469B4681460296BFE7F4
:102BF0002300334300D17FE0002C00D1ADE1200061
:102C000000F03CFE020003000B3A1D201900821A5E
:102C100030000839D0408C400443300088405B4A83
:102C2000EB1A944663445A1C0192424600260A2A33
:102C300000DC5AE79CE753460343994654D0534679
:102C4000002B00D177E1504600F018FE0B235B42C9
:102C50009C460200844411005046083988401D23D8
:102C6000804660461B1A2000D840030040460343BC
:102C70009A4623008B4099460023444D9846AD1A4E
:102C8000029315E752460243914626D100221D00C9
:102C90000223924608329046029309E7002400225C
:102CA000354B35E7002380249B462403324B2FE726
:102CB0000222414611438022120194462A006244B6
:102CC000884601920A2900DD52E75A460020009901
:102CD00004004A40934602260BE70C221D00032302
:102CE000814690460293E3E600239A4604339846D1
:102CF000033B00250293DBE6424601331A432B00D7
:102D000090465A1C019242460024002001260A2ABD
:102D100000DCEAE62CE70122D21A382A00DDF4E6CC
:102D20001F2A00DC2AE11F214942CB1A2100D94089
:102D30000B00202A05D0164A019D94466544AC40FC
:102D40002043421E904118430723190000240140EC
:102D500003420CD00F230340042B00D140E1031D9C
:102D60008342A4411800644261076402240BC20834
:102D700000230A43CCE6C046FF07000001FCFFFF2A
:102D8000FF030000FFFFFFFEFE0700000DFCFFFF3A
:102D90003E04000049464A460904090C0D00160C81
:102DA000020C0004000C4543AC4605007543A846E0
:102DB00015000F007543009202952A00009D6F4395
:102DC00065462D0CA94647444F44B84505D9150022
:102DD000802252029046454402953D0C039565467B
:102DE0002D043F042D0CAC463D0065440495250C94
:102DF0002404240CAC4625007543A84665460F0004
:102E00006943414489466743390C49446E438845C8
:102E100003D980225202904646440D0CA846350044
:102E200045440595039D3F04A8463F0C0904C91974
:102E300088444546039555462E04360C2F0C350024
:102E40004543784381463800A8462D0CAA46009A8F
:102E5000504372434A445244914503D980256D0240
:102E6000A9464844150CA94645462D042D0CA846F4
:102E700065467D43120448449044A94632006546A5
:102E800062436E437C43170C3619BF19BC4203D909
:102E900080246402A446E144029C039EA446059D4E
:102EA00066448E428941AC4612043C04120CA218BE
:102EB0006244494254184644A4464645A4418246C9
:102EC0006442A046AA4292418C458941E244D044E2
:102ED000494252420A43A045A44182458941644285
:102EE00049420C4341463F0CD2191219CC0D0499AA
:102EF00070020843411E884141464A44F60D520281
:102F00003043490214430843D20135D50122430816
:102F100002401343E0071843640834E6009BA246CE
:102F20009B4681468024534624031C4324034A467F
:102F30002E4B240BECE500F0A1FC15239C468444A9
:102F40000200634620321C2B00DC84E600239946F5
:102F50002300083883409A468EE600F08FFC02007A
:102F60000300153220331C2A00DC4EE60200340038
:102F7000083A0020944052E6019304E61C4B2100DD
:102F80009C460300019DD3406544A94019430300BA
:102F9000AB40581E834119430800D4404B0709D069
:102FA0000F230B40042B05D00B1D8B428041404268
:102FB00024181800230200D4D6E60123002400229E
:102FC000A6E50F29AAD1802352461B031A42A9D095
:102FD0001C42A7D11C43009B02009B46034B97E574
:102FE0000024C1E60024014B220091E5FF07000008
:102FF0001E040000F0B54E464546DE465746E0B595
:1030000085B0009001910C034F00CE0F610A009C27
:10301000B046640F0C4300997F0DC80011001A00E0
:103020001B039C460091019251004B0D9946019B58
:10303000009DD90F63466A0F5B0A1343EA0094466A
:103040009346C14A03900293914500D1CDE00125FA
:1030500069404D467D1BAA468E4200D180E0002D7E
:1030600000DC35E34946002900D1DFE0974200D17A
:1030700094E152460125382A19DC8022029B120471
:103080001343029352461F2A00DDE3E153462022F8
:103090006146029DD21A9540D9400D436146914048
:1030A0000A00511E8A411543029ADA40A41A451BB0
:1030B000A84280414042241A230200D43DE1640228
:1030C000640A002C00D147E1200000F0D7FB030088
:1030D000083B20212800CA1AD0409C4002009D4095
:1030E00022439F4200DD77E1D81B0130091A2C00F2
:1030F0008D40C4406B1E9D411300C2408B40254350
:10310000002714001D436B0709D00F232B40042B0D
:1031100005D02B1DAB42AD416D4264191D00230249
:1031200000D440E1884A0137974200D101E10126ED
:1031300043468649ED0821404A072A437C054D0253
:103140002D0B640D1E4024052C43F607344310005C
:10315000210005B0F0BCBB46B246A946A046F0BD72
:10316000002D00DCD0E24946002900D0D4E06146C1
:10317000029B194300D12BE1691E012D00D1D9E139
:10318000954200D10AE10125382917DC8A465346C9
:103190001F2B00DDE7E12022D21A029B61469340FB
:1031A0001D005346D940634693401A000D43511EFB
:1031B0008A4153461543029ADA40A4182D188542D5
:1031C000804140422418230200D4B6E05E4B013710
:1031D0009F4200D1ADE001215C4B6A081C402940B0
:1031E0000A43E507154364088DE7594A029B924656
:1031F0006246BA441A432CD08E422ED05246002A40
:1032000060D0002F00D1DBE063460E00029CD8089E
:1032100062070243E4081300234300D154E28025EF
:103220002D0325432D03484C2D0B8CE76146029B53
:10323000194300D1CCE029000139012D00D188E1EA
:10324000954200D1AAE00125382900DD2FE78A4602
:1032500018E7012251408E42D0D15346002B00D1B5
:10326000BEE0002F00D038E1CA462200024300D160
:10327000E2E15346591E012B00D10DE2324A92453C
:1032800000D1D2E10127382913DC1F2900DDEEE14E
:103290002022029B521A250007009A46CC409040FB
:1032A0009540CF40A244421E904153462F430743CE
:1032B00002933D00654465459241029B52424F4650
:1032C000D41880E7234A7D1C154200D0AAE062464C
:1032D0002500029B05431A43002F00D0F5E0002D86
:1032E00000D16BE1002A00D152E16346C51A029B6E
:1032F000E21AA8429B415B42D31A1A0200D4D5E1DC
:1033000063461D1AAC4592410126029B52421C1B8A
:103310008846A41A0E40F6E697423FD05246012551
:10332000382A00DD4AE78022029B120413430293ED
:103330002DE73C000025002205E707232B40002B4A
:1033400000D0E2E66BE0C046FF070000FFFF7FFF12
:1033500001F8FFFFFE070000280000F08FFA0300CD
:1033600018331F2B00DCB4E62A00083882409F4245
:1033700000DDB9E0DB1B581C1F2800DCA0E11500B4
:103380001F3BDD40202805D040231B1A9A40531EC6
:103390009A411543072300272B40D0E7C008620756
:1033A0000243E40837E7EA0863071A43D34BE4080B
:1033B0009F4200D12FE72403250B7C05640DC2E654
:1033C000CA462200024358D163460E00029C039372
:1033D000039B5746DA08E7E7C94CFF1A144092E608
:1033E000C84D7A1C2A4200D084E022000243002FFC
:1033F00000D0EFE0002A00D1E5E0624602990A43DE
:1034000000D1C5E06346C5188C46854280416444BE
:1034100040422418230202D5B94B01371C40BA465A
:103420000395D5E76246851AA842924152429146D9
:10343000029BE31A1A004B46D21A130091461A0255
:103440006CD44A464C462A4300D03AE60026002473
:10345000002578E6029953460D00203AD540202BEE
:1034600006D04022D21A0B00934062461A4393467C
:103470005B465A1E93411D4319E653465A1E012BC3
:1034800000D1C6E09D4EB24500D1BDE688460E0093
:103490000125382A10DC1F2A7FDC20212500891A0B
:1034A000070088408D40D740D440411E8841029B90
:1034B0003D431B1B054302936246551BAC4592419D
:1034C000029B52424F469C1AF6E5002D00D0B7E011
:1034D000002A00D1F0E001260E4063460298D90888
:1034E00042070A43C40896E6854CFF1A1440620757
:1034F000E40860E781498A4200D1C9E06346C11807
:1035000081428041029B4042E3181B18DD075C08A2
:10351000072349080D4317002B4010E763461D1A87
:10352000AC4592410126029B52421C1B8846A41ABC
:103530000E40C6E56346C518029B854280419C4605
:103540004042644424180127230200D4F5E60227F0
:1035500041E66346C51AA8428041029B4042E41AF4
:103560000127241AA8E5029D52462B00203AD34099
:1035700019005346202B06D04022D21A2B0093402C
:1035800062461A4393465D466B1E9D410D4315E608
:103590006207C0080243E4080DE711002700203944
:1035A000CF40202A05D040218A1A944025000543A7
:1035B0000395039D6A1E95413D437DE7002A00D196
:1035C00044E701260E406346D908029B5A070A4386
:1035D000DC08F0E6002A28D06246029FC0083A4381
:1035E00000D1DCE6620710438022E4081203144293
:1035F00009D0FD08154206D1634601262C00D808E3
:103600007B0718430E40420FC000C0085207024318
:1036100001E663461D1AAC459241029B52421C1BB7
:103620000E0088460127A41A46E56346D908029B86
:103630005A070A43DC08EEE56346029C0393C7E69B
:10364000C008002A00D1AAE6620710438022E408DD
:1036500012031442D7D0029FFD081542D3D163460E
:103660000126D8087B072C0018430E40CBE70A0040
:103670002700203AD740202905D04022521A9440F2
:10368000250005430395039D6A1E95412F4310E6CF
:1036900014000025002256E5029B604499466045CF
:1036A00092414C4452420500A4184CE71A001C00F9
:1036B0002A4300D0B3E6C9E6802400262403AEE501
:1036C00020210025091A17E5002200250B4C3AE5B8
:1036D000002D00D1F6E54B46DA1B9246002F00D1B3
:1036E0006FE6382A05DC80263604344388460E000F
:1036F000D1E688460E000125DEE6C046FF07000041
:10370000FFFF7FFFFE070000002D00D168E64B465B
:10371000D91B002F01D18A46A7E50127382900DDF2
:10372000C7E5802212041443AFE5C0460B00020037
:1037300070B5164D0C0382B0490000200092019331
:10374000240B490DDE0FA94204DD1148814203DD3F
:10375000104BF01802B070BD8020400320430E4C87
:10376000641A1F2C08DD0D4B5B1AD8400300584229
:10377000002EEFD11800EDE7094B009A9C4603009C
:1037800061448B40E2401343F1E7C046FE03000072
:103790001D040000FFFFFF7F33040000130400003E
:1037A000EDFBFFFF70B5002816D0C317C5185D40AC
:1037B000C40F280000F062F8104B1B1A5B055B0D6C
:1037C0000A2814DC02002E00153296400B22121A31
:1037D000D5402D032D0B03E00024002300250026F7
:1037E0001B052B43E40723433000190070BD0B3841
:1037F00085402D0300262D0BF2E7C0461E04000075
:103800008446100062468C461900634600E0C046BC
:103810001FB500F009F9002801D40021C8421FBDDE
:1038200010B500F049F84042013010BD10B500F06D
:10383000FBF8002801DB002010BD012010BDC046B0
:1038400010B500F0F1F8002801DD002010BD0120C6
:1038500010BDC04610B500F073F8002801DC002050
:1038600010BD012010BDC04610B500F069F8002859
:1038700001DA002010BD012010BDC0461C2101232B
:103880001B04984201D3000C10391B0A984201D343
:10389000000A08391B09984201D30009043902A221
:1038A000105C40187047C046040302020101010188
:1038B0000000000000000000F0B55746DE464E460E
:1038C0004546E0B50D000400E80F83460903D80F14
:1038D000090B824619488C461F0369005E00490D9A
:1038E0003F0B760D814218D086420FD00120B142A5
:1038F0000DD1BC450BD1944209D1D3451CD0002930
:1039000005D160462043431E984100E00120F0BCF1
:10391000BB46B246A946A046F0BD01208E42F6D174
:10392000614639430F0017432743F0D15B465246A7
:10393000981A431E9841EAE70020E8E7FF070000D5
:10394000F0B557464E464546DE46E0B50D000F033E
:10395000390B83B00400804601915800E90F314FC4
:10396000400D8C466E00190382469146760D090B78
:10397000D80FBE421FD0BA450FD0002E2FD15546CA
:10398000019E3443002D27D10A433AD0002C45D163
:1039900000281AD10120404217E011433BD1002EEC
:1039A00002D1019F2743F3D0844509D16346002B00
:1039B000F0D0604609E0019F27432CD1B24524D0C6
:1039C00063460220013B1840013803B0F0BCBB46FF
:1039D000B246A946A046F0BD002CD9D0E4E7544633
:1039E000002CEDD08445EBD15645E9DCDEDB019BB4
:1039F0008B42E5D8DAD1C845E2D80020C845E4D2E8
:103A0000D4E70020002CE0D0DAE7114303D184454D
:103A1000D6D10020D9E702204042D6E78445E6D03F
:103A2000CEE7C046FF070000F0B557464E46454674
:103A3000DE46E0B50D000F0304008046E80F390BA9
:103A4000844683B05800304F400D01911E03690039
:103A500082469146490D360BD80FB94220D0BA455F
:103A60000FD000292BD101990C435146002937D1A1
:103A7000324338D0002C44D1002819D101204042D3
:103A800016E0164313D1002902D1019F2743F3D03A
:103A9000844520D063460220013B1840013807E0EE
:103AA000019F274303D18A45F4D116431FD002203A
:103AB00003B0F0BCBB46B246A946A046F0BD544692
:103AC000002CE7D08445E5D15145E3DC03DB019BC5
:103AD000B342DFD80FD06346002BCFD06046E7E774
:103AE000002CC9D0D4E70020002CE1D0D2E78445D7
:103AF000D0D10020DCE7C845CCD80020C845D7D2BB
:103B0000E9E78445E3D0C5E7FF070000BFF34F8F27
:103B1000034B044ADA60BFF34F8FC046FDE7C0464F
:103B200000ED00E00400FA0500B587B01422002182
:103B300001A805F0B9FC094A516B012319435163EF
:103B4000526B1A400092009A0C2201920393A0201B
:103B500001A9C00503F0ECFC07B000BD0010024055
:103B600010B5064803785A1CD2B202700449AA2440
:103B7000CC540233037055238B5410BD8C010020AC
:103B80009001002010B5064803785A1CD2B202708A
:103B900004495524CC5402330370AA238B5410BD1E
:103BA0008C010020900100200378AA2B01D0002076
:103BB00070474378552B01D00020F9E74318013BAB
:103BC0001B78AA2B01D00020F2E7401802380378B6
:103BD000552B01D00020EBE70120E9E730B5033990
:103BE000455C0022002105E083181B795918C9B2F1
:103BF000013292B2C3781B0284782343013B9A427C
:103C0000F2DBA94201D0002030BD0120FCE770B5F5
:103C100005000C0004290DD9FFF7C6FF012801D0CB
:103C2000002070BD21002800FFF7D8FF0128F8D040
:103C30000020F6E70020F4E710B504000023002080
:103C400004E0E25C1018C0B201339BB28B42F8D39F
:103C500010BD10B502F0B6FA10BD10B502F09AFA18
:103C600010BD000010B5837901338371C37901332E
:103C7000C371054B1B78012B02D0FFF7EEFF10BD7F
:103C8000FFF7E7FFFBE7C046C100002010B5FFF7D4
:103C9000E0FF10BD10B5FFF7DCFF10BD10B5024806
:103CA0000921FFF7D6FF10BDC400002010B5054B59
:103CB000187802300321FEF797FB034B01225A5478
:103CC00010BDC046EC100020F010002010B5104BC5
:103CD0001B78DAB2002B19D10E4B002119700C4B56
:103CE000013119700BE00B490B78DCB20133DBB208
:103CF0000B7083185979084B19550132D2B2C37829
:103D00001B0281780B43023B9A42ECDB10BDC0469C
:103D1000E5060020E6060020E806002010B503793D
:103D2000013B0371CA1E835C013B8354FFF795FF7F
:103D300010BD10B5037901330371CA1E835C0133D2
:103D40008354FFF786FF10BDF0B5C64600B5804628
:103D50000F0016001E4C00232370D51CADB2FFF7D8
:103D6000FFFE23785A1CD2B222701A49CD54981CF7
:103D7000C0B220702D0A8D54DA1CD2B222700125F7
:103D80000D540433237043468B54002308E0104C39
:103D90002078421C2270FD5C0E4C25540133DBB2AE
:103DA000B342F4D30A4E3578291F89B20A4C200059
:103DB000FFF742FF043C605501353570FFF7E2FE26
:103DC00031782000FFF745FF80BCB846F0BDC04603
:103DD0008C010020900100209401002010B50349BF
:103DE0000122F920FFF7B0FF10BDC046E406002015
:103DF00010B503490122FA20FFF7A6FF10BDC04607
:103E0000C000002010B503490222FB20FFF79CFFF1
:103E100010BDC046E206002030B583B06B46DD1D04
:103E2000D87102F0E5FA04002B78862B01D003B09C
:103E300030BD01222900FF20FFF786FF0A2002F093
:103E4000DDFA1B4D280005F0C5F92B6801229343CC
:103E50002B60EFF3108182F310882B681F3293439D
:103E60002B6081F31088FFF75FFE06E002F0C0FAD6
:103E7000001BFA22920090420DD8A0200421C00518
:103E800003F090FC0028F1D1A0300821C00503F018
:103E900089FC0028EAD102F0ABFA001BFA239B0050
:103EA000984203D901F03AFFFFF730FEFFF72EFEEC
:103EB0000044004010B572B6154B1B689A69120495
:103EC00002D580221202DA619A6901210A439A61BD
:103ED00080225200DA610132FF32DA618022D200A0
:103EE000DA6180221201DA6180229201DA61802295
:103EF0005201DA611022DA611032DA61044803F00B
:103F0000FBFE044B5878C0B201F010FA62B610BD47
:103F10008C06002090030020064B1B78052B01D057
:103F200000207047034B1B7A052B01D00020F8E7D7
:103F30000120F6E79003002010B5040001280BD9FA
:103F4000124B00221A700121197011490A700132B6
:103F50001020FFF7F9FE10BD72B60E4801F02CFAE2
:103F60000D4801F021F9200001F0E0F962B60B4B99
:103F700005221A701A72054B00221A7001321A704B
:103F800003490A701020FFF7DFFEE4E7A8040020D1
:103F9000AC0400208C06002028060020900300209E
:103FA00030B583B005000C00FFF7B6FF002845D000
:103FB0006BB2002B36DB284A69002848FA239B00A5
:103FC0000093230003F07EFF00281AD1244B002227
:103FD0001A7001321A70234B1A7009E0204A1378C4
:103FE000591C11701C4A115C1E4AD1540130C0B2D8
:103FF000A042F3D31A4B1A781A491120FFF7A4FEF6
:1040000027E001280BD0164B00221A7001211970ED
:1040100014490A7001321120FFF796FE19E0FFF7EC
:1040200049FFF0E70E4B00221A70012119700D496B
:104030000A7001321120FFF787FE0AE0084B0022C8
:104040001A7001321A70074902230B701120FFF712
:104050007BFE03B030BDC046A80300208C060020C4
:10406000A8040020AC04002070B582B004000D004C
:104070001600FFF751FF002835D063B2002B26DB76
:1040800061001F48FA239B00009333002A0003F0CD
:104090004DFE00280DD0012816D01A4B00221A70B0
:1040A0000121197018490A7001321220FFF74CFEE5
:1040B00024E0144B00221A7001321A7012490A705F
:1040C0001230FFF741FE19E0FFF7F4FEE5E70D4B74
:1040D00000221A70012119700B490A700132122056
:1040E000FFF732FE0AE0074B00221A7001321A7005
:1040F000054902230B701220FFF726FE02B070BDA7
:104100008C060020A8040020AC040020F0B585B087
:1041100004000F0016001D00FFF7FEFE00284DD022
:1041200063B2002B03DB731EDBB2012B0CD9294BCE
:1041300000221A700121197027490A7001321320D8
:10414000FFF702FE05B0F0BD61002448FA239B0092
:1041500002930195224B009333003A0004F03CF89F
:1041600000281AD11B4B00221A7001321A701A4B08
:104170001A7009E0174A1378591C1170184A115C1B
:10418000154AD1540130C0B2A842F3D3114B1A786A
:1041900011491320FFF7D8FDD4E701280BD00D4BB0
:1041A00000221A70012119700B490A700132132084
:1041B000FFF7CAFDC6E7FFF77DFEF0E7054B0022DB
:1041C0001A7001321A70044902230B701320FFF792
:1041D000BBFDB7E7A8040020AC0400208C0600203B
:1041E000A8030020F0B585B004000E0015001F00E4
:1041F000FFF792FE00283DD063B2002B03DB6B1E5D
:10420000DBB2012B0CD9214B00221A70012119704D
:104210001F490A7001321420FFF796FD05B0F0BD6A
:1042200061001C48FA239B00029301970A9B0093AC
:104230002B00320003F000FF00280DD0012816D01B
:10424000124B00221A700121197011490A700132B3
:104250001420FFF779FDE1E70C4B00221A700132C0
:104260001A700B490A701430FFF76EFDD6E7FFF79E
:1042700021FEE5E7054B00221A7001321A7004494D
:1042800002230B701420FFF75FFDC7E7A80400208E
:10429000AC0400208C06002070B5FFF73DFE00281E
:1042A00032D01F4B00221A7001321A7001321A707C
:1042B0000124002501E00134E4B263B2002B10DBDD
:1042C000610018480A23012204F05AF80028F2D1AC
:1042D0000135EDB2124A1378591C1170124AD454A8
:1042E000E9E7002D0AD0104B01221A700E494D70DB
:1042F0000B4B1A781520FFF727FD70BDFFF7DAFD8D
:10430000094B00221A70F1E7054B00221A700132A6
:104310001A70054902230B701520FFF715FDECE715
:10432000A80400208C060020AC040020F0B5C6468E
:1043300000B586B080460F0016001D000CAB1C783F
:1043400018220021684605F0AFF801230193434687
:10435000012B23D0022B09D180235B019846A0209A
:104360001900C00503F09EF943460093002F20D0AA
:10437000012F23D0002E26D0012E27D0012D2BD0A7
:10438000022D2CD0002D24D0022C3BD02AD8002C7A
:104390002DD0012C2DD1012302932AE080231B0173
:1043A0009846A0201900C00503F07CF9434600930D
:1043B000DCE7009AA023DB059A62DBE7009AA023E2
:1043C000DB059A61D6E700230393D7E70123039324
:1043D000D4E701230493D7E702230493D4E700230F
:1043E0000493D1E7032C04D10323029301E00023BB
:1043F0000293A0206946C00504F068FD06B080BCA9
:10440000B846F0BD02230293F3E7000030B583B055
:104410000400052900D06FE03D4B1B78052B3BD0F5
:104420003B4B1B78042B03D1394B1B7A042B49D00F
:1044300072B6E378A2786178207825790095FFF745
:1044400075FF62B62278013A314BD2000120D05478
:104450002278013A6178D2009A1891702278013A54
:10446000A178D2009A18D1702278013AE178D2006E
:104470009A1811712278013A2179D2009B1859714A
:10448000244B00221A7018702349087001322F3013
:10449000FFF75AFC03B030BD1D4B1B7A052BBFD173
:1044A00072B61E4800F088FF194B00221A701A726B
:1044B000E378A2786178207825790095FFF736FFB8
:1044C00062B6BFE772B6164800F06EFE2378013B75
:1044D0000F4ADB000021995400F058FD00F056FD12
:1044E00000F054FDE378A278617820782579009572
:1044F000FFF71CFF62B6A5E7064B00221A700121E8
:10450000197005490A7001323020FFF71DFCC1E720
:1045100090030020A8040020AC0400208C0600209A
:104520002806002030B587B005000C0018220021B5
:10453000684604F0B9FF012D16D0022D07D1802561
:104540006D01A0202900C00503F0ACF80095012CF6
:1045500016D0022C17D0002C0FD0A0206946C00521
:1045600004F0B4FC07B030BD80252D01A020290047
:10457000C00503F097F80095E9E701230493ECE701
:1045800002230493E9E700230493E6E710B5010052
:10459000A020C00503F086F810BD000010B504008F
:1045A000022953D12F4B1B78052B27D02D4B1B787D
:1045B000042B03D12B4B1B7A042B31D072B62078FD
:1045C000FFF7E4FF61782078FFF7ACFF62B622784E
:1045D000013A244BD2000221D1542278013A617869
:1045E000D2009B181971204B00221A7001321A70E8
:1045F0001E490A704020FFF7A7FB10BD194B1B7A1C
:10460000052BD3D172B61A4800F0D6FE154B002206
:104610001A701A7261782078FFF784FF62B6D6E7C5
:1046200072B6144800F0C0FD2378013B0D4ADB0050
:104630000021995400F0AAFC00F0A8FC00F0A6FCB0
:1046400061782078FFF76EFF62B6C0E7064B002264
:104650001A7001321A70054902230B704120FFF7CE
:1046600073FBCAE790030020A8040020AC040020DC
:104670008C060020280600200138044BC000C35CD3
:10468000022B01D0002070470120FCE7900300209E
:1046900010B50400FFF7F0FF002829D01A4B0022C4
:1046A0001A7001321A70194B1A70012C08D0022CA2
:1046B00012D0154B1A7815494120FFF745FB10BD64
:1046C000114B01321A708021A0200901C00503F0AE
:1046D00069F80E4B5870ECE70B4B02221A708021E0
:1046E000A0204901C00503F05DF8084B5870E0E7D1
:1046F000054B00221A7001321A70044902230B7014
:104700004020FFF721FBDAE7A8040020AC040020DA
:1047100070B586B006000C0015001422002101A817
:1047200004F0C2FE012E24D0022E07D1802676018D
:10473000A0203100C00502F0B5FF0196012D25D063
:10474000022D27D0002D1DD0012C2AD0022C2BD0D9
:10475000002C23D0A02001A9C00502F0E9FE01220F
:104760000021072002F0C8FB072002F0C9FB06B0B9
:1047700070BD80263601A0203100C00502F092FFF6
:104780000196DBE788235B030293DDE784239B0329
:104790000293D9E7C4239B030293D5E70123039334
:1047A000D8E702230393D5E700230393D2E7000061
:1047B00010B5040080235B01984207D080231B01C1
:1047C0009C4212D0104BDC601C6110BD0F4B0022CC
:1047D0001A70012119700E490220087018704A7071
:1047E00002324F30FFF7B0FAE8E7084B00221A70A8
:1047F0000120187006490870013018704A700232A2
:104800004F30FFF7A1FADDE700180240A8040020AE
:10481000AC04002010B5040080235B01984207D04F
:1048200080231B019C4212D0104BDC601C6110BD28
:104830000F4B00221A7001321A700E4902200870C4
:1048400018704A7001324F30FFF77EFAE8E7084BE4
:1048500000221A7001321A7006490A70022018707C
:104860004A7001324F30FFF76FFADDE7001802405F
:10487000A8040020AC04002010B5094B1B78032BC2
:1048800004D0074B1B7A032B05D010BD80200001FC
:1048900002F090FFF5E78020400102F08BFFF4E783
:1048A0009003002010B50400032959D1324B1B7826
:1048B000052B2BD0304B1B78042B03D12E4B1B7AAE
:1048C000042B36D072B6A27861782078FFF720FFEB
:1048D00062B62278013A284BD2000321D1542278C3
:1048E000013A6178D2009A1811712278013AA178C0
:1048F000D2009B189971214B00221A7001321A7054
:104900001F490A705020FFF71FFA10BD1A4B1B7A7F
:10491000052BCFD172B61B4800F04EFD164B00227E
:104920001A701A72A27861782078FFF7F1FE62B6E9
:10493000CFE772B6144800F037FC2378013B0E4AEB
:10494000DB000021995400F021FB00F01FFB00F078
:104950001DFBA27861782078FFF7DAFE62B6B8E72F
:10496000064B00221A700121197005490A700132A4
:104970005020FFF7E9F9C8E790030020A8040020C1
:10498000AC0400208C0600202806002010B52D4B1A
:1049900000221A702C4B1B78042B0ED02A4B1B784C
:1049A000042B29D0284B1B7A042B38D0254B1A789E
:1049B00026496120FFF7C8F910BD234B1B7A042B51
:1049C000ECD1204A01211170204B02201870107088
:1049D00059701F490888032414700C789C700424B3
:1049E0001470000AD87049880520107019710130C0
:1049F0001070090A5971D9E7124B01211970134A35
:104A000011700220187051701148018803241C7025
:104A10000078907004201870090AD170C6E7094B1D
:104A200001211970094A117002201870517008484C
:104A3000018803241C700078907004201870090A03
:104A4000D170B3E7A804002090030020AC0400203C
:104A5000A403002010B502291ED10378012B0FD02A
:104A60004378012B12D000F091FA114B00221A70FA
:104A700001321A700F490A706020FFF765F910BD06
:104A80000D4B04221A70033ADA71E9E70A4B04224B
:104A90001A72033ADA73E6E7054B00221A70012115
:104AA000197004490A7001326020FFF74DF9E6E7FA
:104AB000A8040020AC04002090030020064B1B78C3
:104AC000042B05D0044B1B7A042B03D00020704725
:104AD0000120FCE70120FAE79003002010B5FFF762
:104AE000EDFF002826D0194B1B78042B12D0174B52
:104AF0001B78042B16D0154B1B7A042B16D0144CA4
:104B0000200002F0F1F8134B1A781349200001F04D
:104B1000E3FF10BD0D4B1B7A042BE8D10D4B022295
:104B20001A70ECE70B4B01221A70E8E7094B0122DF
:104B30001A70E4E7094B00221A7001321A70084912
:104B400002230B706020FFF7FFF8E2E790030020DC
:104B500028060020A0030020A4030020A8040020B1
:104B6000AC04002010B5094B00221A7001321A70F3
:104B7000074A10780749087002201870137A4B70A2
:104B800002226E30FFF7E0F810BDC046A8040020F6
:104B900090030020AC04002000B587B0142200214F
:104BA00001A804F081FC80235B000193FF3B02938A
:104BB0000493A02001A9C00502F0BAFC07B000BD13
:104BC00000234DE0A022D205802149009161C0461A
:104BD000C046C046C046C046C046C046C046C046A5
:104BE000C046C046C046C046C046C046C046C04695
:104BF0009162C046C046C046C046C046C046C04698
:104C0000C046C046C046C046C046C046C046C04674
:104C1000C046C046C046C046C046C046C046C04664
:104C2000C046C046C046C046C046C046C046C04654
:104C3000C046C046C046C046C046C046C046C04644
:104C4000C046C046C046C046C046C046C046C04634
:104C5000C046C046C046C046C046C0460133DBB26F
:104C6000172B00D955E01721C91A01228A4010429A
:104C700000D1A7E7A022D205802149009161C0465A
:104C8000C046C046C046C046C046C046C046C046F4
:104C9000C046C046C046C046C046C046C046C046E4
:104CA000C046C046C046C046C046C046C046C046D4
:104CB000C046C046C046C046C046C046C046C046C4
:104CC000C046C046C0469162C046C046C046C046C7
:104CD000C046C046C046C046C046C046C046C046A4
:104CE000C046C046C046C046C046C046C046C04694
:104CF000C046C046C046C046C046C046C046C04684
:104D0000C046C046C046C046C046C046C046C04673
:104D1000A4E77047024B80001B6819507047C046DB
:104D2000C405002010B572B6002407E01B4BA2009A
:104D30001B689858FFF744FF0134E4B2184B1B7806
:104D4000A342F3D862B6002325E0C046C046C04661
:104D5000C046C046C046C046C046C046C046C04623
:104D6000C046C046C046C046C046C046C046C04613
:104D7000C046C046C046C046C046C046C046C04603
:104D8000C046C046C046C046C046C046C046C046F3
:104D9000C0460133DBB2842BD7D910BDC405002037
:104DA000C8050020F0B583B001AB164A12881A80FE
:104DB00000229A70002619E0134B9F5D134B187860
:104DC000C0B2FEF7EFFC0022114BFDF731FB0400EF
:104DD0000D003800FEF7E6FC22002B00FDF742FE36
:104DE000FDF708FB01AB98550136F6B2022EE3D968
:104DF00001AB98781A78120210435B781B041843B1
:104E000003B0F0BD60950008AC050020E00600206E
:104E10000000594010B5FFF7BFFE002325E0C04653
:104E2000C046C046C046C046C046C046C046C04652
:104E3000C046C046C046C046C046C046C046C04642
:104E4000C046C046C046C046C046C046C046C04632
:104E5000C046C046C046C046C046C046C046C04622
:104E6000C046C046C0460133DBB2842BD7D90421EB
:104E7000012004F02FFA034B1860034B01221A7033
:104E800010BDC046C4050020C805002010B5032988
:104E90000BD0134B00221A700121197011490A70AE
:104EA00001322020FEF750FF10BD02780E4B1A7021
:104EB00042785A7082789A70FFF774FF01000020E0
:104EC000FFF728FFFFF72EFF054B00221A70013273
:104ED0001A7004490A702020FEF736FFE4E7C04646
:104EE000AF050020B0050020AC05002010B5034937
:104EF00003222120FEF728FF10BDC046AC0500208C
:104F000010B5154B1B78DBB2642B18D8124B1870F8
:104F10001878C0B201F0F8F9FFF744FF0100002053
:104F2000FFF7F8FEFFF7FEFE0C4B00221A7001326D
:104F30001A700B490A702220FEF706FF10BD074BBE
:104F400000221A700121197005490A7001322220CD
:104F5000FEF7FAFEF2E7C046E0060020AF050020AB
:104F6000B005002010B5064B00221A7001321A70ED
:104F7000044B1B7804490B702320FEF7E5FE10BD9F
:104F8000AF050020E0060020B005002010B584B079
:104F9000374C200001F048FE0C22002101A804F04B
:104FA00083FA344B23608023DB0563600023A36016
:104FB000E360802212062261042262612376637616
:104FC000A376033AE2611F32A3546362A3620C32F8
:104FD000A3542363253A62633532A354E36420006B
:104FE00001F01EFA00280DD1234B1B78042B0CD0A6
:104FF000214B1B78042B24D01F4B1B7A042B2BD066
:1050000004B010BD00F058FAEEE71B4B1B7A042BDE
:10501000EED11A4B019301230293154801A901F027
:1050200075FB00280AD1164B0193114801A901F024
:105030006DFB0028E4D000F03FFAE1E700F03CFA15
:10504000F1E70E4B01930A4801A901F05FFB00282C
:10505000D6D000F031FAD3E7094B0193044801A9F7
:1050600001F054FB0028CBD000F026FAC8E7C04678
:105070002806002000240140900300200080003C0E
:105080000000014070B588B004001422002103A87C
:1050900004F00AFA22683F4B9A4201D008B070BD72
:1050A0003D4B1A6C802149030A431A641A6C0A406A
:1050B0000192019A596B0122114359635B6B1A40AB
:1050C0000292029B354B1B78042B20D0334B1B786C
:1050D000042B38D0314B1B7A042B46D03048314B4F
:1050E00003600523436000238360C3608022026164
:1050F000803242618022D2008261C361036201F08A
:1051000063FF002843D1264B23659C62C6E7234BEF
:105110001B7A042BDAD18021A025ED050901280096
:1051200002F0C0FA80214901280002F0BBFAC02336
:105130005B010393032304930023059303A9280031
:1051400002F0F6F9CAE780263601A025ED05310008
:10515000280002F0A7FA0396032304930023059383
:1051600003A9280002F0E4F9B8E780267601A0251B
:10517000ED053100280002F095FA0396032304930D
:105180000023059303A9280002F0D2F9A6E700F056
:1051900093F9B8E70024014000100240900300207A
:1051A000CC0500205800024070B5040002681C4B7A
:1051B0009A4200D070BD1B4A136C1B490B4013640C
:1051C0001A4B1B78042B0BD0184B1B78042B18D0D0
:1051D000164B1B7A042B1BD0206D01F04DFFE9E725
:1051E000124B1B7A042BEFD18021A025ED0509017C
:1051F000280002F057FA80214901280002F052FAF3
:10520000EAE78021A0200901C00502F04BFAE3E79C
:105210008021A0204901C00502F044FADCE7C04625
:105220000024014000100240FFFFEFFF9003002028
:1052300000B583B0144A916B012319439163926BBB
:1052400013400193019B114BC222920098581049C0
:1052500008408021C90101439950802189001960CB
:1052600098580C4908408021C90301439950F832ED
:105270001A60002201210B2001F03EFE0B2001F0FC
:105280003FFE03B000BDC0460010024000E100E058
:10529000FF00FFFFFFFF00FF82B0094B596B0122A7
:1052A00011435963596B0A400092009A596B0222CC
:1052B000114359635B6B1A400192019B02B0704726
:1052C0000010024010B588B004001422002103A889
:1052D00004F0EAF82268134B9A4201D008B010BDDE
:1052E000114C626B01231A436263626B1A40019294
:1052F000019AC022520103921222049205930133B3
:10530000069304330793A02003A9C00502F010F907
:10531000E36B8022D2031343E363E36B13400293F6
:10532000029BDBE7005800400010024010B51D4B07
:105330001D4A1A60002823D11C4A5A601C4B0022C7
:105340005A705A721748002383600122C2600361B9
:1053500043618361C361036202F060FC002817D1DE
:105360001048002103F0BAF8002814D10D4800219C
:1053700003F0E0F8002811D10A48FFF7A3FF10BDA1
:10538000084B0C4A5A600A4B01225A705A72D9E7EC
:1053900000F092F8E4E700F08FF8E7E700F08CF80F
:1053A000EAE7C0468C06002000580040B57DB110E9
:1053B000900300206621C10010B502680A4B9A4292
:1053C00000D010BD094AD36B09490B40D36380213B
:1053D000A024E4050901200002F064F980214901BC
:1053E000200002F05FF9ECE7005800400010024096
:1053F000FFFFBFFF0B4B0C4A1A600C4A1A600222D7
:105400005A600B4A9A6002E00023012B05D0054B3D
:10541000DB685B07F8D10123F7E7024B054A1A6006
:105420007047C04600300040CCCC0000555500000D
:10543000FF0F0000AAAA000082B08022920500237C
:1054400007E099000C4884466144096802C20133B0
:10545000DBB22F2BF5D9094A116C012319431164D2
:10546000126C13400193019B054A136803210B43FF
:10547000136002B07047C0460020000800100240D0
:105480000000014010B500F061FF094B187000F0FA
:1054900035FFFF2804D000F031FF064B187010BD17
:1054A000044B28221A701878C0B200F02DFFF6E7DE
:1054B000E4060020E006002072B6FEE700B593B0D7
:1054C0003822002104A803F0EFFF102200216846D3
:1054D00003F0EAFF8020800003F056F80A230493CB
:1054E000F633079300230893402209923F3A0A9229
:1054F00001320B920C920D9308330E9380239B0282
:105500000F93C023DB04109380239B05119304A801
:1055100003F064F800280ED107230093053B0193A4
:105520000023029303930221684603F00FFB002837
:1055300003D113B000BDFFF7BFFFFFF7BDFF0000B1
:1055400030B583B0FFF778FFFFF79CFF00F030FF26
:10555000FFF7B4FFFFF7A0FEFFF76AFE00F0DEFBE7
:1055600000F040FDFFF746FF00F000FB00F03AFBC3
:10557000FFF750FC594BDA6801210A43DA601A68D8
:105580000A431A601EE0FB2B00D1A3E007D9FF2BD2
:1055900012D1534B5878C0B2FEF73EFC0CE0F92B09
:1055A00000D194E0FA2B07D1FEF722FC04E04C4B2B
:1055B0005878C0B2FEF7C0FC4A4B00221A704A4B22
:1055C0004A4A1A60474B1B78012BF8D1444B1B7891
:1055D000DBB2702BD7D8102BEED3103BDAB2602A97
:1055E000EAD89300424AD3589F463D4B5878C0B200
:1055F0009978C9B2FEF7D4FCDEE739494878C0B2E1
:105600008A78D2B20331FEF72FFDD5E7344B5878B4
:10561000C0B21C792402D9789A78D2B25B79DBB215
:105620002143FEF773FDC7E72D4C6078C0B22579A2
:105630002D02E178A278D2B26379DBB22943063435
:105640000094FEF7CFFDB7E7FEF726FEB4E7294B3F
:105650001978013989B22848FEF7D8FEACE7254B06
:105660001978013989B22448FEF798FFA4E71C4B4A
:105670005878C0B2FFF70CF89EE71E4B1978013935
:1056800089B21D48FFF70EF996E71A4B19780139D0
:1056900089B21948FFF7DEF98EE7FFF71FFA8BE7AB
:1056A000FFF760FA88E7134B1978013989B212487D
:1056B000FFF7ECFB80E7FFF719FC7DE7084B587814
:1056C000C0B2FFF71DFC77E7FFF74CFC74E7FEF76D
:1056D00085FB71E7FEF796FB6EE7C04600200040B1
:1056E000E8060020E506002000300040AAAA0000DD
:1056F000A4950008E6060020E906002000B583B066
:105700000D4B196C012211431964196C0A40009267
:10571000009ADA6B802149050A43DA63DB6B0B40A0
:105720000193019B00220121032001F0E5FB0320EE
:1057300001F0E6FB03B000BD0010024010B504000C
:10574000FEF765FA012801D0002010BD6379FE2B19
:1057500006D0FD2BF9D02379012B03D00330F4E7D9
:105760000220F2E70520F0E710B50400FEF74FFA3B
:10577000012801D0002010BD6379FD2BFBD0FE2B4A
:1057800005D0FC2B01D00420F5E70530F3E703201A
:10579000F1E7FEE7FEE77047704710B500F01CFE2A
:1057A00010BD10B501F072FD10BD7047074B1B68AE
:1057B0009B0609D5054B20225A6005490B681F3A04
:1057C00093430B60034B1A707047C04600000240C1
:1057D0001C000240C200002010B50E4B1B689B0449
:1057E0000AD50C4B802292015A600B490B680122AA
:1057F00093430B60094B1A70094B1B78042B04D0A0
:10580000074B1B7A042B00D010BD064801F0C8FCE2
:10581000FAE7C0460000024044000240C3000020F6
:1058200090030020CC05002010B5134B1B69DB074B
:1058300020D5124C2378013B23700F4B0222524299
:105840001A610F48092100F0BDFC2378002B11D10B
:10585000094BD96801229143D960196891431960B5
:10586000084B022149421961D9681143D96019686E
:105870000A431A6010BDC04600200040D900002035
:10588000D00000200044014070B51C4B1B69DB07B1
:1058900032D51A4B022252421A611948092100F0EE
:1058A00079FC184D2878184C002323540130C0B2DD
:1058B00028700321FCF7AEFC29702378002B18D147
:1058C0006378002B15D1A378002B12D10F4B1B78D6
:1058D000002B0AD10E4BDA6801210A43DA601A68FC
:1058E0000A431A600B4B03221A70084B01221A70EC
:1058F00002E0064B00221A7070BDC0460044014011
:10590000C4000020EC100020F0100020C100002096
:1059100000200040D900002070B53A4BDB69DB065F
:1059200033D5384B1B68DB062FD5364910230B6265
:10593000354B1A68012082431A605A681204120C0F
:105940005242324C2270324D2E780122921BD2B23A
:105950002A702A7852022F4D5219DA605A68120CB6
:1059600012048025AD002A435A601A6802431A6067
:10597000EFF3108280F310888B683F3003438B6015
:1059800082F310882178002900D170BD204B1B784C
:105990003F38C01A40021F4BC018FFF7E5FE1E4AF1
:1059A0001070042821D00FD801281BD00328ECD177
:1059B000174B1B780120C01A4002164BC018134B1E
:1059C0001978FEF763F9E0E70628DED1104B1B7863
:1059D0000120C01A40020F4BC0180C4B1978FEF77B
:1059E00059F9D2E7FEF762F9CFE7094B1B7801209E
:1059F000C01A4002074BC018044B1978FEF799F9FA
:105A0000C3E7C0460038014008000240F4100020FF
:105A1000E8080020EC080020F310002070B53A4B95
:105A2000DB69DB0633D5384B1B68DB062FD53649DF
:105A300010230B62354B1A68012082431A605A68A2
:105A40001204120C5242324C2270324D2E78012236
:105A5000921BD2B22A702A7852022F4D5219DA6064
:105A60005A68120C12048025AD002A435A601A6845
:105A700002431A60EFF3108280F310888B683F3086
:105A800003438B6082F310882178002900D170BD18
:105A9000204B1B783F38C01A40021F4BC018FFF73D
:105AA0004DFE1E4A1070042821D00FD801281BD0AB
:105AB0000228ECD1174B1B780120C01A4002164B6C
:105AC000C018134B1978FEF7CDF8E0E70528DED1B2
:105AD000104B1B780120C01A40020F4BC0180C4B12
:105AE0001978FEF7F3F8D2E7FEF7D8F8CFE7094BBD
:105AF0001B780120C01A4002074BC018044B1978CC
:105B0000FEF70CF9C3E7C0460044004030000240F5
:105B1000F4100020E9080020EC0C0020F310002015
:105B200010B503000C4A0D49521A0D4909680029A5
:105B300007D00B490868C318934206D8084A136077
:105B400010BD074907480860F3E703F0C7FC0C23C2
:105B5000036001204042F3E7002000200004000021
:105B6000F8100020681200207047000030B587B0A0
:105B700001AC14220021200003F096FC144B1A6C97
:105B8000802109020A431A641B6C0B400093009B9E
:105B9000104AC420800013581B021B0A8021C9052B
:105BA0000B43135080231B0313600B4B23800023F4
:105BB00063600A4AA260E360094D2100280003F0F7
:105BC00089FA2B68802213432B6007B030BDC04692
:105BD0000010024000E100E0FF180000A3060000F2
:105BE0000020004030B587B001AC14220021200015
:105BF00003F05AFC144B1A6C802189020A431A6480
:105C00001B6C0B400093009B104BC5208000195863
:105C10000F4A11408022D2010A431A508022920377
:105C20001A600C4B2380002363600B4AA260E36080
:105C300023610A4D2100280003F04CFA2B688022D2
:105C400093432B6007B030BD0010024000E100E03C
:105C5000FF00FFFFFF1800000F2700000044014075
:105C600070B5EFF31084012181F31088244A136882
:105C70000C2083430343136084F31088EFF31080F8
:105C800081F31088136810242343136080F3108875
:105C90001C4B1D4898601D48007840021C4D40195F
:105CA000D8605868000C00048025AD002843586077
:105CB0001868FF3DFF3D28431860186808263043E8
:105CC0001860186808431860EFF3108081F310889B
:105CD000936838363343936080F3108814620D4B19
:105CE0000D489860EFF3108081F31088916870344C
:105CF0002143916080F310881A682A431A6070BDAE
:105D0000003801400800024024380140E808002023
:105D1000EC0800201C00024028380140F0B5DE46A7
:105D200057464E464546E0B59BB02022002112A8BA
:105D300003F0BAFB182200210CA803F0B5FB2822BF
:105D4000002102A803F0B0FB0123029302A802F095
:105D5000C3FF002800D0C6E0644B1A6C8021C90143
:105D60000A431A641A6C0A400192019A5A6B02257E
:105D70002A435A635B6B2B400093009B4023984659
:105D80000C930D950E9500240F94012610961194F6
:105D9000574B99460CA9180003F098F880270C97E8
:105DA0000D950E950F94109611940CA9484603F08A
:105DB0008DF8504A13683F218A468B430D390B43B7
:105DC00013604D4B1A684D4989460A401A601A689B
:105DD0004B498C460A401A601A681E35AA431A605D
:105DE0001A6841468A431A601A68BA433A431A60ED
:105DF0001A68444802401A601A6843498B460A40B0
:105E00001A60424A136851468B430C390B431360A6
:105E10003F4B1A6849460A4010210A431A601A6823
:105E200061460A401A601A68AA431A601A68414615
:105E30008A431A601A68BA433A431A601A680240E1
:105E40001A601A6859460A401A60324AC621890007
:105E500053581B021B0A535080231B0513601294D6
:105E6000E1235B0213931494159416940C23179357
:105E700018941994284C12A9200003F0D5F9EFF3D7
:105E8000108286F31088A368DB00DB08A36082F32E
:105E90001088EFF3108286F31088A3681F490B4027
:105EA000A36082F3108823681D4A1340236063684F
:105EB0001C4A13406360A3682A229343A3602368AB
:105EC00033432360144BDB699B02FBD5124BDB6928
:105ED0005B02F7D5FFF7C4FE1BB0F0BCBB46B24671
:105EE000A946A046F0BDFFF7E7FA35E700100240EB
:105EF000000400500008024008000240EFBFFFFF0E
:105F0000FFCFFFFFFFFCFFFFFFF3FFFF040802408E
:105F10001C00024000E100E000380140FFFFFFF1FB
:105F2000FFFFFFDFFFB7FFFF70B5EFF31084012124
:105F300081F31088244A13680C20834303431360C1
:105F400084F31088EFF3108081F310881368102415
:105F50002343136080F310881C4B1D4898601D4834
:105F6000007840021C4D4019D8605868000C0004AD
:105F70008025AD00284358601868FF3DFF3D284349
:105F800018601868082630431860186808431860BD
:105F9000EFF3108081F310889368383633439360B1
:105FA00080F3108814620D4B0D489860EFF3108059
:105FB00081F31088916870342143916080F31088D8
:105FC0001A682A431A6070BD004400403000024045
:105FD00024440040E9080020EC0C0020440002406A
:105FE00028440040F0B5DE4657464E464546E0B5EB
:105FF00091B020262022002108A803F055FA18228B
:10600000002102A803F050FA564BDA6B8021890276
:106010000A43DA63DA6B0A400192019A5A6B01254E
:106020002A435A635B6B2B400093009B042302932B
:1060300002240394049406950795A027FF0502A95E
:10604000380002F043FF08230293039404940024D1
:1060500005940695079502A9380002F037FF424AD9
:1060600013683F218A468B430B390B4313603F4B28
:106070001A683F4989460A401A601A683D498846AD
:106080000A401A601A68B2431A601A6840218C46A6
:106090008A431A601A688027BA433A431A601A681A
:1060A000354802401A601A6834498B460A401A6023
:1060B000334A136851468B430A390B431360314B03
:1060C0001A6849460A4010210A431A601A68414674
:1060D0000A401A601A68B2431A601A6861468A4315
:1060E0001A601A68BA433A431A601A6802401A6082
:1060F0001A6859460A401A60234BC72189005A582A
:10610000FF2082435A50802252051A600894E123EE
:106110005B0209930A940B940C940C230D930E9438
:106120000F941A4C08A9200003F07EF86368184AFF
:1061300013406360A3682A229343A36023682B4320
:106140002360124BDB699B02FBD5104BDB695B02C2
:10615000F7D5FFF7E9FE11B0F0BCBB46B246A94641
:10616000A046F0BD00100240080802403000024086
:10617000EFBFFFFFFFCFFFFFFFFCFFFFFFF3FFFFBE
:106180000C0802404400024000E100E000440040EE
:10619000FFB7FFFF094B1B78012B00D07047074B5F
:1061A00000221A70064BD8605A68120C1204114370
:1061B00059601A6801210A431A60EFE7C200002003
:1061C0001C000240094B1B78012B00D07047074B85
:1061D00000221A70064BD8605A68120C1204114340
:1061E00059601A6801210A431A60EFE7C3000020D2
:1061F000440002400D488546FFF7B6FC0C480D49A7
:106200000D4A002302E0D458C4500433C4188C4211
:10621000F9D30A4A0A4C002301E013600432A24277
:10622000FBD303F061F9FFF78BF9FEE700200020B4
:10623000C000002070010020C097000870010020FD
:1062400064120020FEE7F8231B069C466044C00A47
:10625000704770B504684368C9000E00203E13D42F
:10626000FF25B540FF268E40B443AB430460436036
:106270000D00203D0DD41600AE4035008A40144379
:1062800004602B43436070BD2026761AFF25F5403D
:10629000E8E720256D1A1600EE403500EEE741686C
:1062A0000068704710B586B0002305930233019350
:1062B000FFF7C9FF03900123049301F047F805A9F4
:1062C00001A801F0F1F8040001F0C0F863425C415C
:1062D000E0B206B010BD70B5040016001D0001F05C
:1062E00035F832002B002100012001F07DF8040078
:1062F00001F0ACF863425C41E0B270BD014B18782C
:10630000C0B2704701C0000830B583B004000E4D24
:106310002800FFF7C4FF0090019122000121684688
:10632000FFF797FF2800FFF7BDFF009A019B064883
:10633000FFF7D1FF0028F8D0FFF7E0FF001B434232
:106340005841C0B203B030BD00C00008014B1878FE
:10635000C0B27047FF1F000810B50400114B197838
:10636000002901D1012010BDFA208000FBF7CCFEEE
:1063700001000D4B1868FBF7C7FE00F0CDFD0028AB
:106380000DD1032C01D90120EDE7013000222100BD
:10639000404200F0B1FD054B1C600020E3E7012006
:1063A000E1E7C046E0000020DC000020E40000201F
:1063B00010B5084A116880235B000B43136003206B
:1063C000FFF7CAFF041E02D00124200010BDFFF712
:1063D00095F9FAE700200240034B1B78034A116845
:1063E0005B1813607047C046E0000020FC100020DE
:1063F000014B18687047C046FC10002070B50400BF
:10640000FFF7F6FF0500631C02D0044B1B78E4186D
:10641000FFF7EEFF401BA042FAD370BDE000002062
:1064200030B583B0040000230193002800D106E1B9
:10643000836D002B13D023689A68D2001CD499680E
:10644000804A1140802252050A439A607E4B1868A8
:106450007E49FBF759FE01304000019009E0FEF74C
:1064600011FE0023E3655422A354E4E7019B013BA2
:106470000193019B002BF9D123689A68D20000D5C3
:106480009DE0A26D10210A43A265E26D0F390A4317
:10649000E26501209A6804210D001540114200D0E8
:1064A0000125A26DD20600D5C2E0002D00D0BFE0CC
:1064B000A26D67490A400631FF310A43A2659A6816
:1064C000D20752D4A268217E89030A43617EC903A0
:1064D0000A43A57E69030A43216B002901D080216C
:1064E00049010A43E1680A432169002969DB8021E7
:1064F00089030A432C21615C49000A432021615C25
:10650000012961D0616A002905D0E0256D0029408C
:10651000A56A29430A43D9684E4D29400A43DA60E7
:1065200063689B0F9B07E26C1A433C21615C012965
:1065300059D021680B69484D2B4013430B616368A8
:10654000C0221206934210D08022D20593420CD072
:1065500080221206934208D040490A68404D2A40E2
:10656000F025AD032B4013430B602168636B4A6930
:106570000725AA4313434B612168A26B4B69693518
:10658000AB43120113434B612369002B35D12268C1
:10659000916A103B0B43936223685A6907231340A7
:1065A000626B9A423BD0A36D12229343023A13438B
:1065B000A365E36D0F3A1343E36501203DE000203E
:1065C00068E74900490894E7002D03D1802149027A
:1065D0000A4397E7A16D20252943A165E16D1F3D81
:1065E0002943E1658EE7216C0B43616C0B43A16C81
:1065F0000B43134301221A439BE7802292039342E9
:10660000CAD121688B6AE369013B9B001C221A40B6
:1066100010235B429340226E13438B62BCE700233E
:10662000E365A36D03229343023A1343A36504E099
:10663000A36D10221343A365012003B030BD0120D8
:10664000FBE7C046E8FFFF6FDC000020400D0300C1
:10665000FDFEFFFF0102DEFF02FCFF1F08270140D5
:10666000FFFFC3FF704710B5806AFFF7FBFF10BD47
:10667000704710B5806A836D402213438365C36DF4
:106680003C3A1343C365FFF7F3FF10BD10B5030099
:10669000806A826D502111422AD1826D80239B0035
:1066A000134383650368D968C0221201114213D1D4
:1066B000827E002A10D11A6812070DD59A685207F7
:1066C0000DD45A680C218A435A60836D0E4A1340D8
:1066D0000432FF3213438365FEF758F910BD836D12
:1066E000202213438365C36D1F3A1343C365F3E749
:1066F000826DD20604D4026D526B18009047EDE70C
:10670000FFF7B6FFEAE7C046FEFEFFFFF0B583B035
:1067100004000023019305695433C35C012B00D1AD
:106720002FE154230122C25400688368033216000B
:106730001E401A4209D0A36D1C321343A3650120E9
:1067400054230022E25403B0F0BD4B68022B00D169
:10675000D5E080221206954225D08B4A954222D060
:10676000226E1F271F400F25BD40AA430B685D0303
:106770002FD19B0E1F261E40BE40324322664D681D
:10678000AB080133E269934213D80E68826A1F2373
:106790001D40103B1F00AF40BA43B60E3340AB4024
:1067A0001343836205E00B68826A5B035B0B134350
:1067B000836220680B688D6842691B029A432B40F4
:1067C000724D2B40134343610B68002B4FDB0020BD
:1067D000B6E7DD07D0D49D0727D45D0727D41D0772
:1067E00027D4DD0627D49D0627D45D0627D41D06B1
:1067F00027D4DD0527D49D0527D45D0527D41D05A5
:1068000027D4DD0427D49D0427D45D0427D41D0498
:1068100027D4DD0327D49D0327D48025ED021E0055
:106820002E402B42A8D01226A6E70126A4E7022676
:10683000A2E70326A0E704269EE705269CE7062696
:106840009AE7072698E7082696E7092694E70A2696
:1068500092E70B2690E70C268EE70D268CE70E2696
:106860008AE70F2688E7102686E7112684E7484A3C
:106870001168E02252040A404648834207D0464845
:10688000834222D0454883422CD0002058E708029A
:10689000F5D480231B0413433D490A684048024055
:1068A00013430B603F4B18683F49FBF72DFC013049
:1068B00043001B189B00019302E0019B013B0193E5
:1068C000019B002BF9D100203AE7C801DAD48023DC
:1068D0005B0413432E490A683148024013430B609E
:1068E00000202DE749024AD48023DB0313432849C3
:1068F0000A682B48024013430B60002020E78023E6
:106900001B069D4202D0204B9D4205D10B68826A36
:106910005B035B0B9A4382620B68002B01DB002058
:106920000EE71B4A12681B498B4207D01A498B425B
:106930000FD01A498B4217D0002001E7A0235B0437
:106940001A4013490B68164803401A430A60002096
:10695000F6E6C0231B041A400D490B68104803409B
:106960001A430A600020EBE6C0235B041A40084982
:106970000B680B4803401A430A600020E0E6002041
:10698000DEE60220DFE6C0460400008000FFFF07CD
:1069900008270140001000B0004000B8002000B4FB
:1069A000FFFF3FFEDC000020400D030070B5040037
:1069B000026893685B0724D593689B0705D49368A6
:1069C00011490B4010210B439360FFF711FD0500A7
:1069D00023689B685B0712D5FFF70AFD401B02285E
:1069E000F6D923689B685B07F2D5A36D1022134389
:1069F000A365E36D0F3A1343E365012002E0002035
:106A000000E0002070BDC046E8FFFF7F30B583B0D6
:106A100004000023019303689A68D2074FD4996851
:106A2000284A114211D19A6827490A4001210A4394
:106A30009A60264B1B681B0217D5254B1868254901
:106A4000FBF762FB013001900CE0836D10221343D1
:106A50008365C36D0F3A1343C365012030E0019B8A
:106A6000013B0193019B002BF9D1637E012B01D1E6
:106A7000002025E0FFF7BCFC050023681A68D20758
:106A80001BD49A68D20705D49A680F490A4001219D
:106A90000A439A60FFF7ACFC401B0228EDD923683B
:106AA0001B68DB07E9D4A36D10221343A365E36DD4
:106AB0000F3A1343E365012002E0002000E00020CC
:106AC00003B030BD17000080E8FFFF7F08270140BA
:106AD000DC000020400D030070B504000D0016001E
:106AE000026893685B0747D45423C35C012B45D0ED
:106AF000012354214354D1680B420DD19368DB0725
:106B000005D593681E490B4002210B439360226810
:106B1000D36801210B43D3602000FFF777FF0028E3
:106B20002BD1A26D174B1A4080235B001343A36542
:106B30000023E365226D1449D162226D134911636C
:106B4000226D1349516322681C2111605422A35401
:106B5000226853680C390B43536021684031206D23
:106B600033002A0000F0CEFA2268936804490B40F3
:106B700004210B43936000E0022070BD0220FCE77B
:106B8000E8FFFF7FFEF0FFFF8D66000867660008E4
:106B90007366000870B5040003689A680221080053
:106BA0001040114200D001209A68D20735D5002844
:106BB00035D1996805220A40012A09D0A36D102217
:106BC0001343A365E36D0F3A1343E365012025E00A
:106BD0009A6814490A4002210A439A6023680322F2
:106BE0001A60FFF705FC050023689B68DB0712D5D8
:106BF000FFF7FEFB401B0228F6D923689B68DB07E2
:106C0000F2D5A36D10221343A365E36D0F3A13432E
:106C1000E365012002E0002000E0002070BD0020BC
:106C2000FCE7C046E8FFFF7F70B5041E4BD0836DC4
:106C3000022213438365FFF7B9FE051E36D0226892
:106C4000536822490B4053602368214A1A60226826
:106C5000D36820490B40D3602268536907218B43D6
:106C6000536123689A6A00269E6221680B6A1A4A59
:106C700013400B6221684B6A13404B622168CB6A58
:106C80001340CB62226813699B009B081361134A6F
:106C9000136813490B4013602000FEF785FA26663F
:106CA000E665A6655423E654280070BD2000FFF772
:106CB00071FF051E01D10123A3652268936809496C
:106CC0000B409360BBE70125EEE7C04660FCFFFF89
:106CD0009F03000000021E8300F000F0082701401F
:106CE000FFFF03FEE8FFFF6FF0B583B00400002351
:106CF00001935433C35C012B00D1A2E0012654233D
:106D0000C654FFF747FF050023689A683100114019
:106D1000164209D0A36D10221343A3655423002209
:106D2000E254280003B0F0BDA26D4748024006308F
:106D3000FF300243A265DE68444A1640DA684448E0
:106D40000240DA60080005E0B4229A587F2313401D
:106D5000C018013107291CD82768BA683D4B1A4072
:106D600018331343BB6023689A68002AECDA019B4E
:106D700001330193019A384B9A42F4D9A36D122240
:106D80009343023A1343A36554230022E25401259E
:106D9000C7E7FBF7B9F9226893682E490B40012138
:106DA0000B439360226811698023DB05994217D257
:106DB0002A4B1B68F02189030B40E02149038B42D9
:106DC0000ED39B0C033B012199400091009B5B0873
:106DD000009302E0009B013B0093009B002BF9D144
:106DE000B42153587F27BB431843505022689368FF
:106DF00018490B4002210B439360FFF7F9FA070093
:106E000023689A68D20709D4DA683243DA60A36D3E
:106E100003229343023A1343A3657FE7FFF7E8FA9F
:106E2000C01B0228ECD923689B68DB07E8D5A36D5B
:106E300010221343A365E36D0F3A1343E365012565
:106E40006FE702256DE7C046FDFEFFFF03800000EF
:106E5000FC7FFFFFE8FFFF7FFFF1020008270140F2
:106E600070B5002811DB8308134DC0339B005C59BB
:106E700003221040C000FC3216008640B443890152
:106E80000A40824022435A5170BD0F230340083B01
:106E90009B0806339B00094A944663445C680322BE
:106EA0001040C000FC3215008540AC4389010A4007
:106EB000824022435A60E7E700E100E000ED00E095
:106EC000013880235B0498420FD2094A5060094878
:106ED000036A1B021B0AC02109060B43036200233D
:106EE000936007331360002070470120FCE7C04621
:106EF00010E000E000ED00E010B5FFF7B1FF10BDBD
:106F0000002805DB1F22024001239340014A136041
:106F10007047C04600E100E010B5FFF7D1FF10BD9B
:106F2000F0B5846CC56C6560046D002C02D0446DB6
:106F3000856D65600B4F7C68056C1C262E40012515
:106F4000B5402C437C60046863608368102B04D0D8
:106F5000036899600368DA60F0BD03689A600368AB
:106F6000D960F9E70000024010B50400036C9B08EB
:106F7000094A944663449B0043640368FF20184019
:106F800008381421FBF7C0F8044BA3641F231840F2
:106F90001E3B8340E36410BD008200108008024065
:106FA00042683F231340064A9A1892000265054A38
:106FB0004265013B03221A400123934083657047D9
:106FC0003F8200104009024070B5041E4DD0056894
:106FD000274BE8181421FBF797F88000206425233D
:106FE0000222E2542B68234A13402B6021680A686E
:106FF000A368E06803432069034360690343A06911
:107000000343E0690343206A034313430B602000FA
:10701000FFF7AAFFA2688023DB019A4218D06168BB
:10702000626C3F230B401360A36CE26C5A60636890
:10703000013B032B0FD9002323656365A365002360
:10704000E36325220121A154013AA354002070BD1D
:1070500000236360E3E72000FFF7A2FF236D002217
:107060001A60636DA26D5A60E9E70120EFE7C04640
:10707000F8FFFDBF0F80FFFFF8B5041E3BD002688C
:1070800013680125AB43136007681C4BF8181421E3
:10709000FBF73AF88000206400263E6018494B68F0
:1070A000206C1C22024095402B434B602000FFF7D0
:1070B0005BFF636C1E60A36CE26C5A606368013B0B
:1070C000032B0ED9002323656365A365E362236365
:1070D0006363A363E3632522A354013AA35400200E
:1070E000F8BD2000FFF75CFF236D00221A60636D7E
:1070F000A26D5A60E6E70120F2E7C046F8FFFDBF47
:107100000000024070B504002420205C012845D016
:107110002420012525540130205C012806D080233D
:10712000E3635C3B0022E254012070BD2430013552
:1071300025540020E063256828680126B0432860B4
:107140002000FFF7EDFE236B002B1CD02268136894
:107150000E210B431360626C1368DB0304D51168C6
:1071600080235B000B431360236D002B04D0196850
:10717000802252000A431A602268136801210B43DF
:1071800013600020D1E72268136804218B43136049
:107190002268136806310B431360DCE70220C4E762
:1071A00070B5314B196804682568026C1C231340C4
:1071B00004229A40114216D06A0714D523689B0610
:1071C00003D42368042293432360274C6368026C32
:1071D0001C21114004228A4013436360036B002B7F
:1071E00000D0984770BD02229A4011421CD0AA07D5
:1071F0001AD523689B0606D423680A22934323608A
:107200002523093AC254184C6368026C1C211140B2
:1072100002228A401343636024230022C254C36ABB
:10722000002BDFD09847DDE708229A401142D9D0E1
:107230002D07D7D523680E22934323600A4C62683A
:10724000036C1C21194001231D008D402A436260FC
:10725000C3632522835423330022C254436B002B83
:10726000C0D09847BEE7C0460000024030B5054C8C
:1072700061690125294361610260BFF36F8F43603B
:1072800030BDC046002002407047704710B52A4B01
:107290001B692A4A13402A4A9268510721D5284A75
:1072A0001469002B2AD1244B1B69DB070CD5224B18
:1072B00001221A61224B9B68022B2CD0204B00220A
:1072C0009A602000FFF7E0FF1D4B9B68002B07D161
:1072D000194A53691B490B405361194B00221A701C
:1072E00010BD154841699143416117490A4202D0D6
:1072F000134AD468D5E7124A5469D2E7104A516854
:107300000B4353600C4B0D4919610023936020001F
:10731000FFF7BBFFC7E70A4A9369013B9361002B64
:1073200003D1074B00229A60CBE7516901315161CB
:10733000106900F0A9F8C4E700200240FAC3000079
:1073400000110020FFFFFFFC01000400084B5B69F7
:10735000002B01DB00207047054B064A9A60064A65
:107360009A605B69002B01DB0020F4E70120F2E763
:107370000020024023016745AB89EFCD70B50400C2
:10738000FFF736F80500144B1B69DB0308D5631CB7
:10739000F9D0FFF72DF8401BA042F4D303201AE0E8
:1073A0000D490A690D4B16001E400D4808611A422E
:1073B0000CD1094B1B695B030CD5631CF9D0FFF79B
:1073C00017F8401BA042F4D3032004E0054B5E6095
:1073D000012000E0002070BD00200240FAC3000040
:1073E000FBC3000000110020F8B507000C001500D9
:1073F0001E00144B1B78012B22D0124B01221A7055
:1074000000225A60FA208000FFF7B8FF00280DD153
:10741000012F0FD02900200002F09AF8FA208000F6
:10742000FFF7ACFF084A5369BB435361054B002289
:107430001A70F8BD2A0033002000FFF717FFEDE7B0
:107440000220F6E7001100200020024010B5FA20CB
:107450008000FFF793FF064B5969802212060A430A
:107460005A615B69002B01DB012010BD0020FCE7A5
:1074700000200240034A536903438020400218431E
:107480005061704700200240044A53690448034099
:10749000C9001943034B0B4353617047002002405E
:1074A00007E0FFFF0200010070B504000E001E4B54
:1074B0001B78012B36D01C4B01221A7000225A6017
:1074C000FA208000FFF75AFF002827D104236360C9
:1074D0002368042B14D001235B423360A568A368A2
:1074E000E2689B18AB4214D960682900FFF7CCFF13
:1074F000FA208000FFF742FF002809D10135EEE7AE
:107500000430FFF7B7FFFA208000FFF737FF05E0F0
:107510003560064A536902218B435361024B0022B6
:107520001A7070BD0220FCE700110020002002400C
:10753000F0B5002359E086685F000324BC40A643F1
:10754000CC68BC4034438460446894434E68360938
:10755000012232409A402243426056E0DE0808365B
:10756000B600375805321A4092000F249440A743C2
:107570000C69944022003A43325059E0032600E05F
:107580000026A64034003C43424E183292009451EB
:107590003768EA433E00AE434C68E40201D53E0042
:1075A0002E433C4C266067683E0016404C68A4029F
:1075B00001D53E002E43374C66608426A7593E0015
:1075C00016404C68A40301D53E002E43314C84275D
:1075D000E6518026A65932404C68E40301D52A00C2
:1075E00032432C4D80242A5101330C682200DA40AA
:1075F0004ED001229A40250015401442F4D04E6826
:1076000003243440013C012C95D94C6803222240CC
:10761000032A08D0C4685E000322B24094438A68FB
:10762000B2402243C2604C6803222240022A95D015
:1076300004685E0003221700B740BC434F683A401D
:10764000B240224302604C68C02292021442CBD066
:107650009A0814001834A4000E4EA75903241C40A5
:10766000E4000F26A640B743A026F605B04287D017
:10767000094EB04208D0094EB04207D0084EB04281
:1076800000D17BE705267CE701267AE7022678E72A
:10769000F0BDC04600180240000400500008005031
:1076A000000C0050F0B5CE46474680B58946002311
:1076B00023E00321884601E0002188464146A1409D
:1076C000A94247D004685E000325B5402C430460FE
:1076D000DC080834A400275807261E40B6000F21F6
:1076E000B1408F4327508468AC438460446894431E
:1076F0004460C268AA43C26001334A46DA4045D0BA
:1077000001229A404C461440A44649461142F3D007
:107710009F083C001834A4001E4D655903261E40E6
:10772000F4000F26A6403540A021C9058842C3D0E9
:107730001949884208D01949884208D01849884216
:10774000B7D005218846B9E701218846B6E702216E
:107750008846B3E70F4D802188466C5861468C43BC
:1077600041466C50043188466C5861468C43414612
:107770006C506C6861468C436C602C688C432C6048
:107780001837BC006759B74367519BE7C0BCB9467F
:10779000B046F0BD00180240000400500008005040
:1077A000000C005003690B4201D0012070470020FB
:1077B000FCE7000010B50400094BDB68184204D157
:1077C000074B1B69234205D110BD054BD860FCF760
:1077D000EFFFF5E7024B1C612000FDF71BF8F3E714
:1077E00000180240026893699B0701D50023936249
:1077F00003689A69D20703D49A6901210A439A61FE
:107800007047000010B58905890D12041143194312
:10781000029B194349004908046862685B0D802097
:10782000C0000340034803439A4313000B436360C3
:1078300010BDC046FF63FF03F0B5C64600B50400A7
:107840000D00170001688B69102216001E401A42B5
:1078500000D175E01023CB610023984600262068F4
:1078600083699B0631D4002E2FD16B1CF7D0FEF715
:10787000BFFDC01BA84201D8002DF0D121684B6884
:107880008022D20113404222A25CD2B28869000455
:1078900003D5002B01D1202A0ED123689B699B06BA
:1078A000DDD4FEF7A5FDC01B1928F6D920234246DA
:1078B0001A4390460126D2E74A688023DB0113432E
:1078C0004B60FEF795FD0700E7E7002E01D120236E
:1078D000C3610426434633431E0001252268936991
:1078E000D90504D501210E43FF31D16101255A0587
:1078F00006D50822164322688021C900D1610125DE
:107900009B051FD502231E43236880229200DA6163
:1079100001252000FFF766FF226853680B490B40E2
:107920005360636C3343636441232022E254002399
:107930002232A354023AA354280080BCB846F0BDBA
:107940000025CBE7002DF7D0E3E7C04600E800FEB6
:1079500070B504000D00160023689B699B0720D4B6
:10796000320029002000FFF767FF00281BD16B1CA5
:10797000F2D0FEF73DFD801BA84201D8002DEBD1CF
:1079800023689B699B07E7D4636C202213436364DD
:107990004123E25400232232A354023AA35401208B
:1079A00000E0002070BD0120FCE7F0B5D6464F4650
:1079B00080B583B007000D00160099460A9B9A46D1
:1079C0003B689C692C40641B63425C410196B44255
:1079D00028D1524649463800FFF72EFF002827D10C
:1079E0004B460133ECD0FEF703FD5346C01A484521
:1079F00002D84B46002BE3D13B689B692B405B1BB5
:107A00005A425341019A9342DAD17B6C20221343AC
:107A10007B644123FA5400232232BB54023ABB5404
:107A2000012000E0002003B0C0BCBA46B146F0BD62
:107A30000120F8E770B582B0040015001E00802315
:107A4000F2B2194800905B042000FFF7DBFE079AB2
:107A500006992000FFF77CFF00281ED1012E0ED1D1
:107A60002368EDB29D62079B0093069B0022802154
:107A70002000FFF79AFF002813D102B070BD2368E1
:107A80002A0A9A62079A06992000FFF761FF0028E8
:107A900005D12368EDB29D62E5E70120EDE7012005
:107AA000EBE70120E9E7C0460020008070B582B016
:107AB000040015001E00DAB2184B00930023FFF7F4
:107AC000A1FE079A06992000FFF742FF00281ED169
:107AD000012E0ED12368EDB29D62079B0093069B99
